:100000000C9462000C948A000C948A000C948A0070
:100010000C948A000C948A000C948A000C948A0038
:100020000C948A000C948A000C948A000C948A0028
:100030000C948A000C948A000C948A000C948A0018
:100040000C94CC040C948A000C949A040C947404C0
:100050000C948A000C948A000C948A000C948A00F8
:100060000C948A000C948A000000000024002700F1
:100070002A0000000000250028002B0000000000DE
:1000800023002600290004040404040404040202DA
:100090000202020203030303030301020408102007
:1000A0004080010204081020010204081020000012
:1000B0000008000201000003040700000000000027
:1000C0000000160511241FBECFEFD8E0DEBFCDBF64
:1000D00022E0A6EEB1E001C01D92A23EB207E1F718
:1000E00011E0A0E0B1E0EAECF5E102C005900D926C
:1000F000A63EB107D9F710E0C2E6D0E004C02197D0
:10010000FE010E943708C136D107C9F70E94660573
:100110000C94E30A0C940000E7EFF1E0A089B189A8
:1001200082E08C93A485B5851C92A685B7858FEC5B
:100130008C93108EA489B58986E08C93A289B389AB
:100140008C9180618C93A289B3898C9188608C9307
:10015000A289B3898C9180688C930288F389E02D01
:1001600080818F7D80830895CF92DF92EF92FF92FE
:100170000F931F93CF93DF936C017A018B01C0E043
:10018000D0E0CE15DF0589F0D8016D918D01D60143
:10019000ED91FC910190F081E02DC6010995892B2C
:1001A00011F47E0102C02196ECCFC701DF91CF91FF
:1001B0001F910F91FF90EF90DF90CF9008950895D9
:1001C00080E090E00895FC01538D448D252F30E0B0
:1001D000842F90E0821B930B541710F0CF96089554
:1001E00001970895FC01918D828D981761F0828DA1
:1001F000DF01A80FB11D5D968C91928D9F5F9F735B
:10020000928F90E008958FEF9FEF0895FC01918DFC
:10021000828D981731F0828DE80FF11D858D90E069
:1002200008958FEF9FEF0895FC01918D228D892F06
:1002300090E0805C9F4F821B91098F7399270895EE
:1002400087EF91E00E94140121E0892B09F420E05E
:10025000822F0895FC01848DDF01A80FB11DA35AE0
:10026000BF4F2C91848D90E001968F739927848FD6
:10027000A689B7892C93A089B1898C9180648C93CD
:10028000938D848D981306C00288F389E02D8081B8
:100290008F7D80830895EF92FF920F931F93CF93EA
:1002A000DF93EC0181E0888F9B8D8C8D981305C0C6
:1002B000E889F989808185FD24C0F62E0B8D10E038
:1002C0000F5F1F4F0F731127E02E8C8DE8120CC0AB
:1002D0000FB607FCFACFE889F989808185FFF5CF51
:1002E000CE010E942A01F1CF8B8DFE01E80FF11D96
:1002F000E35AFF4FF0820B8FEA89FB89808180628D
:1003000007C0EE89FF896083E889F989808180646C
:10031000808381E090E0DF91CF911F910F91FF905A
:10032000EF900895CF93DF93EC01888D8823C9F077
:10033000EA89FB89808185FD05C0A889B9898C91EE
:1003400086FD0FC00FB607FCF5CF808185FFF2CF89
:10035000A889B9898C9185FFEDCFCE010E942A0131
:10036000E7CFDF91CF91089580E090E0892B29F0CD
:100370000E94200181110C9400000895833081F0C7
:1003800028F4813099F08230A1F008958730A9F0E7
:100390008830B9F08430D1F4809180008F7D03C023
:1003A000809180008F7780938000089584B58F7747
:1003B00002C084B58F7D84BD08958091B0008F7791
:1003C00003C08091B0008F7D8093B00008951F938B
:1003D000CF93DF93282F30E0F901E255FF4F84914E
:1003E000F901E656FF4FD491F901EA57FF4FC49146
:1003F000CC23C9F0162F81110E94BE01EC2FF0E032
:10040000EE0FFF1FEE58FF4FA591B4918FB7F894F0
:10041000111105C09C91ED2FE095E92302C0EC91EC
:10042000ED2BEC938FBFDF91CF911F910895CF9368
:10043000DF93CCEDD2E060E08C810E94E70160E0C8
:100440008D810E94E70161E08C810E94E70161E0FB
:100450008D81DF91CF910C94E701CF93DF93CCEDA9
:10046000D2E061E08C810E94E70161E08D810E9411
:10047000E70160E08D810E94E70160E08C81DF91FF
:10048000CF910C94E701CF93DF9390E0FC01E65607
:10049000FF4F2491FC01EA57FF4F8491882361F1BB
:1004A00090E0880F991FFC01E859FF4FC591D49146
:1004B000FC01EE58FF4FA591B491611109C09FB79F
:1004C000F8948881209582238883EC912E230BC099
:1004D000623061F49FB7F8943881822F809583232E
:1004E0008883EC912E2B2C939FBF06C08FB7F89476
:1004F000E8812E2B28838FBFDF91CF9108951F9322
:10050000CF93DF93D82FC8E060E08091E0020E9493
:10051000E701D0FF02C061E001C060E08091E1022C
:100520000E94E701D59561E08091E0020E94E70119
:10053000C15051F760E08091E0020E94E70161E064
:100540008091E1020E94E70161E08091E0020E9457
:10055000E70160E08091E1020E9443022091E10204
:1005600030E0F901E255FF4F8491F901E656FF4F63
:10057000D491F901EA57FF4FC491CC23E9F08111DE
:100580000E94BE01EC2FF0E0EE0FFF1FE458FF4F7A
:10059000A591B491EC91ED2379F01F5F183CC9F659
:1005A00061E08091E1020E94430260E08091E102FB
:1005B0000E94E70110E0CDCF61E08091E102DF9180
:1005C000CF911F910C944302CF93DF93D82F80914A
:1005D000DF02811102C0C0E001C0C0E86F3739F00E
:1005E000E62F660FFF0BE058FE4F9081C90F0E9467
:1005F0002D0284E40E947F020E9417020E942D02B5
:100600008D2F806C0E947F028C2F0E947F020E949F
:1006100017020E942D028091DE020E947F02DF916C
:10062000CF910C9417023FB7F8948091EB01909111
:10063000EC01A091ED01B091EE0126B5A89B05C09B
:100640002F3F19F00196A11DB11D3FBFBA2FA92F51
:10065000982F8827820F911DA11DB11DBC01CD01CE
:1006600042E0660F771F881F991F4A95D1F70895BA
:100670002FB7F8946091E7017091E8018091E9014A
:100680009091EA012FBF08958F929F92AF92BF92EF
:10069000CF92DF92EF92FF926B017C010E943803B0
:1006A0004B015C01C60ED71EE81EF91E0E943803DE
:1006B000681579058A059B0528F0C616D706E80651
:1006C000F906A0F7FF90EF90DF90CF90BF90AF902A
:1006D0009F908F900895CF92DF92EF92FF920F93A9
:1006E0001F93CF93DF93CDB7DEB7C858D1090FB6AC
:1006F000F894DEBF0FBECDBF28E030E0CF57DF4F0C
:1007000039832883C158D04029E030E0CD57DF4FEE
:1007100039832883C358D0402AE030E0CB57DF4FDD
:1007200039832883C558D0402BE030E0C957DF4FCC
:1007300039832883C758D04020E8E0E0F1E0DE01AB
:10074000119601900D922A95E1F78E010F571F4FD8
:100750006C0183E0CC0CDD1C8A95E1F7E12CF12CD7
:10076000F80180810E5F1F4FF701EC0DFD1D21E0A8
:1007700030E02C0F3D1FE20FF31F60810E94E70164
:1007800032E0E30EF11C88E0E816F10449F780E45A
:1007900080937C0080917A00806480937A008091BD
:1007A0007A0086FDFCCF809178002091790090E05E
:1007B000922BC857DF4F0FB6F894DEBF0FBECDBFE8
:1007C000DF91CF911F910F91FF90EF90DF90CF902D
:1007D00008950E943D086115710579F0FB010190B3
:1007E0000020E9F73197AF01461B570BDC01ED9173
:1007F000FC910280F381E02D099480E090E008955F
:100800004F925F926F927F92EF92FF920F931F939E
:10081000CF93DF93CDB7DEB7A1970FB6F894DEBFC5
:100820000FBECDBF7C01FA01CB0119A2223008F422
:100830002AE08E010F5D1F4F422E512C612C712C2E
:10084000BF01A30192010E94DE07F901CA01015014
:1008500011096A3014F4605D01C0695CD8016C93C1
:10086000232B242B252B61F7B801C7010E94EB0332
:10087000A1960FB6F894DEBF0FBECDBFDF91CF912A
:100880001F910F91FF90EF907F906F905F904F902E
:100890000895CF92DF92EF92FF92CF93DF936B0197
:1008A0007C01E091F701F091F8010190F081E02DD9
:1008B0006DE287EF91E00995EC0144275527BA01D5
:1008C0004C195D096E097F092AE087EF91E00E94CB
:1008D00000048C0F9D1FDF91CF91FF90EF90DF9070
:1008E000CF9008950C94EB031F920F920FB60F92C6
:1008F00011242F933F934F935F936F937F938F9325
:100900009F93AF93BF93EF93FF9387EF91E00E9484
:100910002A01FF91EF91BF91AF919F918F917F91AC
:100920006F915F914F913F912F910F900FBE0F905C
:100930001F9018951F920F920FB60F9211242F93AC
:100940008F939F93EF93FF93E0910702F09108023A
:100950008081E0910D02F0910E0282FD12C0908123
:10096000809110028F5F8F7320911102821751F0D6
:10097000E0911002F0E0E950FE4F958F8093100255
:1009800001C08081FF91EF919F918F912F910F90E6
:100990000FBE0F901F9018951F920F920FB60F92D7
:1009A00011242F933F938F939F93AF93BF93809185
:1009B000E7019091E801A091E901B091EA0130913D
:1009C000E60123E0230F2D3720F40196A11DB11D70
:1009D00005C026E8230F0296A11DB11D2093E60154
:1009E0008093E7019093E801A093E901B093EA01B5
:1009F0008091EB019091EC01A091ED01B091EE019D
:100A00000196A11DB11D8093EB019093EC01A09381
:100A1000ED01B093EE01BF91AF919F918F913F9106
:100A20002F910F900FBE0F901F901895CF93DF93CB
:100A3000E7EFF1E01382128288EE93E0A0E0B0E0ED
:100A400084839583A683B78384E991E0918380832F
:100A500085EC90E09587848784EC90E09787868783
:100A600080EC90E0918B808B81EC90E0938B828B7B
:100A700082EC90E0958B848B86EC90E0978B868B54
:100A8000118E128E138E148EE4E9F2E01682178214
:100A9000108611861286138614861586168617868A
:100AA000108A118A128A138A148A158ACCEDD2E030
:100AB00082E08C8383E08D8361E082E00E944302C8
:100AC00061E08D81DF91CF910C944302CF93DF934E
:100AD00000D000D0CDB7DEB7789484B5826084BDF5
:100AE00084B5816084BD85B5826085BD85B5816032
:100AF00085BD80916E00816080936E0010928100B0
:100B0000809181008260809381008091810081606A
:100B1000809381008091800081608093800080912B
:100B2000B10084608093B1008091B00081608093B7
:100B3000B00080917A00846080937A0080917A007E
:100B4000826080937A0080917A00816080937A003D
:100B500080917A00806880937A001092C100109290
:100B6000D8021092D9021092DA021092DB0210928F
:100B7000960210929702109298021092990268EBD6
:100B80007BE080E090E00E94440387EF91E0909347
:100B9000D7028093D6020E948C000E943803609393
:100BA000960270939702809398029093990262EA5A
:100BB00071E08091D6029091D7020E9472046AE09F
:100BC00070E080E090E00E94440381E08093AA02FC
:100BD0006FE780E00E94E4026FE781E00E94E40298
:100BE0006FE782E00E94E4026FE783E00E94E40284
:100BF00080E48093DC0280EC8093DD028AE88093BD
:100C0000DE0261E08DE00E94430261E088E00E9424
:100C1000430261E089E00E94430261E08AE00E94B1
:100C2000430261E08BE00E94430260E088E00E94A2
:100C3000E70160E089E00E94E70160E08AE00E944D
:100C4000E70160E08BE00E94E7010E948C0094EFD6
:100C5000292E33243394412C512CCE0101963C0192
:100C60000E943803672B682B692B41F40E943803DC
:100C7000623071058105910508F40AC10E943803AC
:100C80006093F3017093F4018093F5019093F60162
:100C90000091EF011091F0012091F1013091F201EA
:100CA000601771078207930740F46093EF01709318
:100CB000F0018093F1019093F2010091EF01109106
:100CC000F0012091F1013091F2016B017C01C01A19
:100CD000D10AE20AF30A970186010A3F11052105AC
:100CE000310508F4D5C06093EF017093F001809353
:100CF000F1019093F2012092A2023092A30240925D
:100D0000A4025092A5021092A6021092A70210927D
:100D1000A8021092A90280919A0290919B02A09140
:100D20009C02B0919D0280939E0290939F02A0939B
:100D3000A002B093A1020E94380360939A027093BC
:100D40009B0280939C0290939D020E9438036093C3
:100D500096027093970280939802909399020E9452
:100D600038036B017C0164EB71E08091D6029091B5
:100D7000D7020E9472042AE041E050E060E070E097
:100D80008091D6029091D7020E9400046BEB71E033
:100D90008091D6029091D7020E9472042AE0B70196
:100DA000A6018091D6029091D7020E9400046DEBBB
:100DB00071E08091D6029091D7020E9472048091D6
:100DC0009A0290919B02A0919C02B0919D02B70162
:100DD000A601481B590B6A0B7B0B2AE08091D602B7
:100DE0009091D7020E9400046DEB71E08091D602D1
:100DF0009091D7020E94720440919A0250919B02F6
:100E000060919C0270919D0280919E0290919F0240
:100E1000A091A002B091A102481B590B6A0B7B0B59
:100E20002AE08091D6029091D7020E9400046FEBD5
:100E300071E08091D6029091D7020E9472040E94C4
:100E40003803AB01BC012AE08091D6029091D70211
:100E50000E9400040091D6021091D70261EC71E06B
:100E6000C8010E94EB0361EB71E0C8010E94EB0333
:100E700065E070E080E090E00E9444030E94380347
:100E800060939A0270939B0280939C0290939D02C0
:100E900068EC71E087EF91E00E9472042AE040E084
:100EA00050E0BA0187EF91E00E9400046AED71E022
:100EB00087EF91E00E94720480E090E00E946B0353
:100EC0009F938F93A0EEB1E0BF93AF937F926F9209
:100ED0000E944208A9800A2C000CBB0820E3A21A39
:100EE000B108CA800C2C000CDD0880E3C81AD108B8
:100EF000EB800E2C000CFF0890E3E91AF1080C813E
:100F0000002E000C110B0053110980E090E00E94AC
:100F10006B03AC01990F660B770B0F900F900F903E
:100F20000F900F900F9077FF05C0CB01BA010E9480
:100F3000490405C02AE087EF91E00E94000461EBBC
:100F400071E087EF91E00E94EB036A2D80E00E9440
:100F5000E4026C2D81E00E94E4026E2D82E00E948A
:100F6000E402602F83E00E94E4020E9413034B011D
:100F70005C018AE0C82ED12CE12CF12C0E941303D5
:100F8000DC01CB0188199909AA09BB09883E934065
:100F9000A105B10558F0A1E0CA1AD108E108F1088D
:100FA000B8EE8B0EB3E09B1EA11CB11CC114D10482
:100FB000E104F10419F70E94B40152CEA1E21A2E05
:100FC000AA1BBB1BFD010DC0AA1FBB1FEE1FFF1FED
:100FD000A217B307E407F50720F0A21BB30BE40B3D
:100FE000F50B661F771F881F991F1A9469F7609584
:100FF0007095809590959B01AC01BD01CF0108953E
:101000002F923F924F925F926F927F928F929F9218
:10101000AF92BF92CF92DF92EF92FF920F931F9306
:10102000CF93DF93CDB7DEB7CA1BDB0B0FB6F894B7
:10103000DEBF0FBECDBF09942A88398848885F84F7
:101040006E847D848C849B84AA84B984C884DF8068
:10105000EE80FD800C811B81AA81B981CE0FD11D4C
:101060000FB6F894DEBF0FBECDBFED010895EE0FB1
:10107000FF1F0590F491E02D099481E090E0F89431
:101080000C94E30AAEE0B0E0E8E4F8E00C940E085B
:101090000D891E8986E08C831A8309838FEF9FE771
:1010A0009E838D83AE01475E5F4F6F89788DCE0141
:1010B00001960E9465082F813885F801E20FF31F21
:1010C00010822E96E4E00C942A08ACE0B0E0EBE647
:1010D000F8E00C9400087C016B018A01FC01178286
:1010E0001682838181FFBDC1CE0101964C01F701BB
:1010F0009381F60193FD859193FF81916F01882380
:1011000009F4ABC1853239F493FD859193FF819148
:101110006F01853229F4B70190E00E944D0AE7CFB4
:10112000512C312C20E02032A0F48B3269F030F4C5
:10113000803259F0833269F420612CC08D3239F04D
:10114000803339F4216026C02260246023C02860E7
:1011500021C027FD27C030ED380F3A3078F426FF44
:1011600006C0FAE05F9E300D1124532E13C08AE0B2
:10117000389E300D1124332E20620CC08E3221F4A3
:1011800026FD6BC1206406C08C3611F4206802C0B5
:10119000883641F4F60193FD859193FF81916F01AB
:1011A0008111C1CF982F9F7D9554933028F40C5F07
:1011B0001F4FFFE3F9830DC0833631F0833771F0A1
:1011C000833509F05BC022C0F801808189830E5FFE
:1011D0001F4F44244394512C540115C03801F2E0B0
:1011E0006F0E711CF801A080B18026FF03C0652D31
:1011F00070E002C06FEF7FEFC5012C870E94420AAA
:101200002C0183012C852F77222E17C03801F2E0A4
:101210006F0E711CF801A080B18026FF03C0652D00
:1012200070E002C06FEF7FEFC5012C870E94370A84
:101230002C012C852068222E830123FC1BC0832DCA
:1012400090E048165906B0F4B70180E290E00E94A1
:101250004D0A3A94F4CFF50127FC859127FE819140
:101260005F01B70190E00E944D0A31103A94F1E01D
:101270004F1A51084114510471F7E5C0843611F03A
:10128000893639F5F80127FF07C0608171818281B5
:1012900093810C5F1F4F08C060817181072E000C85
:1012A000880B990B0E5F1F4F2F76722E97FF09C088
:1012B00090958095709561957F4F8F4F9F4F2068D7
:1012C000722E2AE030E0A4010E94850AA82EA818F8
:1012D00044C0853729F42F7EB22E2AE030E025C0A5
:1012E000F22FF97FBF2E8F36C1F018F4883579F0D0
:1012F000B4C0803719F0883721F0AFC02F2F20619C
:10130000B22EB4FE0DC08B2D8460B82E09C024FF10
:101310000AC09F2F9660B92E06C028E030E005C0B5
:1013200020E130E002C020E132E0F801B7FE07C062
:1013300060817181828193810C5F1F4F06C0608143
:10134000718180E090E00E5F1F4FA4010E94850A2A
:10135000A82EA818FB2DFF777F2E76FE0BC0372D09
:101360003E7FA51450F474FE0AC072FC08C0372DED
:101370003E7E05C0BA2C372D03C0BA2C01C0B52C57
:1013800034FF0DC0FE01EA0DF11D8081803311F4A0
:10139000397E09C032FF06C0B394B39404C0832FD2
:1013A000867809F0B39433FD13C030FF06C05A2C81
:1013B000B31418F4530C5B18B32CB31468F4B701CE
:1013C00080E290E03C870E944D0AB3943C85F5CFC3
:1013D000B31410F43B1801C0312C34FF12C0B70114
:1013E00080E390E03C870E944D0A3C8532FF17C0A5
:1013F00031FD03C088E790E002C088E590E0B701C6
:101400000CC0832F867859F031FF02C08BE201C0F7
:1014100080E237FD8DE2B70190E00E944D0AA514ED
:1014200038F4B70180E390E00E944D0A5A94F7CF58
:10143000AA94F401EA0DF11D8081B70190E00E94A9
:101440004D0AA110F5CF332009F451CEB70180E247
:1014500090E00E944D0A3A94F6CFF7018681978179
:1014600002C08FEF9FEF2C96E2E10C941C08FC0168
:101470000590615070400110D8F7809590958E0FBF
:101480009F1F0895FC016150704001900110D8F732
:10149000809590958E0F9F1F08950F931F93CF9364
:1014A000DF93FB01238121FD03C08FEF9FEF28C055
:1014B00022FF16C046815781248135814217530788
:1014C00044F4A081B1819D012F5F3F4F3183208380
:1014D0008C93268137812F5F3F4F3783268310C03F
:1014E000EB01092F182F0084F185E02D0995892B38
:1014F000E1F68E819F8101969F838E83812F902FAD
:10150000DF91CF911F910F910895FA01AA272830FA
:1015100051F1203181F1E8946F936E7F6E5F7F4FC0
:101520008F4F9F4FAF4FB1E03ED0B4E03CD0670F3C
:10153000781F891F9A1FA11D680F791F8A1F911D8F
:10154000A11D6A0F711D811D911DA11D20D009F4DF
:1015500068943F912AE0269F11243019305D319321
:10156000DEF6CF010895462F4770405D4193B3E00A
:101570000FD0C9F7F6CF462F4F70405D4A3318F0B1
:10158000495D31FD4052419302D0A9F7EACFB4E062
:10159000A6959795879577956795BA95C9F700971A
:1015A0006105710508959B01AC010A2E06945795BB
:1015B000479537952795BA95C9F7620F731F841F12
:0A15C000951FA01D0895F894FFCFB9
:1015CA000000000000000000010000000000000010
:1015DA0000000100000000000100010000000000FE
:1015EA0000000000010000000100000001000000EE
:1015FA0000000100010000000100010001000000DC
:10160A0000000000000001000100000000000100CD
:10161A0000000100000001000100010000000100BB
:10162A0000000000010001000100000001000100AB
:10163A000000010001000100010001000100010099
:10164A003F065B4F666D7D077F6F777C395E7971E8
:10165A00000000004B01B400E30092011401F20003
:10166A000601564D4450565F317C315F564D445009
:10167A00560D0A00564D4450455F003A323A007CF6
:10168A00005F564D4450450056616C756520617483
:10169A00206368616E6E656C20006973203A2000D1
:0616AA0025303369000049
:107E0000112484B714BE81FFF0D085E080938100F7
:107E100082E08093C00088E18093C10086E0809377
:107E2000C20080E18093C4008EE0C9D0259A86E02C
:107E300020E33CEF91E0309385002093840096BBD3
:107E4000B09BFECF1D9AA8958150A9F7CC24DD24C4
:107E500088248394B5E0AB2EA1E19A2EF3E0BF2EE7
:107E6000A2D0813461F49FD0082FAFD0023811F036
:107E7000013811F484E001C083E08DD089C08234E0
:107E800011F484E103C0853419F485E0A6D080C0E4
:107E9000853579F488D0E82EFF2485D0082F10E0AE
:107EA000102F00270E291F29000F111F8ED06801E7
:107EB0006FC0863521F484E090D080E0DECF843638
:107EC00009F040C070D06FD0082F6DD080E0C81688
:107ED00080E7D80618F4F601B7BEE895C0E0D1E017
:107EE00062D089930C17E1F7F0E0CF16F0E7DF06D8
:107EF00018F0F601B7BEE89568D007B600FCFDCFD4
:107F0000A601A0E0B1E02C9130E011968C91119780
:107F100090E0982F8827822B932B1296FA010C0160
:107F200087BEE89511244E5F5F4FF1E0A038BF0790
:107F300051F7F601A7BEE89507B600FCFDCF97BE46
:107F4000E89526C08437B1F42ED02DD0F82E2BD052
:107F50003CD0F601EF2C8F010F5F1F4F84911BD097
:107F6000EA94F801C1F70894C11CD11CFA94CF0C13
:107F7000D11C0EC0853739F428D08EE10CD085E9AC
:107F80000AD08FE07ACF813511F488E018D01DD067
:107F900080E101D065CF982F8091C00085FFFCCF94
:107FA0009093C60008958091C00087FFFCCF809118
:107FB000C00084FD01C0A8958091C6000895E0E648
:107FC000F0E098E1908380830895EDDF803219F02E
:107FD00088E0F5DFFFCF84E1DECF1F93182FE3DFCA
:107FE0001150E9F7F2DF1F91089580E0E8DFEE27F6
:047FF000FF270994CA
:027FFE00040479
:0400000300007E007B
:00000001FF