:100000000C945D000C9485000C9485000C94850084
:100010000C9485000C9485000C9485000C9485004C
:100020000C9485000C9485000C9485000C9485003C
:100030000C9485000C9485000C9485000C9485002C
:100040000C9459030C9485000C9427030C94010321
:100050000C9485000C9485000C9485000C9485000C
:100060000C9485000C94850000000008000201003B
:100070000003040700000000000000000000000072
:10008000250028002B0000000000240027002A0083
:10009000040404040404040402020202020203032E
:1000A0000303030301020408102040800102040836
:1000B0001020010204081020A30311241FBECFEF5B
:1000C000D8E0DEBFCDBF22E0AAE2B1E001C01D92C0
:1000D000AE31B207E1F711E0A0E0B1E0E0E2FCE010
:1000E00002C005900D92AA32B107D9F710E0CDE514
:1000F000D0E004C02197FE010E94D604CC35D10780
:10010000C9F70E94E2030C940E060C94000090E0E4
:10011000FC01EC55FF4F2491FC01E057FF4F849107
:10012000882399F090E0880F991FFC01EA57FF4F50
:10013000A591B491FC01E458FF4F859194918FB73C
:10014000F894EC91E22BEC938FBF0895CF92DF925D
:10015000EF92FF920F931F932FB7F894C090310145
:10016000D0903201E0903301F09034012FBFDC01D8
:10017000CB018C0D9D1DAE1DBF1D4FB7F894009196
:1001800031011091320120913301309134014FBF80
:100190000C151D052E053F0528F080179107A207B5
:1001A000B30758F71F910F91FF90EF90DF90CF901A
:1001B0000895CF92DF92EF92FF920F931F93CF9308
:1001C000DF936C017A018B01C0E0D0E0CE15DF0532
:1001D00089F0D8016D918D01D601ED91FC910190CE
:1001E000F081E02DC6010995892B11F47E0102C032
:1001F0002196ECCFC701DF91CF911F910F91FF9016
:10020000EF90DF90CF900895089580E090E00895FA
:10021000FC01538D448D252F30E0842F90E0821B0C
:10022000930B541710F0CF96089501970895FC0191
:10023000918D828D981761F0828DDF01A80FB11D1D
:100240005D968C91928D9F5F9F73928F90E0089541
:100250008FEF9FEF0895FC01918D828D981731F0FB
:10026000828DE80FF11D858D90E008958FEF9FEF4F
:100270000895FC01918D228D892F90E0805C9F4F25
:10028000821B91098F739927089585E391E00E945D
:10029000390121E0892B09F420E0822F0895FC0127
:1002A000848DDF01A80FB11DA35ABF4F2C91848DFF
:1002B00090E001968F739927848FA689B7892C9334
:1002C000A089B1898C9180648C93938D848D9813CF
:1002D00006C00288F389E02D80818F7D8083089598
:1002E000EF92FF920F931F93CF93DF93EC0181E086
:1002F000888F9B8D8C8D981305C0E889F989808142
:1003000085FD24C0F62E0B8D10E00F5F1F4F0F737D
:100310001127E02E8C8DE8120CC00FB607FCFACF27
:10032000E889F989808185FFF5CFCE010E944F01D0
:10033000F1CF8B8DFE01E80FF11DE35AFF4FF082E4
:100340000B8FEA89FB898081806207C0EE89FF8973
:100350006083E889F98980818064808381E090E00E
:10036000DF91CF911F910F91FF90EF900895CF9360
:10037000DF93EC01888D8823C9F0EA89FB898081AD
:1003800085FD05C0A889B9898C9186FD0FC00FB67F
:1003900007FCF5CF808185FFF2CFA889B9898C91C0
:1003A00085FFEDCFCE010E944F01E7CFDF91CF91C6
:1003B000089580E090E0892B29F00E944501811189
:1003C0000C940000089590E0FC01E859FF4F34912F
:1003D000FC01EC55FF4F2491FC01E057FF4FE491E5
:1003E000EE2309F43BC0332339F1333091F038F474
:1003F0003130A9F0323001F584B58F7D12C037302D
:1004000091F03830A1F03430B9F4809180008F7DC4
:1004100003C0809180008F77809380000DC084B5E9
:100420008F7784BD09C08091B0008F7703C0809121
:10043000B0008F7D8093B000F0E0EE0FFF1FE45816
:10044000FF4FA591B4918FB7F894EC91611103C05F
:1004500020952E2301C02E2B2C938FBF08953FB7DC
:10046000F89480912B0190912C01A0912D01B091D5
:100470002E0126B5A89B05C02F3F19F00196A11D9E
:10048000B11D3FBFBA2FA92F982F8827820F911D2A
:10049000A11DB11DBC01CD0142E0660F771F881F71
:1004A000991F4A95D1F708958F929F92AF92BF926C
:1004B000CF92DF92EF92FF920E942F024B015C01DC
:1004C0008CE3C82ED12CE12CF12C0E942F02DC01F0
:1004D000CB0188199909AA09BB09883E9340A10557
:1004E000B10558F021E0C21AD108E108F10888EE00
:1004F000880E83E0981EA11CB11CC114D104E10434
:10050000F10419F7FF90EF90DF90CF90BF90AF907C
:100510009F908F9008950E9409069F92AF92BF927C
:10052000CF92DF92EF92FF920F931F93CF93DF93BF
:10053000062FEC0197FD279623E0D595C7952A95C0
:10054000E1F79E0143E0220F331F4A95E1F77C015A
:10055000E21AF30A60E088E00E94E30181E090E0A3
:10056000A0E0B0E004C0880F991FAA1FBB1FEA9447
:10057000D2F7982E182F1095E12CF12CE0912F0135
:10058000F0913001EE0DFF1DEC16FD0639F480816F
:10059000002311F0892901C081238083A08087E096
:1005A000C82ED12CB12CB5010C2C02C075956795C5
:1005B0000A94E2F76170772787E00E94E30161E027
:1005C00089E00E94E30160E089E00E94E30181E0AC
:1005D000C81AD10840F7EA94EF2821F0EE24E394FA
:1005E000F12CCCCF61E088E0DF91CF911F910F918A
:1005F000FF90EF90DF90CF90BF90AF909F900C94C2
:10060000E3011F920F920FB60F9211242F933F9385
:100610004F935F936F937F938F939F93AF93BF930A
:10062000EF93FF9385E391E00E944F01FF91EF91DB
:10063000BF91AF919F918F917F916F915F914F91FA
:100640003F912F910F900FBE0F901F9018951F9202
:100650000F920FB60F9211242F938F939F93EF93C6
:10066000FF93E0914501F09146018081E0914B01BB
:10067000F0914C0182FD12C0908180914E018F5FFC
:100680008F7320914F01821751F0E0914E01F0E0FD
:10069000EB5CFE4F958F80934E0101C08081FF91EE
:1006A000EF919F918F912F910F900FBE0F901F9000
:1006B00018951F920F920FB60F9211242F933F930C
:1006C0008F939F93AF93BF938091310190913201AB
:1006D000A0913301B091340130912A0123E0230F1E
:1006E0002D3720F40196A11DB11D05C026E8230F6A
:1006F0000296A11DB11D20932A0180933101909390
:100700003201A0933301B093340180912B01909179
:100710002C01A0912D01B0912E010196A11DB11DBA
:1007200080932B0190932C01A0932D01B0932E0167
:10073000BF91AF919F918F913F912F910F900FBEDD
:100740000F901F901895E5E3F1E01382128288EE76
:1007500093E0A0E0B0E084839583A683B7838AE02A
:1007600091E09183808385EC90E09587848784EC89
:1007700090E09787868780EC90E0918B808B81EC6E
:1007800090E0938B828B82EC90E0958B848B86EC4F
:1007900090E0978B868B118E128E138E148EE2ED65
:1007A000F1E016821782108611861286138614864F
:1007B000158616861786108A118A128A138A148A59
:1007C000158A0895789484B5826084BD84B581606B
:1007D00084BD85B5826085BD85B5816085BD80910C
:1007E0006E00816080936E00109281008091810084
:1007F000826080938100809181008160809381007C
:10080000809180008160809380008091B10084603D
:100810008093B1008091B00081608093B00080919E
:100820007A00846080937A0080917A00826080935D
:100830007A0080917A00816080937A0080917A00BA
:10084000806880937A001092C10010921602109274
:10085000170210921802109219021092D4011092ED
:10086000D5011092D6011092D70168EB7BE080E0B1
:1008700090E00E94A60085E391E09093150280939A
:100880001402E0914501F091460182E08083E091FD
:100890004101F09142011082E0914301F091440145
:1008A00080E1808310924D01E0914901F0914A016D
:1008B00086E08083E0914701F0914801808180616A
:1008C0008083E0914701F0914801808188608083B6
:1008D000E0914701F0914801808180688083E09138
:1008E0004701F091480180818F7D80832FB7F89474
:1008F0008091310190913201A0913301B091340186
:100900002FBF8093D4019093D501A093D601B093CB
:10091000D7018091140290911502DC01ED91FC91B8
:100920000280F381E02D41E150E068E171E009953A
:100930006AE070E080E090E00E94A60081E0809391
:10094000E80182E090E00E94DC0490933001809303
:100950002F01FC011082118288E00E94870089E04B
:100960000E94870087E00E948700C0E0D0E061E03D
:10097000CE010E948D020E94540260E0CE010E94CE
:100980008D022196C830D10591F7C6E0D0E061E034
:10099000CE010E948D020E94540260E0CE010E94AE
:1009A0008D022197A1F70E94D901DFCFEE0FFF1F23
:1009B0000590F491E02D0994CF93DF938230910557
:1009C00010F482E090E0E0911C02F0911D0220E022
:1009D00030E0C0E0D0E0309711F1408151814817FC
:1009E0005907C0F04817590761F482819381209715
:1009F00019F09B838A832BC090931D0280931C0265
:100A000026C02115310519F04217530718F49A0131
:100A1000BE01DF01EF010280F381E02DDCCF211563
:100A2000310509F1281B390B2430310590F4129659
:100A30008D919C9113976115710521F0FB019383B2
:100A4000828304C090931D0280931C02FD013296A4
:100A500044C0FD01E20FF31F8193919322503109AD
:100A60002D933C933AC020911A0230911B02232B04
:100A700041F4209102013091030130931B02209335
:100A80001A0220910001309101012115310541F434
:100A90002DB73EB74091040150910501241B350B41
:100AA000E0911A02F0911B02E217F307A0F42E1B4B
:100AB0003F0B2817390778F0AC014E5F5F4F2417C2
:100AC000350748F04E0F5F1F50931B0240931A02E8
:100AD0008193919302C0E0E0F0E0CF01DF91CF91EC
:100AE00008950F931F93CF93DF93009709F48CC061
:100AF000FC0132971382128200911C0210911D0298
:100B00000115110581F420813181820F931F2091FD
:100B10001A0230911B022817390779F5F0931B024E
:100B2000E0931A0271C0D80140E050E0AE17BF0751
:100B300050F412962D913C911397AD01211531057A
:100B400009F1D901F3CF9D01DA013383228360815A
:100B50007181860F971F8217930769F4EC01288132
:100B60003981260F371F2E5F3F4F318320838A81C3
:100B70009B8193838283452B29F4F0931D02E0939C
:100B80001C0242C01396FC93EE931297ED0149911B
:100B900059919E01240F351FE217F30771F48081EC
:100BA0009181840F951F029611969C938E9382815A
:100BB000938113969C938E931297E0E0F0E0D80116
:100BC00012968D919C911397009719F0F8018C0162
:100BD000F6CF8D919C9198012E5F3F4F820F931F0E
:100BE00020911A0230911B022817390769F43097B7
:100BF00029F410921D0210921C0202C0138212826C
:100C000010931B0200931A02DF91CF911F910F9155
:100C1000089581E090E0F8940C940E06F894FFCFCC
:100C200000001E028000000000007001D9000801D1
:100C3000B701390117012B01564D4450565F317CE5
:0A0C4000315F564D4450560D0A0076
:107800000C94343C0C94513C0C94513C0C94513CE1
:107810000C94513C0C94513C0C94513C0C94513CB4
:107820000C94513C0C94513C0C94513C0C94513CA4
:107830000C94513C0C94513C0C94513C0C94513C94
:107840000C94513C0C94513C0C94513C0C94513C84
:107850000C94513C0C94513C0C94513C0C94513C74
:107860000C94513C0C94513C11241FBECFEFD8E036
:10787000DEBFCDBF11E0A0E0B1E0ECE9FFE702C060
:1078800005900D92A230B107D9F712E0A2E0B1E065
:1078900001C01D92AD30B107E1F70E942D3D0C945F
:1078A000CC3F0C94003C982F959595959595959582
:1078B000905D8F708A307CF0282F295A8091C0000B
:1078C00085FFFCCF9093C6008091C00085FFFCCF60
:1078D0002093C6000895282F205DF0CF982F809127
:1078E000C00085FFFCCF9093C6000895EF92FF92F1
:1078F0000F931F93EE24FF2487018091C00087FD22
:1079000017C00894E11CF11C011D111D81E4E8164B
:1079100082E4F8068FE0080780E0180770F3E09132
:107920000401F091050109958091C00087FFE9CF1E
:107930008091C6001F910F91FF90EF9008950E94D3
:10794000763C982F8091C00085FFFCCF9093C600B5
:1079500091362CF490330CF09053892F089597555D
:10796000892F08951F930E949F3C182F0E949F3CCF
:107970001295107F810F1F9108951F93182F882350
:1079800021F00E94763C1150E1F71F9108951F935A
:10799000182F0E94763C803249F0809103018F5F5E
:1079A000809303018530C1F01F9108958091C0003C
:1079B00085FFFCCF84E18093C6008091C00085FFE5
:1079C000FCCF1093C6008091C00085FFFCCF80E102
:1079D0008093C6001F910895E0910401F091050184
:1079E00009951F9108950E94763C803241F0809164
:1079F00003018F5F80930301853081F008958091AA
:107A0000C00085FFFCCF84E18093C6008091C00058
:107A100085FFFCCF80E18093C6000895E0910401CA
:107A2000F09105010995089540E951E08823A1F0FE
:107A30002D9A28EE33E0FA013197F1F721503040CA
:107A4000D1F72D9828EE33E0FA013197F1F7215064
:107A50003040D1F7815061F708953F924F925F9285
:107A60006F927F928F929F92AF92BF92CF92DF924E
:107A7000EF92FF920F931F93CF93DF93000080E16B
:107A80008093C4001092C50088E18093C10086E015
:107A90008093C2005098589A259A81E00E94143D24
:107AA00024E1F22E9EE1E92E85E9D82E0FE0C02ECA
:107AB00010E1B12EAA24A394B1E49B2EA6E58A2E50
:107AC000F2E57F2EE0E26E2E79E4572E63E5462E36
:107AD00050E5352E0E94763C8033B1F18133B9F107
:107AE000803409F46FC0813409F476C0823409F41B
:107AF00085C0853409F488C0803531F1823521F1A3
:107B0000813511F1853509F485C0863509F48DC0BC
:107B1000843609F496C0843709F403C1853709F423
:107B200072C1863709F466C0809103018F5F80932C
:107B30000301853079F6E0910401F0910501099582
:107B40000E94763C803351F60E94F33CC3CF0E94E2
:107B5000763C803249F78091C00085FFFCCFF092DF
:107B6000C6008091C00085FFFCCF9092C600809136
:107B7000C00085FFFCCF8092C6008091C00085FFC9
:107B8000FCCF7092C6008091C00085FFFCCF609250
:107B9000C6008091C00085FFFCCF5092C600809146
:107BA000C00085FFFCCF4092C6008091C00085FFD9
:107BB000FCCF3092C6008091C00085FFFCCFB09210
:107BC000C60088CF0E94763C863808F4BDCF0E945C
:107BD000763C0E94F33C7ECF0E94763C803809F4CC
:107BE0009CC0813809F40BC1823809F43CC1883942
:107BF00009F48FC080E00E94C73C6CCF84E10E94F2
:107C0000BD3C0E94F33C66CF85E00E94BD3C0E94D3
:107C1000F33C60CF0E94763C809306010E94763C44
:107C2000809307010E94F33C55CF0E94763C80333D
:107C300009F41DC183E00E94BD3C80E00E94C73C66
:107C400049CF0E94763C809309020E94763C809343
:107C5000080280910C028E7F80930C020E94763C79
:107C6000853409F415C18091080290910902892B8D
:107C700089F000E010E00E94763CF801E85FFE4FDA
:107C800080830F5F1F4F80910802909109020817AF
:107C9000190788F30E94763C803209F045CF809125
:107CA0000C0280FF01C16091060170910701660F0F
:107CB000771F7093070160930601A0910802B091AD
:107CC00009021097C9F0E8E0F1E09B01AD014E0F09
:107CD0005F1FF999FECF32BD21BD819180BDFA9A17
:107CE000F99A2F5F3F4FE417F50799F76A0F7B1F4B
:107CF00070930701609306018091C00085FFFCCF5F
:107D0000F092C6008091C00085FFFCCFB092C60003
:107D1000E1CE83E00E94C73CDDCE82E00E94C73CFA
:107D2000D9CE0E94763C809309020E94763C8093D3
:107D300008028091060190910701880F991F909386
:107D40000701809306010E94763C853409F4A6C0A1
:107D500080910C028E7F80930C020E94763C8032D0
:107D600009F0B8CE8091C00085FFFCCFF092C6002C
:107D7000609108027091090261157105B9F140E046
:107D800050E080910C02A82FA170B82FB27011C0E2
:107D9000BB2309F45CC0E0910601F0910701319624
:107DA000F0930701E09306014F5F5F4F46175707B7
:107DB000E8F4AA2369F3F999FECF209106013091E6
:107DC000070132BD21BDF89A90B58091C00085FFB2
:107DD000FCCF9093C6002F5F3F4F30930701209355
:107DE00006014F5F5F4F4617570718F38091C00099
:107DF00085FDE5CE8091C00085FFF8CFE0CE81E023
:107E00000E94C73C67CE0E94763C803209F08CCE3F
:107E10008091C00085FFFCCFF092C6008091C00029
:107E200085FFFCCFE092C6008091C00085FFFCCFAB
:107E3000D092C6008091C00085FFFCCFC092C600E2
:107E40008091C00085FFFCCFB092C60043CEE09188
:107E50000601F091070194918091C00085FFFCCF4D
:107E60009093C6009CCF80E10E94C73C33CE0E9415
:107E7000763C0E94763C182F0E94763C112309F430
:107E800083C0113009F484C08FE00E94C73C22CE29
:107E900080910C02816080930C02E5CE80910C02EF
:107EA000816080930C0259CF809107018823880F4D
:107EB000880B8A2180930B02809106019091070123
:107EC000880F991F90930701809306018091080203
:107ED00080FF09C080910802909109020196909359
:107EE000090280930802F894F999FECF1127E091D6
:107EF0000601F0910701C8E0D1E08091080290915D
:107F00000902103091F40091570001700130D9F34B
:107F100003E000935700E89500915700017001308D
:107F2000D9F301E100935700E89509901990009169
:107F3000570001700130D9F301E000935700E89534
:107F40001395103498F011270091570001700130FB
:107F5000D9F305E000935700E895009157000170B0
:107F60000130D9F301E100935700E895329602976A
:107F700009F0C7CF103011F00296E5CF112480919F
:107F8000C00085FFB9CEBCCE8EE10E94C73CA2CD19
:0C7F900085E90E94C73C9ECDF894FFCF0D
:027F9C00800063
:040000030000780081
:00000001FF