:100000000C94DD020C9405030C9405030C94050379
:100010000C9405030C9405030C9405030C94050340
:100020000C9405030C9405030C9405030C94050330
:100030000C9405030C9405030C9405030C94050320
:100040000C94770D0C9405030C945A100C943410F6
:100050000C9405030C9405030C9405030C94050300
:100060000C94C10D0C94050300000000003E5B4F92
:100070005B3E3E6B4F6B3E1C3E7C3E1C183C7E3C08
:10008000181C577D571C1C5E7F5E1C00183C180016
:10009000FFE7C3E7FF0018241800FFE7DBE7FF30A6
:1000A000483A060E2629792926407F050507407F14
:1000B00005253F5A3CE73C5A7F3E1C1C08081C1C87
:1000C0003E7F14227F22145F5F005F5F06097F017D
:1000D0007F006689956A606060606094A2FFA29468
:1000E00008047E040810207E201008082A1C080836
:1000F0001C2A08081E101010100C1E0C1E0C303884
:100100003E3830060E3E0E06000000000000005F84
:1001100000000007000700147F147F14242A7F2AA0
:100120001223130864623649562050000807030062
:10013000001C2241000041221C002A1C7F1C2A08AE
:10014000083E080800807030000808080808000011
:1001500060600020100804023E5149453E00427F85
:10016000400072494949462141494D331814127FD4
:100170001027454545393C4A494931412111090774
:100180003649494936464949291E000014000000F5
:1001900040340000000814224114141414140041C7
:1001A00022140802015909063E415D594E7C121184
:1001B000127C7F494949363E414141227F414141BC
:1001C0003E7F494949417F090909013E4141517337
:1001D0007F0808087F00417F41002040413F017FA8
:1001E000081422417F404040407F021C027F7F0470
:1001F00008107F3E4141413E7F090909063E4151B9
:10020000215E7F09192946264949493203017F01A8
:10021000033F4040403F1F2040201F3F4038403FA9
:10022000631408146303047804036159494D4300BF
:100230007F4141410204081020004141417F0402F6
:10024000010204404040404000030708002054548D
:1002500078407F284444383844444428384444286B
:100260007F385454541800087E090218A4A49C78BE
:100270007F0804047800447D40002040403D007F1A
:100280001028440000417F40007C047804787C08FA
:100290000404783844444438FC18242418182424CE
:1002A00018FC7C08040408485454542404043F44B3
:1002B000243C4040207C1C2040201C3C4030403CE2
:1002C00044281028444C9090907C4464544C440042
:1002D00008364100000077000000413608000201A6
:1002E0000204023C2623263C1EA1A161123A404092
:1002F000207A38545455592155557941225454780F
:1003000042215554784020545579400C1E527212A7
:100310003955555559395454545939555454580030
:1003200000457C410002457D420001457C407D1234
:1003300011127DF0282528F07C5455450020545496
:100340007C547C0A097F4932494949323A44444441
:100350003A324A4848303A4141217A3A424020787C
:10036000009DA0A07D3D4242423D3D4040403D3C7D
:1003700024FF2424487E4943662B2FFC2F2BFF09A2
:1003800029F620C0887E0903205454794100004496
:100390007D413048484A32384040227A007A0A0A81
:1003A000727D0D19317D2629292F282629292926F4
:1003B00030484D4020380808080808080808382F39
:1003C00010C8ACBA2F102834FA00007B00000814C3
:1003D0002A142222142A14085500550055AA55AA99
:1003E00055AAFF55FF55FF000000FF00101010FF39
:1003F00000141414FF001010FF00FF1010F010F094
:10040000141414FC001414F700FF0000FF00FF1484
:1004100014F404FC141417101F10101F101F1414D0
:10042000141F00101010F0000000001F101010101A
:100430001F10101010F010000000FF10101010100E
:1004400010101010FF10000000FF140000FF00FF4C
:1004500000001F10170000FC04F4141417101714E8
:1004600014F404F40000FF00F7141414141414140A
:10047000F700F7141414171410101F101F1414147D
:10048000F4141010F010F000001F101F0000001FE7
:1004900014000000FC140000F010F01010FF10FF1A
:1004A000141414FF141010101F00000000F010FFAF
:1004B000FFFFFFFFF0F0F0F0F0FFFFFF0000000093
:1004C00000FFFF0F0F0F0F0F3844443844FC4A4A17
:1004D0004A347E02020606027E027E0263554941CC
:1004E000633844443C04407E201E2006027E020203
:1004F00099A5E7A5991C2A492A1C4C7201724C3017
:100500004A4D4D303048784830BC625A463D3E49ED
:100510004949007E0101017E2A2A2A2A2A44445F91
:10052000444440514A444040444A51400000FF0185
:1005300003E080FF000008086B6B08361236243693
:10054000060F090F060000181800000010100030F8
:1005500040FF0101001F01011E00191D1712003C80
:100560003C3C3C00000000000000000800020100CC
:10057000000304070000000000000000000000006D
:10058000250028002B0000000000240027002A007E
:100590000404040404040404020202020202030329
:1005A0000303030301020408102040800102040831
:1005B0001020010204081020BB1511241FBECFEF2C
:1005C000D8E0DEBFCDBF27E0A6EAB5E001C01D92AE
:1005D000A936B207E1F715E0A0E0B1E0E6E5F1E306
:1005E00002C005900D92A63AB107D9F712E0CDED01
:1005F000D2E004C02197FE010E949716CC3DD1079E
:10060000C9F70E946E120C94A9180C94000080E0A7
:1006100090E0892B29F00E94A00F81110C9400001A
:1006200008953FB7F8948091EE059091EF05A09161
:10063000F005B091F10526B5A89B05C02F3F19F034
:100640000196A11DB11D3FBFBA2FA92F982F882752
:10065000820F911DA11DB11DBC01CD0142E0660FAD
:10066000771F881F991F4A95D1F708950F931F93FD
:10067000CF93DF93DC0155968C915597823071F0C2
:10068000833009F1813009F08CC01496ED91FC9112
:100690001597E41BF50BE21BF30B20C01496ED91AC
:1006A000FC911597CF01861B970BBC016150710916
:1006B0001696ED91FC911797CF01841B950BAC0119
:1006C000421B530B6EC01696ED91FC911797CF010C
:1006D000861B970BBC0161507109FA0177FD1BC1A4
:1006E00016968D919C911797681779070CF013C196
:1006F000F7FF04C02E0F3F1FE0E0F0E014968D914D
:100700009C911597AF01420F531F841795071CF456
:100710009C012E1B3F0B121613060CF0FCC0CB01E4
:1007200077FD079643E0959587954A95E1F796956D
:10073000982F882797958795E80FF91FE050FF4F6E
:100740006770772781E090E001C0880F6A95EAF72B
:10075000482F0130110541F088F00230110509F0F1
:10076000DAC02E0F3F1F15C02E0F3F1FE217F307F1
:1007700009F4D1C08081842B8193F8CF80952E0F0E
:100780003F1FE217F30709F4C6C0908198239193A5
:10079000F8CFE217F30709F4BEC080818427819364
:1007A000F8CF77FDB8C014968D919C911597681776
:1007B00079070CF0B0C057FF04C0240F351F40E08C
:1007C00050E016968D919C911797FA01E20FF31F56
:1007D0008E179F071CF49C01241B350B1216130661
:1007E0000CF099C0A22F842F86958695869590E867
:1007F000899F600D711D1124FB01E050FF4F477070
:10080000A9F198E0941B492F50E0EA01C25FDA4F4A
:100810008881291790F4421B51092FEF30E002C064
:10082000359527954A95E2F782230130110541F06D
:1008300068F00230110589F06EC00130110519F41D
:100840002081822B0CC00130110520F4809520817D
:10085000822305C00230110531F420818227808374
:10086000A91708F458C0A91BE058FF4FA83048F159
:100870000230110559F4EF018A2F988190959883E1
:10088000C058DF4F88508830C0F730C081E0013059
:10089000110509F080E08195EF019A2F8883C058F7
:1008A000DF4F98509830D0F788EF8A0F869586955D
:1008B000869590E8899FE00DF11D1124E058FF4FC7
:1008C000A770AA2341F1B0E0AA5FBA4F8C91013022
:1008D000110529F038F002301105D1F01CC09081CB
:1008E000892B18C080959081892314C088EF8A0FC6
:1008F00086958695869590E8899FE00DF11D1124D7
:10090000E058FF4FA77039F0B0E0AA5FBA4F8C9162
:10091000908189278083DF91CF911F910F91089556
:100920000F931F93CF93DF93DC01FB0155968C91BE
:100930005597823081F0833019F1813051F514964A
:100940008D919C911597BC01641B750BAB014150B7
:100950005109BF0181C014966D917C911597CB010F
:100960008E1B9F0BFC0116968D919C911797BC01D5
:10097000641B750BAB0141505109E21BF30B09C01D
:1009800016966D917C9117976E1B7F0B621B730BF4
:1009900063C057FD1CC116968D919C9117974817FF
:1009A00059070CF014C1F7FF04C02E0F3F1FE0E001
:1009B000F0E014968D919C911597BF01620F731F03
:1009C000861797071CF49C012E1B3F0B121613066B
:1009D0000CF0FDC0CA0157FD079663E09595879519
:1009E0006A95E1F79695982F882797958795E80F50
:1009F000F91FE050FF4F4770552781E090E001C09C
:100A0000880F4A95EAF7482F0130110541F088F028
:100A10000230110509F0DBC02E0F3F1F15C02E0F4D
:100A20003F1FE217F30709F4D2C08081842B819322
:100A3000F8CF80952E0F3F1FE217F30709F4C7C0C8
:100A4000908198239193F8CFE217F30709F4BFC080
:100A5000808184278193F8CF57FDB9C014968D917A
:100A60009C911597481759070CF0B1C077FF04C047
:100A7000260F371F60E070E016968D919C911797B6
:100A8000FB01E20FF31F8E179F071CF49C01261B2E
:100A9000370B121613060CF09AC0A22F862F8695DC
:100AA0008695869590E8899F400D511D1124FA0185
:100AB000E050FF4F6770A9F198E0961B492F50E076
:100AC000EA01C25FDA4F8881291790F4421B51096D
:100AD0002FEF30E002C0359527954A95E2F7822343
:100AE0000130110541F068F00230110589F06FC046
:100AF0000130110519F42081822B0CC00130110541
:100B000020F480952081822305C00230110531F444
:100B1000208182278083A91708F459C0A91BE058B7
:100B2000FF4FA83048F10230110559F4EF018A2F28
:100B3000988190959883C058DF4F88508830C0F7CF
:100B400031C081E00130110509F080E08195EF01AD
:100B50009A2F8883C058DF4F98509830D0F788EF8D
:100B60008A0F86958695869560E8869FE00DF11D33
:100B70001124E058FF4FA770AA2349F1B0E0AA5F03
:100B8000BA4F8C910130110529F038F0023011056F
:100B9000D9F01DC09081892B03C080959081892355
:100BA000808315C088EF8A0F86958695869570E8B4
:100BB000879FE00DF11D1124E058FF4FA77039F019
:100BC000B0E0AA5FBA4F8C9190818927E9CFDF917D
:100BD000CF911F910F910895FC0177FD9AC08085F8
:100BE0009185681779070CF094C057FD92C08285F3
:100BF0009385481759070CF08CC08589823009F01D
:100C00007CC084819581DC01A61BB70BBD016150BE
:100C1000710986819781FC01E41BF50BAF014150FE
:100C200051090AC0813041F484819581841B950B60
:100C3000AB01BC01615071092130310529F008F187
:100C400022303105E1F10895FA0157FD3796A3E00E
:100C5000F595E795AA95E1F7F695FE2FEE27F7951E
:100C6000E7956E0F7F1FFB01E050FF4F4770552740
:100C700081E090E001C0880F4A95EAF79081892BC6
:100C80003AC0FA0157FD379623E0F595E7952A9586
:100C9000E1F7F695FE2FEE27F795E7956E0F7F1F8C
:100CA000FB01E050FF4F4770552781E090E001C005
:100CB000880F4A95EAF78095908189231CC0FA0134
:100CC00057FD379683E0F595E7958A95E1F7F69518
:100CD000FE2FEE27F795E7956E0F7F1FFB01E05083
:100CE000FF4F4770552781E090E001C0880F4A957B
:100CF000EAF79081892780830895833009F092CFA5
:100D000086819781861B970BBA01AC01415051092E
:100D100093CF08950895FC016370658B848195815C
:100D200026813781613039F0633029F091878087DF
:100D30003387228708953187208793878287089594
:100D40002F923F924F925F926F927F928F929F92DB
:100D5000AF92BF92CF92DF92EF92FF920F931F93C9
:100D6000CF93DF93CDB7DEB76C970FB6F894DEBFA5
:100D70000FBECDBF9C8F8B8F5B011A011F830E832B
:100D80003701C982DC0158964D915C915997411504
:100D9000510509F0E5C018968D919C911997681737
:100DA00079070CF0CAC11A968D919C911B97281651
:100DB00039060CF0C2C18C2C912CFB0136E0C39E8D
:100DC000E00DF11D1124FB87EA871E161F060CF0AB
:100DD000B4C1C40133E0880F991F3A95E1F79D87AC
:100DE0008C87820D931D181619060CF0A6C1579614
:100DF0008C91811103C0203B08F02F5FAB8DBC8D1F
:100E0000ED91FC9111970284F385E02DCD012A8F9D
:100E100009952A8DB5E02B9F90011124F501359697
:100E2000FF87EE87BB82AA822501A9014A195B09C7
:100E3000598B488BC10108969B8B8A8BE889F9896D
:100E4000E40DF51DE859FF4F9491988761013D82AB
:100E50002C82A885A0FF13C0AB8DBC8DED91FC91B9
:100E6000B981B13031F40484F585E02D2E813F81C4
:100E700016C00684F785E02DEE80FF801AC0EE8153
:100E8000FF816E167F06F1F0AB8DBC8DED91FC916C
:100E9000B981B13051F40484F585E02D9301A601A8
:100EA000B2018B8D9C8D09950DC00684F785E02DD0
:100EB0007301840194014C815D816A817B818B8DFA
:100EC0009C8D0995E885E695E887FFEFCF1ADF0A44
:100ED0002C813D81280D391D3D832C834A895B89F6
:100EE000C416D50609F0B5CF5FEF451A550A8A81B9
:100EF0009B81880D991D9B838A83AE85BF854A1689
:100F00005B0609F09BCFEE81FF816E167F0609F428
:100F1000F2C0EB8DFC8DA081B181F981F13079F4C3
:100F2000B5016B5F7F4F5096ED91FC915197830116
:100F300028E030E0A1018B8D9C8D0995DCC06A858D
:100F40007B85681979091E96ED91FC911F977301B5
:100F50000C851D859401A1018B8D9C8D0995CBC0BD
:100F6000FA0134969491329765917491291BCB01C3
:100F7000B7E02B9F800D911D1124FA01259134912A
:100F80003B8B2A8BFC01459154915B834A83FC0186
:100F90003296C490319654915E8732961491319670
:100FA000D4908981823058F0612E012E000C770890
:100FB000AD2D0D2C000CBB0BB987A88704C019867A
:100FC0001886612C712CAB8DBC8DED91FC91119725
:100FD0000284F385E02DCD010995B9818B2E912CEA
:100FE000689CC001699C900D789C900D1124FC01B7
:100FF000EA0DFB1DFD87EC871C82712C612CE12F13
:10100000110FFF0B95012E0F3F1F3B872A87AC0C5A
:10101000B11CA5014E0F5F1F5F8B4E8BC1018D0D63
:10102000911DD7FC9A95998F888F4E85641608F08C
:1010300062C0862D90E048855985480F591F489D0C
:101040009001499D300D589D300D1124D901A20DFC
:10105000B31DB98BA88BAA84BB844C845D84DC80CF
:10106000BA85DB1AE88DF98DE80FF91FFD8BEC8B43
:101070008D2D8A0D2E893F89A216B306B9F187708E
:1010800061F48A819B810196EA89FB89AA81BB81EF
:10109000EA0FFB1F74909B838A8377FE20C0AB8D81
:1010A000BC8DED91FC91B981B13061F40484F5857A
:1010B000E02D2E813F814C895D89B5018B8D9C8D02
:1010C00009950DC00684F785E02DEE80FF80840130
:1010D000940148895989B2018B8D9C8D0995770CB3
:1010E000EFEFAE1ABE0A480C591CC2CF3C813C0D32
:1010F0003C8363949ACFAB8DBC8DED91FC9111979D
:101100000688F789E02DCD016C960FB6F894DEBF06
:101110000FBECDBFDF91CF911F910F91FF90EF9048
:10112000DF90CF90BF90AF909F908F907F906F9007
:101130005F904F903F902F9009946C960FB6F89463
:10114000DEBF0FBECDBFDF91CF911F910F91FF90FA
:10115000EF90DF90CF90BF90AF909F908F907F9057
:101160006F905F904F903F902F900895AF92BF92F5
:10117000CF92EF92FF920F931F93CF93DF93EC01E7
:10118000262F888D998D009709F040C06A3059F458
:101190001D861C862C898E859F8538E0239F800DB7
:1011A000911D112441C06D3009F4AAC08E89882395
:1011B000C1F03C898C859D8546E0349F800D911D52
:1011C000112448855985481759075CF41D861C86EB
:1011D0008E859F8548E0349F800D911D11249F8747
:1011E0008E87EA88FB88088919894E855F856C851A
:1011F0007D85CC88CE010E94A0062C898C859D859A
:1012000036E0239F800D911D112442C06A3079F48D
:101210001D861C862C89FC013696E4918E859F855F
:101220002E9F800D911D11249F878E8769C06D3080
:1012300009F466C0FC0134963491631708F460C069
:101240003196E491E61708F45BC0FC013296A59054
:10125000B490462F50E0431B510937E0349FB00152
:10126000359F700D1124A60EB71EF50132963491EC
:101270003196E491332311F0E1110DC0F50134965C
:10128000E4912C898C859D85E29F800D911D112410
:101290009D878C8735C0F501359644915E8955232D
:1012A00011F16C89E32FF0E0E40FF11D47FDFA9591
:1012B0006E9FD0016F9FB00D11244C855D854A0F44
:1012C0005B1FE885F985E417F5076CF41D861C861D
:1012D000FC013696E4918E859F856E9F800D911D51
:1012E00011249F878E87EA88FB88088919894E8593
:1012F0005F856C857D85CC88CE010E94A006BECF1F
:1013000081E090E0DF91CF911F910F91FF90EF90DE
:10131000CF90BF90AF9008956F927F928F929F92DF
:10132000AF92BF92CF92DF92EF92FF920F931F93F3
:10133000CF93DF93EC014B015A0169013801E88139
:10134000F9810284F385E02D0995E881F98102880D
:10135000F389E02D87019601A501B401CE0109951D
:10136000E881F981A501460D571D415051090288B8
:10137000F389E02D9601B401CE010995E881F98148
:101380000088F189E02D9301A501B401CE010995F2
:10139000E881F981C80CD91CB60161507109008837
:1013A000F189E02D9301A501CE010995E881F9812C
:1013B0000688F789E02DCE01DF91CF911F910F9123
:1013C000FF90EF90DF90CF90BF90AF909F908F9065
:1013D0007F906F900994CF92DF92EF92FF920F93DC
:1013E0001F93CF93DF9300D000D000D0CDB7DEB7EE
:1013F0006C01DC01ED91FC916217730789F404170D
:1014000015072CF4942F852FA801092F182F041BE2
:10141000150B98012F5F3F4F048CF58DE02D12C006
:101420004017510709F5261737072CF4962F872FF9
:10143000B901292F382F261B370B2F5F3F4F068C02
:10144000F78DE02D8701C601099526960FB6F89411
:10145000DEBF0FBECDBFDF91CF911F910F91FF90E7
:10146000EF90DF90CF9008950284F385E02D2D83D7
:101470003E834B835C8369837A830995D601ED9122
:10148000FC910488F589E02D2D813E814B815C81A2
:1014900069817A81C6010995D601ED91FC91068892
:1014A000F789E02DC60126960FB6F894DEBF0FBE71
:1014B000CDBFDF91CF911F910F91FF90EF90DF9003
:1014C000CF900994EF92FF920F931F93DC01ED915F
:1014D000FC9111971A960D911C911B9718962D91BE
:1014E0003C91199700A0F1A1E02D7B0140E050E074
:1014F00060E070E009951F910F91FF90EF900895C3
:101500004F925F926F927F928F929F92AF92BF9213
:10151000CF92DF92EF92FF920F931F93CF93DF93BF
:1015200000D0CDB7DEB76C015A0139014801DC01AA
:10153000ED91FC910284F385E02D69837A8309950E
:101540006981462E7A81572E640C751CD601ED9167
:10155000FC91461457046CF40088F189E02D870152
:101560009401A501B201C6010995BFEF4B1A5B0AB0
:10157000EDCF0688F789E02DC6010F900F90DF911F
:10158000CF911F910F91FF90EF90DF90CF90BF9080
:10159000AF909F908F907F906F905F904F90099445
:1015A000AF92BF92CF92DF92EF92FF920F931F9371
:1015B000CF93DF9300D000D0CDB7DEB75C016901D7
:1015C000DC01ED91FC910284F385E02D4B835C837B
:1015D00069837A830995D501ED91FC9169817A81BE
:1015E0009B012C0D3D1D215031090488F589E02D0A
:1015F00078014B815C818A01C5010995D501ED9186
:10160000FC910688F789E02DC5010F900F900F908F
:101610000F90DF91CF911F910F91FF90EF90DF908E
:10162000CF90BF90AF900994AF92BF92CF92DF92CC
:10163000EF92FF920F931F93CF93DF9300D000D0D0
:10164000CDB7DEB75C016901DC01ED91FC9102844C
:10165000F385E02D4B835C8369837A830995D501FB
:10166000ED91FC914B815C81C40ED51EB1E0CB1A8B
:10167000D1080488F589E02D7801860169817A8195
:101680009B01C5010995D501ED91FC910688F7896B
:10169000E02DC5010F900F900F900F90DF91CF912B
:1016A0001F910F91FF90EF90DF90CF90BF90AF9080
:1016B00009940895EF92FF920F931F93DC01ED912F
:1016C000FC9100A0F1A1E02D09951F910F91FF90D1
:1016D000EF9008950F931F93DC01ED91FC91068C20
:1016E000F78DE02D09951F910F9108950F931F938A
:1016F000DC01ED91FC91048CF58DE02D09951F9195
:101700000F910895DC01ED91FC910084F185E02DAD
:10171000099408952F923F924F925F926F927F9219
:101720008F929F92AF92BF92CF92DF92EF92FF92F1
:101730000F931F93CF93DF9300D01F92CDB7DEB7E7
:101740004C017B836A836A01590117019801241BAC
:10175000350B37FF03C0319521953109C5014A8109
:101760005B81841B950B97FF03C09195819591092F
:1017700051E059838217930714F019820BC09A2DF8
:101780008B2D5801092F182F9A818B81DB82CA82F9
:10179000C92ED82E8A819B81A816B9065CF49C2D8F
:1017A0008D2D6801092F182F9A818B81BB82AA8207
:1017B000A92EB82E2501AA81BB814A1A5B0A3801DD
:1017C0006C187D0877FE03C07194619471087201F2
:1017D00057FE03C0BFEFEB1AFB0AF594E794C0165F
:1017E000D1061CF00FEF1FEF1FC001E010E01CC07E
:1017F000D401ED91FC91B9810484F585E02D91012E
:10180000BB23C1F04A815B81B601C4010995E6188A
:10181000F708F7FE04C0C00ED11EE40CF51CEA81E7
:10182000FB813196FB83EA834A815B81A416B5066E
:10183000FCF604C0A6016A817B81E7CF0F900F9070
:101840000F90DF91CF911F910F91FF90EF90DF905C
:10185000CF90BF90AF909F908F907F906F905F9050
:101860004F903F902F90089585ED8093BC0080911C
:10187000BC0084FDFCCF1092210608954091C8055C
:10188000262F30E0240F311D21323105DCF4209168
:1018900021062430C9F4FC0180E090E0861758F45A
:1018A0003091C8052191DC01AA55BA4FA30FB11D93
:1018B0002C930196F3CF8091C805680F6093C805FB
:1018C00080E0089581E0089582E00895089581E020
:1018D00090E03091F3052091F205321710F480E08A
:1018E00090E091958195910908958091F3059091EB
:1018F000F205891730F48F5F8093F30580E090E064
:1019000008958FEF9FEF08958091F20590E0209168
:10191000F305821B91090895CF92DF92EF92FF9217
:101920000F931F93CF93DF937C01262F972F8A016C
:1019300080912206882391F0C62FD72F6E01C40E06
:10194000D51ECC15DD0571F06991D701ED91FC91A3
:101950000190F081E02DC7010995F3CF642F822F0C
:101960000E943E0CC801DF91CF911F910F91FF9013
:10197000EF90DF90CF900895CF93DF931F92CDB774
:10198000DEB76983209122062223D1F020914506FB
:10199000203240F021E030E0FC013383228380E0FC
:1019A00090E015C080912306E82FF0E0EC5DF94F40
:1019B000998190838F5F809323068093450605C0AD
:1019C00061E0CE0101960E943E0C81E090E00F9014
:1019D000DF91CF910895089580E090E008950E94EE
:1019E000941890E0FC01E859FA4F3491FC01EC5551
:1019F000FA4F2491FC01E057FA4FE491EE2309F4E9
:101A00003BC0332339F1333091F038F43130A9F051
:101A1000323001F584B58F7D12C0373091F0383007
:101A2000A1F03430B9F4809180008F7D03C08091A3
:101A300080008F77809380000DC084B58F7784BD40
:101A400009C08091B0008F7703C08091B0008F7D76
:101A50008093B000F0E0EE0FFF1FE458FA4FA5911D
:101A6000B4918FB7F894EC91611103C020952E23A7
:101A700001C02E2B2C938FBF08958F929F92AF920F
:101A8000BF92CF92DF92EF92FF926B017C010E9496
:101A900011034B015C01C114D104E104F104F1F024
:101AA0000E941103DC01CB0188199909AA09BB091D
:101AB000883E9340A105B10570F321E0C21AD10818
:101AC000E108F10888EE880E83E0981EA11CB11C85
:101AD000C114D104E104F10419F7DDCFFF90EF90B8
:101AE000DF90CF90BF90AF909F908F9008951F92FE
:101AF0000F920FB60F9211242F933F938F939F93C2
:101B0000AF93BF938091F7059091F805A091F905E7
:101B1000B091FA053091ED0523E0230F2D3720F425
:101B20000196A11DB11D05C026E8230F0296A11D37
:101B3000B11D2093ED058093F7059093F805A093D0
:101B4000F905B093FA058091EE059091EF05A0910B
:101B5000F005B091F1050196A11DB11D8093EE0530
:101B60009093EF05A093F005B093F105BF91AF916D
:101B70009F918F913F912F910F900FBE0F901F90CB
:101B800018951F920F920FB60F9211242F933F9327
:101B90004F935F936F937F938F939F93AF93BF9375
:101BA000EF93FF938091B900887F803609F49CC041
:101BB00068F5883209F45BC090F4803109F454C0B0
:101BC00038F4882309F4F6C0883009F44DC0F6C013
:101BD000883109F44CC0803209F45DC0EFC0803414
:101BE00009F468C048F4803309F455C0883309F01B
:101BF000E5C080931F06D8C0803509F44FC08835F2
:101C000009F45DC0883409F0D9C0D6C0883909F418
:101C1000C7C0A8F4883709F467C038F4883609F4D7
:101C200063C0803709F460C0C9C0883809F4B8C0FF
:101C3000803909F45FC0803809F0C0C05BC0803BC8
:101C400009F486C038F4803A09F466C0883A09F489
:101C50007FC0B4C0803C09F4A7C0883C09F4A4C08C
:101C6000883B09F48AC0AAC08091FC0510C09091FD
:101C70001E0680911D06981770F5E0911E0681E002
:101C80008E0F80931E06F0E0E350FA4F8081809320
:101C9000BB0085EC86C080931F068EC0E0911E06B7
:101CA00081E08E0F80931E068091BB00F0E0E35030
:101CB000FA4F808390911E0680911D066EC0E091C0
:101CC0001E0681E08E0F80931E068091BB00F0E01F
:101CD000E350FA4F80838091200681116DC081E02E
:101CE0008093FB0584EA61C083E080932106109213
:101CF000EC05CFCF8091EC05803208F051C0E09127
:101D0000EC0581E08E0F8093EC058091BB00F0E044
:101D1000E453FA4F8083BDCF85EC8093BC001092D2
:101D200021068091EC05803230F4E091EC05F0E082
:101D3000E453FA4F10826091EC0570E0E091CA051F
:101D4000F091CB058CEC95E009951092EC0536C02E
:101D500084E0809321061092C9051092C805E09195
:101D6000C605F091C70509958091C805811105C088
:101D700081E08093C8051092A605E091C90581E035
:101D80008E0F8093C905F0E0EA55FA4F8081809369
:101D9000BB009091C9058091C805981708F479CFC8
:101DA00085E88093BC000AC085EC8093BC0010924B
:101DB000210604C010921F060E94340CFF91EF917F
:101DC000BF91AF919F918F917F916F915F914F9153
:101DD0003F912F910F900FBE0F901F9018959F92DB
:101DE000AF92BF92CF92DF92EF92FF920F931F9329
:101DF000CF93DF93062FEC0197FD279623E0D5952F
:101E0000C7952A95E1F79E0143E0220F331F4A95BB
:101E1000E1F77C01E21AF30A60E088E00E94F10C2D
:101E200081E090E0A0E0B0E004C0880F991FAA1FF5
:101E3000BB1FEA94D2F7982E182F1095E12CF12CA5
:101E4000E091F405F091F505EE0DFF1DEC16FD0691
:101E500039F48081002311F0892901C08123808316
:101E6000A08087E0C82ED12CB12CB5010C2C02C06B
:101E7000759567950A94E2F76170772787E00E946D
:101E8000F10C61E089E00E94F10C60E089E00E94C1
:101E9000F10C81E0C81AD10840F7EA94EF2821F04C
:101EA000EE24E394F12CCCCF61E088E0DF91CF9178
:101EB0001F910F91FF90EF90DF90CF90BF90AF9068
:101EC0009F900C94F10CFC01538D448D252F30E034
:101ED000842F90E0821B930B541710F0CF96089537
:101EE00001970895FC01918D828D981761F0828D84
:101EF000DF01A80FB11D5D968C91928D9F5F9F733E
:101F0000928F90E008958FEF9FEF0895FC01918DDF
:101F1000828D981731F0828DE80FF11D858D90E04C
:101F200008958FEF9FEF0895FC01918D228D892FE9
:101F300090E0805C9F4F821B91098F7399270895D1
:101F400086E496E00E94940F21E0892B09F420E0BA
:101F5000822F0895FC01848DDF01A80FB11DA35AC3
:101F6000BF4F2C91848D90E001968F739927848FB9
:101F7000A689B7892C93A089B1898C9180648C93B0
:101F8000938D848D981306C00288F389E02D80819B
:101F90008F7D80830895EF92FF920F931F93CF93CD
:101FA000DF93EC0181E0888F9B8D8C8D981305C0A9
:101FB000E889F989808185FD24C0F62E0B8D10E01B
:101FC0000F5F1F4F0F731127E02E8C8DE8120CC08E
:101FD0000FB607FCFACFE889F989808185FFF5CF34
:101FE000CE010E94AA0FF1CF8B8DFE01E80FF11DEB
:101FF000E35AFF4FF0820B8FEA89FB898081806270
:1020000007C0EE89FF896083E889F989808180644F
:10201000808381E090E0DF91CF911F910F91FF903D
:10202000EF900895CF93DF93EC01888D8823C9F05A
:10203000EA89FB89808185FD05C0A889B9898C91D1
:1020400086FD0FC00FB607FCF5CF808185FFF2CF6C
:10205000A889B9898C9185FFEDCFCE010E94AA0F86
:10206000E7CFDF91CF9108951F920F920FB60F9295
:1020700011242F933F934F935F936F937F938F938D
:102080009F93AF93BF93EF93FF9386E496E00E94F4
:10209000AA0FFF91EF91BF91AF919F918F917F9187
:1020A0006F915F914F913F912F910F900FBE0F90C5
:1020B0001F9018951F920F920FB60F9211242F9315
:1020C0008F939F93EF93FF93E0915606F0915706FD
:1020D0008081E0915C06F0915D0682FD12C09081E6
:1020E00080915F068F5F8F7320916006821751F099
:1020F000E0915F06F0E0EA5BF94F958F80935F0611
:1021000001C08081FF91EF919F918F912F910F904E
:102110000FBE0F901F901895CF92DF92EF92FF9213
:102120000F931F93CF93DF936C017A018B01C0E073
:10213000D0E0CE15DF0589F0D8016D918D01D60173
:10214000ED91FC910190F081E02DC6010995892B5C
:1021500011F47E0102C02196ECCFC701DF91CF912F
:102160001F910F91FF90EF90DF90CF900895E6E4DC
:10217000F6E0A089B18982E08C93A485B5851C9294
:10218000A685B7858FEC8C93108EA489B58986E0DF
:102190008C93A289B3898C9180618C93A289B38935
:1021A0008C9188608C93A289B3898C9180688C9380
:1021B0000288F389E02D80818F7D808308952091AE
:1021C000450690914406213208F04AC080912106CC
:1021D0008111FCCF32E03093210631E030932006AC
:1021E0003FEF30931F0610921E0620931D06A4E2B7
:1021F000B6E04DEF55E0FA013E2F341B321718F4CC
:102200003D913193F9CF1092FC052091FC05990F77
:10221000922B9093FC059091FB05913061F4109204
:10222000FB059091FC059093BB009091BC0093FD41
:10223000F8CF95EC01C095EE9093BC0090912106EB
:102240009230E1F390911F069F3F79F080911F0635
:10225000803241F080911F06803331F084E005C068
:1022600081E003C082E001C083E010922306109257
:10227000450610922206089590915807992339F047
:102280008EBD00000DB407FEFDCF8EB5089528E089
:1022900030E040E8E0915B07F0915C07508190915D
:1022A0006207909595239083E0915907F0915A0722
:1022B00090916107542F582319F05081952B03C03A
:1022C0005081909595239083E0915B07F0915C0796
:1022D000508190916207952B90834695215031094A
:1022E000C9F60895CF93C82F809153078F3F59F1B6
:1022F000E0915D07F0915E07808190916307982BD4
:102300009083E0915F07F0916007208190916407CE
:10231000909592239083E0915D07F0915E07208174
:10232000909163079095922390838C2F0E943C118B
:10233000E0915D07F0915E07908180916307892BA2
:102340008083CF9108958091510791E09093220668
:1023500080934406109223061092450660E08BE2BB
:1023600097E00E94BC0C6C2F8BE297E00E94BC0CA3
:10237000CF910C94DF1090E0FC01EC55FA4F2491C2
:10238000FC01E057FA4F8491882399F090E0880F80
:10239000991FFC01EA57FA4FA591B491FC01E4584A
:1023A000FA4F859194918FB7F894EC91E22BEC93CE
:1023B0008FBF0895CF92DF92EF92FF920F931F93FA
:1023C0002FB7F894C090F705D090F805E090F90584
:1023D000F090FA052FBFDC01CB018C0D9D1DAE1DC9
:1023E000BF1D4FB7F8940091F7051091F8052091A3
:1023F000F9053091FA054FBF0C151D052E053F0557
:1024000028F080179107A207B30758F71F910F9183
:10241000FF90EF90DF90CF9008950F931F93CF938D
:10242000DF93EC0188819981009729F02A813B8113
:102430002617370788F48B016F5F7F4F0E94CA17FA
:10244000009761F0998388831B830A832C813D81E7
:10245000232B11F4FC01108281E001C080E0DF91A8
:10246000CF911F910F910895CF93DF93EC01888155
:102470009981009711F00E943217198218821D82EB
:102480001C821B821A82DF91CF910895611571051C
:1024900079F0FB0101900020E9F73197AF01461B6D
:1024A000570BDC01ED91FC910280F381E02D099442
:1024B00080E090E00895CF93DF93BC0187E397E03D
:1024C0000E944612EC0165E775E087E397E00E9401
:1024D00046128C0F9D1FDF91CF910895CF93DF930C
:1024E000CDB7DEB768970FB6F894DEBF0FBECDBF8D
:1024F000789484B5826084BD84B5816084BD85B5DF
:10250000826085BD85B5816085BD80916E008160EA
:1025100080936E0010928100809181008260809390
:102520008100809181008160809381008091800092
:102530008160809380008091B10084608093B100BD
:102540008091B00081608093B00080917A008460B7
:1025500080937A0080917A00826080937A008091E3
:102560007A00816080937A0080917A0080688093FD
:102570007A001092C100109227071092280710923B
:10258000290710922A071092E5061092E60610928B
:10259000E7061092E80668EB7BE080E090E00E949E
:1025A000DA1186E496E090932607809325070E942F
:1025B000B7102FB7F8948091F7059091F805A09186
:1025C000F905B091FA052FBF8093E5069093E606D2
:1025D000A093E706B093E80666E675E080912507CC
:1025E000909126070E9446126AE070E080E090E039
:1025F0000E94DA1111E01093F9060E94B71082E0F0
:1026000090E00E949D169093F5058093F405FC01DF
:102610001082118288E00E94BB1189E00E94BB11E8
:1026200087E00E94BB1182E0809352078CE3809385
:102630005107809153078F3F09F4B6C08091550729
:102640000E94BB11809157070E94BB1180915707D0
:10265000082E000C990BFC01E057FA4FE491F0E0D2
:10266000EE0FFF1FE458FA4F2591349130935E0727
:1026700020935D07FC01EC55FA4FE491E09363076A
:1026800080915507082E000C990BFC01E057FA4F7A
:10269000E491F0E0EE0FFF1FE458FA4F25913491DA
:1026A0003093600720935F07FC01EC55FA4FE491EB
:1026B000E09364078091580781113CC080915307D3
:1026C0000E94BB11809154070E94BB118091540756
:1026D000082E000C990BFC01E057FA4FE491F0E052
:1026E000EE0FFF1FE458FA4F2591349130935C07A9
:1026F00020935B07FC01EC55FA4FE491E0936207ED
:1027000080915307082E000C990BFC01E057FA4FFB
:10271000E491F0E0EE0FFF1FE458FA4F2591349159
:1027200030935A0720935907FC01EC55FA4FE49176
:10273000E093610780915807882309F45BC01FB7B5
:10274000F8948091F605811124C0EAE9F5E08491BE
:10275000EEEAF5E09491E82FF0E0EE0FFF1FEA5764
:10276000FA4FA591B491EC91E92321F461E08AE05C
:102770000E94F10C8AE00E94BB118CB580618CBD77
:102780008CB580648CBD8DE00E94BB118BE00E94F3
:10279000BB118091F6058F5F8093F6051FBF80E522
:1027A0008CBD81E08DBD26C01092F3051092F2051C
:1027B00010922306109245061092210610932006CF
:1027C0001092FB0561E082E10E94F10C61E083E17F
:1027D0000E94F10C8091B9008E7F8093B9008091A6
:1027E000B9008D7F8093B90088E48093B80085E4B8
:1027F0008093BC008091560787FD1DC00E94BB11CD
:1028000061E0809156070E94F10C61E070E080E089
:1028100090E00E943D0D60E0809156070E94F10C0F
:102820006AE070E080E090E00E943D0D61E0809100
:1028300056070E94F10C8EEA0E94721185ED0E94EB
:10284000721180E80E94721188EA0E9472118FE36F
:102850000E94721183ED0E94721180E00E94721139
:1028600080E40E9472118DE80E94721184E10E943E
:10287000721180E20E94721180E00E94721181EA5E
:102880000E94721188EC0E9472118AED0E947211EE
:1028900082E10E94721181E80E9472118FEC0E9405
:1028A000721189ED0E94721181EF0E9472118BEDFD
:1028B0000E94721180E40E94721184EA0E947211D7
:1028C00086EA0E9472118EE20E9472118FEA0E94C3
:1028D000721120E0222E21E0322EA12C34E0B32E02
:1028E0008E010F5F1F4F88248394912CE12CF12CD3
:1028F0005E2C4F2C61E0C7010E94EF0EF101C50173
:1029000011920197E9F790924A07809249079092B5
:10291000480780924707109244071092430710928D
:1029200046071092450793E090934B0788E795E0A0
:102930000E945B1281E080934B07EFEFEE1AFE0AD4
:102940001B8A1A8A1D8A1C8A1F8A1E8A4AE0B801BD
:10295000C7010E943616F80101900020E9F731976F
:102960006F01C01AD10AB601CE0142960E940D1223
:10297000811105C0CE0142960E94341207C0DF8A41
:10298000CE8AB8018A899B890E94A2181A8219826C
:102990001C821B821E821D8262E070E0C8010E94C0
:1029A0000D12811104C0C8010E9434120AC082E0D5
:1029B00090E09E838D8360E875E089819A810E9412
:1029C000A2188E899F896A887B88CD80DE806114F9
:1029D000710409F4CCC00097A1F0C80ED91EB6014D
:1029E000C8010E940D12882309F4C1C029813A81CF
:1029F0008D819E81B301820F931F0E94A218DE82F7
:102A0000CD824D815E8169817A8187E397E00E9462
:102A10008C1089819A810E9432178A899B890E9431
:102A2000321783E895E00E945B128FE895E00E94E0
:102A30005B128AE995E00E945B1281E20E947211AA
:102A400080E00E9472118FE70E94721182E20E9460
:102A5000721180E00E94721187E00E9472118091D1
:102A600053078F3FA1F1E0915D07F0915E079081E0
:102A700080916307892B8083E0915F07F091600765
:102A8000908180916407892B8083E0915D07F091AC
:102A90005E0790818091630780958923808390E011
:102AA000C92E91E0D92EF60181916F010E943C114F
:102AB000F0E0CF16F5E0DF06B1F7E0915D07F091A9
:102AC0005E07908180916307892B808338C0809155
:102AD000B800888F9CE09093B80080E0C82E81E019
:102AE000D82E80915107E1E0E093220680934406BE
:102AF000109223061092450660E48BE297E00E9454
:102B0000BC0C612C712CF601E60DF71D60818BE287
:102B100097E00E94BC0CFFEF6F1A7F0A80E16816F5
:102B2000710489F70E94DF1090E1C90ED11CE0E02A
:102B3000CE16E5E0DE06A9F6F88DF093B8006CE25B
:102B400071E080E090E00E943D0D60E0852D942DC5
:102B50000E94EF0E80E1E816F10409F0C9CEF10100
:102B6000C50111920197E9F70E940703BFCEC80182
:102B70000E94341246CFE6E4F6E01382128288EE19
:102B800093E0A0E0B0E084839583A683B7832AE135
:102B900035E03183208325EC30E03587248724EC31
:102BA00030E03787268720EC30E0318B208B21EC1A
:102BB00030E0338B228B22EC30E0358B248B26ECFB
:102BC00030E0378B268B118E128E138E148EE3EE2F
:102BD000F6E01682178210861186128613861486F6
:102BE000158616861786108A118A128A138A148A05
:102BF000158AEBE2F7E01382128284839583A68321
:102C0000B7838CE295E091838083E7E3F7E013825A
:102C1000128220E830E03583248380E490E09783BB
:102C200086833187208793878287158A1586148645
:102C30001786168681E0848B2FEF3FEF338B228B34
:102C4000318B208B868B178A118E108E8EE395E048
:102C50009183808384E080A382E0878F83E0868FE6
:102C60008BE0858F8AE0848F11A20895BB27FB013A
:102C70005527AA27880F991FAA1FA41710F0A41B75
:102C800083955051B9F7A05DAA3308F0A95DA193CF
:102C9000009779F7B111B1931192CB010C945016B2
:102CA000DC01FC01672F71917723E1F7329704C0B3
:102CB0007C916D9370836291AE17BF07C8F308953E
:102CC0002F923F924F925F926F927F928F929F923C
:102CD000AF92BF92CF92DF92EF92FF920F931F932A
:102CE000CF93DF93CDB7DEB7CA1BDB0B0FB6F894DB
:102CF000DEBF0FBECDBF09942A88398848885F841B
:102D00006E847D848C849B84AA84B984C884DF808B
:102D1000EE80FD800C811B81AA81B981CE0FD11D6F
:102D20000FB6F894DEBF0FBECDBFED010895EE0FD4
:102D3000FF1F0590F491E02D0994CF93DF9382302B
:102D4000910510F482E090E0E0916707F091680748
:102D500020E030E0C0E0D0E0309711F140815181B7
:102D600048175907C0F04817590761F482819381C9
:102D7000209719F09B838A832BC0909368078093D8
:102D8000670726C02115310519F04217530718F4BB
:102D90009A01BE01DF01EF010280F381E02DDCCF5B
:102DA0002115310509F1281B390B2430310590F428
:102DB00012968D919C9113976115710521F0FB017D
:102DC0009383828304C09093680780936707FD0113
:102DD000329644C0FD01E20FF31F8193919322507C
:102DE00031092D933C933AC02091650730916607D5
:102DF000232B41F42091020530910305309366079F
:102E000020936507209100053091010521153105BA
:102E100041F42DB73EB74091040550910505241BA0
:102E2000350BE0916507F0916607E217F307A0F410
:102E30002E1B3F0B2817390778F0AC014E5F5F4F10
:102E40002417350748F04E0F5F1F509366074093D5
:102E500065078193919302C0E0E0F0E0CF01DF913C
:102E6000CF9108950F931F93CF93DF93009709F4A9
:102E70008CC0FC0132971382128200916707109177
:102E800068070115110581F420813181820F931F9C
:102E900020916507309166072817390779F5F09377
:102EA0006607E093650771C0D80140E050E0AE17B7
:102EB000BF0750F412962D913C911397AD01211547
:102EC000310509F1D901F3CF9D01DA013383228362
:102ED00060817181860F971F8217930769F4EC0157
:102EE00028813981260F371F2E5F3F4F3183208382
:102EF0008A819B8193838283452B29F4F093680711
:102F0000E093670742C01396FC93EE931297ED018E
:102F1000499159919E01240F351FE217F30771F46F
:102F200080819181840F951F029611969C938E93B8
:102F30008281938113969C938E931297E0E0F0E048
:102F4000D80112968D919C911397009719F0F80172
:102F50008C01F6CF8D919C9198012E5F3F4F820F8F
:102F6000931F20916507309166072817390769F488
:102F7000309729F4109268071092670702C01382F5
:102F800012821093660700936507DF91CF911F911E
:102F90000F910895A0E0B0E0E0EDF7E10C94641625
:102FA000EC01009721F4CB010E949D16B8C0FC01F2
:102FB000E60FF71F9C0122503109E217F30708F4CE
:102FC000ACC0D9010D911C91119706171707B0F0ED
:102FD0000530110508F49FC0C801049786179707AC
:102FE00008F499C002501109061B170B01931193A5
:102FF0006D937C93CF010E9432178DC05B01A01AA4
:10300000B10A4C01800E911EA0916707B09168072C
:1030100040E050E0E12CF12C109709F44AC0A815CB
:10302000B905D1F56D907C901197630182E0C80ECF
:10303000D11CCA14DB0480F1A3014A195B096A019F
:1030400082E0C80ED11C1296BC9012971396AC91D8
:10305000B5E0CB16D10440F0B282A3835183408304
:10306000D9016D937C930AC00E5F1F4FC301800F7F
:10307000911FF90191838083EB2DFA2FE114F10464
:1030800031F0D7011396FC93EE93129744C0F0935E
:103090006807E09367073FC08D919C91119748178F
:1030A000590708F4AC017D0112960D90BC91A02D3A
:1030B000B3CF809165079091660788159905E1F473
:1030C00046175707C8F480910005909101050097B5
:1030D00041F48DB79EB74091040550910505841BBE
:1030E000950BE817F907C8F4F0936607E0936507B6
:1030F000F901718360830FC0CB010E949D167C0192
:10310000009759F0A801BE010E949918CE010E94B3
:103110003217C70104C0CE0102C080E090E0CDB7F5
:10312000DEB7EEE00C94801681E090E0F8940C9409
:10313000A918FB01DC0102C001900D9241505040E2
:10314000D8F70895FB01DC0101900D920020E1F712
:063150000895F894FFCF82
:103156000000000000000000000000000000000069
:103166000000000000000000000000000000000059
:103176000000000000000000000000000000000049
:1031860000000000000000000000000000000080B9
:103196008080000000000000000000000000000029
:1031A600008080C0C0000000000000000000000099
:1031B6000000000000000000000000000000000009
:1031C60000000000000000000000000000000000F9
:1031D60000000000000000000000000000000000E9
:1031E6000000000080C0E0F0F8FCF8E000000000FD
:1031F6000000000000000000000000000080808049
:10320600808000808000000000808080808000FF39
:10321600FFFF0000000080808080000080800000AA
:1032260080FFFF808000808000808080800080801A
:103236000000000000808000008C8E84000080F872
:10324600F8F8800000000000000000000000000008
:10325600F0F0F0F0F0F0F0F0F0F0F0F0E0E0C08028
:1032660000E0FCFEFFFFFF7FFFFFFFFFFF00000007
:103276000000000000000000000000FEFFC7010182
:10328600010183FFFF00007CFEC70101010183FFEE
:10329600FFFF0038FEC78301010183C7FFFF00005F
:1032A60001FFFF010100FFFF0701010100007FFF91
:1032B60080000000FFFF7F0000FFFFFF000001FF0E
:1032C600FFFF0100000000000000000000000000F9
:1032D600030F3F7F7FFFFFFFFFFFFFFFE7C7C78F9C
:1032E6008F9FBFFFFFC3C0F0FFFFFFFFFFFCFCFC8B
:1032F600FCFCFCFCFCF8F8F0F0E0C0000103030362
:10330600030301030300000000010303030301019B
:10331600030100000001030303030101030300008E
:10332600000303000000030300000000000000018A
:10333600030303030301000000010301000000036F
:103346000301000000000000000000000000000073
:1033560000000080C0E0F0F9FFFFFFFFFF3F1F0FF6
:1033660087C7F7FFFF1F1F3DFCF8F8F8F87C7DFFC5
:10337600FFFFFFFFFFFFFF7F3F0F0700303000001A
:103386000000000000000000000000000000000037
:1033960000000000FEFEFC0000000000000000002F
:1033A60000000000000000000000000000E0C00077
:1033B60000000000000000000000303000000000A7
:1033C60000000000000000000000000000000000F7
:1033D60000C0FEFFFFFFFFFFFFFFFFFF7F7F3F1FD6
:1033E6000F071F7FFFFFF8F8FFFFFFFFFFFEF8E064
:1033F600000000010000000000000000FEFE0000CA
:1034060000FCFEFC0C06060EFCF80000F0F81C0E94
:103416000606060CFFFFFF0000FEFE00000000FC93
:10342600FEFC00183C7E66E6CE84000006FFFF0622
:1034360006FCFEFC0C0606060000FEFE0000C0F8B8
:10344600FC4E4646464E7C7840183C76E6CECC800E
:103456000000000000000000000000000000000066
:103466000000000001070F1F1F3F3F3F3F1F0F03D4
:103476000000000000000000000000000F0F000028
:10348600000F0F0F000000000F0F000003070E0CC7
:1034960018180C060F0F0F0000010F0E0C180C0F5A
:1034A600070100040E0C180C0F070000000F0F0098
:1034B600000F0F0F0000000000000F0F00000007B4
:1034C600070C0C181C0C060600040E0C180C0F0733
:1034D60000000000000000000000000000000000E6
:1034E60000000000000000000000000000000000D6
:1034F60000000000000000000000000000000000C6
:1035060000000000000000000000000000000000B5
:1035160000000000000000000000000000000000A5
:103526000000000000000000000000000000000095
:103536000000000000000000000000000000000085
:103546000000000000000000000000000000000075
:10355600000069078000000103070F1F3F7F0080FE
:10356600C0E0F0F8FCFE00000000CB0F8C10630FEB
:103576001210940F720F860F00000000BC0C8C0C0A
:10358600EC0C660C840C750C670C00000000B60889
:103596008C10EC0CEB0CEC05890B820B5A0B760BA2
:1035A6006A0B8A0B590B8B068A0636039004800A2F
:1035B600620AEB098C09564D4450565F317C315FE7
:1035C600564D4450560D0A003132302042504D00BF
:1035D600312F00202020312F342020494956006900
:1035E6006F616E69616E2043330050617474657259
:0635F6006E2032310000DE
:00000001FF
