:100000000000022099010000992C0000512C0000F2
:10001000512C0000512C0000512C0000512C0000EC
:10002000512C0000512C0000512C0000992C000094
:10003000992C0000512C0000A1320000A5330000D3
:10004000992C0000992C0000992C0000992C00009C
:10005000992C0000992C0000992C0000992C00008C
:10006000992C0000992C0000992C0000992C00007C
:10007000992C0000992C0000992C0000992C00006C
:10008000992C0000992C0000992C0000992C00005C
:10009000992C0000992C0000992C0000992C00004C
:1000A000992C0000992C0000992C0000992C00003C
:1000B000992C0000992C0000992C0000A110000040
:1000C000992C0000FD170000992C0000852D0000E0
:1000D000992C00007D2E0000992C0000992C000026
:1000E000992C0000992C0000992C0000992C0000FC
:1000F000992C0000992C0000992C0000992C0000EC
:100100002129000035290000492900005D2900004F
:10011000992C0000791A0000992C0000992C0000FD
:10012000992C0000992C0000992C0000992C0000BB
:10013000992C0000992C0000992C0000992C0000AB
:10014000992C0000992C0000752F0000992C0000BC
:100150006D300000992C0000992C0000992C0000B3
:10016000992C0000992C0000992C0000992C00007B
:10017000992C0000992C0000992C0000992C00006B
:10018000992C0000992C0000992C0000992C00005B
:10019000992C0000992C0000584B4CF2205210B5BD
:1001A0001A804DF628121A8000BF00BF02F078FDB9
:1001B000534B4FF030621A60524A9A60524ADA60EA
:1001C000524B4FF470021A60514A136813F4807353
:1001D00004D150490B604FF4A85313604E4B1A786A
:1001E000110703D51A7842F008021A704B4B4C499C
:1001F0002A221A704B4A4C4B8B4204D252F8040FFD
:1002000043F8040BF8E7494B494900228B4202D2DC
:1002100043F8042BFAE74749474A002352F82300E2
:1002200041F823000133662BF8D1444B444A802126
:1002300003F8011B9342FBD1424B3E4A1A60424BEA
:100240008A221A70A3F5805324225A70A0221A70B1
:100250009A799207FCD59A79D406FCD43B4A9379D3
:1002600003F00C03082B394BF9D103221A714622F3
:100270005A719A799006FCD5344A9179334B4906E4
:10028000FBD5334A4FF08271116009215160202261
:100290001A709A7902F00C020C2AFAD12D4B2E4AD0
:1002A0001A602E4B2E4A1A6000225A60072243F829
:1002B000042C2C4AC3F80C2D62B600F071FD154BCE
:1002C0001B68DA0705D5284800F0FEFC274B284AB2
:1002D0001A60284B1B785B0609D5244C244B2268F6
:1002E0009A4204D1204800F0EFFC0023236003F081
:1002F0007DF802F0DBFC02F03BFBFEE70E20054040
:1003000030800440823F04000100002B88ED00E0B3
:1003100010D0034014D0034002D0074000E0074053
:10032000F412FF1FD8410000F806FF1FF412FF1F50
:10033000F417FF1F0002FF1F0000000000E400E0B0
:1003400056E400E008ED00E00050064000400640A2
:100350004480044004800440C010050014E000E024
:10036000BFD4010000002020D905E2021CE00340B8
:10037000A5C3945A00F00740FFFFFFFFFFFFFFFFF8
:10038000FFFFFFFFFFFFFFFFFFFFFFFFFFFFFFFF7D
:10039000FFFFFFFFFFFFFFFFFFFFFFFFFFFFFFFF6D
:1003A000FFFFFFFFFFFFFFFFFFFFFFFFFFFFFFFF5D
:1003B000FFFFFFFFFFFFFFFFFFFFFFFFFFFFFFFF4D
:1003C000FFFFFFFFFFFFFFFFFFFFFFFFFFFFFFFF3D
:1003D000FFFFFFFFFFFFFFFFFFFFFFFFFFFFFFFF2D
:1003E000FFFFFFFFFFFFFFFFFFFFFFFFFFFFFFFF1D
:1003F000FFFFFFFFFFFFFFFFFFFFFFFFFFFFFFFF0D
:10040000FFFFFFFFFFFFFFFFFFFFFFFFDEF9FFFF23
:1004100010B5054C237833B9044B13B10448AFF33E
:1004200000800123237010BDF412FF1F00000000A4
:10043000DC410000084B10B51BB108490848AFF378
:1004400000800848036803B910BD074B002BFBD0A0
:10045000BDE81040184700BF00000000F812FF1F61
:10046000DC410000F412FF1F0000000010B504463C
:1004700002F034FA204610BD70B5154B154C1B68C0
:1004800082B00193019D2368EB1AC82B0FD9124E3D
:10049000337873B9114B1B68002B03DB104A591ECC
:1004A00091420AD93378256083F00103337002B09A
:1004B00070BD0C4802F012FAF4E7C3EB031292008D
:1004C000013A232AEED90849064802F0BDF9E9E7C6
:1004D0008813FF1F1013FF1F2C13FF1F1C13FF1F78
:1004E000474444041413FF1F6D06000010B5294C47
:1004F00040F6B831204600F011FA204626494FF464
:10050000E13200F0E5F92046012100F0BBF960B1CD
:10051000606C2249036811225B68984720460A21D3
:1005200000F09EF9204600F0D1F90122002119487F
:100530001B4C00F0BBFA0321022000F0DDFB02227D
:100540001046184900F044FB01210B2000F0D4FBB9
:1005500000210B2000F0CAFB0321042000F0CCFB9B
:100560002078012100F0C8FB0121207800F0BEFBBB
:100570004FF4F05000F0FAFC40F6230000F016FEB5
:100580000B21094801F0B4FF0348BDE8104002F018
:10059000F7B900BF3C13FF1FFC09FF1F343E0000EA
:1005A000D807FF1F79040000483E000030B51E4BFD
:1005B0001E4C1B6883B00193019D2368EB1AB3F5B1
:1005C000FA7F24D91A4B1A6890421FD0820007EE96
:1005D000102A9FED186ADFED186A184A1849127838
:1005E0001860B8EEC77AC6EE077A67EEA67A67EEAD
:1005F000A67AFDEEE77A17EE903AC1ED007A2AB1BD
:10060000002B03DB0F4A591E914202D9256003B02B
:1006100030BDC3EB03129200013A232AF6D90A49EE
:100620000A4802F011F9F1E78813FF1F2813FF1F92
:100630001C08FF1F0000704200007A442C13FF1FAB
:100640001C13FF1F474444046D0600001413FF1FD2
:1006500038B5C0B20D46144600F008FDE8B200F00F
:1006600005FDE0B2BDE8384000F000BD30B51C4CDF
:100670001C4B227853F8225083B029467F229020C9
:10068000FFF7E6FF00228023684600928DF80430D1
:1006900002F024F9144B1548EDB21D7002F01EF95A
:1006A000134B1B68B3F1640203D41249653B8B42C0
:1006B0000BD923780A4A0133DBB223702378102B3D
:1006C00004BF0023137003B030BDC2EB02129200CE
:1006D000013A232AEDD90849044802F0B5F8E8E7C1
:1006E0003813FF1FDC07FF1F2013FF1F3013FF1FEE
:1006F0001C13FF1F47444404FD06000008B5054BCA
:10070000802019780022FFF7A3FF0348BDE80840C6
:1007100002F0E4B82013FF1F3013FF1F70B51F4C09
:100720008CB02368019301210B20019B00F0DEFABD
:1007300000210B2000F0DAFA23680093009E0025C8
:1007400006F5487623680293029B144A9E4210D80D
:100750001368039308211248039B01F0C9FE114856
:1007600002F00EF901F024F8642000F0CBFA0CB08E
:1007700070BD00F0C1FF2228024605D0112DE1D145
:1007800023680393039BEDE703A9074802F068F988
:100790009DF80C00FFF70AFF1135EFE78813FF1FE4
:1007A000543E0000FC09FF1FDC09FF1F10B5094C77
:1007B00082B023680193019BFFF7B0FF064A2168CE
:1007C00013680091013364200099136000F09AFAD5
:1007D00002B010BD8813FF1F2413FF1FF8B5154B7F
:1007E000154F164E1846002580243A4631461D60A6
:1007F0001C7102F0E9FD124B3A46184631461D6065
:100800001C7102F0E1FD0F4B9FED0F6A1B68DFEDDD
:100810000F6A0F4A9B0007EE903AB8EEE77AC6EEF1
:10082000077A67EEA67A67EEA67AFDEEE77AC2ED62
:10083000007AF8BD3013FF1FD407FF1F6D040000BE
:100840001413FF1F1C08FF1F0000704200007A44B1
:100850001C13FF1F01F0E6BD01F008BE01F01EBE33
:10086000074882B003680193019A114401E099425C
:1008700004D303680093009B9A42F8D902B07047F2
:100880008813FF1F10B4104A85B0A1B913680093F4
:100890004168009B591A31290DD813680293029CB4
:1008A00004F13203591A01E0994204D31368019309
:1008B000019B9C42F8D913680393039B436001207A
:1008C00005B05DF8044B70478813FF1F704700BFE9
:1008D0002DE9F0410D4D0E4EDFF83C800D4F416487
:1008E0001B2401E000F00EFA2B78C82043B13378C6
:1008F0009B0705D0D8F800303A689B1A182B03D80C
:10090000013CEFD1BDE8F081BDE8F0818015FF1F0B
:100910009815FF1FEC17FF1F8813FF1F0023836428
:10092000436071B1074882B003680193019A114492
:1009300001E0994204D303680093009B9A42F8D9DE
:1009400002B070478813FF1F70B5144C84B0054681
:10095000406C236803930368039A6A600E465B68E1
:100960000F4906229847314600230A22686C02F09C
:1009700017F8686C0B49036808225B68984723687E
:100980000293029A02F1320101E0994204D32368F2
:100990000193019B9A42F8D904B070BD8813FF1FE0
:1009A000783E0000803E0000F8B5037E0BB963205E
:1009B000F8BD0446406C3B4E03681B69B3420D46CC
:1009C0006AD101F06BFD10F0FF0F01D16520F8BD79
:1009D000354F606C03681B69B3425FD101F05EFD67
:1009E00010F0FF0FF2D0606C03685B69BB4257D117
:1009F00001F018FDC3B2A3F158021E2AE9D801A1E3
:100A000051F822F0910A0000D3090000D309000038
:100A1000D3090000D3090000D3090000D309000066
:100A2000D3090000D3090000D3090000D309000056
:100A3000850A0000D3090000D3090000D309000093
:100A4000D3090000AF090000D3090000D30900005A
:100A5000D3090000D3090000D3090000D309000026
:100A6000D3090000D3090000AF090000D30900003A
:100A7000D3090000D3090000D3090000810A000057
:100A80001846F8BD20462946FFF75EFF6320F8BDF3
:100A9000002323766320F8BD984794E798479FE7A3
:100AA0009847A7E75D0800005508000070B50546A7
:100AB00082B01646C9B101230D4C037600212846A9
:100AC000FFF772FF632810D023680193019A511C2D
:100AD00023680093009B9A42F0D89942F8D20021F3
:100AE0002846FFF761FF6328EED12E7602B070BD75
:100AF0008813FF1F034B00229A60DA601A615A6163
:100B0000704700BF3C13FF1F704700BF10B4114B6C
:100B100053F8302092F8804234B1012379B182F841
:100B200080305DF8044B704703EBC0035B681A68C4
:100B300051B922F002021A605DF8044B704782F846
:100B400000315DF8044B704742F003021A605DF813
:100B5000044B7047D43E00001C4A02EBC00301293D
:100B60005B6811D004291BD052F83000002280F8B5
:100B7000802229B1022920D0032922D01A6070478F
:100B80004FF480721A60704752F830004FF4A2722E
:100B900080F880121A601A6822F020021A607047EA
:100BA00052F830104FF4A272012081F880021A60CE
:100BB0001A6842F020021A60704740F203121A606D
:100BC00070474FF481721A60704700BFD43E000036
:100BD0003F2817D8F8B5042A13D8DFE802F0494CAB
:100BE0004F1446002C4872B6236823F4702343F058
:100BF0008072C4F384011643236040F821502660BC
:100C000062B6F8BD70474FF41026244B03EBC003C7
:100C10000D465C68216811F4E06134D0204B214A14
:100C20002149C3F82C2104F140422048C3F8341173
:100C3000A2F592211E4FC3F830017C291D48C3F84C
:100C40003871C3F83C01CDD9A2F594237C2B18D977
:100C5000A2F596237C2B19D9A2F598237C2B17D9C2
:100C6000A2F59A227C2A15D9F8BD4FF43026CCE79C
:100C70004FF40026C9E74FF44026C6E74FF420267C
:100C8000C3E70D48AFE7FFF767FFC7E70B48AAE7E1
:100C90000B48A8E70B48A6E72008FF1FD43E00003A
:100CA0000002FF1FA907FF1F5107FF1F7D07FF1F3E
:100CB0002507FF1FF906FF1F9808FF1FF808FF1FF1
:100CC0002809FF1F6809FF1F30B4054B054D064C6E
:100CD000002210211A602A602060196030BC704721
:100CE00014D0034004D0034000D003403F2801D873
:100CF000FFF70CBF704700BF3F2801D8FFF72CBF9C
:100D0000704700BF2DE9F843054672B6204F214BCE
:100D1000214A1B683C68126862B6520102D5322B28
:100D200088BF013495B3C3F5EA331C4EDFF86490F5
:100D3000DFF86480BF334FF47A72A6FB031302FB23
:100D400004F404EB931472B6D9F800103A68D8F89A
:100D500000E062B6C1F5EA33BF33A6FB03031EF021
:100D6000806FC4EB93134FF47A7002D0322988BF9E
:100D7000013200FB0233B3F57A7F04D3013D05D085
:100D800004F57A74DFE701F091FEDCE7BDE8F88353
:100D90008813FF1F18E000E004ED00E089888888D0
:100DA000F8B53E4B3E49DFF818C13E4E3E4ADFF8EB
:100DB00014E13E4D3E4C3F4F4FF0006018604FF045
:100DC000805018604FF0005018604FF0804018605D
:100DD0004FF0004018600020086028234EF6FF7195
:100DE000CCF80010CEF8003033600EF5012E136001
:100DF0002B60236005F500253B6004F50024B362F9
:100E000007F50027936206F5012602F501220EF18F
:100E1000100E05F6E87504F6E87407F57F671032E2
:100E200020362B602360CEF800303B6013603360C7
:100E3000214EBB61936109223260A7F5002706F5B8
:100E40008056203F083638603160BB60F36047F859
:100E5000042C06F5FD2607F5FE2706F2FC7604377E
:100E600030603960B360FB6046F8042C0836C7F880
:100E7000FC0F06F6FC76114831602B60236002609F
:100E800001F076FE3220FFF73DFF01F021FA4FF42A
:100E9000AF70BDE8F840FFF735BF00BF04E100E0E8
:100EA00004800340148003401C80034024800340DE
:100EB0002C800340348003400080034000900B40AE
:100EC000088003400C8003402DE9F84F214B1B683C
:100ED00007460BB101221A70DFF888901E4D99F871
:100EE0000040DFF884801D4E01343F2C8ABF4FF054
:100EF000000A5FFA84FA5446AB462B78A34216D117
:100F000001F0ECFE40281FDC33791B06F5D59BF879
:100F1000003001333F2B86BF00221346DAB218F8A7
:100F20000330DBB2F3712A702B78A342E8D00C496E
:100F30000A4BFFB208F804700120BC22087089F83F
:100F400000A0DA70BDE8F88FFF28D6DD01F0AEFD15
:100F5000D3E700BF1C14FF1F1914FF1F00A0064099
:100F60001814FF1F2014FF1F9413FF1F2E4A2F4930
:100F70001368F0B543F4806313600A782C4F2D4E4C
:100F80002D4D2E4C2E490023152A3B7033702B70AB
:100F900023700B7043D01B2A3CD04AB3294B1B78DB
:100FA000052B2DD01A2B30D0012B1CD0264B274CD3
:100FB0002749C0F34436C0F347151E7000F01F00E8
:100FC0005D7004224FF0020E88273C26402598725F
:100FD0009A704FF0004083F813E05A751F74DE706A
:100FE00025700860F0BD1B4B4FF451721A60DDE7AD
:100FF000194B40F213321A60124B1B78052BD1D1DA
:10100000164B4FF451721A60D0E7154B4FF45172E2
:101010001A60CBE7134B40F213321A60BEE7124B53
:1010200040F213321A60B9E734800440D413FF1F32
:101030009013FF1F9113FF1F2014FF1F1914FF1F90
:101040001814FF1FD409FF1F00A006401FE400E092
:1010500000E100E044A0044040A004401CC0044063
:10106000389004403C90044018C00440034B1B6877
:101070005B0501D5FFF728BF704700BF34800440EF
:10108000054A064B10781B78C0B2DBB2984238BFD5
:101090004030C01A704700BF9013FF1F9113FF1F0D
:1010A000F0B4384B1A7912F0300F2CD072B6997D0B
:1010B00001F0FF0200293DD062B6334F3349387842
:1010C0000D78334E1C46C0B2EDB2431C402BE17983
:1010D00028BF0023AB4202F1FF32C9B21CBFF1545A
:1010E000184612F0FF02F0D12A4B1B68C2B23A70C8
:1010F0004BB1A84236BFC5F14005401B4019272817
:10110000C4BF01221A701F49CA78D2B2150616D47C
:1011100052060DD51B4B1B795B0609D51E4B1F498B
:101120001B6800220A7003B11A70164B3C22DA7059
:10113000F0BC70474022D9795A7462B6E3E70B7964
:101140001C06E5D5164B174E1C783378E4B2DBB29B
:101150009C420ED0144D01E0A3420AD00133402B33
:1011600028BF00230879E85CC0B2C871087D072851
:10117000F2D9DBB2034933700B79180644BF7C23E4
:10118000CB70C5E700A006409013FF1F9113FF1F0F
:10119000D813FF1F8C13FF1F1C14FF1F1814FF1FF1
:1011A0002014FF1F1914FF1F9413FF1F264A2749FD
:1011B0001368F0B443F4006313600A78244F254E9B
:1011C000254D264C26490023092A3B7033702B708D
:1011D00023700B7032D03B2A23D0224B1B780A2B72
:1011E00027D03A2B03D1204B4FF451721A601F4B7A
:1011F0001F4D204CC0F34437C0F3471600F01F00CA
:101200001F7004215E700222987288273C264020BD
:101210009970DA7459751F74DE7028702260F0BC02
:101220007047154B40F213321A600E4B1B780A2B95
:10123000D7D1124B4FF451721A60D8E7104B40F2DD
:1012400013321A60C9E700BF34800440D509FF1F7C
:101250009414FF1F2914FF1F9C14FF1F9514FF1FD8
:101260002814FF1FD609FF1F00D0044000B006401D
:1012700021E400E004E100E004D0044010B00440A8
:101280000CB00440194B19499B7803F0EC0200F0B4
:1012900003031343420700F00F0248BF43F010035B
:1012A000042A8B701CD0114B104A5B79C10603F0E5
:1012B000EF0348BF43F0100353719379820603F0A4
:1012C000EF030A4A48BF43F010039371C30506D5E4
:1012D00053781178DBB241F02001117053707047E0
:1012E0008B7943F040038B71DDE700BF00B006400F
:1012F000204B1B681B053BD510B51F4C237823B131
:1013000001F0D4FB2378002BFAD11C481C491D4B5B
:10131000022400220460CA701B78092B19D03B2BD1
:1013200001D1194B1A60194B1B7803F07F030A2B6C
:1013300019D03A2B02D1164B00221A60154B1648D1
:1013400016491A68002303700B700AB10123137049
:1013500010BD134B40F203121A600C4B1B7803F0C4
:101360007F030A2BE5D10F4B40F203121A60E5E729
:10137000704700BF348004402814FF1F84E100E060
:1013800000B00640D509FF1F04D00440D609FF1F56
:1013900000D004402414FF1F9414FF1F2914FF1FC2
:1013A0000CB0044010B004400A4A38B50546137822
:1013B00003F0FF04002BFAD101212846FFF79CFC23
:1013C00021462846FFF792FC034A044B52F8352089
:1013D0001A6038BD2814FF1FD43E00009814FF1F68
:1013E00009B140F08000174A1378984217D010B422
:1013F000154C246824050FD503F07F030A2B1DD05C
:101400003A2B12D0002900F07F0114BF602344233F
:101410000A290ED03A2903D010705DF8044B7047AA
:101420000A4943F440730B60F6E7084B00241C6044
:10143000E8E7074943F440730B60EDE7044B0024F1
:101440001C60DFE7D609FF1F3480044000D0044051
:1014500010B00440124B1A7882420CD0114909682E
:10146000090507D5092A16D03B2A0AD009280DD02C
:101470003B2801D0187070470B4A40F213311160BD
:10148000F8E7094A002109281160F1D1074A40F222
:1014900013311160EEE7054A00211160E6E700BF55
:1014A000D509FF1F3480044004D004400CB0044030
:1014B0000D4B1B6813F4006305D03F2805D90B4B77
:1014C00000201860704718467047094B10B5074C4C
:1014D00053F8303023600121FFF70EFC236800220F
:1014E0001A70012010BD00BF348004402414FF1F77
:1014F000D43E00000F4B1B6813F4006308D017287C
:1015000008D03C2811D00C4A537B03F0FE035373E0
:1015100000207047094B40F202321A60064A537BA2
:1015200043F00103537301207047054B40F2023230
:101530001A60F3E73480044000B0064008B004406D
:1015400008D004402DE9F84F234B1B681A053BD502
:10155000224B1B680BB101221A70DFF89090204DCE
:1015600099F80040DFF888801E4E0134272C8ABF8E
:101570004FF0000A5FFA84FA54460746AB462B78D0
:101580009C4216D101F0AAFB40281FDC33791B06D0
:10159000F5D59BF800300133272B86BF0022134678
:1015A000DAB218F80330DBB2F3712A702B789C4260
:1015B000E8D00D490B4BFFB20120BC2208F80470A3
:1015C000087089F800A0DA70BDE8F88FFF28D6DD32
:1015D00001F06CFAD3E700BF348004409814FF1F79
:1015E0009514FF1F00B006402814FF1F9C14FF1F16
:1015F0002C14FF1F2DE9F84F294B1B681A0548D5FD
:10160000284B1B6805460BB101221A7005EB010A35
:10161000554540D2DFF89C80234CDFF89C90234F47
:101620000AE015F8012B09F80B20214A0123AA45ED
:10163000137088F800602ED098F80030227803F1FB
:10164000010BBBF1270F86BF0026B3465FFA8BF66E
:101650009345E6D1BC22FA7005E03A7913060BD423
:1016600022789345DDD101F039FB4028F5DDFF28D4
:10167000F6DD01F01BFAF3E722780132272A86BF54
:1016800000210A46D1B219F80220D2B2FA712170B3
:10169000E6E7BDE8F88F054BBC22DA70BDE8F88FAD
:1016A000348004409814FF1F9514FF1F00B00640BB
:1016B0002814FF1F9C14FF1F2C14FF1F10B5044C8F
:1016C000237823B101F0F2F92378002BFAD110BD71
:1016D0002814FF1F064A074B1B781078DBB2C0B2F4
:1016E00083422CBF273000F1FF30C01A704700BF83
:1016F0009514FF1F9C14FF1F054A064B10781B789A
:10170000C0B2DBB2984238BF4030C01A704700BF49
:101710009414FF1F2914FF1F30B4154B154C1A7871
:101720002378D2B2DBB29A421ED001333F2B0ED9BE
:101730001149124B087819680023C0B2237021B1F7
:10174000D31A1A2B01DC00230B7030BC70470A48F7
:101750000A49C05C0968DDB2C0B225700029F4D026
:101760009A4238BF4032EBE74FF0FF30EDE700BF61
:101770009414FF1F2914FF1F5414FF1F2414FF1F6C
:10178000084A094B12781B78DBB29A4207D0013322
:10179000402B28BF0023054AD05CC0B270474FF0F1
:1017A000FF3070479414FF1F2914FF1F5414FF1FAC
:1017B0000D4B1B681B0516D530B40C4B0C4CDA785E
:1017C0000C480D4902F0CB024025DA705D74DA78DE
:1017D00042F03402DA7023780268DBB20B700AB18F
:1017E0000023137030BC70473480044000B00640C2
:1017F0002914FF1F2414FF1F9414FF1FF0B4384B4B
:101800001A7912F0300F2CD072B6997D01F0FF02D8
:1018100000293DD062B6334F334938780D78334EC6
:101820001C46C0B2EDB2431C402BE17928BF002317
:10183000AB4202F1FF32C9B21CBFF154184612F09C
:10184000FF02F0D12A4B1B68C2B23A704BB1A842DA
:1018500036BFC5F14005401B40192728C4BF0122EF
:101860001A701F49CA78D2B2150616D452060DD581
:101870001B4B1B795B0609D51E4B1F491B680022B9
:101880000A7003B11A70164B3C22DA70F0BC704734
:101890004022D9795A7462B6E3E70B791C06E5D584
:1018A000164B174E1C783378E4B2DBB29C420ED054
:1018B000144D01E0A3420AD00133282B28BF002396
:1018C0000879E85CC0B2C871087D0728F2D9DBB29C
:1018D000034933700B79180644BF7C23CB70C5E7EE
:1018E00000B006409414FF1F2914FF1F5414FF1F5B
:1018F0002414FF1F9814FF1F2814FF1F9C14FF1FA0
:101900009514FF1F2C14FF1F431E032B14D872B60F
:101910000A4951F8230068B170B4094C058834F8BD
:101920001320466841F82360521B24F8132062B646
:1019300070BC704762B6704700207047F814FF1FF4
:10194000DC17FF1F013803280BD872B6074B53F87A
:10195000203043B100205B680130002BFBD162B620
:101960007047002070471846F9E700BF4C15FF1F6D
:10197000F0B472B61A491B4E012311F8014B194FEE
:101980009A00240742F0010505D556F8324064B1AB
:1019900056F83520BAB10133052BEED162B6124BA1
:1019A00000221A70F0BC00F017BD0F4C0F4D2178CB
:1019B00047F8325007EB431308304A1E5860227034
:1019C00062B6F0BC70470849094B0A7847F83530D1
:1019D00007EBC5030830013A58600A7062B6F0E7B9
:1019E000604100000000FF1F7515FF1F88004000C8
:1019F000C8004000431E032B1DD81B4A400140F085
:101A0000100030B4104472B6184CE25C032A1BD8A4
:101A1000DFE802F00212151703220D88E25410F0DD
:101A2000080F14BFC823882343EA05430831036025
:101A3000416062B630BC704708300222EDE70522F3
:101A4000EBE708300422E8E7094A52F8230038B1EE
:101A5000084A52F82300416042F8231062B6E9E7D1
:101A600042F82310034AF7E70000FF1F8415FF1F09
:101A70004C15FF1F5C15FF1F2DE9F04FDFF804A385
:101A8000DFF804B387B044E0A94F4FEA930807EBAF
:101A9000C809013ED9F8042003F00803F6B2A2F108
:101AA000080003F0FF04002B40F0FE8057F83830A8
:101AB0001B0C99B222F8081C002B00F0EC809D4B07
:101AC00022F8064C42F8044C53F82620002A00F075
:101AD0002B82994D55F826305860984C45F82600D1
:101AE00034F81630194424F8161000F055FC00287C
:101AF00000F01382924A934B19F0080F00F108008E
:101B000018BF1346C9F8040047F8383008238AF88C
:101B100000309AF80040E4B260071AD58A4B1B786F
:101B2000A3B18A490A7802F0FF0322B1013BDBB27C
:101B30000B7003B900BE86490A7802F0FF032AB190
:101B4000013BDBB20B70002B00F0BD8104238AF84F
:101B5000003004F0080303F0FF02002B00F0C880FF
:101B60009BF80030DBB21E098ED19C08704F57F8ED
:101B7000342007EBC401C2F38302013A49680C2AFE
:101B800000F28580DFE802F07979838383838383A1
:101B900042838383070008686E4B6F4D0193684B47
:101BA0004A686E4E47F8343081B240F28164694B26
:101BB0006A60286000220120A1421A603A61BA617D
:101BC000307000F2E380B1F5D06F80F02782B1F57C
:101BD000817F00F0E08100F2C381802900F036822D
:101BE000822940F0DE81A9885D4B01F07F01042944
:101BF00000F2D8815B4C89000B44227062701A7825
:101C0000930740F122832070022023E2514B01937D
:101C10001A683AB3544B514E5449188834780D78A9
:101C20004028864645F0020828BF4FF0400E002CA1
:101C300084F001043470CEEB00000CBF8824C8246B
:101C400007EBC80680B285F0010544EA0E447260D5
:101C5000188047F8384072440D70002800F0B780B3
:101C6000019B1A603C4B1A88B2F5A06F0FD100217E
:101C70009A7859703E4B1A7009E0374A108842F240
:101C80002102904200F0A8802D4A47F83420394ABA
:101C9000012313703AE72A4A2A4B19F0080F18BF9C
:101CA000134647F8383031E700F096FB324A3349A3
:101CB00052F82630002B00F03B8158688C5D42F8CA
:101CC000260003F10802C9F80420032C05D8DFE838
:101CD00004F02C02292602228A551A8819F0080FCE
:101CE0000CBF8823C82343EA024347F838300DE786
:101CF000E00700F1EB80210600F12881A20706D55C
:101D00001F4A204913780220DBB213700870E306E3
:101D100002D51C4B10221A7007B0BDE8F08F0422C8
:101D20008A55DAE705228A55D7E703228A55D4E790
:101D30000000FF1FF814FF1FA414FF1FDC17FF1F74
:101D4000C8004000880040008015FF1F0915FF1FD4
:101D50008815FF1FA014FF1F6C15FF1F0815FF1F1C
:101D6000C02007407815FF1FB414FF1F7415FF1F14
:101D700098200740942007404C15FF1F8415FF1F33
:101D800088200740802007409020074042F221042D
:101D9000A14200F0948043D8B1F5086F00F0A8810B
:101DA000B1F5106F40F0FD80B84AB94CA9781170B8
:101DB00004F1800503E00834AC4200F09E81236A00
:101DC0001906F8D5606A083800F006FBF3E7BEF1A3
:101DD000400F18BF002243E7AE4ACD1D11F8013B6A
:101DE00002F8013FA942F9D1AB4A1268862A00F0F5
:101DF0001181AA49AA4E0A78307882F0010500289C
:101E000042F002020D700CBF8821C82147F8321041
:101E100007EBC20280F0010000213070516033E70F
:101E200042F22124A14240F0FE81DFF8BCC29D4B6A
:101E30009D49AC78DCF800501D6081460C70002094
:101E4000029080468446044694490D7845F0020E7F
:101E500007EBCE03B9F1000F5C600CBF8824C824E7
:101E600044EA080385F0010447F83E3032700C70F4
:101E7000DFF81CE28A4BDFF82482002840F09880CB
:101E8000BCF1400F1BD144F0020407EBC403029FD6
:101E9000DFF8FCE15F60002A40F09F80020442F01E
:101EA000880207444EF8342086F800900D703B46B7
:101EB000402804D100207D4A019910800B607C4AA3
:101EC00001231370E3E600F0F3FB3FE6704B784824
:101ED00072491A614FF0020E80F800E0754F0A70E7
:101EE000754919609960754E754D764C9A610D2152
:101EF0003970FF213170DFF8F4E129702270724DE2
:101F0000724A8EF800109F27012406F8047C5D6059
:101F10000470DA6007B0BDE8F08F6D4A47F838000A
:101F2000137801331370F1E543F82600694DD4E5C9
:101F30008B5D032B67D801A252F823F00D1B000024
:101F40000D1B0000911F00008B1F000059495C4BC6
:101F500080220D2008701A70A2077FF5D8AECFE658
:101F600040F20232914240F05681A98801F07F018F
:101F7000042916D86A88A2B94E4C89000C448146BF
:101F8000217841F00201217059E701238B55BDE50D
:101F900000238B55BAE5A98801F07F01042940F29E
:101FA0004781444B0F221A70414A012313706EE699
:101FB00040287FF668AF44F002040EEBC401029E95
:101FC0004E60AAB1444A83F800903346403888F8FE
:101FD000005040334EF834206DE70204029B86F82F
:101FE000009042F0C8020D7003444EF834205FE7C1
:101FF00083F80090029B304A88F800504038403304
:102000004EF8342057E719F0080F0CBF02230323C2
:102010008B557BE5314A0F211170EAE6304A54684E
:10202000002CBED06888B5F804E003E00C32546898
:10203000002CB6D013888342F8D153887345F5D16C
:10204000000A03280CBF2078108903E0254C0220E9
:1020500022706270EA88824280F00C810F490D780C
:10206000402A45F0020E944607EBCE0028BF4FF001
:10207000400C04EB0C0344600293CCEB02004FEAEB
:102080000C484FF001090022C824E9E68015FF1F23
:102090000000FF1FE317FF1FE417FF1F7415FF1F4A
:1020A0000815FF1FEC17FF1F9815FF1FB414FF1F23
:1020B00094200740C0200740880040008820074047
:1020C0008020074098200740B814FF1F0C15FF1F01
:1020D0007515FF1FA414FF1FC80040000915FF1F3E
:1020E000644100007815FF1F8813FF1F8C200740F4
:1020F000684A694C12782270ACE76849684B694AB3
:1021000002916949694C6A4D039405964FF00009A4
:1021100088461C4616460495206828B1456800F09C
:102120005BF92846002DF9D100232360049B306819
:102130001A46002342F8293028B1456800F04CF9CE
:102140002846002DF9D100223260029A98F800301A
:102150001146002241F8042B039A0291023B4FF0F2
:10216000000122F81910032B07D8DFE803F034022E
:1021700034024FF0010388F8003009F10109B9F188
:10218000040F04F1040406F1040608F10108C3D1A8
:10219000484B059EDFF83091DFF83081002119703F
:1021A000012518F8013B09F8043B1A0718D4AC00C4
:1021B00044F0020244F00304002347F8323047F8A9
:1021C00034303D4B994505F10105EAD196F8009070
:1021D00089F0010233E64FF0000388F80030CCE7C5
:1021E00000F0DAF8AC0007EB451300F10802002814
:1021F00037D05A60314B47F8343000F0CDF844F016
:10220000010307EBC30200F1080100B351602C4A3F
:1022100047F83320CCE7B1F5A06F7FF4C2AE0022BF
:102220004FF001090BE642F221329142F7D0B8E6B5
:102230006A88002A7FF4B5AE224C89000C4481469E
:10224000217821F002012170F9E5022002E7194B03
:1022500044F001021B7847F83200164A013313702C
:10226000A6E7144B134A1B78AC00013347F834003F
:102270001370C2E74028844628BF4FF0400C04EB9F
:102280000C03CCEB00004FEA0C48029300224FF005
:102290000109D9E58015FF1F7815FF1F5C15FF1F89
:1022A000F814FF1F4C15FF1F8415FF1FDC17FF1FBD
:1022B000A414FF1F7515FF1FD4200740880040009D
:1022C000C8004000C0200740C42007406041000013
:1022D0002DE9F843244C00F035FF002204F188007A
:1022E00023461A605A60083383424FF00001F8D148
:1022F0001E481F4A0368DFF890E01E4F1E4D1F4E18
:10230000DFF88880DFF888C0DFF8889043F4802306
:10231000036013681A4843F040731360C4F3072343
:102320008EF80030C4F307433B70240EFF2302F500
:10233000C9222C7002F5847288F80030114D8CF897
:1023400000303370012389F8003070268EF8641055
:102350004FF40014102107F82C3C2E70046011700B
:102360000EF1640EBDE8F8830000FF1F34800440C6
:1023700000D80040B0200740B4200740102007409C
:1023800004E100E035E400E09C20074080200740A5
:10239000882007409420074072B60D480268B2FAC0
:1023A00082F30B2B10DC4FF00041D94022EA0102EE
:1023B000026062B6074803EBC303DB00C2180021CA
:1023C000C15010465160704762B60020704700BF90
:1023D000D809FF1F9803FF1F0D4B0E4AC31AA2FB1B
:1023E00003231B090B2B0CD80B4A127852B972B677
:1023F0000A484FF00041026821FA03F31A430260D1
:1024000062B67047064A1278002AF0D0FFF7B0BAD9
:102410009803FF1F398EE3387515FF1FD809FF1F7A
:102420008015FF1F38B50F4D286878B143880288A2
:10243000C118013393420C7A02D24380204638BD42
:10244000FFF7CAFF002320462B6038BD064B1B78E0
:102450002BB10320FFF758FA28600028E6D14FF08F
:10246000FF3038BD9415FF1F8015FF1F10B5094CB4
:10247000206818B143881844007A10BD064B1B78B9
:102480002BB10320FFF740FA20600028F2D14FF073
:10249000FF3010BD9415FF1F8015FF1F044B054A28
:1024A0001B6890881BB11A885B88D31A1844704740
:1024B0009415FF1FDC17FF1F0B4B1B789BB110B54A
:1024C0000A4C206848B1FFF787FF002303202360F0
:1024D000FFF71AFA30B1FFF77FFF0320FFF714FA76
:1024E0000028F8D110BD70478015FF1F9415FF1FFD
:1024F0002DE9F04FDFF8F89083B0012289F8002031
:10250000019169B3DFF8EC80364F019E8346D8F81D
:102510000000B0B3344D4488C4F14001B14228BF3B
:10252000314604EB010E00221FFA8EFE2A70761A45
:10253000A0F802E000F1080251B1013C22445944E4
:102540001BF8014B02F8014F8B45F9D1B0F802E0BE
:10255000BEF13F0F0BD8254A05211170002ED6D1B0
:102560000198002389F8003003B0BDE8F08F4022C5
:10257000028001460420FFF73DFA0022C8F800203F
:10258000E9E73A782AB3184D4DF2E9044FF0010A11
:1025900007E0013C16D02A78A2B900F087FA3A7811
:1025A000BAB10420FFF7CEF90728F2D889F800A0C5
:1025B000FFF7F2FEC8F800000028ACD10C4B013C3C
:1025C0001870E8D101234FF0FF302B7003B0BDE845
:1025D000F08F00234FF0FF3089F8003003B0BDE8E2
:1025E000F08F00BF8015FF1F9015FF1F8815FF1F7C
:1025F0008915FF1F8C15FF1F00B583B002AB0121A9
:1026000003F8010D1846FFF773FF03B05DF804FBF4
:1026100038B50E4D0E4C28680123237028B1408830
:1026200000232370C0F1400038BD0A4B1B7813B95A
:102630000020207038BD0420FFF784F90728F7D860
:10264000FFF7AAFE28600028E9D1F1E78C15FF1FEB
:102650008915FF1F8015FF1FF8B5114B1B788BB133
:10266000104E114D346801272F7064B10F4A6388F2
:1026700000271770214623800420FFF7BBF937603D
:1026800000232B70F8BDFFF787FE084B28B10146E9
:1026900004201C70FFF7AEF9F2E71F70F0E700BFEF
:1026A0008015FF1F8C15FF1F8915FF1F8815FF1F41
:1026B00038B50E4B1B7873B90D4C216861B103F02E
:1026C000FF054B880B800420FFF794F9256038BD87
:1026D000084B01221A7038BDFFF75EFE0028F7D0C4
:1026E0000146BDE838400420FFF784B98915FF1F73
:1026F0008C15FF1F8815FF1F08B50846FEF722FF3F
:10270000012008BD08B50846FEF71CFF012008BDE2
:1027100038B508460D4601F073F9044601462846CF
:10272000FEF768FF204638BD10B50846144611462E
:10273000FEF760FF204610BDFFF73AB808B508461F
:10274000FEF7D8FE003018BF012008BD08B50846C6
:10275000FEF7AEFE003018BF012008BD0846114646
:10276000FEF73EBE0846FEF775BE00BF0846FEF700
:102770001BBE00BFFEF7BCBD034B03EB5100B0FB1B
:10278000F1F0FEF713BD00BF001C4E0E10B5064B56
:10279000144603EB5100B0FBF1F0FEF707FD2046B5
:1027A000BDE81040FEF76EBD001C4E0EFEF7E8BF00
:1027B000FEF7B2BFFEF7A0BFFEF780BFFEF78ABFED
:1027C0000368064A1B68934205D110B5C8B2FEF7EC
:1027D000B9FE012010BDC9B2184700BF052700008F
:1027E0000368064A1B68934205D110B5C8B2FEF7CC
:1027F000A9FE012010BDC9B2184700BF052700007F
:102800000368064A1B68934205D110B5C8B2FEF7AB
:1028100099FE012010BDC9B2184700BF052700006E
:102820000368064A1B68934205D110B5C8B2FEF78B
:1028300089FE012010BDC9B2184700BF052700005E
:10284000704700BF704700BF0368F0B4FBB10025BC
:1028500001249D60DC601B4C1A601C44241104F1AF
:1028600030056A11032692009E60174F0679174BB8
:1028700047F8241002F1604202F5614205F01F059D
:10288000012000FA05F5E6541560F0BC7047104CC5
:10289000236843F40003236000BF0E4B0E4DA4F5E4
:1028A0008734A4F59E7401261E60234604609C684C
:1028B000002CD0D01033AB420360F8D1002303606A
:1028C0001846E2E7008FFCBFEC09FF1F30E400E090
:1028D0003C80044000700340407103400168A9B18E
:1028E0000B4BF0B40B441B110A4E0B4F0B4D46F82B
:1028F000237003F1300202F01F0401235211A340A0
:10290000002445F822308C600460F0BC704700BFA2
:10291000008FFCBFEC09FF1F4528000080E100E0AC
:10292000024A034B012111601B6818470C710340D8
:10293000EC09FF1F024A034B012111605B68184735
:102940001C710340EC09FF1F024A034B0121116077
:102950009B6818472C710340EC09FF1F024A034B88
:1029600001211160DB6818473C710340EC09FF1F2F
:1029700008B5FDF7BBFDFDF719FF00F097F8FAE782
:1029800000B5064A036812885B6883B001A9ADF8F8
:1029900004200222984703B05DF804FB3441000094
:1029A000F0B507468BB0002A33D0012A08BF0A22AF
:1029B00051B3212400E0F4B2B1FBF2F502FB151192
:1029C000C8B2092900F1300198BFC8B20AA988BF6E
:1029D0003730214488BFC0B201F8240C661E294656
:1029E000002DE8D133B1013CE4B20AAB23442D22DF
:1029F00003F8242C3B6801AA11195B683846C4F11E
:102A0000220298470BB0F0BD30228DF825202124FA
:102A1000E8E70368C9B21B6898470BB0F0BD00BF78
:102A200070B50E4D82B02B680093009E044608E0FE
:102A300000F03CF82B680193019BA2689B1B93421A
:102A400007D2236820465B6998470028F0DB02B074
:102A500070BD4FF0FF3002B070BD00BF8813FF1F84
:102A6000F8B5164682B107460D46002404E001344D
:102A7000A64205F8010B07D03846FFF7D1FF002822
:102A8000F5DA012326463B733046F8BDFFF714BD47
:102A9000FFF7E2BDFFF7BCBD08461146FFF728BDB2
:102AA0000846FFF7A9BD00BF704700BF38B52C4CE2
:102AB000237803B138BD01232370FFF7EFFC002812
:102AC00042D1FEF7DDFA00283BD1FEF715FE0028C3
:102AD00034D100F047F970BB00F0C0F940BB00F002
:102AE00039FA10BB00F0B2FAE0B900232370EFF31B
:102AF0000583002BDED1EFF3108172B6194B1868F5
:102B000028B3194C227812BB45691D60012323703C
:102B10000DB3AA6101B962B600254577836898476D
:102B20002570C7E700F04EFCDFE700F049FCD9E76D
:102B300000F044FCD3E700F03FFCCDE7FFF780FE58
:102B4000C7E700F037FCC0E7FFF7AEFFB9E70029A1
:102B5000B0D162B638BD054B1D600029DCD1DAE783
:102B60009915FF1F9C17FF1FA017FF1F9817FF1F26
:102B700030B42948294A2A4B2A4D6024E1210470A7
:102B800011701B78284C082B30D00A2B2748284975
:102B900037D00C2B0CBF35225D2212232A60236014
:102BA00002600B60234B24491B78244ABBB10123EC
:102BB0000B601360224B23491B78234A012B26D933
:102BC000042B0FD9082B1ED9102B94BF86238723E3
:102BD0000B6013601D4B01221A7030BC70470B60F4
:102BE0001360E7E784230B601360F3E700F58E20A2
:102BF0000F490830212213232A60236002600B60F2
:102C0000D0E73922F7E785230B601360E2E78023E2
:102C10000B601360DEE700BF004007400140074043
:102C20000C0AFF1F08B003400CB0034008B00B4073
:102C30000CB00B409B15FF1F20B0034020B00B4091
:102C40000D0AFF1F24B0034024B00B409A15FF1F4C
:102C500008B5104C08E0236859050DD423681A05FF
:102C60000FD42368DB0411D423685803F3D5FEF78F
:102C700003FF23685905F1D5FEF712FA23681A05F8
:102C8000EFD5FEF7BBFD2368DB04EDD500F07AF845
:102C9000EAE700BF3480044008B5FFF7D9FF00BF62
:102CA000014B10221A80704700200540704700BF7A
:102CB000094908B50B6830B16A461844A2F50052BC
:102CC000904202D20860184608BD00F089FB0C2330
:102CD00003604FF0FF3008BD100AFF1FEFF31380B1
:102CE00070B9EFF310836BB9EFF305825AB94FF463
:102CF0008070EFF311832BB1984228BF18467047BC
:102D00004FF0FF3070470F2A01D81846F1E7014B0A
:102D1000D05CEEE7F0E300E0F0B44D1E2E46002458
:102D200000E00134B0FBF2F302FB1300092800F1CC
:102D300030078ABF3730F8B2C0B206F8010F184624
:102D4000002BEED10A1953704CB1107815F8016FB1
:102D500028700133E01A834202F80169F5DB084666
:102D6000F0BC7047054A064B10781B78C0B2DBB246
:102D7000984238BF4030C01A704700BFA015FF1FEF
:102D8000A115FF1F30B42B4B1A7994061FD52A4882
:102D9000DA790378294901333F2B0978C8BF00232A
:102DA0008B42D2B203D0264CD9B2E2540170254AEC
:102DB000116861B1244A1278D2B2934236BFC2F18F
:102DC00040029B1A9B18272BC4BF01230B70194A82
:102DD000D378DBB2180611D45A060DD5154B1B79E2
:102DE0005B0609D5194B1A491B6800220A7003B10A
:102DF0001A70104B2C22DA7030BC7047117909061A
:102E0000EAD5144910480C780178C9B28C420DD02B
:102E10004A1C272A84BF00210A460F4D054C98BF43
:102E2000D1B2AA5CD2B2E2710170D5E76C21D17047
:102E3000D2E700BF00C00640A015FF1FA115FF1F6D
:102E4000CC15FF1F9C15FF1F0D16FF1F1016FF1F2F
:102E50000C16FF1F1416FF1FA415FF1F054A064B73
:102E600010781B78C0B2DBB2984238BF4030C01A2D
:102E7000704700BF1C16FF1F1D16FF1F30B42B4BE1
:102E80001A7994061FD52A48DA790378294901333B
:102E90003F2B0978C8BF00238B42D2B203D0264C07
:102EA000D9B2E2540170254A116861B1244A1278FE
:102EB000D2B2934236BFC2F140029B1A9B18272B15
:102EC000C4BF01230B70194AD378DBB2180611D4A2
:102ED0005A060DD5154B1B795B0609D5194B1A49B6
:102EE0001B6800220A7003B11A70104B2C22DA7092
:102EF00030BC704711790906EAD5144910480C789E
:102F00000178C9B28C420DD04A1C272A84BF002107
:102F10000A460F4D054C98BFD1B2AA5CD2B2E271FD
:102F20000170D5E76C21D170D2E700BF00D0064018
:102F30001C16FF1F1D16FF1F4816FF1F1816FF1F28
:102F40008916FF1F8C16FF1F8816FF1F9016FF1F84
:102F50002016FF1F054A064B10781B78C0B2DBB263
:102F6000984238BF4030C01A704700BF9816FF1F04
:102F70009916FF1F30B42B4B1A7994061FD52A4897
:102F8000DA790378294901333F2B0978C8BF002338
:102F90008B42D2B203D0264CD9B2E2540170254AFA
:102FA000116861B1244A1278D2B2934236BFC2F19D
:102FB00040029B1A9B18272BC4BF01230B70194A90
:102FC000D378DBB2180611D45A060DD5154B1B79F0
:102FD0005B0609D5194B1A491B6800220A7003B118
:102FE0001A70104B2C22DA7030BC70471179090628
:102FF000EAD5144910480C780178C9B28C420DD03A
:103000004A1C272A84BF00210A460F4D054C98BF51
:10301000D1B2AA5CD2B2E2710170D5E76C21D17055
:10302000D2E700BF00A00E409816FF1F9916FF1FA1
:10303000C416FF1F9416FF1F0517FF1F0817FF1F59
:103040000417FF1F0C17FF1F9C16FF1F054A064B96
:1030500010781B78C0B2DBB2984238BF4030C01A3B
:10306000704700BF1417FF1F1517FF1F30B42B4BFD
:103070001A7994061FD52A48DA7903782949013349
:103080003F2B0978C8BF00238B42D2B203D0264C15
:10309000D9B2E2540170254A116861B1244A12780C
:1030A000D2B2934236BFC2F140029B1A9B18272B23
:1030B000C4BF01230B70194AD378DBB2180611D4B0
:1030C0005A060DD5154B1B795B0609D5194B1A49C4
:1030D0001B6800220A7003B11A70104B2C22DA70A0
:1030E00030BC704711790906EAD5144910480C78AC
:1030F0000178C9B28C420DD04A1C272A84BF002116
:103100000A460F4D054C98BFD1B2AA5CD2B2E2710B
:103110000170D5E76C21D170D2E700BF00B00E403E
:103120001417FF1F1517FF1F4017FF1F1017FF1F52
:103130008117FF1F8417FF1F8017FF1F8817FF1FAE
:103140001817FF1F72B6184A184B194911607022E0
:1031500080211A701A46197013781B06FCD510B519
:10316000144B84B0186862B6134B144C984298BF45
:1031700000EB800001A998BF40000A22FFF7CCFDB8
:1031800001A92046002311F8012B01333AB10A2B83
:1031900020F8022FF7D11623237004B010BD5B0076
:1031A000DBB2237004B010BD0400024000000240F6
:1031B000000007410C0002407F969800A00AFF1F04
:1031C00010B4EFF3108272B6437F33B9017F012947
:1031D00008D0032910D00123437702B962B65DF805
:1031E000044B7047114C2168A1B1114943610B6830
:1031F000836108605861EEE70E4C216881B10E4989
:1032000043610B688361086058610C4B4FF080513B
:103210001960E0E7064B4161816120601860DAE7E0
:10322000054B4161816120601860EEE79C17FF1F2C
:103230009817FF1F8C17FF1F9017FF1F04ED00E06A
:1032400010B4047F4160022CC26003D05DF8044BCF
:10325000FFF7B6BF83685DF8044B184770B5EFF30E
:10326000108272B60C4C206880B10C4E0025436968
:10327000236073B19D6102B962B645778368984750
:10328000EFF3108272B620680028F0D102B962B65E
:1032900070BD3360EFE700BF8C17FF1F9017FF1F53
:1032A000FFF7DCBF184A30B41468002C27D003683D
:1032B00021688B420ED2CB1A00218460C16023604A
:1032C000E06010600223037530BC704711688B42C8
:1032D000144608D3A2685B1A0360002AF6D1826004
:1032E000C460A060EEE7D268C2608460E060C56838
:1032F000CB1A0222A8602360027530BC704784603C
:10330000C4601060DEE700BF9417FF1FF8B5224EBF
:1033100034682CB32368002B3AD1204F1D4604E0BB
:103320003468ECB12368002B32D1A36803B1DD60AF
:1033300020693360036825751B68BB4221D1037F78
:103340004560022BC46020D0FFF73AFF6368002B72
:10335000E6D023602046FFF7A5FF3468002CE1D1BA
:10336000EFF3108372B60E4A00211068116003B9A2
:1033700062B628B18468FFF795FF20460028F9D18E
:10338000F8BD224600219847E0E783689847DDE7CB
:10339000013B2360E4E700BF9417FF1F41320000A8
:1033A000A417FF1F024A136801331360FFF7AEBF73
:1033B0008813FF1F704700BF704700BF704700BFF2
:1033C000704700BF704700BF0B460146184600F02B
:1033D00001B800BF13460A460146022000F07EBB3A
:1033E000014B1868704700BFE00EFF1F70B50F4E0D
:1033F0000F4D761BB61018BF002405D0013455F8C8
:10340000043B9847A642F9D10A4E0B4D761B00F0BB
:10341000D5FEB61018BF002406D0013455F8043B81
:103420009847A642F9D170BD70BD00BFC8410000E9
:10343000C8410000D8410000C8410000024B0146CD
:10344000186800F003B800BFE00EFF1F2DE9F04F31
:1034500001F10B05162D83B0064640F29F8035F032
:10346000070500F1BF80A94200F2BC8000F0A6FA77
:10347000B5F5FC7FC0F09C826B0A00F0BA80042B8B
:1034800000F28381A80900F1390E4FEA4E0338306B
:10349000C44F07EB8303A3F108015C68A14207D185
:1034A000ACE0002A80F2AC80E468A14200F0A68083
:1034B000636823F003035A1B0F2AF2DDB9493C6904
:1034C00001F1080E744500F0B381636823F0030333
:1034D0005A1B0F2A00F39981002AC1F814E0C1F8A1
:1034E00010E080F29E80B3F5007F80F06781DB08FA
:1034F00003F1010C01229B1002FA03F34A6851F810
:103500003C80C4F8088001EBCC091A43A9F10803F8
:10351000E3604A6041F83C40C8F80C408310012445
:103520009C40944200F28A80144206D120F00300AD
:103530006400144200F10400FAD007EBC009CC4645
:103540008046DCF80C108C4507D173E1002A80F22C
:103550008181C9688C4500F06D814B6823F00303BD
:103560005A1B0F2AF2DD0C46D1F80CC054F8088F14
:103570004B1945F001054D6042F00101C8F80CC03F
:103580003046CCF808807B613B61C3F80CE0C3F89F
:1035900008E059609A5000F013FA1FE0102921D872
:1035A00000F00CFA1025062302207E4F07EB830360
:1035B000A3F108025C68944200F045816368E16809
:1035C000A56823F00303234430465A68E96042F0BB
:1035D00001028D605A6000F0F3F90834204603B010
:1035E000BDE8F08F00240C232046336003B0BDE813
:1035F000F08F80234FF0400E3F2049E770465DE793
:103600002344E1685A68A56842F00102E960304647
:103610008D605A6000F0D4F90834204603B0BDE84C
:10362000F08F234430465A6842F001025A6000F09D
:10363000C7F90834204603B0BDE8F08FBC68636862
:1036400023F00308A84504D3C5EB08030F2B00F3B0
:103650008C80554BDFF860911A68D9F8003001333F
:103660002A4404EB080A00F0608102F580520F3210
:1036700022F47F6222F00F0211463046019200F0E0
:10368000A1F9B0F1FF3F8346019A00F058818245CD
:1036900000F2FC80454B1968DA451144196000F0CE
:1036A0005381D9F80000DFF810E101301BBFCAEBED
:1036B0000B0A5144CEF800B019601BF0070100F06E
:1036C0001781C1F10800C1F58051834408315A4483
:1036D000C2F30B02C2EB010949463046019300F0E8
:1036E00071F9431C019B00F03F81CBEB00024A447F
:1036F00042F001021968C7F808B04944BC42CBF84F
:1037000004201960DFF8A49016D0B8F10F0F40F232
:10371000FD806268A8F10C0323F00703E01802F0B3
:1037200001024FF0050E1A430F2B6260C0F804E04F
:10373000C0F808E000F21C811D4BBC681A68914279
:1037400088BF19601B4B1A689142626888BF196074
:1037500022F003029542A2EB050301D80F2B04DCF3
:10376000304600F02DF9002438E7621943F00103D8
:1037700045F0010565603046BA60536000F020F9FD
:103780000834204603B0BDE8F08F142B71D9542BB8
:1037900000F2A480280B00F16F0E4FEA4E036E304A
:1037A00076E600BFE40EFF1FB017FF1FB417FF1F20
:1037B000AC17FF1FA817FF1FF012FF1F5A0A042A99
:1037C0005ED9142A00F2B38002F15C0149005B3239
:1037D00007EB810C57F82110DFF8DC81ACF1080C05
:1037E0008C4500F088804A6822F00302934202D29E
:1037F00089688C45F7D1D1F80CC07A68C4F80CC040
:10380000A160CCF80840CC6088E6631942F001075B
:1038100045F00105656030464B610B61C3F80CE073
:10382000C3F808E05F609A50083400F0C9F8D5E6A4
:103830004A6873E608F1010818F0030F0CF1080C50
:103840007FF47FAE30E0DC68A34208BF02303FF473
:1038500035AEB3E60B440C465A68C96854F8085FA5
:1038600042F001025A603046E9608D6000F0A8F82D
:10387000B4E603F15C0E03F15B004FEA4E0307E68A
:103880009A0902F1390149003832A1E7BC424A4B9A
:103890003FF400AF9C68626822F003025AE759F8CF
:1038A0000839994540F0828010F0030F00F1FF3095
:1038B000F5D17B6823EA04037B6064009C423FF6F9
:1038C000BDAE002C3FF4BAAE1C4240467FF435AE8C
:1038D00064001C4200F10400FAD02EE6B3F5AA7F82
:1038E00018D8E80B00F1780E4FEA4E037730CFE599
:1038F0004FF48051EBE60121D8F80430921001FA20
:1039000002F21A43C8F80420614677E70123CBF896
:10391000043025E740F25452934220D8A80C00F11D
:103920007D0E4FEA4E037C30B2E51032A4E6542AF5
:1039300026D81A0B02F16F0149006E3248E7BC68C5
:10394000626822F0030205E7CAF30B0000287FF447
:10395000A8AE4244BB6842F001025A60ECE6FE2386
:103960004FF07F0E7E2093E501224FF00009C1E663
:1039700004F10801304600F075F9D9F80010DBE6D3
:10398000B2F5AA7F05D8DA0B02F178014900773247
:103990001EE740F254518A4205D89A0C02F17D018B
:1039A00049007C3214E7FE217E2211E77B6884E720
:1039B000E808431C5B00F8E5E40EFF1F704700BFFA
:1039C000704700BF38B5074C002305460846236002
:1039D000FFF76EF9431C00D038BD2368002BFBD0E5
:1039E0002B6038BDF017FF1FFFFFFFFFFFFFFFFF3A
:1039F000FFFFFFFFFFFFFFFFFFFFFFFFFFFFFFFFD7
:103A000090F800F06DE9024520F007016FF0000C1E
:103A100010F0070491F820F040F049804FF00004C6
:103A20006FF00700D1E9002391F840F000F10800A1
:103A300082FA4CF2A4FA8CF283FA4CF3A2FA8CF3D9
:103A40004BBBD1E9022382FA4CF200F10800A4FA40
:103A50008CF283FA4CF3A2FA8CF3E3B9D1E9042394
:103A600082FA4CF200F10800A4FA8CF283FA4CF3CB
:103A7000A2FA8CF37BB9D1E9062301F1200182FA85
:103A80004CF200F10800A4FA8CF283FA4CF3A2FA8B
:103A90008CF3002BC6D0002A04BF04301A4612BA99
:103AA000B2FA82F2FDE8024500EBD2007047D1E99C
:103AB000002304F00305C4F100004FEAC50514F02B
:103AC000040F91F840F00CFA05F562EA05021CBFFC
:103AD00063EA050362464FF00004A9E72DE9F047C9
:103AE000254C2568D5F848410646884692469946B1
:103AF000C4B360681F2817DC431C76B104EB800553
:103B00000122C5F888A0D4F8881182401143022E02
:103B1000C4F88811C5F808911ED00230636044F8DB
:103B200020800020BDE8F087144B03B34FF4C87029
:103B3000FFF784FC0446D0B1D5F84831002780E86F
:103B40008800C5F8484138460123C4F88871C4F894
:103B50008C71002EE1D0D1E7D4F88C110A43C4F85F
:103B60008C21DAE705F5A674C5F84841C1E74FF0A6
:103B7000FF30BDE8F08700BFB84100003D340000D1
:103B8000024B13B1024800F005B870470000000076
:103B9000A13B0000002301461A461846FFF79EBFCE
:103BA00038B5074D074C2C1BA41005D0013C55F827
:103BB000043D9847002CF9D1BDE8384000F00CBB1B
:103BC0000000000000000000F8B5234F0C46064638
:103BD000FFF7F4FEBB685D6825F00305291B01F6BD
:103BE000EF7121F47F6121F00F01A1F58054B4F54C
:103BF000805F07DB00213046FFF7E4FEBB682B4403
:103C0000984204D03046FFF7DBFE0020F8BD614249
:103C10003046FFF7D7FE01300DD0104BBA68196857
:103C20002D1B45F001053046091B55601960FFF753
:103C3000C7FE0120F8BD00213046FFF7C3FEBA6879
:103C4000831A0F2BDEDD064C0449246843F0010380
:103C5000001B53600860D5E7E40EFF1FB417FF1F79
:103C6000F012FF1F002945D02DE9F0410D46804696
:103C7000FFF7A4FE55F8047C6A4927F00103A5F17B
:103C80000804E2188E685068B24220F0030062D047
:103C9000FE0750600BD455F8087CE41B01F1080EB8
:103CA000A56875453B446FD0E768EF60BD601518A7
:103CB0006D68ED0742D543F001026260E350B3F551
:103CC000007F18D2DB085A1C4D6851F83270A7608B
:103CD00001209B1000FA03F301EBC2001D430838DA
:103CE000E0604D6041F83240FC604046BDE8F04184
:103CF000FFF766BE70475A0A042A53D89A0902F1A0
:103D000039077F0002F1380501EB870051F82720C1
:103D10004449083890424DD0516821F003018B424C
:103D200002D292689042F7D1D068E060A2608460CD
:103D3000D4604046BDE8F041FFF742BE95683A4F77
:103D4000BD4203443FD0D068E86043F00102856083
:103D50006260E350B3E7FF07034407D455F8082C2B
:103D6000A41A1344A068E268C26090602F4A1268E7
:103D700043F00100934260608C60B6D32C4B404608
:103D80001968FFF721FFB0E711184968C90744D443
:103D90009168D268CA60034443F00100916060609A
:103DA000E350A2E7142A17D802F15C077F0002F162
:103DB0005B05A9E7AA104B68012505FA02F2134337
:103DC0004B600246B1E743F001024C610C61E560D3
:103DD000A5606260E35088E7542A06D81A0B02F106
:103DE0006F077F0002F16E058EE7B2F5AA7F06D855
:103DF000DA0B02F178077F0002F1770584E740F2E1
:103E00005450824206D89A0C02F17D077F0002F1DD
:103E10007C0579E7FE277E2576E743F001026260A4
:103E2000E35062E7E40EFF1FEC0EFF1FEC12FF1FD2
:103E3000B017FF1F564D4450565F317C315F564DD1
:103E40004450560D0A0000005374617274696E6725
:103E50002E2E2E0054696D656F75742100FFFFFFD3
:103E6000564D4450455F00003A323A003A00000097
:103E70005F564D4450450000564D4450435F00008E
:103E80005F564D4450430D0A000000004572726FAA
:103E9000723A20417474656D707420746F2073657C
:103EA00074206120726561642D6F6E6C792076617B
:103EB000726961626C65206F722064617461207444
:103EC000797065206E6F7420737570706F72746591
:103ED000640D0A004008FE4340A004404408FE432D
:103EE00044A004400018FE4300C004403000FE43DC
:103EF000309004403400FE43349004401C18FE43CC
:103F00001CC004401018FE4310C004400818FE43B3
:103F100008C004400C18FE430CC004400C10FE43C3
:103F20000CB004401010FE4310B004401810FE43C3
:103F300018B004401C10FE431CB004401410FE4393
:103F400014B004400418FE4304C004400010FE43B3
:103F500000B004400008FE4300A004400408FE43F3
:103F600004A004400C08FE430CA004400808FE43D3
:103F700008A004401418FE4314C004401818FE435F
:103F800018C004400410FE4304B004400810FE436F
:103F900008B004406820FE4368D004401400FE438B
:103FA000149004403800FE43389004403C00FE4327
:103FB0003C9004404000FE43409004404808FE43CB
:103FC00048A004404C08FE434CA004402808FE438F
:103FD00028A004402C08FE432CA004406020FE438F
:103FE00060D004406420FE4364D004402010FE43AF
:103FF00020B004402410FE4324B004402810FE43A7
:1040000028B004402C10FE432CB004404400FE4372
:10401000449004407000FE43709004407400FE43DE
:10402000749004406800FE43689004405008FE43CA
:1040300050A004405808FE4358A004405C08FE43CA
:104040005CA004405408FE4354A004402018FE43E2
:1040500020C004402418FE4324C004401008FE433E
:1040600010A004401408FE4314A004403818FE4376
:1040700038C004403418FE4334C004403018FE43B6
:1040800030C004403C18FE433CC004402C18FE43A2
:104090002CC004402820FE4328D004402C20FE439E
:1040A0002CD004400020FE4300D004400420FE43F6
:1040B00004D004400820FE4308D004400C20FE43F6
:1040C0000CD004401020FE4310D004401420FE43C6
:1040D00014D004400000000000000000052700008C
:1040E00029270000BD270000B9270000B5270000E0
:1040F000B1270000AD270000792700008D270000C0
:10410000752700006D270000652700005D2700006F
:104110004D2700003D27000039270000E12700005F
:104120000128000021280000C127000011270000FD
:10413000F92600000D0AFFFF00000000000000004B
:10414000A12A0000992A0000952A0000912A000067
:104150005D08000055080000590800008D2A000085
:104160000015191500010000140AFF1F12000000BD
:1041700000020000400AFF1F43000000000300008F
:104180009C0AFF1F0000000001030904280AFF1F0A
:104190000000000002030904840AFF1F0000000061
:1041A00003030904A00AFF1F000000000000000034
:1041B0000000000000000000B80AFF1FF8B500BFB3
:1041C000F8BC08BC9E467047813B000035040000E7
:0841D000DD070000F50A000004
:0441D800F8B500BF77
:1041DC0038B5084B1C681C6054B1074D94FAA4F315
:1041EC00B3FA83F355F823309847631E1C40F5D17E
:1041FC0038BD00BFA0D004406809FF1F38B5084B7C
:10420C001C681C6054B1074D94FAA4F3B3FA83F301
:10421C0055F823309847631E1C40F5D138BD00BFBC
:10422C00A0C004402809FF1F38B5084B1C681C604F
:10423C0054B1074D94FAA4F3B3FA83F355F8233031
:10424C009847631E1C40F5D138BD00BFA0B0044098
:10425C00F808FF1F38B5084B1C681C6054B1074D9B
:10426C0094FAA4F3B3FA83F355F823309847631EFA
:10427C001C40F5D138BD00BFA0A004409808FF1F1A
:10428C0038B5084B1C681C6054B1074D94FAA4F364
:10429C00B3FA83F355F823309847631E1C40F5D1CD
:1042AC0038BD00BFA09004402008FF1F0000000094
:1042BC000D0000003C0000003F0000004300000027
:1042CC00480000003C000000480000003F000000D7
:1042DC003C000000430000003C00000048000000CF
:1042EC00430000003C0000003F00000043000000C1
:1042FC004800000050000000090B0000090B0000F2
:10430C00090B0000090B0000090B0000090B000051
:10431C00090B0000090B0000090B0000090B000041
:10432C00090B0000090B0000090B0000090B000031
:10433C00090B0000090B0000090B0000090B000021
:10434C00090B0000090B0000090B0000090B000011
:10435C00090B0000090B0000090B0000090B000001
:10436C00090B0000090B0000090B0000090B0000F1
:10437C00090B0000090B0000090B0000090B0000E1
:10438C00090B0000090B0000090B0000090B0000D1
:10439C00090B0000090B0000090B0000090B0000C1
:1043AC00090B0000090B0000090B0000090B0000B1
:1043BC00090B0000090B0000090B0000090B0000A1
:1043CC00090B0000090B0000090B0000090B000091
:1043DC00090B0000090B0000090B0000090B000081
:1043EC00090B0000090B0000090B0000090B000071
:1043FC00090B0000090B0000090B0000090B000061
:10440C00090B0000090B0000090B0000090B000050
:10441C00090B0000090B0000090B0000090B000040
:10442C00090B0000090B0000090B0000090B000030
:10443C00090B0000090B0000090B0000090B000020
:10444C00090B0000090B0000090B0000090B000010
:10445C00090B0000090B0000090B0000090B000000
:10446C00090B0000090B0000090B0000090B0000F0
:10447C00090B0000090B0000090B0000090B0000E0
:10448C00090B0000090B0000090B0000090B0000D0
:10449C00090B0000090B0000090B0000090B0000C0
:1044AC00090B0000090B0000090B000001090A00B0
:1044BC00FFFFFFFFDC40000000000000E8030000ED
:1044CC000000000045280000452800004528000099
:1044DC00452800004041000000000000E8030000F7
:1044EC00000000000A040000F417FF1F1201010174
:1044FC0002000040C0168304000201020301000008
:10450C0018035400650065006E00730079006400A8
:10451C00750069006E006F0009024300020100C0C3
:10452C0032090400000102020100052400100105FB
:10453C00240101010424020605240600010705825A
:10454C000310004009040100020A000000070503E3
:10455C0002400000070584024000000016035500CD
:10456C005300420020005300650072006900610096
:10457C006C000000040309040C03000000000000A0
:10458C00000000000000000000000000000000001F
:10459C0000000000A40DFF1F0C0EFF1F740EFF1F68
:1045AC0000000000000000000000000000000000FF
:1045BC0000000000000000000000000000000000EF
:1045CC0000000000000000000000000000000000DF
:1045DC0000000000000000000000000000000000CF
:1045EC0000000000000000000000000000000000BF
:1045FC0000000000000000000000000000000000AF
:10460C00000000000000000000000000000000009E
:10461C00000000000000000000000000000000008E
:10462C00000000000000000000000000000000007E
:10463C00000000000000000001000000000000006D
:10464C000E33CDAB34126DE6ECDE05000B00000032
:10465C00000000000000000000000000000000004E
:10466C00000000000000000000000000000000003E
:10467C00000000000000000000000000000000002E
:10468C00000000000000000000000000000000001E
:1049BC000000000000000000B80AFF1F000000000B
:1049CC0000000000E40EFF1FE40EFF1FEC0EFF1FA3
:1049DC00EC0EFF1FF40EFF1FF40EFF1FFC0EFF1F4B
:1049EC00FC0EFF1F040FFF1F040FFF1F0C0FFF1FF8
:1049FC000C0FFF1F140FFF1F140FFF1F1C0FFF1FA7
:104A0C001C0FFF1F240FFF1F240FFF1F2C0FFF1F56
:104A1C002C0FFF1F340FFF1F340FFF1F3C0FFF1F06
:104A2C003C0FFF1F440FFF1F440FFF1F4C0FFF1FB6
:104A3C004C0FFF1F540FFF1F540FFF1F5C0FFF1F66
:104A4C005C0FFF1F640FFF1F640FFF1F6C0FFF1F16
:104A5C006C0FFF1F740FFF1F740FFF1F7C0FFF1FC6
:104A6C007C0FFF1F840FFF1F840FFF1F8C0FFF1F76
:104A7C008C0FFF1F940FFF1F940FFF1F9C0FFF1F26
:104A8C009C0FFF1FA40FFF1FA40FFF1FAC0FFF1FD6
:104A9C00AC0FFF1FB40FFF1FB40FFF1FBC0FFF1F86
:104AAC00BC0FFF1FC40FFF1FC40FFF1FCC0FFF1F36
:104ABC00CC0FFF1FD40FFF1FD40FFF1FDC0FFF1FE6
:104ACC00DC0FFF1FE40FFF1FE40FFF1FEC0FFF1F96
:104ADC00EC0FFF1FF40FFF1FF40FFF1FFC0FFF1F46
:104AEC00FC0FFF1F0410FF1F0410FF1F0C10FF1FF3
:104AFC000C10FF1F1410FF1F1410FF1F1C10FF1FA2
:104B0C001C10FF1F2410FF1F2410FF1F2C10FF1F51
:104B1C002C10FF1F3410FF1F3410FF1F3C10FF1F01
:104B2C003C10FF1F4410FF1F4410FF1F4C10FF1FB1
:104B3C004C10FF1F5410FF1F5410FF1F5C10FF1F61
:104B4C005C10FF1F6410FF1F6410FF1F6C10FF1F11
:104B5C006C10FF1F7410FF1F7410FF1F7C10FF1FC1
:104B6C007C10FF1F8410FF1F8410FF1F8C10FF1F71
:104B7C008C10FF1F9410FF1F9410FF1F9C10FF1F21
:104B8C009C10FF1FA410FF1FA410FF1FAC10FF1FD1
:104B9C00AC10FF1FB410FF1FB410FF1FBC10FF1F81
:104BAC00BC10FF1FC410FF1FC410FF1FCC10FF1F31
:104BBC00CC10FF1FD410FF1FD410FF1FDC10FF1FE1
:104BCC00DC10FF1FE410FF1FE410FF1FEC10FF1F91
:104BDC00EC10FF1FF410FF1FF410FF1FFC10FF1F41
:104BEC00FC10FF1F0411FF1F0411FF1F0C11FF1FEE
:104BFC000C11FF1F1411FF1F1411FF1F1C11FF1F9D
:104C0C001C11FF1F2411FF1F2411FF1F2C11FF1F4C
:104C1C002C11FF1F3411FF1F3411FF1F3C11FF1FFC
:104C2C003C11FF1F4411FF1F4411FF1F4C11FF1FAC
:104C3C004C11FF1F5411FF1F5411FF1F5C11FF1F5C
:104C4C005C11FF1F6411FF1F6411FF1F6C11FF1F0C
:104C5C006C11FF1F7411FF1F7411FF1F7C11FF1FBC
:104C6C007C11FF1F8411FF1F8411FF1F8C11FF1F6C
:104C7C008C11FF1F9411FF1F9411FF1F9C11FF1F1C
:104C8C009C11FF1FA411FF1FA411FF1FAC11FF1FCC
:104C9C00AC11FF1FB411FF1FB411FF1FBC11FF1F7C
:104CAC00BC11FF1FC411FF1FC411FF1FCC11FF1F2C
:104CBC00CC11FF1FD411FF1FD411FF1FDC11FF1FDC
:104CCC00DC11FF1FE411FF1FE411FF1FEC11FF1F8C
:104CDC00EC11FF1FF411FF1FF411FF1FFC11FF1F3C
:104CEC00FC11FF1F0412FF1F0412FF1F0C12FF1FE9
:104CFC000C12FF1F1412FF1F1412FF1F1C12FF1F98
:104D0C001C12FF1F2412FF1F2412FF1F2C12FF1F47
:104D1C002C12FF1F3412FF1F3412FF1F3C12FF1FF7
:104D2C003C12FF1F4412FF1F4412FF1F4C12FF1FA7
:104D3C004C12FF1F5412FF1F5412FF1F5C12FF1F57
:104D4C005C12FF1F6412FF1F6412FF1F6C12FF1F07
:104D5C006C12FF1F7412FF1F7412FF1F7C12FF1FB7
:104D6C007C12FF1F8412FF1F8412FF1F8C12FF1F67
:104D7C008C12FF1F9412FF1F9412FF1F9C12FF1F17
:104D8C009C12FF1FA412FF1FA412FF1FAC12FF1FC7
:104D9C00AC12FF1FB412FF1FB412FF1FBC12FF1F77
:104DAC00BC12FF1FC412FF1FC412FF1FCC12FF1F27
:104DBC00CC12FF1FD412FF1FD412FF1FDC12FF1FD7
:0C4DCC00DC12FF1F00000200FFFFFFFFD1
:00000001FF
