:100000000000022099010000B9560000715600005E
:1000100071560000715600007156000071560000C4
:10002000715600007156000071560000B95600006C
:10003000B95600007156000071740000757500001B
:10004000B9560000B9560000B9560000B956000074
:10005000B9560000B9560000B9560000B956000064
:10006000B9560000B9560000B9560000B956000054
:10007000B9560000B9560000B9560000B956000044
:10008000B9560000B9560000B9560000B956000034
:10009000B9560000B9560000B9560000B956000024
:1000A0001955000025550000B9560000B95600004A
:1000B000B9560000B9560000B9560000ED610000C5
:1000C000B9560000B1640000B9560000B97B0000C9
:1000D000B9560000B17C0000B9560000B9560000C6
:1000E000B9560000B9560000B9560000B9560000D4
:1000F000B9560000B9560000B9560000B9560000C4
:100100004D77000061770000757700008977000067
:10011000B95600002D670000B9560000B95600001E
:10012000B9560000B9560000B9560000B956000093
:10013000B9560000B9560000B9560000B956000083
:10014000B9560000B9560000A97D0000B95600005C
:10015000A17E0000B9560000B9560000B956000053
:10016000B9560000B956000031550000B9560000DC
:10017000B9560000B9560000B9560000B956000043
:10018000B9560000B9560000B9560000B956000033
:10019000B9560000B9560000584B4CF2205210B529
:1001A0001A804DF628121A8000BF00BF05F088FAA9
:1001B000534B4FF030621A60524A9A60524ADA60EA
:1001C000524B4FF470021A60514A136813F4807353
:1001D00004D150490B604FF4A85313604E4B1A786A
:1001E000110703D51A7842F008021A704B4B4C499C
:1001F0002A221A704B4A4C4B8B4204D252F8040FFD
:1002000043F8040BF8E7494B494900228B4202D2DC
:1002100043F8042BFAE74749474A002352F82300E2
:1002200041F823000133662BF8D1444B444A802126
:1002300003F8011B9342FBD1424B3E4A1A60424BEA
:100240008A221A70A3F5805324225A70A0221A70B1
:100250009A799207FCD59A79D406FCD43B4A9379D3
:1002600003F00C03082B394BF9D103221A714622F3
:100270005A719A799006FCD5344A9179334B4906E4
:10028000FBD5334A4FF08271116009215160202261
:100290001A709A7902F00C020C2AFAD12D4B2E4AD0
:1002A0001A602E4B2E4A1A6000225A60072243F829
:1002B000042C2C4AC3F80C2D62B605F08BFB154BB1
:1002C0001B68DA0705D5284805F018FB274B284A94
:1002D0001A60284B1B785B0609D5244C244B2268F6
:1002E0009A4204D1204805F009FB0023236007F05F
:1002F0009DFE05F0EBF907F051FAFEE70E200540F0
:1003000030800440823F04000100002B88ED00E0B3
:1003100010D0034014D0034002D0074000E0074053
:10032000FC19FF1F849B0000F806FF1FFC19FF1F2C
:10033000BC21FF1F0002FF1F0000000000E400E0DE
:1003400056E400E008ED00E00050064000400640A2
:100350004480044004800440C010050014E000E024
:10036000BFD4010000002020586F61031CE003404F
:10037000A5C3945A00F00740FFFFFFFFFFFFFFFFF8
:10038000FFFFFFFFFFFFFFFFFFFFFFFFFFFFFFFF7D
:10039000FFFFFFFFFFFFFFFFFFFFFFFFFFFFFFFF6D
:1003A000FFFFFFFFFFFFFFFFFFFFFFFFFFFFFFFF5D
:1003B000FFFFFFFFFFFFFFFFFFFFFFFFFFFFFFFF4D
:1003C000FFFFFFFFFFFFFFFFFFFFFFFFFFFFFFFF3D
:1003D000FFFFFFFFFFFFFFFFFFFFFFFFFFFFFFFF2D
:1003E000FFFFFFFFFFFFFFFFFFFFFFFFFFFFFFFF1D
:1003F000FFFFFFFFFFFFFFFFFFFFFFFFFFFFFFFF0D
:10040000FFFFFFFFFFFFFFFFFFFFFFFFDEF9FFFF23
:1004100010B5054C237833B9044B13B10448AFF33E
:1004200000800123237010BDFC19FF1F0000000095
:10043000889B0000084B10B51BB108490848AFF372
:1004400000800848036803B910BD074B002BFBD0A0
:10045000BDE81040184700BF00000000001AFF1F51
:10046000889B0000FC19FF1F00000000214B10B406
:10047000D3F888201368506819780478507A137A72
:10048000044201EA03011BD0937A03F0030309B18C
:1004900043F0040343F008039910013B91720D2BC4
:1004A0000BD8DFE803F021071B070A152121150AE5
:1004B000071B0721D368013BD3605DF8044B7047ED
:1004C000937A03F003030029E6D043F00403E3E743
:1004D000D3685DF8044B023BD3607047D3685DF886
:1004E000044B0233D3607047D3685DF8044B01338B
:1004F000D3607047FC1BFF1F10B5044607F004F9DA
:10050000204610BD38B5054CA4F170052046103CBE
:1005100007F0F6F9AC42F9D138BD00BFA41AFF1FAD
:1005200038B5054CA4F1C005103C204607F0E8F9A9
:10053000AC42F9D138BD00BF9C1BFF1F70B5154BF5
:10054000154C1B6882B00193019D2368EB1AC82BE0
:100550000FD9124E337873B9114B1B68002B03DB94
:10056000104A591E91420AD93378256083F001035D
:10057000337002B070BD0C4807F0C6F8F4E7C3EB67
:1005800003129200013A232AEED90849064807F0DF
:1005900071F8E9E74C1DFF1F9C1BFF1FF81BFF1F95
:1005A000C41AFF1F47444404EC1BFF1F153400000E
:1005B000214B10B4D3F8EC201368506819780478F4
:1005C000507A137A044201EA03011BD0937A03F0B4
:1005D000030309B143F0040343F008039910013BFE
:1005E00091720D2B0BD8DFE803F021071B070A15CA
:1005F0002121150A071B0721D368013BD3605DF851
:10060000044B7047937A03F003030029E6D043F0CC
:100610000403E3E7D3685DF8044B023BD360704703
:10062000D3685DF8044B0233D3607047D3685DF83C
:10063000044B0133D3607047FC1BFF1F214B10B4E8
:100640001A681368506819780478507A137A04424B
:1006500001EA03011BD0937A03F0030309B143F0CD
:10066000040343F008039910013B91720D2B0BD842
:10067000DFE803F021071B070A152121150A071BD4
:100680000721D368013BD3605DF8044B7047937A30
:1006900003F003030029E6D043F00403E3E7D36843
:1006A0005DF8044B023BD3607047D3685DF8044BA0
:1006B0000233D3607047D3685DF8044B0133D360D5
:1006C000704700BFFC1BFF1F214B10B45A68136812
:1006D000506819780478507A137A044201EA0301C9
:1006E0001BD0937A03F0030309B143F0040343F0F2
:1006F00008039910013B91720D2B0BD8DFE803F032
:1007000021071B070A152121150A071B0721D3689A
:10071000013BD3605DF8044B7047937A03F0030309
:100720000029E6D043F00403E3E7D3685DF8044B07
:10073000023BD3607047D3685DF8044B0233D3604B
:100740007047D3685DF8044B0133D360704700BF36
:10075000FC1BFF1F214B10B49A681368506819786E
:100760000478507A137A044201EA03011BD0937A89
:1007700003F0030309B143F0040343F008039910A5
:10078000013B91720D2B0BD8DFE803F021071B070B
:100790000A152121150A071B0721D368013BD360E5
:1007A0005DF8044B7047937A03F003030029E6D009
:1007B00043F00403E3E7D3685DF8044B023BD360E6
:1007C0007047D3685DF8044B0233D3607047D36839
:1007D0005DF8044B0133D360704700BFFC1BFF1F63
:1007E000214B10B4D3F8CC201368506819780478E2
:1007F000507A137A044201EA03011BD0937A03F082
:10080000030309B143F0040343F008039910013BCB
:1008100091720D2B0BD8DFE803F021071B070A1597
:100820002121150A071B0721D368013BD3605DF81E
:10083000044B7047937A03F003030029E6D043F09A
:100840000403E3E7D3685DF8044B023BD3607047D1
:10085000D3685DF8044B0233D3607047D3685DF80A
:10086000044B0133D3607047FC1BFF1F214B10B4B6
:10087000D3F8D0201368506819780478507A137A26
:10088000044201EA03011BD0937A03F0030309B188
:1008900043F0040343F008039910013B91720D2BC0
:1008A0000BD8DFE803F021071B070A152121150AE1
:1008B000071B0721D368013BD3605DF8044B7047E9
:1008C000937A03F003030029E6D043F00403E3E73F
:1008D000D3685DF8044B023BD3607047D3685DF882
:1008E000044B0233D3607047D3685DF8044B013387
:1008F000D3607047FC1BFF1F214B10B4D3F8D420EA
:100900001368506819780478507A137A044201EA1F
:1009100003011BD0937A03F0030309B143F00403EE
:1009200043F008039910013B91720D2B0BD8DFE8BF
:1009300003F021071B070A152121150A071B0721B0
:10094000D368013BD3605DF8044B7047937A03F0A2
:1009500003030029E6D043F00403E3E7D3685DF81E
:10096000044B023BD3607047D3685DF8044B0233FD
:10097000D3607047D3685DF8044B0133D360704790
:10098000FC1BFF1F214B10B4D3F8D820136850680C
:1009900019780478507A137A044201EA03011BD0D3
:1009A000937A03F0030309B143F0040343F008030F
:1009B0009910013B91720D2B0BD8DFE803F0210752
:1009C0001B070A152121150A071B0721D368013BC4
:1009D000D3605DF8044B7047937A03F0030300295A
:1009E000E6D043F00403E3E7D3685DF8044B023B31
:1009F000D3607047D3685DF8044B0233D36070470F
:100A0000D3685DF8044B0133D3607047FC1BFF1FB4
:100A1000214B10B4D3F8DC2013685068197804789F
:100A2000507A137A044201EA03011BD0937A03F04F
:100A3000030309B143F0040343F008039910013B99
:100A400091720D2B0BD8DFE803F021071B070A1565
:100A50002121150A071B0721D368013BD3605DF8EC
:100A6000044B7047937A03F003030029E6D043F068
:100A70000403E3E7D3685DF8044B023BD36070479F
:100A8000D3685DF8044B0233D3607047D3685DF8D8
:100A9000044B0133D3607047FC1BFF1F214B10B484
:100AA000D3F8E0201368506819780478507A137AE4
:100AB000044201EA03011BD0937A03F0030309B156
:100AC00043F0040343F008039910013B91720D2B8E
:100AD0000BD8DFE803F021071B070A152121150AAF
:100AE000071B0721D368013BD3605DF8044B7047B7
:100AF000937A03F003030029E6D043F00403E3E70D
:100B0000D3685DF8044B023BD3607047D3685DF84F
:100B1000044B0233D3607047D3685DF8044B013354
:100B2000D3607047FC1BFF1F214B10B4D3F8E420A7
:100B30001368506819780478507A137A044201EAED
:100B400003011BD0937A03F0030309B143F00403BC
:100B500043F008039910013B91720D2B0BD8DFE88D
:100B600003F021071B070A152121150A071B07217E
:100B7000D368013BD3605DF8044B7047937A03F070
:100B800003030029E6D043F00403E3E7D3685DF8EC
:100B9000044B023BD3607047D3685DF8044B0233CB
:100BA000D3607047D3685DF8044B0133D36070475E
:100BB000FC1BFF1F214B10B4D3F8E82013685068CA
:100BC00019780478507A137A044201EA03011BD0A1
:100BD000937A03F0030309B143F0040343F00803DD
:100BE0009910013B91720D2B0BD8DFE803F0210720
:100BF0001B070A152121150A071B0721D368013B92
:100C0000D3605DF8044B7047937A03F00303002927
:100C1000E6D043F00403E3E7D3685DF8044B023BFE
:100C2000D3607047D3685DF8044B0233D3607047DC
:100C3000D3685DF8044B0133D3607047FC1BFF1F82
:100C4000214B10B4D3F88C201368506819780478BD
:100C5000507A137A044201EA03011BD0937A03F01D
:100C6000030309B143F0040343F008039910013B67
:100C700091720D2B0BD8DFE803F021071B070A1533
:100C80002121150A071B0721D368013BD3605DF8BA
:100C9000044B7047937A03F003030029E6D043F036
:100CA0000403E3E7D3685DF8044B023BD36070476D
:100CB000D3685DF8044B0233D3607047D3685DF8A6
:100CC000044B0133D3607047FC1BFF1F214B10B452
:100CD000D3F890201368506819780478507A137A02
:100CE000044201EA03011BD0937A03F0030309B124
:100CF00043F0040343F008039910013B91720D2B5C
:100D00000BD8DFE803F021071B070A152121150A7C
:100D1000071B0721D368013BD3605DF8044B704784
:100D2000937A03F003030029E6D043F00403E3E7DA
:100D3000D3685DF8044B023BD3607047D3685DF81D
:100D4000044B0233D3607047D3685DF8044B013322
:100D5000D3607047FC1BFF1F214B10B4D3F89420C5
:100D60001368506819780478507A137A044201EABB
:100D700003011BD0937A03F0030309B143F004038A
:100D800043F008039910013B91720D2B0BD8DFE85B
:100D900003F021071B070A152121150A071B07214C
:100DA000D368013BD3605DF8044B7047937A03F03E
:100DB00003030029E6D043F00403E3E7D3685DF8BA
:100DC000044B023BD3607047D3685DF8044B023399
:100DD000D3607047D3685DF8044B0133D36070472C
:100DE000FC1BFF1F214B10B4D3F8982013685068E8
:100DF00019780478507A137A044201EA03011BD06F
:100E0000937A03F0030309B143F0040343F00803AA
:100E10009910013B91720D2B0BD8DFE803F02107ED
:100E20001B070A152121150A071B0721D368013B5F
:100E3000D3605DF8044B7047937A03F003030029F5
:100E4000E6D043F00403E3E7D3685DF8044B023BCC
:100E5000D3607047D3685DF8044B0233D3607047AA
:100E6000D3685DF8044B0133D3607047FC1BFF1F50
:100E7000214B10B4D3F89C2013685068197804787B
:100E8000507A137A044201EA03011BD0937A03F0EB
:100E9000030309B143F0040343F008039910013B35
:100EA00091720D2B0BD8DFE803F021071B070A1501
:100EB0002121150A071B0721D368013BD3605DF888
:100EC000044B7047937A03F003030029E6D043F004
:100ED0000403E3E7D3685DF8044B023BD36070473B
:100EE000D3685DF8044B0233D3607047D3685DF874
:100EF000044B0133D3607047FC1BFF1F214B10B420
:100F0000D3F8A0201368506819780478507A137ABF
:100F1000044201EA03011BD0937A03F0030309B1F1
:100F200043F0040343F008039910013B91720D2B29
:100F30000BD8DFE803F021071B070A152121150A4A
:100F4000071B0721D368013BD3605DF8044B704752
:100F5000937A03F003030029E6D043F00403E3E7A8
:100F6000D3685DF8044B023BD3607047D3685DF8EB
:100F7000044B0233D3607047D3685DF8044B0133F0
:100F8000D3607047FC1BFF1F214B10B4D3F8A42083
:100F90001368506819780478507A137A044201EA89
:100FA00003011BD0937A03F0030309B143F0040358
:100FB00043F008039910013B91720D2B0BD8DFE829
:100FC00003F021071B070A152121150A071B07211A
:100FD000D368013BD3605DF8044B7047937A03F00C
:100FE00003030029E6D043F00403E3E7D3685DF888
:100FF000044B023BD3607047D3685DF8044B023367
:10100000D3607047D3685DF8044B0133D3607047F9
:10101000FC1BFF1F214B10B4D3F8A82013685068A5
:1010200019780478507A137A044201EA03011BD03C
:10103000937A03F0030309B143F0040343F0080378
:101040009910013B91720D2B0BD8DFE803F02107BB
:101050001B070A152121150A071B0721D368013B2D
:10106000D3605DF8044B7047937A03F003030029C3
:10107000E6D043F00403E3E7D3685DF8044B023B9A
:10108000D3607047D3685DF8044B0233D360704778
:10109000D3685DF8044B0133D3607047FC1BFF1F1E
:1010A000214B10B4D3F8AC20136850681978047839
:1010B000507A137A044201EA03011BD0937A03F0B9
:1010C000030309B143F0040343F008039910013B03
:1010D00091720D2B0BD8DFE803F021071B070A15CF
:1010E0002121150A071B0721D368013BD3605DF856
:1010F000044B7047937A03F003030029E6D043F0D2
:101100000403E3E7D3685DF8044B023BD360704708
:10111000D3685DF8044B0233D3607047D3685DF841
:10112000044B0133D3607047FC1BFF1F214B10B4ED
:10113000D3F8B0201368506819780478507A137A7D
:10114000044201EA03011BD0937A03F0030309B1BF
:1011500043F0040343F008039910013B91720D2BF7
:101160000BD8DFE803F021071B070A152121150A18
:10117000071B0721D368013BD3605DF8044B704720
:10118000937A03F003030029E6D043F00403E3E776
:10119000D3685DF8044B023BD3607047D3685DF8B9
:1011A000044B0233D3607047D3685DF8044B0133BE
:1011B000D3607047FC1BFF1F214B10B4D3F8B42041
:1011C0001368506819780478507A137A044201EA57
:1011D00003011BD0937A03F0030309B143F0040326
:1011E00043F008039910013B91720D2B0BD8DFE8F7
:1011F00003F021071B070A152121150A071B0721E8
:10120000D368013BD3605DF8044B7047937A03F0D9
:1012100003030029E6D043F00403E3E7D3685DF855
:10122000044B023BD3607047D3685DF8044B023334
:10123000D3607047D3685DF8044B0133D3607047C7
:10124000FC1BFF1F214B10B4D3F8B8201368506863
:1012500019780478507A137A044201EA03011BD00A
:10126000937A03F0030309B143F0040343F0080346
:101270009910013B91720D2B0BD8DFE803F0210789
:101280001B070A152121150A071B0721D368013BFB
:10129000D3605DF8044B7047937A03F00303002991
:1012A000E6D043F00403E3E7D3685DF8044B023B68
:1012B000D3607047D3685DF8044B0233D360704746
:1012C000D3685DF8044B0133D3607047FC1BFF1FEC
:1012D000214B10B4D3F8BC201368506819780478F7
:1012E000507A137A044201EA03011BD0937A03F087
:1012F000030309B143F0040343F008039910013BD1
:1013000091720D2B0BD8DFE803F021071B070A159C
:101310002121150A071B0721D368013BD3605DF823
:10132000044B7047937A03F003030029E6D043F09F
:101330000403E3E7D3685DF8044B023BD3607047D6
:10134000D3685DF8044B0233D3607047D3685DF80F
:10135000044B0133D3607047FC1BFF1F214B10B4BB
:10136000D3F8C0201368506819780478507A137A3B
:10137000044201EA03011BD0937A03F0030309B18D
:1013800043F0040343F008039910013B91720D2BC5
:101390000BD8DFE803F021071B070A152121150AE6
:1013A000071B0721D368013BD3605DF8044B7047EE
:1013B000937A03F003030029E6D043F00403E3E744
:1013C000D3685DF8044B023BD3607047D3685DF887
:1013D000044B0233D3607047D3685DF8044B01338C
:1013E000D3607047FC1BFF1F214B10B4D3F8C420FF
:1013F0001368506819780478507A137A044201EA25
:1014000003011BD0937A03F0030309B143F00403F3
:1014100043F008039910013B91720D2B0BD8DFE8C4
:1014200003F021071B070A152121150A071B0721B5
:10143000D368013BD3605DF8044B7047937A03F0A7
:1014400003030029E6D043F00403E3E7D3685DF823
:10145000044B023BD3607047D3685DF8044B023302
:10146000D3607047D3685DF8044B0133D360704795
:10147000FC1BFF1F214B10B4D3F8C8201368506821
:1014800019780478507A137A044201EA03011BD0D8
:10149000937A03F0030309B143F0040343F0080314
:1014A0009910013B91720D2B0BD8DFE803F0210757
:1014B0001B070A152121150A071B0721D368013BC9
:1014C000D3605DF8044B7047937A03F0030300295F
:1014D000E6D043F00403E3E7D3685DF8044B023B36
:1014E000D3607047D3685DF8044B0233D360704714
:1014F000D3685DF8044B0133D3607047FC1BFF1FBA
:10150000214B10B4DA681368506819780478507A5F
:10151000137A044201EA03011BD0937A03F0030318
:1015200009B143F0040343F008039910013B9172A1
:101530000D2B0BD8DFE803F021071B070A1521212B
:10154000150A071B0721D368013BD3605DF8044BE4
:101550007047937A03F003030029E6D043F00403B5
:10156000E3E7D3685DF8044B023BD3607047D36870
:101570005DF8044B0233D3607047D3685DF8044BC9
:101580000133D360704700BFFC1BFF1F214B10B419
:101590001A691368506819780478507A137A0442EB
:1015A00001EA03011BD0937A03F0030309B143F06E
:1015B000040343F008039910013B91720D2B0BD8E3
:1015C000DFE803F021071B070A152121150A071B75
:1015D0000721D368013BD3605DF8044B7047937AD1
:1015E00003F003030029E6D043F00403E3E7D368E4
:1015F0005DF8044B023BD3607047D3685DF8044B41
:101600000233D3607047D3685DF8044B0133D36075
:10161000704700BFFC1BFF1F214B10B45A691368B1
:10162000506819780478507A137A044201EA030169
:101630001BD0937A03F0030309B143F0040343F092
:1016400008039910013B91720D2B0BD8DFE803F0D2
:1016500021071B070A152121150A071B0721D3683B
:10166000013BD3605DF8044B7047937A03F00303AA
:101670000029E6D043F00403E3E7D3685DF8044BA8
:10168000023BD3607047D3685DF8044B0233D360EC
:101690007047D3685DF8044B0133D360704700BFD7
:1016A000FC1BFF1F214B10B49A691368506819780E
:1016B0000478507A137A044201EA03011BD0937A2A
:1016C00003F0030309B143F0040343F00803991046
:1016D000013B91720D2B0BD8DFE803F021071B07AC
:1016E0000A152121150A071B0721D368013BD36086
:1016F0005DF8044B7047937A03F003030029E6D0AA
:1017000043F00403E3E7D3685DF8044B023BD36086
:101710007047D3685DF8044B0233D3607047D368D9
:101720005DF8044B0133D360704700BFFC1BFF1F03
:10173000214B10B4DA691368506819780478507A2C
:10174000137A044201EA03011BD0937A03F00303E6
:1017500009B143F0040343F008039910013B91726F
:101760000D2B0BD8DFE803F021071B070A152121F9
:10177000150A071B0721D368013BD3605DF8044BB2
:101780007047937A03F003030029E6D043F0040383
:10179000E3E7D3685DF8044B023BD3607047D3683E
:1017A0005DF8044B0233D3607047D3685DF8044B97
:1017B0000133D360704700BFFC1BFF1F214B10B4E7
:1017C0001A6A1368506819780478507A137A0442B8
:1017D00001EA03011BD0937A03F0030309B143F03C
:1017E000040343F008039910013B91720D2B0BD8B1
:1017F000DFE803F021071B070A152121150A071B43
:101800000721D368013BD3605DF8044B7047937A9E
:1018100003F003030029E6D043F00403E3E7D368B1
:101820005DF8044B023BD3607047D3685DF8044B0E
:101830000233D3607047D3685DF8044B0133D36043
:10184000704700BFFC1BFF1F214B10B45A6A13687E
:10185000506819780478507A137A044201EA030137
:101860001BD0937A03F0030309B143F0040343F060
:1018700008039910013B91720D2B0BD8DFE803F0A0
:1018800021071B070A152121150A071B0721D36809
:10189000013BD3605DF8044B7047937A03F0030378
:1018A0000029E6D043F00403E3E7D3685DF8044B76
:1018B000023BD3607047D3685DF8044B0233D360BA
:1018C0007047D3685DF8044B0133D360704700BFA5
:1018D000FC1BFF1F214B10B49A6A136850681978DB
:1018E0000478507A137A044201EA03011BD0937AF8
:1018F00003F0030309B143F0040343F00803991014
:10190000013B91720D2B0BD8DFE803F021071B0779
:101910000A152121150A071B0721D368013BD36053
:101920005DF8044B7047937A03F003030029E6D077
:1019300043F00403E3E7D3685DF8044B023BD36054
:101940007047D3685DF8044B0233D3607047D368A7
:101950005DF8044B0133D360704700BFFC1BFF1FD1
:10196000214B10B4DA6A1368506819780478507AF9
:10197000137A044201EA03011BD0937A03F00303B4
:1019800009B143F0040343F008039910013B91723D
:101990000D2B0BD8DFE803F021071B070A152121C7
:1019A000150A071B0721D368013BD3605DF8044B80
:1019B0007047937A03F003030029E6D043F0040351
:1019C000E3E7D3685DF8044B023BD3607047D3680C
:1019D0005DF8044B0233D3607047D3685DF8044B65
:1019E0000133D360704700BFFC1BFF1F214B10B4B5
:1019F0001A6B1368506819780478507A137A044285
:101A000001EA03011BD0937A03F0030309B143F009
:101A1000040343F008039910013B91720D2B0BD87E
:101A2000DFE803F021071B070A152121150A071B10
:101A30000721D368013BD3605DF8044B7047937A6C
:101A400003F003030029E6D043F00403E3E7D3687F
:101A50005DF8044B023BD3607047D3685DF8044BDC
:101A60000233D3607047D3685DF8044B0133D36011
:101A7000704700BFFC1BFF1F214B10B45A6B13684B
:101A8000506819780478507A137A044201EA030105
:101A90001BD0937A03F0030309B143F0040343F02E
:101AA00008039910013B91720D2B0BD8DFE803F06E
:101AB00021071B070A152121150A071B0721D368D7
:101AC000013BD3605DF8044B7047937A03F0030346
:101AD0000029E6D043F00403E3E7D3685DF8044B44
:101AE000023BD3607047D3685DF8044B0233D36088
:101AF0007047D3685DF8044B0133D360704700BF73
:101B0000FC1BFF1F214B10B49A6B136850681978A7
:101B10000478507A137A044201EA03011BD0937AC5
:101B200003F0030309B143F0040343F008039910E1
:101B3000013B91720D2B0BD8DFE803F021071B0747
:101B40000A152121150A071B0721D368013BD36021
:101B50005DF8044B7047937A03F003030029E6D045
:101B600043F00403E3E7D3685DF8044B023BD36022
:101B70007047D3685DF8044B0233D3607047D36875
:101B80005DF8044B0133D360704700BFFC1BFF1F9F
:101B9000214B10B4DA6B1368506819780478507AC6
:101BA000137A044201EA03011BD0937A03F0030382
:101BB00009B143F0040343F008039910013B91720B
:101BC0000D2B0BD8DFE803F021071B070A15212195
:101BD000150A071B0721D368013BD3605DF8044B4E
:101BE0007047937A03F003030029E6D043F004031F
:101BF000E3E7D3685DF8044B023BD3607047D368DA
:101C00005DF8044B0233D3607047D3685DF8044B32
:101C10000133D360704700BFFC1BFF1F214B10B482
:101C20001A6C1368506819780478507A137A044251
:101C300001EA03011BD0937A03F0030309B143F0D7
:101C4000040343F008039910013B91720D2B0BD84C
:101C5000DFE803F021071B070A152121150A071BDE
:101C60000721D368013BD3605DF8044B7047937A3A
:101C700003F003030029E6D043F00403E3E7D3684D
:101C80005DF8044B023BD3607047D3685DF8044BAA
:101C90000233D3607047D3685DF8044B0133D360DF
:101CA000704700BFFC1BFF1F214B10B45A6C136818
:101CB000506819780478507A137A044201EA0301D3
:101CC0001BD0937A03F0030309B143F0040343F0FC
:101CD00008039910013B91720D2B0BD8DFE803F03C
:101CE00021071B070A152121150A071B0721D368A5
:101CF000013BD3605DF8044B7047937A03F0030314
:101D00000029E6D043F00403E3E7D3685DF8044B11
:101D1000023BD3607047D3685DF8044B0233D36055
:101D20007047D3685DF8044B0133D360704700BF40
:101D3000FC1BFF1F214B10B49A6C13685068197874
:101D40000478507A137A044201EA03011BD0937A93
:101D500003F0030309B143F0040343F008039910AF
:101D6000013B91720D2B0BD8DFE803F021071B0715
:101D70000A152121150A071B0721D368013BD360EF
:101D80005DF8044B7047937A03F003030029E6D013
:101D900043F00403E3E7D3685DF8044B023BD360F0
:101DA0007047D3685DF8044B0233D3607047D36843
:101DB0005DF8044B0133D360704700BFFC1BFF1F6D
:101DC000214B10B4DA6C1368506819780478507A93
:101DD000137A044201EA03011BD0937A03F0030350
:101DE00009B143F0040343F008039910013B9172D9
:101DF0000D2B0BD8DFE803F021071B070A15212163
:101E0000150A071B0721D368013BD3605DF8044B1B
:101E10007047937A03F003030029E6D043F00403EC
:101E2000E3E7D3685DF8044B023BD3607047D368A7
:101E30005DF8044B0233D3607047D3685DF8044B00
:101E40000133D360704700BFFC1BFF1F214B10B450
:101E50001A6D1368506819780478507A137A04421E
:101E600001EA03011BD0937A03F0030309B143F0A5
:101E7000040343F008039910013B91720D2B0BD81A
:101E8000DFE803F021071B070A152121150A071BAC
:101E90000721D368013BD3605DF8044B7047937A08
:101EA00003F003030029E6D043F00403E3E7D3681B
:101EB0005DF8044B023BD3607047D3685DF8044B78
:101EC0000233D3607047D3685DF8044B0133D360AD
:101ED000704700BFFC1BFF1F214B10B45A6D1368E5
:101EE000506819780478507A137A044201EA0301A1
:101EF0001BD0937A03F0030309B143F0040343F0CA
:101F000008039910013B91720D2B0BD8DFE803F009
:101F100021071B070A152121150A071B0721D36872
:101F2000013BD3605DF8044B7047937A03F00303E1
:101F30000029E6D043F00403E3E7D3685DF8044BDF
:101F4000023BD3607047D3685DF8044B0233D36023
:101F50007047D3685DF8044B0133D360704700BF0E
:101F6000FC1BFF1F214B10B49A6D13685068197841
:101F70000478507A137A044201EA03011BD0937A61
:101F800003F0030309B143F0040343F0080399107D
:101F9000013B91720D2B0BD8DFE803F021071B07E3
:101FA0000A152121150A071B0721D368013BD360BD
:101FB0005DF8044B7047937A03F003030029E6D0E1
:101FC00043F00403E3E7D3685DF8044B023BD360BE
:101FD0007047D3685DF8044B0233D3607047D36811
:101FE0005DF8044B0133D360704700BFFC1BFF1F3B
:101FF000214B10B4DA6D1368506819780478507A60
:10200000137A044201EA03011BD0937A03F003031D
:1020100009B143F0040343F008039910013B9172A6
:102020000D2B0BD8DFE803F021071B070A15212130
:10203000150A071B0721D368013BD3605DF8044BE9
:102040007047937A03F003030029E6D043F00403BA
:10205000E3E7D3685DF8044B023BD3607047D36875
:102060005DF8044B0233D3607047D3685DF8044BCE
:102070000133D360704700BFFC1BFF1F214B10B41E
:102080001A6E1368506819780478507A137A0442EB
:1020900001EA03011BD0937A03F0030309B143F073
:1020A000040343F008039910013B91720D2B0BD8E8
:1020B000DFE803F021071B070A152121150A071B7A
:1020C0000721D368013BD3605DF8044B7047937AD6
:1020D00003F003030029E6D043F00403E3E7D368E9
:1020E0005DF8044B023BD3607047D3685DF8044B46
:1020F0000233D3607047D3685DF8044B0133D3607B
:10210000704700BFFC1BFF1F214B10B45A6E1368B1
:10211000506819780478507A137A044201EA03016E
:102120001BD0937A03F0030309B143F0040343F097
:1021300008039910013B91720D2B0BD8DFE803F0D7
:1021400021071B070A152121150A071B0721D36840
:10215000013BD3605DF8044B7047937A03F00303AF
:102160000029E6D043F00403E3E7D3685DF8044BAD
:10217000023BD3607047D3685DF8044B0233D360F1
:102180007047D3685DF8044B0133D360704700BFDC
:10219000FC1BFF1F214B10B49A6E1368506819780E
:1021A0000478507A137A044201EA03011BD0937A2F
:1021B00003F0030309B143F0040343F0080399104B
:1021C000013B91720D2B0BD8DFE803F021071B07B1
:1021D0000A152121150A071B0721D368013BD3608B
:1021E0005DF8044B7047937A03F003030029E6D0AF
:1021F00043F00403E3E7D3685DF8044B023BD3608C
:102200007047D3685DF8044B0233D3607047D368DE
:102210005DF8044B0133D360704700BFFC1BFF1F08
:10222000214B10B4DA6E1368506819780478507A2C
:10223000137A044201EA03011BD0937A03F00303EB
:1022400009B143F0040343F008039910013B917274
:102250000D2B0BD8DFE803F021071B070A152121FE
:10226000150A071B0721D368013BD3605DF8044BB7
:102270007047937A03F003030029E6D043F0040388
:10228000E3E7D3685DF8044B023BD3607047D36843
:102290005DF8044B0233D3607047D3685DF8044B9C
:1022A0000133D360704700BFFC1BFF1F214B10B4EC
:1022B0001A6F1368506819780478507A137A0442B8
:1022C00001EA03011BD0937A03F0030309B143F041
:1022D000040343F008039910013B91720D2B0BD8B6
:1022E000DFE803F021071B070A152121150A071B48
:1022F0000721D368013BD3605DF8044B7047937AA4
:1023000003F003030029E6D043F00403E3E7D368B6
:102310005DF8044B023BD3607047D3685DF8044B13
:102320000233D3607047D3685DF8044B0133D36048
:10233000704700BFFC1BFF1F214B10B45A6F13687E
:10234000506819780478507A137A044201EA03013C
:102350001BD0937A03F0030309B143F0040343F065
:1023600008039910013B91720D2B0BD8DFE803F0A5
:1023700021071B070A152121150A071B0721D3680E
:10238000013BD3605DF8044B7047937A03F003037D
:102390000029E6D043F00403E3E7D3685DF8044B7B
:1023A000023BD3607047D3685DF8044B0233D360BF
:1023B0007047D3685DF8044B0133D360704700BFAA
:1023C000FC1BFF1F214B10B49A6F136850681978DB
:1023D0000478507A137A044201EA03011BD0937AFD
:1023E00003F0030309B143F0040343F00803991019
:1023F000013B91720D2B0BD8DFE803F021071B077F
:102400000A152121150A071B0721D368013BD36058
:102410005DF8044B7047937A03F003030029E6D07C
:1024200043F00403E3E7D3685DF8044B023BD36059
:102430007047D3685DF8044B0233D3607047D368AC
:102440005DF8044B0133D360704700BFFC1BFF1FD6
:10245000214B10B4DA6F1368506819780478507AF9
:10246000137A044201EA03011BD0937A03F00303B9
:1024700009B143F0040343F008039910013B917242
:102480000D2B0BD8DFE803F021071B070A152121CC
:10249000150A071B0721D368013BD3605DF8044B85
:1024A0007047937A03F003030029E6D043F0040356
:1024B000E3E7D3685DF8044B023BD3607047D36811
:1024C0005DF8044B0233D3607047D3685DF8044B6A
:1024D0000133D360704700BFFC1BFF1F214B10B4BA
:1024E000D3F880201368506819780478507A137AEA
:1024F000044201EA03011BD0937A03F0030309B1FC
:1025000043F0040343F008039910013B91720D2B33
:102510000BD8DFE803F021071B070A152121150A54
:10252000071B0721D368013BD3605DF8044B70475C
:10253000937A03F003030029E6D043F00403E3E7B2
:10254000D3685DF8044B023BD3607047D3685DF8F5
:10255000044B0233D3607047D3685DF8044B0133FA
:10256000D3607047FC1BFF1F214B10B4D3F88420AD
:102570001368506819780478507A137A044201EA93
:1025800003011BD0937A03F0030309B143F0040362
:1025900043F008039910013B91720D2B0BD8DFE833
:1025A00003F021071B070A152121150A071B072124
:1025B000D368013BD3605DF8044B7047937A03F016
:1025C00003030029E6D043F00403E3E7D3685DF892
:1025D000044B023BD3607047D3685DF8044B023371
:1025E000D3607047D3685DF8044B0133D360704704
:1025F000FC1BFF1FF8B5044615460E46084602218F
:1026000003F094F92846022103F090F9984A994B77
:1026100052F83610012001F500772760207252F839
:102620003520607202F5007700206760E060013BB2
:10263000FDD191F8003292F8002203F00103D20795
:1026400044BF43F00203DBB2A3723B2E00F20386C9
:10265000DFE816F0F405EA05E005D605CC05C2056D
:10266000B805AE05A4059A05900586057C0572059A
:1026700068055E0554054A05400536052C0522050A
:1026800018050E050405FA04F004E604DC04D2047F
:10269000C804BE04B304A8049D04920487047C0407
:1026A00028041E0414040A040004F603EC03E203E5
:1026B000D803CE03C403BA03B003A6039C0392035A
:1026C00088037E0374036A0360033C006A4B6B4912
:1026D000C3F8EC4004223B2003F094F80123237458
:1026E0003B2D00F2B585DFE815F00B030103F7027F
:1026F000ED02E302D902CF02C502BB02B102A7027A
:102700009D02930289027F02310227021D021302F9
:102710000902FF01F501EB01E101D701CD01C30180
:10272000B901AF01A5019B01910186017B017001F7
:1027300065015A014F01440139012E01230118019D
:102740000D010201F700EC00E100B800AD00A200AD
:1027500097008C00810076006B00600055004A00F5
:102760003C00454B4549C3F8EC4004223B2003F0B4
:1027700049F8237C0122134423742046F8BD3E4BC4
:102780003F49C3F8E84004223A2003F03BF8237C99
:102790000122F0E7384B3B49C3F8E44004223920DA
:1027A00003F030F8237C0122E5E7334B3649C3F8C8
:1027B000E0400422382003F025F8237C0122DAE7E8
:1027C0002D4B3249C3F8DC400422372003F01AF8BD
:1027D000237C0122CFE7284B2D49C3F8D84004229F
:1027E000362003F00FF8237C0122C4E7224B29494D
:1027F000C3F8D4400422352003F004F8237C0122DE
:10280000B9E71D4B2449C3F8D0400422342002F01C
:10281000F9FF237C0122AEE7174B2049C3F8CC40D7
:102820000422332002F0EEFF237C0122A3E7124BA7
:102830001B49C3F8C8400422322002F0E3FF237C86
:10284000012298E70C4B1749C3F8C44004223120F9
:1028500002F0D8FF237C01228DE7074B1249C3F811
:10286000C0400422302002F0CDFF237C012282E709
:102870008098000080380100FC1BFF1FB10500009C
:10288000B50B0000290B00009D0A0000110A000092
:1028900085090000F90800006D080000E10700004C
:1028A00075140000E91300005D130000AC4BAD4946
:1028B000C3F8BC4004222F2002F0A4FF237C012295
:1028C00059E7A74BA849C3F8B84004222E2002F0CC
:1028D00099FF237C01224EE7A14BA449C3F8B440E1
:1028E00004222D2002F08EFF237C012243E79C4B23
:1028F0009F49C3F8B04004222C2002F083FF237CC0
:10290000012238E7964B9B49C3F8AC4004222B20A8
:1029100002F078FF237C01222DE7914B9649C3F802
:10292000A84004222A2002F06DFF237C012222E726
:102930008B4B9249C3F8A4400422292002F062FF85
:10294000237C012217E7864B8D49C3F8A04004225F
:10295000282002F057FF237C01220CE7804B894995
:10296000C3F89C400422272002F04CFF237C012264
:1029700001E77B4B8449C3F898400422262002F0EB
:1029800041FF237C0122F6E6754B8049C3F8944051
:102990000422252002F036FF237C0122EBE6704B57
:1029A0007B49C3F890400422242002F02BFF237CB3
:1029B0000122E0E66A4B7749C3F88C4004222320C9
:1029C00002F020FF237C0122D5E6654B7249C3F853
:1029D00088400422222002F015FF237C0122CAE64F
:1029E0005F4B6E49C3F884400422212002F00AFFA5
:1029F000237C0122BFE65A4B6949C3F88040042278
:102A0000202002F0FFFE237C0122B4E6544B6549EE
:102A1000DC6704221F2002F0F5FE237C0122AAE6D7
:102A20004F4B61499C6704221E2002F0EBFE237C81
:102A30000122A0E64A4B5D495C6704221D2002F09A
:102A4000E1FE237C012296E6454B59491C6704228E
:102A50001C2002F0D7FE237C01228CE6404B554916
:102A6000DC6604221B2002F0CDFE237C012282E6DC
:102A70003B4B51499C6604221A2002F0C3FE237C82
:102A8000012278E6364B4D495C660422192002F09B
:102A9000B9FE237C01226EE6314B49491C660422B3
:102AA000182002F0AFFE237C012264E62C4B45493E
:102AB000DC650422172002F0A5FE237C01225AE6E1
:102AC000274B41499C650422162002F09BFE237C83
:102AD000012250E6224B3D495C650422152002F09C
:102AE00091FE237C012246E61D4B39491C650422D8
:102AF000142002F087FE237C01223CE6184B354966
:102B0000DC640422132002F07DFE237C012232E6E5
:102B1000134B31499C640422122002F073FE237C83
:102B2000012228E60E4B2D495C640422112002F09C
:102B300069FE237C01221EE6094B29491C640422FC
:102B4000102002F05FFE237C012214E6044B25498D
:102B5000DC6304220F2002F055FE237C01220AE6EA
:102B6000FC1BFF1FD112000045120000B91100002C
:102B70002D110000A110000015100000890F0000A9
:102B8000FD0E0000710E0000E50D0000590D000063
:102B9000CD0C0000410C00006D0400006925000010
:102BA000DD24000051240000C5230000392300006B
:102BB000AD22000021220000952100000921000023
:102BC0007D200000F11F0000651F0000D91E0000DD
:102BD0004D1E0000C11D0000351D0000A91C000095
:102BE0001D1C0000911B0000B34BB4499C630422E0
:102BF0000E2002F007FE237C0122BCE5AE4BB0495B
:102C00005C6304220D2002F0FDFD237C0122B2E56D
:102C1000A94BAC491C6304220C2002F0F3FD237C79
:102C20000122A8E5A44BA849DC6204220B2002F093
:102C3000E9FD237C01229EE59F4BA4499C6204226E
:102C40000A2002F0DFFD237C012294E59A4BA04983
:102C50005C620422092002F0D5FD237C01228AE572
:102C6000954B9C491C620422082002F0CBFD237C7A
:102C7000012280E5904B9849DC610422072002F094
:102C8000C1FD237C012276E58B4B94499C61042293
:102C9000062002F0B7FD237C01226CE5864B9049AB
:102CA0005C610422052002F0ADFD237C012262E577
:102CB000814B8C491C610422104602F0A3FD237C49
:102CC000012258E57C4B8849DC600422032002F095
:102CD00099FD237C01224EE5774B84499C600422B8
:102CE000022002F08FFD237C012244E5724B8049D3
:102CF0005C600422012002F085FD237C01223AE57C
:102D00006D4B7C491C600422002002F07BFD237C7B
:102D1000012230E5684B7849C3F8E84004223A20A4
:102D200002F070FD0123DAE4634B7449C3F8E44018
:102D30000422392002F066FD0123D0E45E4B704985
:102D4000C3F8E0400422382002F05CFD0123C6E411
:102D5000594B6C49C3F8DC400422372002F052FD85
:102D60000123BCE4544B6849C3F8D8400422362000
:102D700002F048FD0123B2E44F4B6449C3F8D4404C
:102D80000422352002F03EFD0123A8E44A4B6049AD
:102D9000C3F8D0400422342002F034FD01239EE425
:102DA000454B5C49C3F8CC400422332002F02AFD95
:102DB000012394E4404B5849C3F8C8400422322010
:102DC00002F020FD01238AE43B4B5449C3F8C44080
:102DD0000422312002F016FD012380E4364B5049D5
:102DE000C3F8C0400422302002F00CFD012376E439
:102DF000314B4C49C3F8BC4004222F2002F002FDA5
:102E000001236CE42C4B4849C3F8B84004222E201F
:102E100002F0F8FC012362E4274B4449C3F8B440B4
:102E200004222D2002F0EEFC012358E4224B4049FD
:102E3000C3F8B04004222C2002F0E4FC01234EE44D
:102E40001D4B3C49C3F8AC4004222B2002F0DAFCB5
:102E5000012344E4184B3849C3F8A84004222A202F
:102E600002F0D0FC01233AE4134B3449C3F8A440E8
:102E70000422292002F0C6FC012330E40E4B304925
:102E8000C3F8A0400422282002F0BCFC012326E461
:102E9000094B2C49C3F89C400422272002F0B2FCC5
:102EA00001231CE4044B2849C3F89840042226203F
:102EB00002F0A8FC012312E4FC1BFF1F051B00000D
:102EC000791A0000ED19000061190000D518000002
:102ED00049180000BD17000031170000A5160000BA
:102EE000191600008D15000001150000550700009F
:102EF000C90600003D060000B50B0000290B0000CC
:102F00009D0A0000110A000085090000F908000070
:102F10006D080000E107000075140000E9130000CF
:102F20005D130000D112000045120000B91100002D
:102F30002D110000A110000015100000890F0000E5
:102F4000FD0E0000710E0000E50D0000C34BC449EA
:102F5000C3F894400422252002F054FC0123FFF71B
:102F6000BEBBBE4BBF49C3F890400422242002F0F0
:102F700049FC0123FFF7B3BBB84BBB49C3F88C40F6
:102F80000422232002F03EFC0123FFF7A8BBB34B31
:102F9000B649C3F888400422222002F033FC012302
:102FA000FFF79DBBAD4BB249C3F8844004222120FA
:102FB00002F028FC0123FFF792BBA84BAD49C3F8F0
:102FC00080400422202002F01DFC0123FFF787BB74
:102FD000A24BA949DC6704221F2002F013FC012345
:102FE000FFF77DBB9D4BA5499C6704221E2002F084
:102FF00009FC0123FFF773BB984BA1495C670422CE
:103000001D2002F0FFFB0123FFF769BB934B9D4995
:103010001C6704221C2002F0F5FB0123FFF75FBBB5
:103020008E4B9949DC6604221B2002F0EBFB012346
:10303000FFF755BB894B95499C6604221A2002F084
:10304000E1FB0123FFF74BBB844B91495C660422F3
:10305000192002F0D7FB0123FFF741BB7F4B8D49BD
:103060001C660422182002F0CDFB0123FFF737BBBA
:103070007A4B8949DC650422172002F0C3FB012347
:10308000FFF72DBB754B85499C650422162002F085
:10309000B9FB0123FFF723BB704B81495C65042218
:1030A000152002F0AFFB0123FFF719BB6B4B7D49E5
:1030B0001C650422142002F0A5FB0123FFF70FBBBF
:1030C000664B7949DC640422132002F09BFB012348
:1030D000FFF705BB614B75499C640422122002F086
:1030E00091FB0123FFF7FBBA5C4B71495C6404223E
:1030F000112002F087FB0123FFF7F1BA574B6D490E
:103100001C640422102002F07DFB0123FFF7E7BAC4
:10311000524B6949DC6304220F2002F073FB012348
:10312000FFF7DDBA4D4B65499C6304220E2002F087
:1031300069FB0123FFF7D3BA484B61495C63042262
:103140000D2002F05FFB0123FFF7C9BA434B5D4935
:103150001C6304220C2002F055FB0123FFF7BFBAC9
:103160003E4B5949DC6204220B2002F04BFB012349
:10317000FFF7B5BA394B55499C6204220A2002F088
:1031800041FB0123FFF7ABBA344B51495C62042287
:10319000092002F037FB0123FFF7A1BA2F4B4D495D
:1031A0001C620422082002F02DFB0123FFF797BACE
:1031B0002A4B4949DC610422072002F023FB01234A
:1031C000FFF78DBA254B45499C610422062002F089
:1031D00019FB0123FFF783BA204B41495C610422AC
:1031E000052002F00FFB0123FFF779BA1B4B3D4985
:1031F0001C610422104602F005FB0123FFF76FBAA1
:10320000164B3949DC600422032002F0FBFA01234B
:10321000FFF765BA114B35499C600422022002F089
:10322000F1FA0123FFF75BBA0C4B31495C600422D1
:10323000012002F0E7FA0123FFF751BA074B2D49AD
:103240001C600422002002F0DDFA0123FFF747BAD8
:103250000022FFF790BA0023FFF741BAFC1BFF1FC3
:10326000590D0000CD0C0000410C00006D04000061
:1032700069250000DD24000051240000C523000062
:1032800039230000AD22000021220000952100001A
:10329000092100007D200000F11F0000651F0000D3
:1032A000D91E00004D1E0000C11D0000351D00008C
:1032B000A91C00001D1C0000911B0000051B000044
:1032C000791A0000ED19000061190000D5180000FE
:1032D00049180000BD17000031170000A5160000B6
:1032E000191600008D15000001150000550700009B
:1032F000C90600003D060000012A2DE9F0418C4678
:1033000038DD002600EB80071D4D02F1FF38344602
:10331000B64600EB47073A190134391955F822200F
:1033200055F8211001360029D8BF0024B045964435
:10333000F1D1BCF1010F20DD002400EB8006104D1F
:103340000CF1FF382746224600EB4606B018013242
:1033500006EB020C55F8200055F82C10013400291A
:10336000D8BF0022A0450744F0D10EEB0700184457
:10337000BDE8F0814FF0000EDBE70027F5E700BF66
:103380003008FF1F30B4154B154A1B6882B00193FB
:1033900001991368CB1A012B1CD9124B1C68A0424F
:1033A00017D0840007EE104A9FED0F6ADFED0F6A19
:1033B0000F4C104D1860B8EEC77A0123C6EE077A9D
:1033C0002B7067EEA67A67EEA67AFDEEE77AC4ED7B
:1033D000007A116002B030BC704700BF4C1DFF1F67
:1033E000D41BFF1F9809FF1F0000704200007A44A1
:1033F000C41AFF1FD01BFF1F38B5C0B20D461446BC
:1034000002F0EEFFE8B202F0EBFFE0B2BDE83840B8
:1034100002F0E6BFF8B5434D43492B78434E0868A8
:10342000434A34684349444F51F8241003F00703DA
:1034300052F823200023FFF75FFF404B1C68044431
:1034400021467F229020FFF7D7FF3D4B3D48E4B255
:103450001C7004F059F9D7ED007A3B4BB8EEE77ACF
:10346000D3ED006AFAEE047AE7EE267AF5EEC07A3A
:10347000F1EE10FA06D99FED357AF4EEC77AF1EE47
:1034800010FA31DD2B78324A264812680133DBB25C
:103490002B70297891FBF2F303FB12132BB92D4CFF
:1034A0003168247801313160C4B92B4B31681B6815
:1034B0001E48994204BF002303602B7819499A42A1
:1034C0000ED0264B1A7842B13A6800218A42197010
:1034D00003DB234B511E994217D9F8BD0370E4E773
:1034E00000230B703360ECE7DFED1E6ABEEE007A5E
:1034F000A7EEA67AFCEEC77A17EE902A232AC1D946
:103500001949104804F0B6F8BCE7C2EB0212920069
:10351000013A232AE1D915491548BDE8F84004F0DD
:10352000A9B800BFB41AFF1FD807FF1FF41BFF1F65
:103530000808FF1FE407FF1FC41AFF1FDC07FF1F57
:10354000C01AFF1FA01BFF1F9409FF1F8988884C0A
:10355000E007FF1F9009FF1F0408FF1FD01BFF1F7C
:1035600047444404000070427535000015340000E3
:10357000EC1BFF1F08B5054B802019780022FFF7D0
:103580003BFF0348BDE8084004F0BEB8C01AFF1F67
:10359000A01BFF1F70B501218CB00B20144E02F050
:1035A000BFF900210B2002F0BBF933680193019DA4
:1035B0000024643533680293029B9D4206D802F0D2
:1035C000EFFD642002F0B8F90CB070BD02F08CFD84
:1035D0002228024602D0112CF1D0EBE703A90548BE
:1035E00004F068F99DF80C00FFF7CCFE1134F2E707
:1035F0004C1DFF1FE810FF1F08B5FFF7CBFF044A63
:103600001368013313606420BDE8084002F094B9E8
:10361000181AFF1F2DE9F04383B0132511230193DE
:10362000009512231522142159485A4FDFF8EC81D6
:10363000594C01F079F816230095019315221723B0
:1036400014215648564D01F06FF8564801F0C8FA5B
:10365000222221215448FEF7CDFF24222321534862
:10366000FEF7C8FF524B00264FF080093A4641460C
:1036700018461E6083F8049004F0C6FC4D4B41468A
:103680003A46184683F804901E6004F0BDFC4A4B8D
:103690009FED4A6A1B68DFED4A6A4A4A4A499B0025
:1036A00007EE903AB8EEE77A2046C6EE077A67EE64
:1036B000A67A67EEA67AFDEEE77AC2ED007A04F00C
:1036C0005FF904F11000414904F05AF904F12000B7
:1036D0003F4904F055F904F130003E4904F050F937
:1036E00004F140003C4904F04BF904F150003B491F
:1036F00004F046F904F16000394904F041F904F19D
:103700007000384904F03CF904EB0900364904F034
:1037100037F904F19000354904F032F904F1A000C2
:10372000334904F02DF904F1B000324904F028F9CE
:103730003A463046304904F067FC28462F4904F0E9
:103740001FF905F110002E4904F01AF905F12000C7
:103750002C4904F015F905F130002B4904F010F95B
:1037600005F14000294904F00BF905F15000284902
:1037700004F006F905F16000264904F001F9264934
:103780003A46304603B0BDE8F04304F03DBC00BF0C
:10379000A81BFF1FD407FF1FDC1AFF1F1C1AFF1FE7
:1037A000441AFF1FB81AFF1FD81BFF1FC81AFF1F9C
:1037B000A01BFF1FEC1BFF1F9809FF1F000070429A
:1037C00000007A44C41AFF1FB4900000B8900000B3
:1037D000BC900000C0900000C4900000C8900000A1
:1037E000CC900000D0900000D4900000D890000051
:1037F000DC900000E090000021050000E490000053
:10380000EC900000F4900000049100000091000092
:103810000C9100001491000005050000F90400005F
:1038200010B54D4C40F6B831204601F02BFB204638
:103830004A494FF4E13201F0FFFA2046012101F03C
:10384000D5FA60B1606C4649036811225B689847FD
:1038500020460A2101F0B8FA204601F0EBFA0122D5
:1038600000213D483F4C01F0D5FB03210F2002F021
:103870005DF8022210463C4901F0C4FF01210B20F3
:1038800002F054F800210B2002F04AF80321042032
:1038900002F04CF82078012102F048F8012120784C
:1038A00002F03EF84FF4F05002F026FD40F62300FF
:1038B00002F076F90B212D4803F074FC274803F041
:1038C00089FF01233C220221294800F0BFFF002389
:1038D0001A460221274800F0B9FF264800F046FFAB
:1038E0000121244800F08AFC00221146214800F002
:1038F0007BFC02211F4800F07BFC0B221B491D486A
:1039000003F054FF1B4803F065FF1A4801F0D0F89C
:10391000174800F02BFF0121154800F06FFC002232
:103920001146134800F060FC0321114800F060FCD0
:10393000042211490E4803F039FF0D4803F04AFFF5
:103940000B4801F0B5F80D4B0121187801F0EEFF9E
:10395000BDE81040FCF7F2BDFC1CFF1F0811FF1F63
:103960001C9100002C08FF1F3D0500003091000055
:10397000A81BFF1F1C1AFF1F3C9100002808FF1FF7
:1039800000207047704700BF2DE9F04F85B0994681
:10399000BDF93870BDF83CA0BB1AC1EB090B002B78
:1039A000B8BF5B42BBF1000FB8BFCBF1000B5B456A
:1039B0000D4616460093804648DC4D453A46334650
:1039C0004CDC194613460A46C5EB09019B1A89B21D
:1039D000002B0CB2B8BF5B4204EBD474BE42ACBF48
:1039E0004FF0FF3201224D45039102924FEA6404E9
:1039F00029DC9BB201930DE0D8F80070BF69B8478D
:103A0000019BE41AA3B21CB20135002C2DB211DBCC
:103A1000A94518DB009B5B452A4653463146404684
:103A2000EADCD8F8002053469769294632464046DA
:103A3000B847E5E7029A1644039AA94502EB030446
:103A400036B224B2E6DA05B0BDE8F08F4A462B461E
:103A5000B94635464D4517461E46B2DD3046294625
:103A60003E464D4607468946AEE700BF10B404689F
:103A70002469A4465DF8044B604700BF30B4046875
:103A8000BDF808500295A46BA44630BC604700BF47
:103A900030B40468BDF808500295E46BA44630BC0D
:103AA000604700BF70B40468BDF90C60BDF81050E9
:103AB00003960495246CA44670BC6047704700BF11
:103AC00010B582B0B0F90C2001910168009200227B
:103AD0000C6CB0F90A301146A04702B010BD00BF0F
:103AE000704700BF01F003010129C17506D0032909
:103AF00004D0C28803894281838170470289C388C8
:103B000042818381704700BF2DE9F0410568134E63
:103B10006F6986B0B7420446BDF8308010D1013BD2
:103B200013441BB20093CDF804800B46AD6A2046C7
:103B3000A8472368DB6AB3420AD106B0BDE8F0812A
:103B4000059304920391B84703A925680EC9E6E7D7
:103B5000204606B0BDE8F041184700BFBD3A00005E
:103B60002DE9F0410568124E6F6986B0B7420446F0
:103B7000BDF830800FD1013BCDF804800B4400929A
:103B80001BB2AD6A2046A8472368DB6AB3420AD15C
:103B900006B0BDE8F081059304920391B84703A9EC
:103BA00025680EC9E7E7204606B0BDE8F041184792
:103BB000BD3A00002DE9F04F0568DFF858B06F6995
:103BC00085B05F450646BDF93890BDF83CA00C466F
:103BD000904615D11F19BC420CDACDF800A0214641
:103BE00001342D6A4B464246304624B2A847BC42B7
:103BF0003568F2DBEB6A5B4507D105B0BDE8F08FB5
:103C00000393B8473568039BE4E7304605B0BDE849
:103C1000F04F1847BD3A00002DE9F04387B09942B4
:103C20000546BDF93840BDF83C6025D0A24212D00F
:103C30000768DFF88080D7F81490C14532D18DE84D
:103C400050002846BC6AA0472B68DB6A434524D154
:103C500007B0BDE8F083994202DD084619460346E5
:103C600028680E96C46B01335B1A1BB22846A44623
:103C700007B0BDE8F0436047A24202DD134622468A
:103C80001C4628680E96631C846B9B1A1BB2284640
:103C9000A44607B0BDE8F0436047284607B0BDE83A
:103CA000F0431847059304920391C84703A92F686E
:103CB0000EC9C4E7BD3A00002DE9F04FD0F800E08E
:103CC000DFF89090DEF814B083B0CB450446BDF920
:103CD0003080BDF834A00D4617461E4631D1CDF8D0
:103CE00000A0DEF824B0294633463A462046D8479D
:103CF0002368CDF800A008F1FF323A44D3F824B08D
:103D0000294612B233462046D8472368CDF800A092
:103D10002946D3F820B03A4643462046D847206883
:103D2000CDF800A0711E29444346056A09B23A46FF
:103D30002046A8472368DB6A4B4506D103B0BDE89F
:103D4000F08FD847D4F800E0C9E7204603B0BDE8BB
:103D5000F04F1847BD3A0000F0B4002401264FF69A
:103D6000FF75094F07600471C475C48104824476ED
:103D7000C4618675067685824582C1800281418153
:103D80008281F0BC704700BF4C9100002DE9F04FDC
:103D900093B090460591C1691090BDF870000790EE
:103DA000BDF874909DF878A00493002900F0CD80B0
:103DB0000A7A0AC9894604998A1AD2B203EBC20365
:103DC000BAF1010FDA780B9293F905201E8893F867
:103DD00002B00F9293F9064079D913B2099323B236
:103DE0000C93109B1A68A94B1193194653698B4287
:103DF00040F0A6800B9B002B55D01FFA88F30021C2
:103E00000D93C8462344DDF8409006910E930F466B
:103E10000C46BBF1000F3FD0BDF818100C9B039768
:103E20001FFA8AF0CB1813FB00F304900E9801449C
:103E30000D98034409B21BB20A910893002505E0CE
:103E40000135EBB264009B45E4B222D9039B2B44BD
:103E5000590703D1731C18F806409EB22306EFD50C
:103E6000099BBDF81000E91811FB00F10598BAF1A3
:103E7000010F0FFA8AF301441CD0079801900093B8
:103E8000D26909B217464846089AB847D9F80020BF
:103E9000D6E7039F5F44FFB2069B0B99013306935D
:103EA000DBB29942B5D8D36A119A934243D113B089
:103EB000BDE8F08F0F9B191893690A9A29441F4691
:103EC00009B2079B4846B847D9F80020B8E7002355
:103ED0000C93099385E70A9A0D9B0132013B52B27C
:103EE00013F0FF030A920D936FD1DDF81890079B32
:103EF000DDF83C80DDF820A04B4517D0BAF1010F6A
:103F000000F0C8800B9A109DCDF804900BEB8B014C
:103F10004FEACB030A4400931146DEF81C40534697
:103F2000424609B22846A047D5F800E0DEF82C301A
:103F3000119A9342BBD0109813B0BDE8F04F1847C8
:103F4000109D284698472A6854E7109A0598B2F9B8
:103F50000A308342ABDDB2F90C304345A7DD0623BE
:103F600013FB0A03002BA2DD08EBCA03002B9EDD26
:103F7000537E2BB9049BAF2B02D90133DBB20493E0
:103F8000109BD3F800E0414B11931A46DEF8143031
:103F9000934240F08E801FFA88F30E9308339BB251
:103FA000BDF81420059305230D9300230A93CDF843
:103FB0003C800FFA8AF3DDF84080CDF818900B9220
:103FC0001FFA8AFBCDF820A099460A9ABDF8100086
:103FD0000B9C0E9D0523194611FB00232C4811460E
:103FE000C75C039702FB0B4214FA81F312B21BB2B7
:103FF00009920C932C462E461CE0089B0999012B34
:104000002AB24B4640462DD0079F0197CDF800902D
:10401000DEF81CA0D047D8F800E0039B5B08013411
:104020000393059BA4B25D445E44A342ADB2B6B215
:104030003FF451AF039BD807DFD4079B069A934206
:10404000EBD0089B012B16D0069B0193CDF8009076
:10405000DEF81CA009994B4632B24046D047D8F84A
:1040600000E0DAE7DEF818A0079B0C9922B2D047EF
:10407000D8F800E0D1E7DEF818A00C9913464046C6
:1040800022B2D047D8F800E0C7E700BFBD3A000031
:104090009C9100000B99109DCDF800900531DEF841
:1040A000204009B2424608232846A047D5F800E040
:1040B0003CE7109C20469847D4F800E06BE700BF2F
:1040C000F0B5C36985B004462BB30A2968D00D2921
:1040D0004AD01A7A914247D3587A884244D35D68CD
:1040E0008A1A05EBC205AA78002A50D0E878002881
:1040F0004DD0207E00283AD095F905E0B4F90E00A5
:10410000A67DB4F90A70724406FB0202BA4262DC70
:10411000B4F9102030E00A2956D00D2924D0027EAF
:10412000002A4BD0B0F90E00A57DB4F90A60062232
:1041300012FB0502B2423EDD228AE38102EBC50298
:1041400012B218462282A78A668A02950B468DE82B
:10415000C00001462046FFF719FEA37DE28903EB6C
:10416000430302EB4303E381012005B0F0BDA67DCC
:10417000B4F90E00B4F91020B4F814E0678A02967E
:104180000B468DE8804001462046FFF7FFFD297968
:10419000E389A27D012001FB0233E38105B0F0BD7C
:1041A0000022C2819A7A817D038A01FB0233038255
:1041B000012005B0F0BDB4F91020C4E7857DB4F945
:1041C0001020B0F90E00BEE7028A817DC38102EBA8
:1041D000C1030382C8E70020E0819B7A228A03FBA7
:1041E000062212B22282C7E7C1810282704700BF55
:1041F000002908BF01218175704700BF818241827B
:10420000704700BFC07D7047B0F90A00704700BF1B
:10421000B0F90C00704700BFF0B5C47DBDF8145074
:10422000022C75D0032C6ED0012C32D0002A79DB01
:10423000B0F90840944265DD002978DBB0F90660EA
:104240005818B042C4BF731A1BB2002B5ADD002AA3
:104250001046B8BFD01D012440F3CF0002F0070282
:10426000704E01EBC01104FA02F2A5423144D2B201
:1042700000F0A480C0F09580022D43D1013B11FADB
:1042800083F04B1E13F8011F514083421970F9D17E
:10429000F0BDC488013CA21A12B2002A7BDBB0F93F
:1042A000064094422EDD00293DDBB0F90860581825
:1042B000B042C4BF731A1BB2002B23DDC9B2C808B9
:1042C000584C02EBC01211F00701DBB204EB020004
:1042D00039D0C1F10801C9B2534E8B42765C2AD263
:1042E000C3EB010EFF2747FA0EF7012D06EA07067A
:1042F00074D06ED3022D40F09480A75C7E40A6540B
:104300008B421DD2F0BD0489E41A611A09B2C4E7D8
:104310000689C488013EB21AE41A12B2611A002A50
:1043200009B285DAF0BD0B441BB20021BDE70B4496
:104330001BB2002182E7012D50D04AD3022DDCD0E0
:104340005B1ADBB28030072B18D9022D4ED0A3F1B7
:104350000806C6F3C406B11C00EBC111012D0CBF49
:10436000FF24002400F1800202F8804C80328A424F
:10437000FAD1013600EBC61003F00703002BC1D0C1
:104380002A4A012DD35C2DD006D3022DBAD1027852
:1043900053400370F0BDF0BD027822EA03030370BE
:1043A000F0BD013BD24311FA83F0D2B24B1E13F899
:1043B000011F114083421970F9D1F0BD013B11FA80
:1043C00083F04B1E13F8011F114383421970F9D17A
:1043D000F0BDA75C27EA0606A65491E7A75C3E431A
:1043E000A6548DE7027813430370F0BDA3F10805CE
:1043F000C5F3C405AC1C00EBC41400F1800212F834
:10440000801CC94302F8801C8032A242F7D10135DA
:1044100013F0070300EBC5103FF474AF034AD35CFD
:10442000B5E7F0BDAC09FF1FA409FF1F9C09FF1FE2
:10443000F0B5C47DBDF81450022C76D0032C6FD09B
:10444000012C37D000297ADBB0F906408C4230DDF0
:10445000002A79DBB0F908609818B042C4BFB31ADB
:104460001BB2002B25DDD2B2D008754C01EBC01178
:1044700012F00702DBB204EB010071D0C2F10802B6
:10448000D2B2704E9342B65C62D2C3EB020EFF27EB
:1044900047FA0EF7012D06EA070600F0AC80C0F0DF
:1044A000A580022D40F0CA80675C7E40665493422E
:1044B00053D2F0BDC488E41AA21A12B2002977DBE5
:1044C000B0F908408C42F4DD002A39DBB0F906600F
:1044D0009818B042C4BFB31A1BB2002BE9DD002903
:1044E0000846B8BFC81D012440F3CF0001F0070102
:1044F000534E02EBC01004FA01F1A54206EB000294
:10450000C9B268D05AD3022DD3D1013B12FA83F03D
:10451000531E13F8012F4A4083421A70F9D1F0BD9F
:104520000489013C611A09B2C8E7C6880489013EC2
:10453000711AE41A09B2A21A002912B284DAF0BD83
:1045400013441BB20022C1E713441BB2002281E7CF
:10455000012D50D04AD3022DA6D09B1ADBB2803059
:10456000072B18D9022D4ED0A3F10806C6F3C406B6
:10457000B11C00EBC111012D0CBFFF24002400F180
:10458000800202F8804C80328A42FAD1013600EB78
:10459000C61003F00703002B8BD02B4A012DD35CF0
:1045A0002DD006D3022D84D1027853400370F0BD84
:1045B000F0BD027822EA03030370F0BD013BC9435A
:1045C00012FA83F0C9B2531E13F8012F0A40834236
:1045D0001A70F9D1F0BD013B12FA83F0531E13F8A3
:1045E000012F0A4383421A70F9D1F0BD675C27EAB4
:1045F000060666545BE7675C3E43665457E70278FD
:1046000013430370F0BDA3F10805C5F3C405AC1C4A
:1046100000EBC41400F1800111F8802CD24301F8A2
:10462000802C8031A142F7D1013513F0070300EB54
:10463000C5103FF43EAF044AD35CB5E7F0BD00BF00
:10464000AC09FF1FA409FF1F9C09FF1FF8B50D1E31
:1046500006DB14461F460646FFF7D6FD854200DB03
:10466000F8BD002CFCDB3046FFF7D2FD8442F7DAC0
:104670003046FFF7C7FD02284BD0032843D001285E
:1046800004D1F388013B1B1B2C461DB2012F03D024
:1046900026D3022F12D0F8BD002C2346B8BFE31D4D
:1046A00043F3CF0305EBC3151E4804F00704435D35
:1046B000012101FA04F41C434455F8BD002C2346A3
:1046C000B8BFE31D43F3CF0305EBC315154804F052
:1046D0000704435D012101FA04F45C404455F8BD30
:1046E000002C2346B8BFE31D43F3CF0305EBC315EE
:1046F0000C4804F00704435D012101FA04F423EAA5
:1047000004044455F8BD3389013B5B1B25461CB2AC
:10471000BCE7F18832890139013A4D1B141B2DB2D7
:1047200024B2B3E7AC09FF1F2DE9F84304469946CC
:104730000D4616469DF920709DF924804022802167
:10474000FFF70AFB084A84F82490002384F82680A7
:1047500084F8257084F8236084F82250226084F85D
:1047600027302046BDE8F883A49600004FF480620D
:104770000021014803F0AEBFAC09FF1FF8B590F966
:104780002230013304460F4642D0012190F8260022
:1047900001F0C6F8002194F8240001F0C1F80021CE
:1047A00094F8260001F0BCF894F8273083B1254B2B
:1047B0001A684FF00043D3625763D36A002BFCDAC8
:1047C000936B94F826000121BDE8F84001F0A8B8E9
:1047D00008268025002194F8230001F0A1F817EAAB
:1047E00005034FF0010194F8220008BF194601F0BB
:1047F00097F8012194F82300CD4001F091F8013E93
:10480000E8D194F826000121BDE8F84001F088B80D
:104810000D4C90F8203001255B002046002184F8E3
:104820003B3084F85E5084F85D5000F063FC3946FC
:10483000204600F05FFC29462046BDE8F84000F025
:10484000E1BD00BFAC0DFF1F500EFF1FF8B50D46B8
:1048500090F9221080F820200131044680F8215080
:104860001F4600F0AD80012190F8240001F05EF8B1
:10487000012194F8260001F059F894F82730002B14
:1048800000F0D380804E304600F05AFAF37A002BC5
:1048900040F0DB8033687D4AD968914206D07C4E77
:1048A0007C487D491E60DA6018611960E7B194F9AF
:1048B0002500002818DBC0B2012101F037F80121E2
:1048C00094F8250001F02CF8012001F035F80021C2
:1048D00094F8250001F024F80A2001F02DF80121B8
:1048E00094F8250001F01CF8AE212046FFF746FFA2
:1048F000D5212046FFF742FF80212046FFF73EFFEB
:10490000A8212046FFF73AFF3F212046FFF736FF58
:10491000D3212046FFF732FF00212046FFF72EFF6C
:1049200040212046FFF72AFF8D212046FFF726FF72
:10493000012D4DD014212046FFF720FF20212046D5
:10494000FFF71CFF00212046FFF718FFA12120469A
:10495000FFF714FFC8212046FFF710FFDA21204699
:10496000FFF70CFF12212046FFF708FF81212046A8
:10497000FFF704FFCF212046FFF700FFD921204693
:10498000FFF7FCFEF1212046FFF7F8FE2046DB2171
:10499000FFF7F4FE20464021FFF7F0FE2046A42159
:1049A000FFF7ECFE2046A621FFF7E8FE20462E2169
:1049B000FFF7E4FE2046AF21BDE8F840FFF7DEBE7A
:1049C000364800F0ABFB3649344800F0F1FB6DE7A8
:1049D00020461021FFF7D2FE20462021FFF7CEFE11
:1049E00020460021FFF7CAFE2046A121FFF7C6FEA0
:1049F0002046C821FFF7C2FE2046DA21FFF7BEFE9F
:104A000020461221FFF7BAFE20468121FFF7B6FEAD
:104A100020469F21FFF7B2FE2046D921FFF7AEFEC8
:104A200022212046FFF7AAFEB0E7012194F82200D8
:104A300000F07CFF012194F8230000F077FF94F848
:104A40002730002B3FF432AF1CE772B6F37AD80759
:104A50001A4606D51349F26808680240B2610A6036
:104A60001A46990706D5104933690868F27A034057
:104A7000F3610B60530705D50C4A736911680B404D
:104A80003362136062B605E7AC0DFF1F01100038FA
:104A900001403F000110007800003F80500EFF1FD2
:104AA000801A060080E100E084E100E088E100E097
:104AB0002DE9F84F21210546FFF760FE2846002129
:104AC000FFF75CFE28467F21FFF758FE284622218B
:104AD000FFF754FE28460021FFF750FE2846072125
:104AE000FFF74CFE95F92230013349D0012195F8AA
:104AF0002600DFF8E480DFF8E4B000F011FF0121C8
:104B000095F8240000F00CFF002195F8260000F035
:104B100007FF08F580694FF0004A95F8273018F82C
:104B2000017F0BBB08268024002195F8230000F0AC
:104B3000F7FE17EA04034FF0010195F8220008BFC1
:104B4000194600F0EDFE012195F82300CC4000F05D
:104B5000E7FE013EE8D1C845DFD195F826000121E6
:104B6000BDE8F84F00F0DCBEDBF80020C2F82CA056
:104B70005763D36A002BFCDAC845936BCDD1ECE7C1
:104B8000DFF85080124F00244FF0010995F82030D3
:104B9000104888F85E905B00402188F83B3088F828
:104BA0005D9000F0A7FA04F11006B6B2395D09482D
:104BB0000134A4B200F09EFAB442F7D101210548B5
:104BC00000F020FCB4F5806FE0D1BDE8F88F00BFA5
:104BD000AC09FF1F500EFF1FAB09FF1FAC0DFF1FDD
:104BE00000220A21818002608271C271704700BF79
:104BF00010B4047F4160022CC26003D05DF8044B06
:104C000002F0D4BB83685DF8044B1847F0B4464B00
:104C1000464A186BDC6A01791170454922790A709D
:104C20009A6A00790870002A46D05968C9688A4291
:104C30003ED82168CC8B240402F1FF3065D4C0F348
:104C40000E00C883C88B80B2C882196B0968C88BF4
:104C5000000452D4C2F30E00C883C88B002480B273
:104C600012F1FF32C88218BF01229C62D96A2E4815
:104C700009680D6800F12404A54236D00068C468B4
:104C800014F0804F0C680D6815BF24882478023515
:104C9000013544F000440D604463196B254B0979DC
:104CA0001970214912B1CA6A12791A70F0BC7047A2
:104CB000521A9A620122D9E7586B196805681E4C8E
:104CC0000A63CC62CC682D681C4E24F08044032714
:104CD000B542CC6083F825701FD1037F4260022B60
:104CE000C2601ED0F0BC02F061BB016890F82400E5
:104CF000CC6840F000404863CFE7CC8BC2F308009B
:104D000004F47E442043C883A7E7CC8BC0F308009B
:104D100004F47E442043C88394E72B461146F0BC3C
:104D200018478368F0BC1847AC0DFF1F1F80004078
:104D30001C8000401B80004000000FFFF14B000072
:104D400090E80C00F0B41C6859682568164F174E9F
:104D500029432160164D17491760D660156111600F
:104D6000417A154A5C180C3194F82C4053F82150C4
:104D700002EBC40149680D60017A5C1803EB810104
:104D8000247ECD6902EBC40149680D60817A581810
:104D900003EB810390F84000596C02EBC002F0BCB9
:104DA00053681960704700BF01401F0001100038B0
:104DB0000110007800001F808098000002F08CB97C
:104DC00002F0AEB902F0C4B9074882B0036801939B
:104DD000019A114401E0994204D303680093009BB7
:104DE0009A42F8D902B070474C1DFF1F10B4104A08
:104DF00085B0A1B9136800934168009B591A312905
:104E00000DD813680293029C04F13203591A01E091
:104E1000994204D313680193019B9C42F8D913680B
:104E20000393039B4360012005B05DF8044B70477A
:104E30004C1DFF1F704700BF2DE9F0410D4D0E4E78
:104E4000DFF83C800D4F41641B2401E000F074FD4D
:104E50002B78C82043B133789B0705D0D8F80030B1
:104E60003A689B1A182B03D8013CEFD1BDE8F081BA
:104E7000BDE8F081441FFF1F5C1FFF1FB421FF1F0F
:104E80004C1DFF1F00238364436071B1074882B04B
:104E900003680193019A114401E0994204D3036825
:104EA0000093009B9A42F8D902B070474C1DFF1F37
:104EB00070B5144C84B00546406C236803930368B6
:104EC000039A6A600E465B680F490622984731468E
:104ED00000230A22686C02F08DFC686C0B490368A1
:104EE00008225B68984723680293029A02F1320114
:104EF00001E0994204D323680193019B9A42F8D9B7
:104F000004B070BD4C1DFF1FA0970000A8970000C3
:104F1000F8B5037E0BB96320F8BD0446406C3B4EE8
:104F200003681B69B3420D466AD102F011F910F013
:104F3000FF0F01D16520F8BD354F606C03681B6918
:104F4000B3425FD102F004F910F0FF0FF2D0606CB1
:104F500003685B69BB4257D102F0BEF8C3B2A3F14C
:104F600058021E2AE9D801A151F822F0F94F000099
:104F70003B4F00003B4F00003B4F00003B4F000009
:104F80003B4F00003B4F00003B4F00003B4F0000F9
:104F90003B4F00003B4F0000ED4F00003B4F000037
:104FA0003B4F00003B4F00003B4F0000174F0000FD
:104FB0003B4F00003B4F00003B4F00003B4F0000C9
:104FC0003B4F00003B4F00003B4F00003B4F0000B9
:104FD000174F00003B4F00003B4F00003B4F0000CD
:104FE0003B4F0000E94F00001846F8BD2046294617
:104FF000FFF75EFF6320F8BD002323766320F8BD32
:10500000984794E798479FE79847A7E7C54D000062
:10501000BD4D000070B5054682B01646C9B10123EA
:105020000D4C037600212846FFF772FF632810D04D
:1050300023680193019A511C23680093009B9A42B4
:10504000F0D89942F8D200212846FFF761FF632883
:10505000EED12E7602B070BD4C1DFF1F034B002217
:105060009A60DA601A615A61704700BFFC1CFF1F2A
:1050700090F8392090F83800101A704790F83830BE
:1050800090F839209A4205D95A1C034480F83820F8
:10509000187E70474FF0FF30704700BF90F83830EF
:1050A00090F839209A4286BF1B18187E4FF0FF30C7
:1050B000704700BF704700BF38B50546B0F85E00C6
:1050C00090B195F85D301446C3F1210294420CD89A
:1050D00005F13B001844224600F030FA95F85D30A7
:1050E000234485F85D30204638BD012014462871E0
:1050F000EEE700BFB0F85E306BB190F85D30202B6A
:1051000007D8C218013380F85D30012082F83B10C7
:105110007047012303710020704700BF00234269DC
:1051200080F8383080F8393080F85C3080F85D30B5
:1051300080F85E3080F85F3006CA30B40D680469CC
:1051400043662A4383660A60A370426990F861301F
:105150001649146813441D7A5B7B01EBC5051B02DD
:105160006D6803F4E06343F064032B6090F86230F1
:1051700013449D7CDB7D01EBC5011B02496803F4F0
:10518000E06343F064030B6021685368194205D063
:1051900003692C225A70036904229A710369202240
:1051A0005A71036980229A7030BC70478098000061
:1051B00043690CCB12681A420CD0094B99420AD9A8
:1051C000084B9942036994BF1C2212225A7003694A
:1051D00004229A71704703692C225A70F7E700BFC6
:1051E0007F1A06003F420F0038B50269D478E4B256
:1051F000E106054624D51023D37063061FD504F0BD
:10520000040404F0FF03002C5AD042496A6E0023C4
:105210000B7085F85D30002A66D0904795F85D30B8
:10522000002B61D02B69D0229A702B6995F83B2016
:105230001A712B69012285F85C200222DA7038BDD0
:1052400004F0400303F0FF00002BD8D19379DBB2C8
:1052500003F0600160294ED0937803F0100303F04F
:10526000FF01B3B114F0010437D195F85C3095F823
:105270005D1099424BD9591C2B4485F85C1093F86A
:105280003B3013712B69D0229A702B690222DA709D
:10529000D5E785F86010937943F0200393712B696B
:1052A00095F839101A791F29D2B2C6D81948007852
:1052B0000028C2D06818013185F839100276BCE7A1
:1052C0002A6985F83930C02393702B69114A1979FE
:1052D000012111700222DA70B1E7C02393702B69AB
:1052E0001A790222DA70AAE70122002385F85D20EC
:1052F00085F83B3096E703F0DF039371AB6E23B183
:1053000085F8380095F8390098472A69A4E71471A0
:10531000B8E700BF481DFF1F2DE9F047374FDFF802
:10532000E0903B68026982B006460093DDF8008099
:105330000021C825D3789B065BD53B680193019B70
:10534000C8EB03030F2BF5D949B1102BF2D0002085
:105350009070336980229A7002B0BDE8F08772695C
:1053600096F8613013440521187A00F0DFFA72696B
:1053700096F861301344012193F812A0504600F0D2
:10538000D5FA09240021504600F0CAFA2B46013B09
:10539000FDD10121504600F0C3FA2B46013BFDD15F
:1053A000013CEFD1706996F8611001444FF4C87266
:1053B0000C7A4B7B09EBC4011B02496803F4E063E0
:1053C00043F064030B6096F862300344997CDB7D04
:1053D00009EBC1011B02496803F4E06343F0640375
:1053E0000B60013AFDD13269D3789B064FF0010181
:1053F000A3D4012002B0BDE8F08700BF4C1DFF1F01
:1054000080980000F0B503691222DA70026993787F
:1054100003F0200385B004460D46002B5ED0B42374
:1054200093703C4922690B680093009E05E00B686D
:105430000193019B9B1B042B42D8D37803F02003DC
:1054400003F0FF00002BF2D094F85D30002B31D038
:105450004FF0000E4FF0020C04EB0E0393F83B30BC
:1054600013710B680393039F206907E09B060DD51A
:105470000B680293029BDB1B052B28D8C378DBB299
:1054800003F0020202F0FF06002AEFD080F803C00A
:105490002669F378DBB2DF0632462DD49F062BD582
:1054A000DB0731D40EF1010E94F85D305FFA8EFE09
:1054B0007345D1D800201DBB002384F85E3004E082
:1054C0009070236980229A70042005B0F0BD867028
:1054D0002369802204209A7005B0F0BD03F0FF0616
:1054E000FFF71AFF10B9042005B0F0BD236984F856
:1054F0005F60B0229A7094E78023B3700420DAE7EB
:1055000026698023B370D7E7BEF1000F0CBF0220DD
:105510000320F6E74C1DFF1F0148FFF765BE00BFE3
:10552000500EFF1F0148FFF75FBE00BFBC0EFF1FFC
:105530000148FFF759BE00BFE40DFF1F844641EA52
:10554000000313F003036DD1403A41D351F8043BFB
:1055500040F8043B51F8043B40F8043B51F8043B4D
:1055600040F8043B51F8043B40F8043B51F8043B3D
:1055700040F8043B51F8043B40F8043B51F8043B2D
:1055800040F8043B51F8043B40F8043B51F8043B1D
:1055900040F8043B51F8043B40F8043B51F8043B0D
:1055A00040F8043B51F8043B40F8043B51F8043BFD
:1055B00040F8043B51F8043B40F8043B51F8043BED
:1055C00040F8043B51F8043B40F8043B403ABDD25C
:1055D000303211D351F8043B40F8043B51F8043BFE
:1055E00040F8043B51F8043B40F8043B51F8043BBD
:1055F00040F8043B103AEDD20C3205D351F8043B8D
:1056000040F8043B043AF9D2043208D0D2071CBF58
:1056100011F8013B00F8013B01D30B880380604681
:10562000704700BF082A13D38B078DD010F00303F7
:105630008AD0C3F10403D21ADB071CBF11F8013B67
:1056400000F8013B80D331F8023B20F8023B7BE7B6
:10565000043AD9D3013A11F8013B00F8013BF9D2E1
:105660000B7803704B7843708B788370604670477B
:1056700008B5104C08E0236859050DD423681A05B5
:105680000FD42368DB0411D423685803F3D501F049
:105690004DF823685905F1D500F0A8FD23681A05D7
:1056A000EFD500F005FF2368DB04EDD502F084FAA6
:1056B000EAE700BF3480044008B5FFF7D9FF00BF18
:1056C000014B10221A80704700200540704700BF30
:1056D000094908B50B6830B16A461844A2F5005272
:1056E000904202D20860184608BD02F099FC0C23D3
:1056F00003604FF0FF3008BD280FFF1FFEE700BF1B
:10570000EFF3138070B9EFF310836BB9EFF30582F9
:105710005AB94FF48070EFF311832BB1984228BF30
:10572000184670474FF0FF3070470F2A01D81846CF
:10573000F1E7014BD05CEEE7F0E300E0704700BF1B
:1057400010B4114B53F8302092F8804234B1012349
:1057500079B182F880305DF8044B704703EBC003E9
:105760005B681A6851B922F002021A605DF8044BB6
:10577000704782F800315DF8044B704742F0030235
:105780001A605DF8044B7047809800001C4A02EBD9
:10579000C00301295B6811D004291BD052F83000E6
:1057A000002280F8802229B1022920D0032922D0AA
:1057B0001A6070474FF480721A60704752F83000D8
:1057C0004FF4A27280F880121A601A6822F0200248
:1057D0001A60704752F830104FF4A272012081F81D
:1057E00080021A601A6842F020021A60704740F284
:1057F00003121A6070474FF481721A60704700BF3D
:10580000809800003F2817D8F8B5042A13D8DFE89D
:1058100002F0494C4F1446002C4872B6236823F41A
:10582000702343F08072C4F384011643236040F870
:105830002150266062B6F8BD70474FF41026244B05
:1058400003EBC0030D465C68216811F4E06134D0BD
:10585000204B214A2149C3F82C2104F14042204821
:10586000C3F83411A2F592211E4FC3F830017C29F0
:105870001D48C3F83871C3F83C01CDD9A2F5942373
:105880007C2B18D9A2F596237C2B19D9A2F5982345
:105890007C2B17D9A2F59A227C2A15D9F8BD4FF492
:1058A0003026CCE74FF40026C9E74FF44026C6E780
:1058B0004FF42026C3E70D48AFE7FFF767FFC7E7C0
:1058C0000B48AAE70B48A8E70B48A6E72C0FFF1FD9
:1058D000809800000002FF1FA907FF1F5107FF1F4C
:1058E0007D07FF1F2507FF1FF906FF1FA40FFF1FDE
:1058F0000410FF1F3410FF1F7410FF1F30B4054B3E
:10590000054D064C002210211A602A6020601960A3
:1059100030BC704714D0034004D0034000D0034093
:105920003F2801D8FFF70CBF704700BF3F2801D8C0
:10593000FFF72CBF704700BF2DE9F843054672B64C
:10594000204F214B214A1B683C68126862B6520105
:1059500002D5322B88BF013495B3C3F5EA331C4E10
:10596000DFF86490DFF86480BF334FF47A72A6FBEF
:10597000031302FB04F404EB931472B6D9F800107D
:105980003A68D8F800E062B6C1F5EA33BF33A6FB47
:1059900003031EF0806FC4EB93134FF47A7002D0B0
:1059A000322988BF013200FB0233B3F57A7F04D37A
:1059B000013D05D004F57A74DFE701F0F5FFDCE77F
:1059C000BDE8F8834C1DFF1F18E000E004ED00E087
:1059D00089888888F8B53E4B3E49DFF818C13E4EAD
:1059E0003E4ADFF814E13E4D3E4C3F4F4FF0006021
:1059F00018604FF0805018604FF0005018604FF062
:105A0000804018604FF00040186000200860282394
:105A10004EF6FF71CCF80010CEF8003033600EF572
:105A2000012E13602B60236005F500253B6004F513
:105A30000024B36207F50027936206F5012602F5FC
:105A400001220EF1100E05F6E87504F6E87407F56C
:105A50007F67103220362B602360CEF800303B6029
:105A600013603360214EBB61936109223260A7F558
:105A7000002706F58056203F083638603160BB604D
:105A8000F36047F8042C06F5FD2607F5FE2706F21D
:105A9000FC76043730603960B360FB6046F8042C54
:105AA0000836C7F8FC0F06F6FC76114831602B600B
:105AB0002360026001F0DAFF3220FFF73DFF01F0C2
:105AC00061FA4FF4AF70BDE8F840FFF735BF00BF93
:105AD00004E100E004800340148003401C80034084
