:100000000000022099010000F9550000B1550000E0
:10001000B1550000B1550000B1550000B1550000C8
:10002000B1550000B1550000B1550000F955000070
:10003000F9550000B155000031730000357400001F
:10004000F9550000F9550000F9550000F955000078
:10005000F9550000F9550000F9550000F955000068
:10006000F9550000F9550000F9550000F955000058
:10007000F9550000F9550000F9550000F955000048
:10008000F9550000F9550000F9550000F955000038
:10009000F9550000F9550000F9550000F955000028
:1000A0005954000065540000F9550000F95500004E
:1000B000F9550000F9550000F9550000155C0000E5
:1000C000F955000071630000F9550000797B0000CC
:1000D000F9550000717C0000F9550000F955000049
:1000E000F9550000F9550000F9550000F9550000D8
:1000F000F9550000F9550000F9550000F9550000C8
:100100006D7600008176000095760000A9760000EB
:10011000F9550000ED650000F9550000F9550000A3
:10012000F9550000F9550000F9550000F955000097
:10013000F9550000F9550000F9550000F955000087
:10014000F9550000F9550000697D0000F9550000DF
:10015000617E0000F9550000F9550000F9550000D6
:10016000F9550000F955000071540000F9550000E0
:10017000F9550000F9550000F9550000F955000047
:10018000F9550000F9550000F9550000F955000037
:10019000F9550000F9550000584B4CF2205210B5AB
:1001A0001A804DF628121A8000BF00BF05F028FA09
:1001B000534B4FF030621A60524A9A60524ADA60EA
:1001C000524B4FF470021A60514A136813F4807353
:1001D00004D150490B604FF4A85313604E4B1A786A
:1001E000110703D51A7842F008021A704B4B4C499C
:1001F0002A221A704B4A4C4B8B4204D252F8040FFD
:1002000043F8040BF8E7494B494900228B4202D2DC
:1002100043F8042BFAE74749474A002352F82300E2
:1002200041F823000133662BF8D1444B444A802126
:1002300003F8011B9342FBD1424B3E4A1A60424BEA
:100240008A221A70A3F5805324225A70A0221A70B1
:100250009A799207FCD59A79D406FCD43B4A9379D3
:1002600003F00C03082B394BF9D103221A714622F3
:100270005A719A799006FCD5344A9179334B4906E4
:10028000FBD5334A4FF08271116009215160202261
:100290001A709A7902F00C020C2AFAD12D4B2E4AD0
:1002A0001A602E4B2E4A1A6000225A60072243F829
:1002B000042C2C4AC3F80C2D62B605F02BFB154B11
:1002C0001B68DA0705D5284805F0B8FA274B284AF5
:1002D0001A60284B1B785B0609D5244C244B2268F6
:1002E0009A4204D1204805F0A9FA0023236007F0C0
:1002F0007DFE05F08BF907F0E1F9FEE70E200540E1
:1003000030800440823F04000100002B88ED00E0B3
:1003100010D0034014D0034002D0074000E0074053
:100320006C19FF1FB09B0000F806FF1F6C19FF1F20
:100330005821FF1F0002FF1F0000000000E400E042
:1003400056E400E008ED00E00050064000400640A2
:100350004480044004800440C010050014E000E024
:10036000BFD4010000002020E6F067031CE003403A
:10037000A5C3945A00F00740FFFFFFFFFFFFFFFFF8
:10038000FFFFFFFFFFFFFFFFFFFFFFFFFFFFFFFF7D
:10039000FFFFFFFFFFFFFFFFFFFFFFFFFFFFFFFF6D
:1003A000FFFFFFFFFFFFFFFFFFFFFFFFFFFFFFFF5D
:1003B000FFFFFFFFFFFFFFFFFFFFFFFFFFFFFFFF4D
:1003C000FFFFFFFFFFFFFFFFFFFFFFFFFFFFFFFF3D
:1003D000FFFFFFFFFFFFFFFFFFFFFFFFFFFFFFFF2D
:1003E000FFFFFFFFFFFFFFFFFFFFFFFFFFFFFFFF1D
:1003F000FFFFFFFFFFFFFFFFFFFFFFFFFFFFFFFF0D
:10040000FFFFFFFFFFFFFFFFFFFFFFFFDEF9FFFF23
:1004100010B5054C237833B9044B13B10448AFF33E
:1004200000800123237010BD6C19FF1F0000000025
:10043000B49B0000084B10B51BB108490848AFF346
:1004400000800848036803B910BD074B002BFBD0A0
:10045000BDE81040184700BF000000007019FF1FE2
:10046000B49B00006C19FF1F00000000214B10B46A
:10047000D3F884201368506819780478507A137A76
:10048000044201EA03011BD0937A03F0030309B18C
:1004900043F0040343F008039910013B91720D2BC4
:1004A0000BD8DFE803F021071B070A152121150AE5
:1004B000071B0721D368013BD3605DF8044B7047ED
:1004C000937A03F003030029E6D043F00403E3E743
:1004D000D3685DF8044B023BD3607047D3685DF886
:1004E000044B0233D3607047D3685DF8044B01338B
:1004F000D3607047981BFF1F10B5044607F094F8AF
:10050000204610BD38B5054CA4F170052046103CBE
:1005100007F0ACF9AC42F9D138BD00BF2C1AFF1F6F
:1005200038B5054CA4F1C005103C204607F09EF9F3
:10053000AC42F9D138BD00BF241BFF1F70B5154B6D
:10054000154C1B6882B00193019D2368EB1AC82BE0
:100550000FD9124E337873B9114B1B68002B03DB94
:10056000104A591E91420AD93378256083F001035D
:10057000337002B070BD0C4807F056F8F4E7C3EBD7
:1005800003129200013A232AEED90849064807F0DF
:1005900001F8E9E7E81CFF1F241BFF1F941BFF1F46
:1005A0004C1AFF1F47444404881BFF1F8933000077
:1005B000214B10B4D3F8E8201368506819780478F8
:1005C000507A137A044201EA03011BD0937A03F0B4
:1005D000030309B143F0040343F008039910013BFE
:1005E00091720D2B0BD8DFE803F021071B070A15CA
:1005F0002121150A071B0721D368013BD3605DF851
:10060000044B7047937A03F003030029E6D043F0CC
:100610000403E3E7D3685DF8044B023BD360704703
:10062000D3685DF8044B0233D3607047D3685DF83C
:10063000044B0133D3607047981BFF1F214B10B44C
:10064000D3F8EC201368506819780478507A137A3C
:10065000044201EA03011BD0937A03F0030309B1BA
:1006600043F0040343F008039910013B91720D2BF2
:100670000BD8DFE803F021071B070A152121150A13
:10068000071B0721D368013BD3605DF8044B70471B
:10069000937A03F003030029E6D043F00403E3E771
:1006A000D3685DF8044B023BD3607047D3685DF8B4
:1006B000044B0233D3607047D3685DF8044B0133B9
:1006C000D3607047981BFF1F214B10B41A68136842
:1006D000506819780478507A137A044201EA0301C9
:1006E0001BD0937A03F0030309B143F0040343F0F2
:1006F00008039910013B91720D2B0BD8DFE803F032
:1007000021071B070A152121150A071B0721D3689A
:10071000013BD3605DF8044B7047937A03F0030309
:100720000029E6D043F00403E3E7D3685DF8044B07
:10073000023BD3607047D3685DF8044B0233D3604B
:100740007047D3685DF8044B0133D360704700BF36
:10075000981BFF1F214B10B45A6813685068197812
:100760000478507A137A044201EA03011BD0937A89
:1007700003F0030309B143F0040343F008039910A5
:10078000013B91720D2B0BD8DFE803F021071B070B
:100790000A152121150A071B0721D368013BD360E5
:1007A0005DF8044B7047937A03F003030029E6D009
:1007B00043F00403E3E7D3685DF8044B023BD360E6
:1007C0007047D3685DF8044B0233D3607047D36839
:1007D0005DF8044B0133D360704700BF981BFF1FC7
:1007E000214B10B4D3F8C8201368506819780478E6
:1007F000507A137A044201EA03011BD0937A03F082
:10080000030309B143F0040343F008039910013BCB
:1008100091720D2B0BD8DFE803F021071B070A1597
:100820002121150A071B0721D368013BD3605DF81E
:10083000044B7047937A03F003030029E6D043F09A
:100840000403E3E7D3685DF8044B023BD3607047D1
:10085000D3685DF8044B0233D3607047D3685DF80A
:10086000044B0133D3607047981BFF1F214B10B41A
:10087000D3F8CC201368506819780478507A137A2A
:10088000044201EA03011BD0937A03F0030309B188
:1008900043F0040343F008039910013B91720D2BC0
:1008A0000BD8DFE803F021071B070A152121150AE1
:1008B000071B0721D368013BD3605DF8044B7047E9
:1008C000937A03F003030029E6D043F00403E3E73F
:1008D000D3685DF8044B023BD3607047D3685DF882
:1008E000044B0233D3607047D3685DF8044B013387
:1008F000D3607047981BFF1F214B10B4D3F8D02052
:100900001368506819780478507A137A044201EA1F
:1009100003011BD0937A03F0030309B143F00403EE
:1009200043F008039910013B91720D2B0BD8DFE8BF
:1009300003F021071B070A152121150A071B0721B0
:10094000D368013BD3605DF8044B7047937A03F0A2
:1009500003030029E6D043F00403E3E7D3685DF81E
:10096000044B023BD3607047D3685DF8044B0233FD
:10097000D3607047D3685DF8044B0133D360704790
:10098000981BFF1F214B10B4D3F8D4201368506874
:1009900019780478507A137A044201EA03011BD0D3
:1009A000937A03F0030309B143F0040343F008030F
:1009B0009910013B91720D2B0BD8DFE803F0210752
:1009C0001B070A152121150A071B0721D368013BC4
:1009D000D3605DF8044B7047937A03F0030300295A
:1009E000E6D043F00403E3E7D3685DF8044B023B31
:1009F000D3607047D3685DF8044B0233D36070470F
:100A0000D3685DF8044B0133D3607047981BFF1F18
:100A1000214B10B4D3F8D8201368506819780478A3
:100A2000507A137A044201EA03011BD0937A03F04F
:100A3000030309B143F0040343F008039910013B99
:100A400091720D2B0BD8DFE803F021071B070A1565
:100A50002121150A071B0721D368013BD3605DF8EC
:100A6000044B7047937A03F003030029E6D043F068
:100A70000403E3E7D3685DF8044B023BD36070479F
:100A8000D3685DF8044B0233D3607047D3685DF8D8
:100A9000044B0133D3607047981BFF1F214B10B4E8
:100AA000D3F8DC201368506819780478507A137AE8
:100AB000044201EA03011BD0937A03F0030309B156
:100AC00043F0040343F008039910013B91720D2B8E
:100AD0000BD8DFE803F021071B070A152121150AAF
:100AE000071B0721D368013BD3605DF8044B7047B7
:100AF000937A03F003030029E6D043F00403E3E70D
:100B0000D3685DF8044B023BD3607047D3685DF84F
:100B1000044B0233D3607047D3685DF8044B013354
:100B2000D3607047981BFF1F214B10B4D3F8E0200F
:100B30001368506819780478507A137A044201EAED
:100B400003011BD0937A03F0030309B143F00403BC
:100B500043F008039910013B91720D2B0BD8DFE88D
:100B600003F021071B070A152121150A071B07217E
:100B7000D368013BD3605DF8044B7047937A03F070
:100B800003030029E6D043F00403E3E7D3685DF8EC
:100B9000044B023BD3607047D3685DF8044B0233CB
:100BA000D3607047D3685DF8044B0133D36070475E
:100BB000981BFF1F214B10B4D3F8E4201368506832
:100BC00019780478507A137A044201EA03011BD0A1
:100BD000937A03F0030309B143F0040343F00803DD
:100BE0009910013B91720D2B0BD8DFE803F0210720
:100BF0001B070A152121150A071B0721D368013B92
:100C0000D3605DF8044B7047937A03F00303002927
:100C1000E6D043F00403E3E7D3685DF8044B023BFE
:100C2000D3607047D3685DF8044B0233D3607047DC
:100C3000D3685DF8044B0133D3607047981BFF1FE6
:100C4000214B10B4D3F888201368506819780478C1
:100C5000507A137A044201EA03011BD0937A03F01D
:100C6000030309B143F0040343F008039910013B67
:100C700091720D2B0BD8DFE803F021071B070A1533
:100C80002121150A071B0721D368013BD3605DF8BA
:100C9000044B7047937A03F003030029E6D043F036
:100CA0000403E3E7D3685DF8044B023BD36070476D
:100CB000D3685DF8044B0233D3607047D3685DF8A6
:100CC000044B0133D3607047981BFF1F214B10B4B6
:100CD000D3F88C201368506819780478507A137A06
:100CE000044201EA03011BD0937A03F0030309B124
:100CF00043F0040343F008039910013B91720D2B5C
:100D00000BD8DFE803F021071B070A152121150A7C
:100D1000071B0721D368013BD3605DF8044B704784
:100D2000937A03F003030029E6D043F00403E3E7DA
:100D3000D3685DF8044B023BD3607047D3685DF81D
:100D4000044B0233D3607047D3685DF8044B013322
:100D5000D3607047981BFF1F214B10B4D3F890202D
:100D60001368506819780478507A137A044201EABB
:100D700003011BD0937A03F0030309B143F004038A
:100D800043F008039910013B91720D2B0BD8DFE85B
:100D900003F021071B070A152121150A071B07214C
:100DA000D368013BD3605DF8044B7047937A03F03E
:100DB00003030029E6D043F00403E3E7D3685DF8BA
:100DC000044B023BD3607047D3685DF8044B023399
:100DD000D3607047D3685DF8044B0133D36070472C
:100DE000981BFF1F214B10B4D3F894201368506850
:100DF00019780478507A137A044201EA03011BD06F
:100E0000937A03F0030309B143F0040343F00803AA
:100E10009910013B91720D2B0BD8DFE803F02107ED
:100E20001B070A152121150A071B0721D368013B5F
:100E3000D3605DF8044B7047937A03F003030029F5
:100E4000E6D043F00403E3E7D3685DF8044B023BCC
:100E5000D3607047D3685DF8044B0233D3607047AA
:100E6000D3685DF8044B0133D3607047981BFF1FB4
:100E7000214B10B4D3F8982013685068197804787F
:100E8000507A137A044201EA03011BD0937A03F0EB
:100E9000030309B143F0040343F008039910013B35
:100EA00091720D2B0BD8DFE803F021071B070A1501
:100EB0002121150A071B0721D368013BD3605DF888
:100EC000044B7047937A03F003030029E6D043F004
:100ED0000403E3E7D3685DF8044B023BD36070473B
:100EE000D3685DF8044B0233D3607047D3685DF874
:100EF000044B0133D3607047981BFF1F214B10B484
:100F0000D3F89C201368506819780478507A137AC3
:100F1000044201EA03011BD0937A03F0030309B1F1
:100F200043F0040343F008039910013B91720D2B29
:100F30000BD8DFE803F021071B070A152121150A4A
:100F4000071B0721D368013BD3605DF8044B704752
:100F5000937A03F003030029E6D043F00403E3E7A8
:100F6000D3685DF8044B023BD3607047D3685DF8EB
:100F7000044B0233D3607047D3685DF8044B0133F0
:100F8000D3607047981BFF1F214B10B4D3F8A020EB
:100F90001368506819780478507A137A044201EA89
:100FA00003011BD0937A03F0030309B143F0040358
:100FB00043F008039910013B91720D2B0BD8DFE829
:100FC00003F021071B070A152121150A071B07211A
:100FD000D368013BD3605DF8044B7047937A03F00C
:100FE00003030029E6D043F00403E3E7D3685DF888
:100FF000044B023BD3607047D3685DF8044B023367
:10100000D3607047D3685DF8044B0133D3607047F9
:10101000981BFF1F214B10B4D3F8A420136850680D
:1010200019780478507A137A044201EA03011BD03C
:10103000937A03F0030309B143F0040343F0080378
:101040009910013B91720D2B0BD8DFE803F02107BB
:101050001B070A152121150A071B0721D368013B2D
:10106000D3605DF8044B7047937A03F003030029C3
:10107000E6D043F00403E3E7D3685DF8044B023B9A
:10108000D3607047D3685DF8044B0233D360704778
:10109000D3685DF8044B0133D3607047981BFF1F82
:1010A000214B10B4D3F8A82013685068197804783D
:1010B000507A137A044201EA03011BD0937A03F0B9
:1010C000030309B143F0040343F008039910013B03
:1010D00091720D2B0BD8DFE803F021071B070A15CF
:1010E0002121150A071B0721D368013BD3605DF856
:1010F000044B7047937A03F003030029E6D043F0D2
:101100000403E3E7D3685DF8044B023BD360704708
:10111000D3685DF8044B0233D3607047D3685DF841
:10112000044B0133D3607047981BFF1F214B10B451
:10113000D3F8AC201368506819780478507A137A81
:10114000044201EA03011BD0937A03F0030309B1BF
:1011500043F0040343F008039910013B91720D2BF7
:101160000BD8DFE803F021071B070A152121150A18
:10117000071B0721D368013BD3605DF8044B704720
:10118000937A03F003030029E6D043F00403E3E776
:10119000D3685DF8044B023BD3607047D3685DF8B9
:1011A000044B0233D3607047D3685DF8044B0133BE
:1011B000D3607047981BFF1F214B10B4D3F8B020A9
:1011C0001368506819780478507A137A044201EA57
:1011D00003011BD0937A03F0030309B143F0040326
:1011E00043F008039910013B91720D2B0BD8DFE8F7
:1011F00003F021071B070A152121150A071B0721E8
:10120000D368013BD3605DF8044B7047937A03F0D9
:1012100003030029E6D043F00403E3E7D3685DF855
:10122000044B023BD3607047D3685DF8044B023334
:10123000D3607047D3685DF8044B0133D3607047C7
:10124000981BFF1F214B10B4D3F8B42013685068CB
:1012500019780478507A137A044201EA03011BD00A
:10126000937A03F0030309B143F0040343F0080346
:101270009910013B91720D2B0BD8DFE803F0210789
:101280001B070A152121150A071B0721D368013BFB
:10129000D3605DF8044B7047937A03F00303002991
:1012A000E6D043F00403E3E7D3685DF8044B023B68
:1012B000D3607047D3685DF8044B0233D360704746
:1012C000D3685DF8044B0133D3607047981BFF1F50
:1012D000214B10B4D3F8B8201368506819780478FB
:1012E000507A137A044201EA03011BD0937A03F087
:1012F000030309B143F0040343F008039910013BD1
:1013000091720D2B0BD8DFE803F021071B070A159C
:101310002121150A071B0721D368013BD3605DF823
:10132000044B7047937A03F003030029E6D043F09F
:101330000403E3E7D3685DF8044B023BD3607047D6
:10134000D3685DF8044B0233D3607047D3685DF80F
:10135000044B0133D3607047981BFF1F214B10B41F
:10136000D3F8BC201368506819780478507A137A3F
:10137000044201EA03011BD0937A03F0030309B18D
:1013800043F0040343F008039910013B91720D2BC5
:101390000BD8DFE803F021071B070A152121150AE6
:1013A000071B0721D368013BD3605DF8044B7047EE
:1013B000937A03F003030029E6D043F00403E3E744
:1013C000D3685DF8044B023BD3607047D3685DF887
:1013D000044B0233D3607047D3685DF8044B01338C
:1013E000D3607047981BFF1F214B10B4D3F8C02067
:1013F0001368506819780478507A137A044201EA25
:1014000003011BD0937A03F0030309B143F00403F3
:1014100043F008039910013B91720D2B0BD8DFE8C4
:1014200003F021071B070A152121150A071B0721B5
:10143000D368013BD3605DF8044B7047937A03F0A7
:1014400003030029E6D043F00403E3E7D3685DF823
:10145000044B023BD3607047D3685DF8044B023302
:10146000D3607047D3685DF8044B0133D360704795
:10147000981BFF1F214B10B4D3F8C4201368506889
:1014800019780478507A137A044201EA03011BD0D8
:10149000937A03F0030309B143F0040343F0080314
:1014A0009910013B91720D2B0BD8DFE803F0210757
:1014B0001B070A152121150A071B0721D368013BC9
:1014C000D3605DF8044B7047937A03F0030300295F
:1014D000E6D043F00403E3E7D3685DF8044B023B36
:1014E000D3607047D3685DF8044B0233D360704714
:1014F000D3685DF8044B0133D3607047981BFF1F1E
:10150000214B10B49A681368506819780478507A9F
:10151000137A044201EA03011BD0937A03F0030318
:1015200009B143F0040343F008039910013B9172A1
:101530000D2B0BD8DFE803F021071B070A1521212B
:10154000150A071B0721D368013BD3605DF8044BE4
:101550007047937A03F003030029E6D043F00403B5
:10156000E3E7D3685DF8044B023BD3607047D36870
:101570005DF8044B0233D3607047D3685DF8044BC9
:101580000133D360704700BF981BFF1F214B10B47D
:10159000DA681368506819780478507A137A04422C
:1015A00001EA03011BD0937A03F0030309B143F06E
:1015B000040343F008039910013B91720D2B0BD8E3
:1015C000DFE803F021071B070A152121150A071B75
:1015D0000721D368013BD3605DF8044B7047937AD1
:1015E00003F003030029E6D043F00403E3E7D368E4
:1015F0005DF8044B023BD3607047D3685DF8044B41
:101600000233D3607047D3685DF8044B0133D36075
:10161000704700BF981BFF1F214B10B41A69136855
:10162000506819780478507A137A044201EA030169
:101630001BD0937A03F0030309B143F0040343F092
:1016400008039910013B91720D2B0BD8DFE803F0D2
:1016500021071B070A152121150A071B0721D3683B
:10166000013BD3605DF8044B7047937A03F00303AA
:101670000029E6D043F00403E3E7D3685DF8044BA8
:10168000023BD3607047D3685DF8044B0233D360EC
:101690007047D3685DF8044B0133D360704700BFD7
:1016A000981BFF1F214B10B45A69136850681978B2
:1016B0000478507A137A044201EA03011BD0937A2A
:1016C00003F0030309B143F0040343F00803991046
:1016D000013B91720D2B0BD8DFE803F021071B07AC
:1016E0000A152121150A071B0721D368013BD36086
:1016F0005DF8044B7047937A03F003030029E6D0AA
:1017000043F00403E3E7D3685DF8044B023BD36086
:101710007047D3685DF8044B0233D3607047D368D9
:101720005DF8044B0133D360704700BF981BFF1F67
:10173000214B10B49A691368506819780478507A6C
:10174000137A044201EA03011BD0937A03F00303E6
:1017500009B143F0040343F008039910013B91726F
:101760000D2B0BD8DFE803F021071B070A152121F9
:10177000150A071B0721D368013BD3605DF8044BB2
:101780007047937A03F003030029E6D043F0040383
:10179000E3E7D3685DF8044B023BD3607047D3683E
:1017A0005DF8044B0233D3607047D3685DF8044B97
:1017B0000133D360704700BF981BFF1F214B10B44B
:1017C000DA691368506819780478507A137A0442F9
:1017D00001EA03011BD0937A03F0030309B143F03C
:1017E000040343F008039910013B91720D2B0BD8B1
:1017F000DFE803F021071B070A152121150A071B43
:101800000721D368013BD3605DF8044B7047937A9E
:1018100003F003030029E6D043F00403E3E7D368B1
:101820005DF8044B023BD3607047D3685DF8044B0E
:101830000233D3607047D3685DF8044B0133D36043
:10184000704700BF981BFF1F214B10B41A6A136822
:10185000506819780478507A137A044201EA030137
:101860001BD0937A03F0030309B143F0040343F060
:1018700008039910013B91720D2B0BD8DFE803F0A0
:1018800021071B070A152121150A071B0721D36809
:10189000013BD3605DF8044B7047937A03F0030378
:1018A0000029E6D043F00403E3E7D3685DF8044B76
:1018B000023BD3607047D3685DF8044B0233D360BA
:1018C0007047D3685DF8044B0133D360704700BFA5
:1018D000981BFF1F214B10B45A6A1368506819787F
:1018E0000478507A137A044201EA03011BD0937AF8
:1018F00003F0030309B143F0040343F00803991014
:10190000013B91720D2B0BD8DFE803F021071B0779
:101910000A152121150A071B0721D368013BD36053
:101920005DF8044B7047937A03F003030029E6D077
:1019300043F00403E3E7D3685DF8044B023BD36054
:101940007047D3685DF8044B0233D3607047D368A7
:101950005DF8044B0133D360704700BF981BFF1F35
:10196000214B10B49A6A1368506819780478507A39
:10197000137A044201EA03011BD0937A03F00303B4
:1019800009B143F0040343F008039910013B91723D
:101990000D2B0BD8DFE803F021071B070A152121C7
:1019A000150A071B0721D368013BD3605DF8044B80
:1019B0007047937A03F003030029E6D043F0040351
:1019C000E3E7D3685DF8044B023BD3607047D3680C
:1019D0005DF8044B0233D3607047D3685DF8044B65
:1019E0000133D360704700BF981BFF1F214B10B419
:1019F000DA6A1368506819780478507A137A0442C6
:101A000001EA03011BD0937A03F0030309B143F009
:101A1000040343F008039910013B91720D2B0BD87E
:101A2000DFE803F021071B070A152121150A071B10
:101A30000721D368013BD3605DF8044B7047937A6C
:101A400003F003030029E6D043F00403E3E7D3687F
:101A50005DF8044B023BD3607047D3685DF8044BDC
:101A60000233D3607047D3685DF8044B0133D36011
:101A7000704700BF981BFF1F214B10B41A6B1368EF
:101A8000506819780478507A137A044201EA030105
:101A90001BD0937A03F0030309B143F0040343F02E
:101AA00008039910013B91720D2B0BD8DFE803F06E
:101AB00021071B070A152121150A071B0721D368D7
:101AC000013BD3605DF8044B7047937A03F0030346
:101AD0000029E6D043F00403E3E7D3685DF8044B44
:101AE000023BD3607047D3685DF8044B0233D36088
:101AF0007047D3685DF8044B0133D360704700BF73
:101B0000981BFF1F214B10B45A6B1368506819784B
:101B10000478507A137A044201EA03011BD0937AC5
:101B200003F0030309B143F0040343F008039910E1
:101B3000013B91720D2B0BD8DFE803F021071B0747
:101B40000A152121150A071B0721D368013BD36021
:101B50005DF8044B7047937A03F003030029E6D045
:101B600043F00403E3E7D3685DF8044B023BD36022
:101B70007047D3685DF8044B0233D3607047D36875
:101B80005DF8044B0133D360704700BF981BFF1F03
:101B9000214B10B49A6B1368506819780478507A06
:101BA000137A044201EA03011BD0937A03F0030382
:101BB00009B143F0040343F008039910013B91720B
:101BC0000D2B0BD8DFE803F021071B070A15212195
:101BD000150A071B0721D368013BD3605DF8044B4E
:101BE0007047937A03F003030029E6D043F004031F
:101BF000E3E7D3685DF8044B023BD3607047D368DA
:101C00005DF8044B0233D3607047D3685DF8044B32
:101C10000133D360704700BF981BFF1F214B10B4E6
:101C2000DA6B1368506819780478507A137A044292
:101C300001EA03011BD0937A03F0030309B143F0D7
:101C4000040343F008039910013B91720D2B0BD84C
:101C5000DFE803F021071B070A152121150A071BDE
:101C60000721D368013BD3605DF8044B7047937A3A
:101C700003F003030029E6D043F00403E3E7D3684D
:101C80005DF8044B023BD3607047D3685DF8044BAA
:101C90000233D3607047D3685DF8044B0133D360DF
:101CA000704700BF981BFF1F214B10B41A6C1368BC
:101CB000506819780478507A137A044201EA0301D3
:101CC0001BD0937A03F0030309B143F0040343F0FC
:101CD00008039910013B91720D2B0BD8DFE803F03C
:101CE00021071B070A152121150A071B0721D368A5
:101CF000013BD3605DF8044B7047937A03F0030314
:101D00000029E6D043F00403E3E7D3685DF8044B11
:101D1000023BD3607047D3685DF8044B0233D36055
:101D20007047D3685DF8044B0133D360704700BF40
:101D3000981BFF1F214B10B45A6C13685068197818
:101D40000478507A137A044201EA03011BD0937A93
:101D500003F0030309B143F0040343F008039910AF
:101D6000013B91720D2B0BD8DFE803F021071B0715
:101D70000A152121150A071B0721D368013BD360EF
:101D80005DF8044B7047937A03F003030029E6D013
:101D900043F00403E3E7D3685DF8044B023BD360F0
:101DA0007047D3685DF8044B0233D3607047D36843
:101DB0005DF8044B0133D360704700BF981BFF1FD1
:101DC000214B10B49A6C1368506819780478507AD3
:101DD000137A044201EA03011BD0937A03F0030350
:101DE00009B143F0040343F008039910013B9172D9
:101DF0000D2B0BD8DFE803F021071B070A15212163
:101E0000150A071B0721D368013BD3605DF8044B1B
:101E10007047937A03F003030029E6D043F00403EC
:101E2000E3E7D3685DF8044B023BD3607047D368A7
:101E30005DF8044B0233D3607047D3685DF8044B00
:101E40000133D360704700BF981BFF1F214B10B4B4
:101E5000DA6C1368506819780478507A137A04425F
:101E600001EA03011BD0937A03F0030309B143F0A5
:101E7000040343F008039910013B91720D2B0BD81A
:101E8000DFE803F021071B070A152121150A071BAC
:101E90000721D368013BD3605DF8044B7047937A08
:101EA00003F003030029E6D043F00403E3E7D3681B
:101EB0005DF8044B023BD3607047D3685DF8044B78
:101EC0000233D3607047D3685DF8044B0133D360AD
:101ED000704700BF981BFF1F214B10B41A6D136889
:101EE000506819780478507A137A044201EA0301A1
:101EF0001BD0937A03F0030309B143F0040343F0CA
:101F000008039910013B91720D2B0BD8DFE803F009
:101F100021071B070A152121150A071B0721D36872
:101F2000013BD3605DF8044B7047937A03F00303E1
:101F30000029E6D043F00403E3E7D3685DF8044BDF
:101F4000023BD3607047D3685DF8044B0233D36023
:101F50007047D3685DF8044B0133D360704700BF0E
:101F6000981BFF1F214B10B45A6D136850681978E5
:101F70000478507A137A044201EA03011BD0937A61
:101F800003F0030309B143F0040343F0080399107D
:101F9000013B91720D2B0BD8DFE803F021071B07E3
:101FA0000A152121150A071B0721D368013BD360BD
:101FB0005DF8044B7047937A03F003030029E6D0E1
:101FC00043F00403E3E7D3685DF8044B023BD360BE
:101FD0007047D3685DF8044B0233D3607047D36811
:101FE0005DF8044B0133D360704700BF981BFF1F9F
:101FF000214B10B49A6D1368506819780478507AA0
:10200000137A044201EA03011BD0937A03F003031D
:1020100009B143F0040343F008039910013B9172A6
:102020000D2B0BD8DFE803F021071B070A15212130
:10203000150A071B0721D368013BD3605DF8044BE9
:102040007047937A03F003030029E6D043F00403BA
:10205000E3E7D3685DF8044B023BD3607047D36875
:102060005DF8044B0233D3607047D3685DF8044BCE
:102070000133D360704700BF981BFF1F214B10B482
:10208000DA6D1368506819780478507A137A04422C
:1020900001EA03011BD0937A03F0030309B143F073
:1020A000040343F008039910013B91720D2B0BD8E8
:1020B000DFE803F021071B070A152121150A071B7A
:1020C0000721D368013BD3605DF8044B7047937AD6
:1020D00003F003030029E6D043F00403E3E7D368E9
:1020E0005DF8044B023BD3607047D3685DF8044B46
:1020F0000233D3607047D3685DF8044B0133D3607B
:10210000704700BF981BFF1F214B10B41A6E136855
:10211000506819780478507A137A044201EA03016E
:102120001BD0937A03F0030309B143F0040343F097
:1021300008039910013B91720D2B0BD8DFE803F0D7
:1021400021071B070A152121150A071B0721D36840
:10215000013BD3605DF8044B7047937A03F00303AF
:102160000029E6D043F00403E3E7D3685DF8044BAD
:10217000023BD3607047D3685DF8044B0233D360F1
:102180007047D3685DF8044B0133D360704700BFDC
:10219000981BFF1F214B10B45A6E136850681978B2
:1021A0000478507A137A044201EA03011BD0937A2F
:1021B00003F0030309B143F0040343F0080399104B
:1021C000013B91720D2B0BD8DFE803F021071B07B1
:1021D0000A152121150A071B0721D368013BD3608B
:1021E0005DF8044B7047937A03F003030029E6D0AF
:1021F00043F00403E3E7D3685DF8044B023BD3608C
:102200007047D3685DF8044B0233D3607047D368DE
:102210005DF8044B0133D360704700BF981BFF1F6C
:10222000214B10B49A6E1368506819780478507A6C
:10223000137A044201EA03011BD0937A03F00303EB
:1022400009B143F0040343F008039910013B917274
:102250000D2B0BD8DFE803F021071B070A152121FE
:10226000150A071B0721D368013BD3605DF8044BB7
:102270007047937A03F003030029E6D043F0040388
:10228000E3E7D3685DF8044B023BD3607047D36843
:102290005DF8044B0233D3607047D3685DF8044B9C
:1022A0000133D360704700BF981BFF1F214B10B450
:1022B000DA6E1368506819780478507A137A0442F9
:1022C00001EA03011BD0937A03F0030309B143F041
:1022D000040343F008039910013B91720D2B0BD8B6
:1022E000DFE803F021071B070A152121150A071B48
:1022F0000721D368013BD3605DF8044B7047937AA4
:1023000003F003030029E6D043F00403E3E7D368B6
:102310005DF8044B023BD3607047D3685DF8044B13
:102320000233D3607047D3685DF8044B0133D36048
:10233000704700BF981BFF1F214B10B41A6F136822
:10234000506819780478507A137A044201EA03013C
:102350001BD0937A03F0030309B143F0040343F065
:1023600008039910013B91720D2B0BD8DFE803F0A5
:1023700021071B070A152121150A071B0721D3680E
:10238000013BD3605DF8044B7047937A03F003037D
:102390000029E6D043F00403E3E7D3685DF8044B7B
:1023A000023BD3607047D3685DF8044B0233D360BF
:1023B0007047D3685DF8044B0133D360704700BFAA
:1023C000981BFF1F214B10B45A6F1368506819787F
:1023D0000478507A137A044201EA03011BD0937AFD
:1023E00003F0030309B143F0040343F00803991019
:1023F000013B91720D2B0BD8DFE803F021071B077F
:102400000A152121150A071B0721D368013BD36058
:102410005DF8044B7047937A03F003030029E6D07C
:1024200043F00403E3E7D3685DF8044B023BD36059
:102430007047D3685DF8044B0233D3607047D368AC
:102440005DF8044B0133D360704700BF981BFF1F3A
:10245000214B10B49A6F1368506819780478507A39
:10246000137A044201EA03011BD0937A03F00303B9
:1024700009B143F0040343F008039910013B917242
:102480000D2B0BD8DFE803F021071B070A152121CC
:10249000150A071B0721D368013BD3605DF8044B85
:1024A0007047937A03F003030029E6D043F0040356
:1024B000E3E7D3685DF8044B023BD3607047D36811
:1024C0005DF8044B0233D3607047D3685DF8044B6A
:1024D0000133D360704700BF981BFF1F214B10B41E
:1024E000DA6F1368506819780478507A137A0442C6
:1024F00001EA03011BD0937A03F0030309B143F00F
:10250000040343F008039910013B91720D2B0BD883
:10251000DFE803F021071B070A152121150A071B15
:102520000721D368013BD3605DF8044B7047937A71
:1025300003F003030029E6D043F00403E3E7D36884
:102540005DF8044B023BD3607047D3685DF8044BE1
:102550000233D3607047D3685DF8044B0133D36016
:10256000704700BF981BFF1F214B10B4D3F8802089
:102570001368506819780478507A137A044201EA93
:1025800003011BD0937A03F0030309B143F0040362
:1025900043F008039910013B91720D2B0BD8DFE833
:1025A00003F021071B070A152121150A071B072124
:1025B000D368013BD3605DF8044B7047937A03F016
:1025C00003030029E6D043F00403E3E7D3685DF892
:1025D000044B023BD3607047D3685DF8044B023371
:1025E000D3607047D3685DF8044B0133D360704704
:1025F000981BFF1FF8B5044615460E4608460221F3
:1026000003F034F92846022103F030F9984A994B37
:1026100052F83610012001F500772760207252F839
:102620003520607202F5007700206760E060013BB2
:10263000FDD191F8003292F8002203F00103D20795
:1026400044BF43F00203DBB2A3723B2E00F20386C9
:10265000DFE816F0F405EA05E005D605CC05C2056D
:10266000B805AE05A4059A05900586057C0572059A
:1026700068055E0554054A05400536052C0522050A
:1026800018050E050405FA04F004E604DC04D2047F
:10269000C804BE04B304A8049D04920487047C0407
:1026A00028041E0414040A040004F603EC03E203E5
:1026B000D803CE03C403BA03B003A6039C0392035A
:1026C00088037E0374036A0360033C006A4B6B4912
:1026D000C3F8EC4004223B2003F034F801232374B8
:1026E0003B2D00F2B585DFE815F00B030103F7027F
:1026F000ED02E302D902CF02C502BB02B102A7027A
:102700009D02930289027F02310227021D021302F9
:102710000902FF01F501EB01E101D701CD01C30180
:10272000B901AF01A5019B01910186017B017001F7
:1027300065015A014F01440139012E01230118019D
:102740000D010201F700EC00E100B800AD00A200AD
:1027500097008C00810076006B00600055004A00F5
:102760003C00454B4549C3F8EC4004223B2002F0B5
:10277000E9FF237C0122134423742046F8BD3E4B1D
:102780003F49C3F8E84004223A2002F0DBFF237CF3
:102790000122F0E7384B3B49C3F8E44004223920DA
:1027A00002F0D0FF237C0122E5E7334B3649C3F822
:1027B000E0400422382002F0C5FF237C0122DAE742
:1027C0002D4B3249C3F8DC400422372002F0BAFF17
:1027D000237C0122CFE7284B2D49C3F8D84004229F
:1027E000362002F0AFFF237C0122C4E7224B2949A7
:1027F000C3F8D4400422352002F0A4FF237C012238
:10280000B9E71D4B2449C3F8D0400422342002F01C
:1028100099FF237C0122AEE7174B2049C3F8CC4037
:102820000422332002F08EFF237C0122A3E7124B07
:102830001B49C3F8C8400422322002F083FF237CE6
:10284000012298E70C4B1749C3F8C44004223120F9
:1028500002F078FF237C01228DE7074B1249C3F871
:10286000C0400422302002F06DFF237C012282E769
:10287000AC98000080380100981BFF1F3D06000047
:10288000B1050000B50B0000290B00009D0A0000F7
:10289000110A000085090000F90800006D08000019
:1028A000E107000075140000E9130000AC4BAD49CE
:1028B000C3F8BC4004222F2002F044FF237C0122F5
:1028C00059E7A74BA849C3F8B84004222E2002F0CC
:1028D00039FF237C01224EE7A14BA449C3F8B44041
:1028E00004222D2002F02EFF237C012243E79C4B83
:1028F0009F49C3F8B04004222C2002F023FF237C20
:10290000012238E7964B9B49C3F8AC4004222B20A8
:1029100002F018FF237C01222DE7914B9649C3F862
:10292000A84004222A2002F00DFF237C012222E786
:102930008B4B9249C3F8A4400422292002F002FFE5
:10294000237C012217E7864B8D49C3F8A04004225F
:10295000282002F0F7FE237C01220CE7804B8949F6
:10296000C3F89C400422272002F0ECFE237C0122C5
:1029700001E77B4B8449C3F898400422262002F0EB
:10298000E1FE237C0122F6E6754B8049C3F89440B2
:102990000422252002F0D6FE237C0122EBE6704BB8
:1029A0007B49C3F890400422242002F0CBFE237C14
:1029B0000122E0E66A4B7749C3F88C4004222320C9
:1029C00002F0C0FE237C0122D5E6654B7249C3F8B4
:1029D00088400422222002F0B5FE237C0122CAE6B0
:1029E0005F4B6E49C3F884400422212002F0AAFE06
:1029F000237C0122BFE65A4B6949C3F88040042278
:102A0000202002F09FFE237C0122B4E6544B65494E
:102A1000DC6704221F2002F095FE237C0122AAE637
:102A20004F4B61499C6704221E2002F08BFE237CE1
:102A30000122A0E64A4B5D495C6704221D2002F09A
:102A400081FE237C012296E6454B59491C670422EE
:102A50001C2002F077FE237C01228CE6404B554976
:102A6000DC6604221B2002F06DFE237C012282E63C
:102A70003B4B51499C6604221A2002F063FE237CE2
:102A8000012278E6364B4D495C660422192002F09B
:102A900059FE237C01226EE6314B49491C66042213
:102AA000182002F04FFE237C012264E62C4B45499E
:102AB000DC650422172002F045FE237C01225AE641
:102AC000274B41499C650422162002F03BFE237CE3
:102AD000012250E6224B3D495C650422152002F09C
:102AE00031FE237C012246E61D4B39491C65042238
:102AF000142002F027FE237C01223CE6184B3549C6
:102B0000DC640422132002F01DFE237C012232E645
:102B1000134B31499C640422122002F013FE237CE3
:102B2000012228E60E4B2D495C640422112002F09C
:102B300009FE237C01221EE6094B29491C6404225C
:102B4000102002F0FFFD237C012214E6044B2549EE
:102B5000DC6304220F2002F0F5FD237C01220AE64B
:102B6000981BFF1F5D130000D112000045120000EA
:102B7000B91100002D110000A11000001510000077
:102B8000890F0000FD0E0000710E0000E50D000031
:102B9000590D0000CD0C0000410C00006D04000038
:102BA00069250000DD24000051240000C523000039
:102BB00039230000AD2200002122000095210000F1
:102BC000092100007D200000F11F0000651F0000AA
:102BD000D91E00004D1E0000C11D0000351D000063
:102BE000A91C00001D1C0000B34BB4499C630422C7
:102BF0000E2002F0A7FD237C0122BCE5AE4BB049BC
:102C00005C6304220D2002F09DFD237C0122B2E5CD
:102C1000A94BAC491C6304220C2002F093FD237CD9
:102C20000122A8E5A44BA849DC6204220B2002F093
:102C300089FD237C01229EE59F4BA4499C620422CE
:102C40000A2002F07FFD237C012294E59A4BA049E3
:102C50005C620422092002F075FD237C01228AE5D2
:102C6000954B9C491C620422082002F06BFD237CDA
:102C7000012280E5904B9849DC610422072002F094
:102C800061FD237C012276E58B4B94499C610422F3
:102C9000062002F057FD237C01226CE5864B90490B
:102CA0005C610422052002F04DFD237C012262E5D7
:102CB000814B8C491C610422104602F043FD237CA9
:102CC000012258E57C4B8849DC600422032002F095
:102CD00039FD237C01224EE5774B84499C60042218
:102CE000022002F02FFD237C012244E5724B804933
:102CF0005C600422012002F025FD237C01223AE5DC
:102D00006D4B7C491C600422002002F01BFD237CDB
:102D1000012230E5684B7849C3F8E84004223A20A4
:102D200002F010FD0123DAE4634B7449C3F8E44078
:102D30000422392002F006FD0123D0E45E4B7049E5
:102D4000C3F8E0400422382002F0FCFC0123C6E472
:102D5000594B6C49C3F8DC400422372002F0F2FCE6
:102D60000123BCE4544B6849C3F8D8400422362000
:102D700002F0E8FC0123B2E44F4B6449C3F8D440AD
:102D80000422352002F0DEFC0123A8E44A4B60490E
:102D9000C3F8D0400422342002F0D4FC01239EE486
:102DA000454B5C49C3F8CC400422332002F0CAFCF6
:102DB000012394E4404B5849C3F8C8400422322010
:102DC00002F0C0FC01238AE43B4B5449C3F8C440E1
:102DD0000422312002F0B6FC012380E4364B504936
:102DE000C3F8C0400422302002F0ACFC012376E49A
:102DF000314B4C49C3F8BC4004222F2002F0A2FC06
:102E000001236CE42C4B4849C3F8B84004222E201F
:102E100002F098FC012362E4274B4449C3F8B44014
:102E200004222D2002F08EFC012358E4224B40495D
:102E3000C3F8B04004222C2002F084FC01234EE4AD
:102E40001D4B3C49C3F8AC4004222B2002F07AFC15
:102E5000012344E4184B3849C3F8A84004222A202F
:102E600002F070FC01233AE4134B3449C3F8A44048
:102E70000422292002F066FC012330E40E4B304985
:102E8000C3F8A0400422282002F05CFC012326E4C1
:102E9000094B2C49C3F89C400422272002F052FC25
:102EA00001231CE4044B2849C3F89840042226203F
:102EB00002F048FC012312E4981BFF1F911B000045
:102EC000051B0000791A0000ED19000061190000CF
:102ED000D518000049180000BD1700003117000088
:102EE000A5160000191600008D1500000115000040
:102EF00055070000C9060000B1050000B50B000031
:102F0000290B00009D0A0000110A0000850900003D
:102F1000F90800006D080000E107000075140000CA
:102F2000E91300005D130000D112000045120000FB
:102F3000B91100002D110000A110000015100000B3
:102F4000890F0000FD0E0000710E0000C34BC44944
:102F5000C3F894400422252002F0F4FB0123FFF77C
:102F6000BEBBBE4BBF49C3F890400422242002F0F0
:102F7000E9FB0123FFF7B3BBB84BBB49C3F88C4057
:102F80000422232002F0DEFB0123FFF7A8BBB34B92
:102F9000B649C3F888400422222002F0D3FB012363
:102FA000FFF79DBBAD4BB249C3F8844004222120FA
:102FB00002F0C8FB0123FFF792BBA84BAD49C3F851
:102FC00080400422202002F0BDFB0123FFF787BBD5
:102FD000A24BA949DC6704221F2002F0B3FB0123A6
:102FE000FFF77DBB9D4BA5499C6704221E2002F084
:102FF000A9FB0123FFF773BB984BA1495C6704222F
:103000001D2002F09FFB0123FFF769BB934B9D49F5
:103010001C6704221C2002F095FB0123FFF75FBB15
:103020008E4B9949DC6604221B2002F08BFB0123A6
:10303000FFF755BB894B95499C6604221A2002F084
:1030400081FB0123FFF74BBB844B91495C66042253
:10305000192002F077FB0123FFF741BB7F4B8D491D
:103060001C660422182002F06DFB0123FFF737BB1A
:103070007A4B8949DC650422172002F063FB0123A7
:10308000FFF72DBB754B85499C650422162002F085
:1030900059FB0123FFF723BB704B81495C65042278
:1030A000152002F04FFB0123FFF719BB6B4B7D4945
:1030B0001C650422142002F045FB0123FFF70FBB1F
:1030C000664B7949DC640422132002F03BFB0123A8
:1030D000FFF705BB614B75499C640422122002F086
:1030E00031FB0123FFF7FBBA5C4B71495C6404229E
:1030F000112002F027FB0123FFF7F1BA574B6D496E
:103100001C640422102002F01DFB0123FFF7E7BA24
:10311000524B6949DC6304220F2002F013FB0123A8
:10312000FFF7DDBA4D4B65499C6304220E2002F087
:1031300009FB0123FFF7D3BA484B61495C630422C2
:103140000D2002F0FFFA0123FFF7C9BA434B5D4996
:103150001C6304220C2002F0F5FA0123FFF7BFBA2A
:103160003E4B5949DC6204220B2002F0EBFA0123AA
:10317000FFF7B5BA394B55499C6204220A2002F088
:10318000E1FA0123FFF7ABBA344B51495C620422E8
:10319000092002F0D7FA0123FFF7A1BA2F4B4D49BE
:1031A0001C620422082002F0CDFA0123FFF797BA2F
:1031B0002A4B4949DC610422072002F0C3FA0123AB
:1031C000FFF78DBA254B45499C610422062002F089
:1031D000B9FA0123FFF783BA204B41495C6104220D
:1031E000052002F0AFFA0123FFF779BA1B4B3D49E6
:1031F0001C610422104602F0A5FA0123FFF76FBA02
:10320000164B3949DC600422032002F09BFA0123AB
:10321000FFF765BA114B35499C600422022002F089
:1032200091FA0123FFF75BBA0C4B31495C60042231
:10323000012002F087FA0123FFF751BA074B2D490D
:103240001C600422002002F07DFA0123FFF747BA38
:103250000022FFF790BA0023FFF741BA981BFF1F27
:10326000E50D0000590D0000CD0C0000410C0000E0
:103270006D04000069250000DD24000051240000D9
:10328000C523000039230000AD22000021220000E8
:1032900095210000092100007D200000F11F0000A1
:1032A000651F0000D91E00004D1E0000C11D00005A
:1032B000351D0000A91C00001D1C0000911B000012
:1032C000051B0000791A0000ED19000061190000CB
:1032D000D518000049180000BD1700003117000084
:1032E000A5160000191600008D150000011500003C
:1032F00055070000C906000030B4154B154A1B687D
:1033000082B0019301991368CB1A012B1CD9124B7F
:103310001C68A04217D0840007EE104A9FED0F6A88
:10332000DFED0F6A0F4C104D1860B8EEC77A01231D
:10333000C6EE077A2B7067EEA67A67EEA67AFDEEE8
:10334000E77AC4ED007A116002B030BC704700BF6C
:10335000E81CFF1F701BFF1F0409FF1F00007042C5
:1033600000007A444C1AFF1F6C1BFF1F38B5C0B217
:103370000D46144602F034FCE8B202F031FCE0B233
:10338000BDE8384002F02CBC664B6748674AF0B590
:103390004FF0000E664DC3F800E02C78654E50F8F3
:1033A000244019683368671E774585B052F823209A
:1033B00040F3B080C1EBC10303F1804C5E48ACF137
:1033C000020CA44400EB8303744600EB8C0C043B1A
:1033D00053F804EF63457444FAD102F1FF3CBCF1A9
:1033E000000F0EDD0A46062A1346C8BFD31FC3EBE3
:1033F000C3033B44013250F823E0531A634574443D
:10340000F1DB0B2C62DDA4F10C014C4B4C4F03EBB8
:103410000111684604F07EFA69464A4804F06AF9E8
:10342000484804F08DF9684604F020FA464B1B68C2
:103430001C4421467F229020FFF798FF434B4448CD
:10344000E4B21C7004F0F0F8D7ED007A414BB8EE0E
:10345000E77AD3ED006AFAEE047AE7EE267AF5EE23
:10346000C07AF1EE10FA06D99FED3B7AF4EEC77AF6
:10347000F1EE10FA32DD2B782D490133DBB22B70DF
:103480002B7813F00F0305D13448326800780132ED
:103490003260E8B9324B32681B6826499A4204BF51
:1034A00000230B602F4B2A781B6821499A4211D0C8
:1034B0002D4A137843B13B6800218B42117003DB26
:1034C0002A4A591E91421AD905B0F0BD21469CE7FF
:1034D0000B70DFE700230B703360E9E7DFED246A50
:1034E000BEEE007AA7EEA67AFCEEC77A17EE902A17
:1034F000232AC0D91F49164804F04CF8BBE7C3EB98
:1035000003139A00013A232ADED91B491B4804F011
:1035100041F8D9E702F1FF3CBCF1000F7446D5DD5C
:1035200005485FE7C819FF1FD807FF1F2008FF1FC6
:103530003C1AFF1F901BFF1F3808FF1F641AFF1F54
:103540004C1AFF1F7410FF1FFC08FF1F481AFF1FB3
:10355000281BFF1F0009FF1F8988884C3008FF1FA8
:103560001808FF1F1C08FF1F6C1BFF1F4744440463
:10357000000070428135000089330000881BFF1F66
:1035800008B5054B802019780022FFF7EFFE0348AD
:10359000BDE8084004F048B8481AFF1F281BFF1F69
:1035A00070B501218CB00B20184E02F059F90021A2
:1035B0000B2002F055F933680193019D0024643516
:1035C00033680293029B9D420DD80821104803F0F6
:1035D00049FD104804F0B4F802F0A4FE642002F0A3
:1035E0004BF90CB070BD02F041FE2228024602D019
:1035F000112CF1D0E4E703A9074804F011F99DF874
:103600000C00FFF779FE1134F2E700BFE81CFF1F42
:10361000DC9000007410FF1F5410FF1F08B5FFF767
:10362000BFFF044A1368013313606420BDE80840FB
:1036300002F022B98819FF1F2DE9F0435D485E4F63
:10364000DFF8FC815D4C5E4D83B001F0EBFA172290
:1036500015238DE80C00132116231422594801F07C
:103660004FF8122210238DE80C001321112314228D
:10367000554801F045F8222221215448FEF7BAFFAF
:10368000242223215248FEF7B5FF524B00264FF06B
:1036900080093A46414618461E6083F8049004F0BB
:1036A00093FC4D4B41463A46184683F804901E6001
:1036B00004F08AFC494B9FED4A6A1B68DFED496ABA
:1036C000494A4A499B0007EE903AB8EEE77A20460D
:1036D000C6EE077A67EEA67A67EEA67AFDEEE77A7F
:1036E000C2ED007A04F002F904F11000404904F040
:1036F000FDF804F120003F4904F0F8F804F130002F
:103700003D4904F0F3F804F140003C4904F0EEF8C0
:1037100004F150003A4904F0E9F804F16000394935
:1037200004F0E4F804F17000374904F0DFF804EB2A
:103730000900364904F0DAF804F19000344904F045
:10374000D5F804F1A000334904F0D0F804F1B0003A
:10375000314904F0CBF83A463046304904F034FCA5
:1037600028462F4904F0C2F805F110002D4904F055
:10377000BDF805F120002C4904F0B8F805F130003F
:103780002A4904F0B3F805F14000294904F0AEF8E5
:1037900005F15000274904F0A9F805F16000264919
:1037A00004F0A4F825493A46304603B0BDE8F0439A
:1037B00004F00ABC401AFF1FD407FF1F641AFF1F42
:1037C000CC19FF1F8C19FF1F301BFF1F741BFF1F1D
:1037D000501AFF1F281BFF1F881BFF1F0409FF1F14
:1037E0000000704200007A444C1AFF1FE89000006D
:1037F000EC900000F0900000F4900000F8900000C1
:10380000FC9000000091000004910000089100006D
:103810000C9100001091000014910000210500009F
:1038200018910000209100002891000038910000BC
:10383000349100004091000048910000050500000F
:10384000F904000010B53C4C40F6B831204601F0B8
:103850003BFB204639494FF4E13201F00FFB204693
:10386000012101F0E5FA60B1606C3549036811226D
:103870005B68984720460A2101F0C8FA204601F00B
:10388000FBFA012200212C482E4C01F0E5FB03211C
:103890000F2001F0EBFF022210462B4901F052FFEE
:1038A00001210B2001F0E2FF00210B2001F0D8FFE5
:1038B0000321042001F0DAFF2078012101F0D6FF76
:1038C0000121207801F0CCFF4FF4F05002F008F90C
:1038D00040F6230002F024FA0B211C4803F0C2FB3F
:1038E000164803F02DFF01233C220221184800F066
:1038F000A1FF01233C220221164800F09BFF14483F
:1039000000F020FF0121124800F064FC0022114663
:103910000F4800F055FC02210D4800F055FC0B2229
:103920000A490B4803F0D2FE094803F009FF084892
:10393000BDE8104001F0CEB8981CFF1F7410FF1FA7
:10394000509100003408FF1F3D0500006491000005
:103950008C19FF1F301BFF1F00207047704700BFEE
:103960002DE9F04F85B09946BDF93870BDF83CA0FF
:10397000BB1AC1EB090B002BB8BF5B42BBF1000FB8
:10398000B8BFCBF1000B5B450D4616460093804651
:1039900048DC4D453A4633464CDC194613460A4648
:1039A000C5EB09019B1A89B2002B0CB2B8BF5B4270
:1039B00004EBD474BE42ACBF4FF0FF3201224D4540
:1039C000039102924FEA640429DC9BB201930DE05B
:1039D000D8F80070BF69B847019BE41AA3B21CB2C3
:1039E0000135002C2DB211DBA94518DB009B5B458E
:1039F0002A46534631464046EADCD8F80020534672
:103A00009769294632464046B847E5E7029A164488
:103A1000039AA94502EB030436B224B2E6DA05B0F4
:103A2000BDE8F08F4A462B46B94635464D45174608
:103A30001E46B2DD304629463E464D46074689467B
:103A4000AEE700BF10B404682469A4465DF8044BD7
:103A5000604700BF30B40468BDF808500295A46BFD
:103A6000A44630BC604700BF30B40468BDF80850BD
:103A70000295E46BA44630BC604700BF70B4046894
:103A8000BDF90C60BDF8105003960495246CA44653
:103A900070BC6047704700BF10B582B0B0F90C2011
:103AA00001910168009200220C6CB0F90A301146B5
:103AB000A04702B010BD00BF704700BF01F0030176
:103AC0000129C17506D0032904D0C2880389428127
:103AD000838170470289C38842818381704700BF18
:103AE0002DE9F0410568134E6F6986B0B742044670
:103AF000BDF8308010D1013B13441BB20093CDF8C8
:103B000004800B46AD6A2046A8472368DB6AB342AF
:103B10000AD106B0BDE8F081059304920391B8473D
:103B200003A925680EC9E6E7204606B0BDE8F041C6
:103B3000184700BF953A00002DE9F0410568124E84
:103B40006F6986B0B7420446BDF830800FD1013BA3
:103B5000CDF804800B4400921BB2AD6A2046A84702
:103B60002368DB6AB3420AD106B0BDE8F081059351
:103B700004920391B84703A925680EC9E7E72046D8
:103B800006B0BDE8F0411847953A00002DE9F04F26
:103B90000568DFF858B06F6985B05F450646BDF926
:103BA0003890BDF83CA00C46904615D11F19BC4278
:103BB0000CDACDF800A0214601342D6A4B4642466E
:103BC000304624B2A847BC423568F2DBEB6A5B455D
:103BD00007D105B0BDE8F08F0393B8473568039B64
:103BE000E4E7304605B0BDE8F04F1847953A0000CD
:103BF0002DE9F04387B099420546BDF93840BDF83C
:103C00003C6025D0A24212D00768DFF88080D7F848
:103C10001490C14532D18DE850002846BC6AA047B7
:103C20002B68DB6A434524D107B0BDE8F083994295
:103C300002DD08461946034628680E96C46B013318
:103C40005B1A1BB22846A44607B0BDE8F0436047A4
:103C5000A24202DD134622461C4628680E96631CCB
:103C6000846B9B1A1BB22846A44607B0BDE8F043FC
:103C70006047284607B0BDE8F04318470593049213
:103C80000391C84703A92F680EC9C4E7953A0000FD
:103C90002DE9F04FD0F800E0DFF89090DEF814B096
:103CA00083B0CB450446BDF93080BDF834A00D4645
:103CB00017461E4631D1CDF800A0DEF824B02946C3
:103CC00033463A462046D8472368CDF800A008F18D
:103CD000FF323A44D3F824B0294612B23346204684
:103CE000D8472368CDF800A02946D3F820B03A463B
:103CF00043462046D8472068CDF800A0711E2944CD
:103D00004346056A09B23A462046A8472368DB6A5B
:103D10004B4506D103B0BDE8F08FD847D4F800E09A
:103D2000C9E7204603B0BDE8F04F1847953A0000B8
:103D3000F0B4002401264FF6FF75094F07600471A7
:103D4000C475C48104824476C46186750676858212
:103D50004582C180028141818281F0BC704700BFF1
:103D6000789100002DE9F04F93B090460591C1691C
:103D70001090BDF870000790BDF874909DF878A081
:103D80000493002900F0CD800A7A0AC98946049973
:103D90008A1AD2B203EBC203BAF1010FDA780B929E
:103DA00093F905201E8893F802B00F9293F906400C
:103DB00079D913B2099323B20C93109B1A68A94BBB
:103DC0001193194653698B4240F0A6800B9B002B40
:103DD00055D01FFA88F300210D93C8462344DDF81F
:103DE000409006910E930F460C46BBF1000F3FD05A
:103DF000BDF818100C9B03971FFA8AF0CB1813FB21
:103E000000F304900E9801440D98034409B21BB2CC
:103E10000A910893002505E00135EBB264009B454B
:103E2000E4B222D9039B2B44590703D1731C18F821
:103E300006409EB22306EFD5099BBDF81000E91895
:103E400011FB00F10598BAF1010F0FFA8AF3014452
:103E50001CD0079801900093D26909B217464846D2
:103E6000089AB847D9F80020D6E7039F5F44FFB20D
:103E7000069B0B9901330693DBB29942B5D8D36AFE
:103E8000119A934243D113B0BDE8F08F0F9B1918DC
:103E900093690A9A29441F4609B2079B4846B847C6
:103EA000D9F80020B8E700230C93099385E70A9A14
:103EB0000D9B0132013B52B213F0FF030A920D93A6
:103EC0006FD1DDF81890079BDDF83C80DDF820A06D
:103ED0004B4517D0BAF1010F00F0C8800B9A109D26
:103EE000CDF804900BEB8B014FEACB030A4400930F
:103EF0001146DEF81C405346424609B22846A04708
:103F0000D5F800E0DEF82C30119A9342BBD010981F
:103F100013B0BDE8F04F1847109D284698472A680F
:103F200054E7109A0598B2F90A308342ABDDB2F932
:103F30000C304345A7DD062313FB0A03002BA2DD4B
:103F400008EBCA03002B9EDD537E2BB9049BAF2BDD
:103F500002D90133DBB20493109BD3F800E0414B4C
:103F600011931A46DEF81430934240F08E801FFA07
:103F700088F30E9308339BB2BDF8142005930523F4
:103F80000D9300230A93CDF83C800FFA8AF3DDF8F5
:103F90004080CDF818900B921FFA8AFBCDF820A034
:103FA00099460A9ABDF810000B9C0E9D05231946F0
:103FB00011FB00232C481146C75C039702FB0B4200
:103FC00014FA81F312B21BB209920C932C462E46BE
:103FD0001CE0089B0999012B2AB24B4640462DD084
:103FE000079F0197CDF80090DEF81CA0D047D8F8C5
:103FF00000E0039B5B0801340393059BA4B25D447E
:104000005E44A342ADB2B6B23FF451AF039BD807B2
:10401000DFD4079B069A9342EBD0089B012B16D066
:10402000069B0193CDF80090DEF81CA009994B4641
:1040300032B24046D047D8F800E0DAE7DEF818A000
:10404000079B0C9922B2D047D8F800E0D1E7DEF800
:1040500018A00C991346404622B2D047D8F800E089
:10406000C7E700BF953A0000C89100000B99109D6A
:10407000CDF800900531DEF8204009B24246082311
:104080002846A047D5F800E03CE7109C204698471A
:10409000D4F800E06BE700BFF0B5C36985B0044613
:1040A0002BB30A2968D00D294AD01A7A914247D3F6
:1040B000587A884244D35D688A1A05EBC205AA780B
:1040C000002A50D0E87800284DD0207E00283AD031
:1040D00095F905E0B4F90E00A67DB4F90A707244B2
:1040E00006FB0202BA4262DCB4F9102030E00A2971
:1040F00056D00D2924D0027E002A4BD0B0F90E00F4
:10410000A57DB4F90A60062212FB0502B2423EDD2B
:10411000228AE38102EBC50212B218462282A78AE4
:10412000668A02950B468DE8C00001462046FFF7DF
:1041300019FEA37DE28903EB430302EB4303E38112
:10414000012005B0F0BDA67DB4F90E00B4F9102031
:10415000B4F814E0678A02960B468DE88040014669
:104160002046FFF7FFFD2979E389A27D012001FBAD
:104170000233E38105B0F0BD0022C2819A7A817DCD
:10418000038A01FB02330382012005B0F0BDB4F9BC
:104190001020C4E7857DB4F91020B0F90E00BEE709
:1041A000028A817DC38102EBC1030382C8E700203C
:1041B000E0819B7A228A03FB062212B22282C7E7A1
:1041C000C1810282704700BF002908BF01218175AB
:1041D000704700BF81824182704700BFC07D704739
:1041E000B0F90A00704700BFB0F90C00704700BF7B
:1041F000F0B5C47DBDF81450022C75D0032C6ED0E0
:10420000012C32D0002A79DBB0F90840944265DDF8
:10421000002978DBB0F906605818B042C4BF731AA1
:104220001BB2002B5ADD002A1046B8BFD01D012456
:1042300040F3CF0002F00702704E01EBC01104FA08
:1042400002F2A5423144D2B200F0A480C0F09580C1
:10425000022D43D1013B11FA83F04B1E13F8011FCD
:10426000514083421970F9D1F0BDC488013CA21AB3
:1042700012B2002A7BDBB0F9064094422EDD002901
:104280003DDBB0F908605818B042C4BF731A1BB2C6
:10429000002B23DDC9B2C808584C02EBC01211F044
:1042A0000701DBB204EB020039D0C1F10801C9B249
:1042B000534E8B42765C2AD2C3EB010EFF2747FA9E
:1042C0000EF7012D06EA070674D06ED3022D40F0DA
:1042D0009480A75C7E40A6548B421DD2F0BD048919
:1042E000E41A611A09B2C4E70689C488013EB21A09
:1042F000E41A12B2611A002A09B285DAF0BD0B4441
:104300001BB20021BDE70B441BB2002182E7012D47
:1043100050D04AD3022DDCD05B1ADBB28030072BA1
:1043200018D9022D4ED0A3F10806C6F3C406B11C5D
:1043300000EBC111012D0CBFFF24002400F180020D
:1043400002F8804C80328A42FAD1013600EBC61066
:1043500003F00703002BC1D02A4A012DD35C2DD0D6
:1043600006D3022DBAD1027853400370F0BDF0BDE0
:10437000027822EA03030370F0BD013BD24311FA35
:1043800083F0D2B24B1E13F8011F11408342197003
:10439000F9D1F0BD013B11FA83F04B1E13F8011F58
:1043A000114383421970F9D1F0BDA75C27EA0606D4
:1043B000A65491E7A75C3E43A6548DE702781343C9
:1043C0000370F0BDA3F10805C5F3C405AC1C00EBF8
:1043D000C41400F1800212F8801CC94302F8801C4A
:1043E0008032A242F7D1013513F0070300EBC5106C
:1043F0003FF474AF034AD35CB5E7F0BD1809FF1F63
:104400001009FF1F0809FF1FF0B5C47DBDF8145047
:10441000022C76D0032C6FD0012C37D000297ADB08
:10442000B0F906408C4230DD002A79DBB0F9086033
:104430009818B042C4BFB31A1BB2002B25DDD2B20C
:10444000D008754C01EBC01112F00702DBB204EB8F
:10445000010071D0C2F10802D2B2704E9342B65C34
:1044600062D2C3EB020EFF2747FA0EF7012D06EAD0
:10447000070600F0AC80C0F0A580022D40F0CA8095
:10448000675C7E406654934253D2F0BDC488E41A00
:10449000A21A12B2002977DBB0F908408C42F4DD91
:1044A000002A39DBB0F906609818B042C4BFB31ACD
:1044B0001BB2002BE9DD00290846B8BFC81D012446
:1044C00040F3CF0001F00701534E02EBC01004FA95
:1044D00001F1A54206EB0002C9B268D05AD3022D01
:1044E000D3D1013B12FA83F0531E13F8012F4A4037
:1044F00083421A70F9D1F0BD0489013C611A09B2F6
:10450000C8E7C6880489013E711AE41A09B2A21AE2
:10451000002912B284DAF0BD13441BB20022C1E7B5
:1045200013441BB2002281E7012D50D04AD3022D43
:10453000A6D09B1ADBB28030072B18D9022D4ED0A3
:10454000A3F10806C6F3C406B11C00EBC111012D8E
:104550000CBFFF24002400F1800202F8804C80325E
:104560008A42FAD1013600EBC61003F00703002B94
:104570008BD02B4A012DD35C2DD006D3022D84D1B4
:10458000027853400370F0BDF0BD027822EA0303C5
:104590000370F0BD013BC94312FA83F0C9B2531E48
:1045A00013F8012F0A4083421A70F9D1F0BD013B84
:1045B00012FA83F0531E13F8012F0A4383421A7034
:1045C000F9D1F0BD675C27EA060666545BE7675CD5
:1045D0003E43665457E7027813430370F0BDA3F1DE
:1045E0000805C5F3C405AC1C00EBC41400F1800140
:1045F00011F8802CD24301F8802C8031A142F7D1F0
:10460000013513F0070300EBC5103FF43EAF044A39
:10461000D35CB5E7F0BD00BF1809FF1F1009FF1FED
:104620000809FF1FF8B50D1E06DB14461F46064697
:10463000FFF7D6FD854200DBF8BD002CFCDB3046E1
:10464000FFF7D2FD8442F7DA3046FFF7C7FD0228B4
:104650004BD0032843D0012804D1F388013B1B1B16
:104660002C461DB2012F03D026D3022F12D0F8BD45
:10467000002C2346B8BFE31D43F3CF0305EBC3155E
:104680001E4804F00704435D012101FA04F41C43B1
:104690004455F8BD002C2346B8BFE31D43F3CF03B8
:1046A00005EBC315154804F00704435D012101FA29
:1046B00004F45C404455F8BD002C2346B8BFE31D0C
:1046C00043F3CF0305EBC3150C4804F00704435D27
:1046D000012101FA04F423EA04044455F8BD3389A6
:1046E000013B5B1B25461CB2BCE7F18832890139CE
:1046F000013A4D1B141B2DB224B2B3E71809FF1F5A
:104700002DE9F843044699460D4616469DF920705A
:104710009DF9248040228021FFF70AFB084A84F893
:104720002490002384F8268084F8257084F8236080
:1047300084F82250226084F827302046BDE8F883B0
:10474000D09600004FF480620021014803F0A2BF20
:104750001809FF1F70B590F9223001334BD0026B5E
:1047600090F83A30147823431370426B90F83B4032
:10477000137823EA04031370026B90F83A4013781D
:1047800023EA0403137090F827301BBB082480220F
:104790000FE090F838302E7833432B70C56A90F8CC
:1047A00039302E78013C43EA06034FEA52022B705F
:1047B0001AD0C56A90F839602B7823EA06032B706B
:1047C0001142856AE5D190F838602B7823EA060318
:1047D0002B70E3E7154B1A684FF00043D362516327
:1047E000D36A002BFCDA936B026B90F83A301178A5
:1047F0000B43137070BD0E4D90F8203001260C460F
:104800005B002846002185F83B3085F85E6085F81E
:104810005D6000F091FC2146284600F08DFC314699
:104820002846BDE8704000F07DBD00BF180DFF1F99
:10483000BC0DFF1F2DE9F0410E4690F9221080F8C3
:1048400020200131044680F82160984600F0BF80A6
:10485000012190F82400954F01F008F8012194F807
:10486000260001F003F894F9263094F9242057F833
:1048700033302363012584F83A5094F8273057F8F1
:104880003220626384F83B50002B00F0D180884DC9
:10489000284600F077FAEB7A002B40F0E7802B688F
:1048A000844AD968914206D0834D844884491D606A
:1048B000DA6018611960B8F1000F1CD094F9250076
:1048C000002818DBC0B2012100F0D0FF012194F8CC
:1048D000250000F0C5FF012000F0CEFF002194F874
:1048E000250000F0BDFF0A2000F0C6FF012194F86A
:1048F000250000F0B5FFAE212046FFF72BFFD521A4
:104900002046FFF727FF80212046FFF723FFA8213D
:104910002046FFF71FFF3F212046FFF71BFFD32153
:104920002046FFF717FF00212046FFF713FF402125
:104930002046FFF70FFF8D212046FFF70BFF012ECA
:1049400049D014212046FFF705FF20212046FFF71C
:1049500001FF00212046FFF7FDFEA1212046FFF7C1
:10496000F9FEC8212046FFF7F5FEDA212046FFF7C1
:10497000F1FE12212046FFF7EDFE81212046FFF7D0
:10498000E9FECF212046FFF7E5FED9212046FFF7BB
:10499000E1FEF1212046FFF7DDFE2046DB21FFF797
:1049A000D9FE20464021FFF7D5FE2046A421FFF77F
:1049B000D1FE2046A621FFF7CDFE20462E21FFF78F
:1049C000C9FE2046AF21BDE8F041FFF7C3BE3D4818
:1049D00000F0C6FB6FE720461021FFF7BBFE204624
:1049E0002021FFF7B7FE20460021FFF7B3FE204647
:1049F000A121FFF7AFFE2046C821FFF7ABFE2046FE
:104A0000DA21FFF7A7FE20461221FFF7A3FE20467A
:104A10008121FFF79FFE20469F21FFF79BFE204646
:104A2000D921FFF797FE22212046FFF793FEB4E736
:104A3000294694F8220000F019FF294694F8230033
:104A400000F014FF94F9233094F9222057F8333002
:104A5000E36284F8395094F8273057F83220A26284
:104A600084F83850002B3FF426AF10E772B6EB7A8B
:104A7000D8071A4606D51449EA6808680240AA61B0
:104A80000A601A46990706D510492B690868EA7A20
:104A90000340EB610B60530705D50D4A6B69116844
:104AA0000B402B62136062B6F9E600BFAC980000C1
:104AB000180DFF1F0110003801401F000110007881
:104AC00000001F80BC0DFF1F80E100E084E100E0DA
:104AD00088E100E02DE9F84321210446FFF73AFE82
:104AE00020460021FFF736FE20467F21FFF732FEE9
:104AF00020462221FFF72EFE20460021FFF72AFE46
:104B000020460721FFF726FE94F92230013359D0C1
:104B1000226B94F83A3011783E4DDFF804E10B43F4
:104B20001370626B94F83B3011780B431370226B57
:104B300094F83A10137823EA0103137005F58066A0
:104B40004FF0004794F8273015F801CF3BBB082100
:104B5000802212E094F8383090F8008048EA03038D
:104B60000370E06A94F8393090F80080013948EA1F
:104B700003034FEA520203701AD0E06A94F83980B6
:104B8000037823EA080303701CEA020FA06AE1D14C
:104B900094F83880037823EA08030370E1E7DEF82D
:104BA0000020D762C2F834C0D36A002BFCDA936BC2
:104BB000B542C7D1226B94F83A3011780B43137089
:104BC000BDE8F883DFF85480134F00254FF001094A
:104BD00094F82030114888F85E905B00402188F8F6
:104BE0003B3088F85D9000F0A7FA05F11006B6B2E8
:104BF000795D0A480135ADB200F09EFAB542F7D1B1
:104C00000121064800F08EFBB5F5806FE0D1BDE8CC
:104C1000F88300BF1709FF1F1809FF1FBC0DFF1FF6
:104C2000180DFF1F00220A21818002608271C2716B
:104C3000704700BF10B4047F4160022CC26003D0F3
:104C40005DF8044B02F012BB83685DF8044B184713
:104C5000F0B4464B464A186BDC6A0179117045493D
:104C600022790A709A6A00790870002A46D0596839
:104C7000C9688A423ED82168CC8B240402F1FF30F7
:104C800065D4C0F30E00C883C88B80B2C882196B8C
:104C90000968C88B000452D4C2F30E00C883C88BC5
:104CA000002480B212F1FF32C88218BF01229C6238
:104CB000D96A2E4809680D6800F12404A54236D04F
:104CC0000068C46814F0804F0C680D6815BF248814
:104CD00024780235013544F000440D604463196BBB
:104CE000254B09791970214912B1CA6A12791A70D3
:104CF000F0BC7047521A9A620122D9E7586B1968C2
:104D000005681E4C0A63CC62CC682D681C4E24F0EA
:104D100080440327B542CC6083F825701FD1037F00
:104D20004260022BC2601ED0F0BC02F09FBA016844
:104D300090F82400CC6840F000404863CFE7CC8B6B
:104D4000C2F3080004F47E442043C883A7E7CC8B59
:104D5000C0F3080004F47E442043C88394E72B4644
:104D60001146F0BC18478368F0BC1847180DFF1FA8
:104D70001F8000401C8000401B80004000000FFF8F
:104D8000354C000090E80C00F0B41C6859682568A8
:104D9000164F174E29432160164D17491760D660EC
:104DA00015611160417A154A5C180C3194F82C4059
:104DB00053F8215002EBC40149680D60017A5C1878
:104DC00003EB8101247ECD6902EBC40149680D60CB
:104DD000817A581803EB810390F84000596C02EB7C
:104DE000C002F0BC53681960704700BF01401F004B
:104DF000011000380110007800001F80AC980000FE
:104E000002F0CAB802F0ECB802F002B9074882B06A
:104E100003680193019A114401E0994204D30368A5
:104E20000093009B9A42F8D902B07047E81CFF1F1C
:104E300010B4104A85B0A1B9136800934168009B73
:104E4000591A31290DD813680293029C04F13203D8
:104E5000591A01E0994204D313680193019B9C42C3
:104E6000F8D913680393039B4360012005B05DF8F4
:104E7000044B7047E81CFF1F704700BF2DE9F0414D
:104E80000D4D0E4EDFF83C800D4F41641B2401E0B8
:104E900000F0F2FC2B78C82043B133789B0705D093
:104EA000D8F800303A689B1A182B03D8013CEFD190
:104EB000BDE8F081BDE8F081E01EFF1FF81EFF1F76
:104EC0005021FF1FE81CFF1F00238364436071B162
:104ED000074882B003680193019A114401E09942A6
:104EE00004D303680093009B9A42F8D902B070473C
:104EF000E81CFF1F70B5144C84B00546406C236855
:104F000003930368039A6A600E465B680F490622A2
:104F10009847314600230A22686C02F021FC686C35
:104F20000B49036808225B68984723680293029A3A
:104F300002F1320101E0994204D323680193019BFD
:104F40009A42F8D904B070BDE81CFF1FCC9700004E
:104F5000D4970000F8B5037E0BB96320F8BD044672
:104F6000406C3B4E03681B69B3420D466AD102F0A8
:104F70004FF810F0FF0F01D16520F8BD354F606C80
:104F800003681B69B3425FD102F042F810F0FF0FD3
:104F9000F2D0606C03685B69BB4257D101F0FCFF43
:104FA000C3B2A3F158021E2AE9D801A151F822F098
:104FB0003D5000007F4F00007F4F00007F4F0000FA
:104FC0007F4F00007F4F00007F4F00007F4F0000A9
:104FD0007F4F00007F4F00007F4F000031500000E6
:104FE0007F4F00007F4F00007F4F00007F4F000089
:104FF0005B4F00007F4F00007F4F00007F4F00009D
:105000007F4F00007F4F00007F4F00007F4F000068
:105010007F4F00005B4F00007F4F00007F4F00007C
:105020007F4F00007F4F00002D5000001846F8BD54
:1050300020462946FFF75EFF6320F8BD0023237654
:105040006320F8BD984794E798479FE79847A7E7FC
:10505000094E0000014E000070B5054682B01646AC
:10506000C9B101230D4C037600212846FFF772FFDA
:10507000632810D023680193019A511C2368009380
:10508000009B9A42F0D89942F8D200212846FFF7B7
:1050900061FF6328EED12E7602B070BDE81CFF1FC1
:1050A000034B00229A60DA601A615A61704700BFB0
:1050B000981CFF1F90F8392090F83800101A70479C
:1050C00090F8383090F839209A4205D95A1C034498
:1050D00080F83820187E70474FF0FF30704700BFCF
:1050E00090F8383090F839209A4286BF1B18187E05
:1050F0004FF0FF30704700BF704700BF38B505461E
:10510000B0F85E0090B195F85D301446C3F121020D
:1051100094420CD805F13B001844224600F0AEF949
:1051200095F85D30234485F85D30204638BD012078
:1051300014462871EEE700BFB0F85E306BB190F80E
:105140005D30202B07D8C218013380F85D30012074
:1051500082F83B107047012303710020704700BFA5
:105160000023426980F8383080F8393080F85C30AC
:1051700080F85D3080F85E3080F85F3006CA30B469
:105180000D68046943662A4383660A60A370426916
:1051900090F861301649146813441D7A5B7B01EB6B
:1051A000C5051B026D6803F4E06343F064032B60E4
:1051B00090F8623013449D7CDB7D01EBC5011B023E
:1051C000496803F4E06343F064030B6021685368AB
:1051D000194205D003692C225A70036904229A717E
:1051E000036920225A71036980229A7030BC70478B
:1051F000AC98000038B50269D478E4B2E1060546FF
:1052000024D51023D37063061FD504F0040404F0E2
:10521000FF03002C5AD042496A6E00230B7085F8B8
:105220005D30002A66D0904795F85D30002B61D044
:105230002B69D0229A702B6995F83B201A712B6943
:10524000012285F85C200222DA7038BD04F04003A8
:1052500003F0FF00002BD8D19379DBB203F060019B
:1052600060294ED0937803F0100303F0FF01B3B12F
:1052700014F0010437D195F85C3095F85D1099422F
:105280004BD9591C2B4485F85C1093F83B301371B3
:105290002B69D0229A702B690222DA70D5E785F843
:1052A0006010937943F0200393712B6995F83910BE
:1052B0001A791F29D2B2C6D8194800780028C2D05E
:1052C0006818013185F839100276BCE72A6985F83B
:1052D0003930C02393702B69114A1979012111705B
:1052E0000222DA70B1E7C02393702B691A79022287
:1052F000DA70AAE70122002385F85D2085F83B30AB
:1053000096E703F0DF039371AB6E23B185F83800A5
:1053100095F8390098472A69A4E71471B8E700BFE7
:10532000E41CFF1FF0B503691222DA70026993785A
:105330000546980687B051D5B423464C9370236830
:105340000293029E2A6905E023680393039B9B1B3B
:10535000042B5AD8D37803F0200303F0FF00002B6E
:10536000F2D095F85D30002B31D04FF0000E4FF0A9
:10537000020C05EB0E0393F83B3013712368049382
:10538000049F286907E09B060DD523680593059BBC
:10539000DB1B052B40D8C378DBB203F0020202F01E
:1053A000FF06002AEFD080F803C02E69F378DBB245
:1053B000DF0632463FD49F063DD5DB0743D40EF1CE
:1053C000010E95F85D305FFA8EFE7345D1D800204E
:1053D000002934D1002385F85E301BE01D4C236882
:1053E0000093009E05E023680193019B9B1B0F2BFC
:1053F00019D8D37803F0200303F0FF00002BF2D17B
:10540000B02385F85F00937099E790702B69802234
:105410009A70042007B0F0BD86702B6980220420AA
:105420009A7007B0F0BD002393702B69802204208E
:105430009A7007B0F0BD8023B3700420C8E72E69CE
:105440008023B370C6E7BEF1000F0CBF022003201B
:10545000F6E700BFE81CFF1F0148FFF7CBBE00BF07
:10546000BC0DFF1F0148FFF7C5BE00BF280EFF1F80
:105470000148FFF7BFBE00BF500DFF1F844641EA41
:10548000000313F003036DD1403A41D351F8043BBC
:1054900040F8043B51F8043B40F8043B51F8043B0E
:1054A00040F8043B51F8043B40F8043B51F8043BFE
:1054B00040F8043B51F8043B40F8043B51F8043BEE
:1054C00040F8043B51F8043B40F8043B51F8043BDE
:1054D00040F8043B51F8043B40F8043B51F8043BCE
:1054E00040F8043B51F8043B40F8043B51F8043BBE
:1054F00040F8043B51F8043B40F8043B51F8043BAE
:1055000040F8043B51F8043B40F8043B403ABDD21C
:10551000303211D351F8043B40F8043B51F8043BBE
:1055200040F8043B51F8043B40F8043B51F8043B7D
:1055300040F8043B103AEDD20C3205D351F8043B4D
:1055400040F8043B043AF9D2043208D0D2071CBF19
:1055500011F8013B00F8013B01D30B880380604642
:10556000704700BF082A13D38B078DD010F00303B8
:105570008AD0C3F10403D21ADB071CBF11F8013B28
:1055800000F8013B80D331F8023B20F8023B7BE777
:10559000043AD9D3013A11F8013B00F8013BF9D2A2
:1055A0000B7803704B7843708B788370604670473C
:1055B00008B5104C08E0236859050DD423681A0576
:1055C0000FD42368DB0411D423685803F3D501F00A
:1055D0000DF823685905F1D500F01CFB23681A0566
:1055E000EFD500F0C5FE2368DB04EDD502F0C4FA68
:1055F000EAE700BF3480044008B5FFF7D9FF00BFD9
:10560000014B10221A80704700200540704700BFF0
:10561000094908B50B6830B16A461844A2F5005232
:10562000904202D20860184608BD02F0D9FC0C2353
:1056300003604FF0FF3008BD940EFF1FFEE700BF70
:10564000EFF3138070B9EFF310836BB9EFF30582BA
:105650005AB94FF48070EFF311832BB1984228BFF1
:10566000184670474FF0FF3070470F2A01D8184690
:10567000F1E7014BD05CEEE7F0E300E0704700BFDC
:1056800010B4114B53F8302092F8804234B101230A
:1056900079B182F880305DF8044B704703EBC003AA
:1056A0005B681A6851B922F002021A605DF8044B77
:1056B000704782F800315DF8044B704742F00302F6
:1056C0001A605DF8044B7047AC9800001C4A02EB6E
:1056D000C00301295B6811D004291BD052F83000A7
:1056E000002280F8802229B1022920D0032922D06B
:1056F0001A6070474FF480721A60704752F8300099
:105700004FF4A27280F880121A601A6822F0200208
:105710001A60704752F830104FF4A272012081F8DD
:1057200080021A601A6842F020021A60704740F244
:1057300003121A6070474FF481721A60704700BFFD
:10574000AC9800003F2817D8F8B5042A13D8DFE832
:1057500002F0494C4F1446002C4872B6236823F4DB
:10576000702343F08072C4F384011643236040F831
:105770002150266062B6F8BD70474FF41026244BC6
:1057800003EBC0030D465C68216811F4E06134D07E
:10579000204B214A2149C3F82C2104F140422048E2
:1057A000C3F83411A2F592211E4FC3F830017C29B1
:1057B0001D48C3F83871C3F83C01CDD9A2F5942334
:1057C0007C2B18D9A2F596237C2B19D9A2F5982306
:1057D0007C2B17D9A2F59A227C2A15D9F8BD4FF453
:1057E0003026CCE74FF40026C9E74FF44026C6E741
:1057F0004FF42026C3E70D48AFE7FFF767FFC7E781
:105800000B48AAE70B48A8E70B48A6E7980EFF1F2E
:10581000AC9800000002FF1FA907FF1F5107FF1FE0
:105820007D07FF1F2507FF1FF906FF1F100FFF1F32
:10583000700FFF1FA00FFF1FE00FFF1F30B4054BBD
:10584000054D064C002210211A602A602060196064
:1058500030BC704714D0034004D0034000D0034054
:105860003F2801D8FFF70CBF704700BF3F2801D881
:10587000FFF72CBF704700BF2DE9F843054672B60D
:10588000204F214B214A1B683C68126862B65201C6
:1058900002D5322B88BF013495B3C3F5EA331C4ED1
:1058A000DFF86490DFF86480BF334FF47A72A6FBB0
:1058B000031302FB04F404EB931472B6D9F800103E
:1058C0003A68D8F800E062B6C1F5EA33BF33A6FB08
:1058D00003031EF0806FC4EB93134FF47A7002D071
:1058E000322988BF013200FB0233B3F57A7F04D33B
:1058F000013D05D004F57A74DFE702F035F8DCE706
:10590000BDE8F883E81CFF1F18E000E004ED00E0AC
:1059100089888888F8B53E4B3E49DFF818C13E4E6D
:105920003E4ADFF814E13E4D3E4C3F4F4FF00060E1
:1059300018604FF0805018604FF0005018604FF022
:10594000804018604FF00040186000200860282355
:105950004EF6FF71CCF80010CEF8003033600EF533
:10596000012E13602B60236005F500253B6004F5D4
:105970000024B36207F50027936206F5012602F5BD
:1059800001220EF1100E05F6E87504F6E87407F52D
:105990007F67103220362B602360CEF800303B60EA
:1059A00013603360214EBB61936109223260A7F519
:1059B000002706F58056203F083638603160BB600E
:1059C000F36047F8042C06F5FD2607F5FE2706F2DE
:1059D000FC76043730603960B360FB6046F8042C15
:1059E0000836C7F8FC0F06F6FC76114831602B60CC
:1059F0002360026002F01AF83220FFF73DFF01F049
:105A000021FA4FF4AF70BDE8F840FFF735BF00BF93
:105A100004E100E004800340148003401C80034044
:105A2000248003402C8003403480034000800340E6
:105A300000900B40088003400C8003402DE9F84F94
:105A4000214B1B6807460BB101221A70DFF88890C2
:105A50001E4D99F80040DFF884801D4E01343F2C24
:105A60008ABF4FF0000A5FFA84FA5446AB462B789F
:105A7000A34216D1FFF7E4FD40281FDC33791B0653
:105A8000F5D59BF8003001333F2B86BF002213462B
:105A9000DAB218F80330DBB2F3712A702B78A34224
:105AA000E8D00C490A4BFFB208F804700120BC2270
:105AB000087089F800A0DA70BDE8F88FFF28D6DDFD
:105AC00001F052FFD3E700BF7C1DFF1F791DFF1FB0
:105AD00000A00640781DFF1F801DFF1FF41CFF1F44
