:100000000000022099010000653000001D30000052
:100010001D3000001D3000001D3000001D300000AC
:100020001D3000001D3000001D3000006530000054
:10003000653000001D3000006D3600007137000093
:10004000653000006530000065300000653000005C
:10005000653000006530000065300000653000004C
:10006000653000006530000065300000653000003C
:10007000653000006530000065300000653000002C
:10008000653000006530000065300000653000001C
:10009000653000006530000065300000653000000C
:1000A00065300000653000006530000065300000FC
:1000B0006530000065300000653000002513000049
:1000C00065300000811A00006530000051310000E9
:1000D00065300000493200006530000065300000E6
:1000E00065300000653000006530000065300000BC
:1000F00065300000653000006530000065300000AC
:10010000A52B0000B92B0000CD2B0000E12B000037
:1001100065300000FD1C0000653000006530000007
:10012000653000006530000065300000653000007B
:10013000653000006530000065300000653000006B
:10014000653000006530000041330000653000007C
:100150003934000065300000653000006530000073
:10016000653000006530000065300000653000003B
:10017000653000006530000065300000653000002B
:10018000653000006530000065300000653000001B
:100190006530000065300000584B4CF2205210B51D
:1001A0001A804DF628121A8000BF00BF02F05EFFD1
:1001B000534B4FF030621A60524A9A60524ADA60EA
:1001C000524B4FF470021A60514A136813F4807353
:1001D00004D150490B604FF4A85313604E4B1A786A
:1001E000110703D51A7842F008021A704B4B4C499C
:1001F0002A221A704B4A4C4B8B4204D252F8040FFD
:1002000043F8040BF8E7494B494900228B4202D2DC
:1002100043F8042BFAE74749474A002352F82300E2
:1002200041F823000133662BF8D1444B444A802126
:1002300003F8011B9342FBD1424B3E4A1A60424BEA
:100240008A221A70A3F5805324225A70A0221A70B1
:100250009A799207FCD59A79D406FCD43B4A9379D3
:1002600003F00C03082B394BF9D103221A714622F3
:100270005A719A799006FCD5344A9179334B4906E4
:10028000FBD5334A4FF08271116009215160202261
:100290001A709A7902F00C020C2AFAD12D4B2E4AD0
:1002A0001A602E4B2E4A1A6000225A60072243F829
:1002B000042C2C4AC3F80C2D62B600F0B3FE154B8B
:1002C0001B68DA0705D5284800F040FE274B284A6E
:1002D0001A60284B1B785B0609D5244C244B2268F6
:1002E0009A4204D1204800F031FE0023236003F03D
:1002F00063FA02F0C1FE02F07DFCFEE70E2005402D
:1003000030800440823F04000100002B88ED00E0B3
:1003100010D0034014D0034002D0074000E0074053
:10032000DC13FF1FE84B0000F806FF1FDC13FF1F64
:10033000141AFF1F0002FF1F0000000000E400E08D
:1003400056E400E008ED00E00050064000400640A2
:100350004480044004800440C010050014E000E024
:10036000BFD4010000002020D9FF3D041CE0034061
:10037000A5C3945A00F00740FFFFFFFFFFFFFFFFF8
:10038000FFFFFFFFFFFFFFFFFFFFFFFFFFFFFFFF7D
:10039000FFFFFFFFFFFFFFFFFFFFFFFFFFFFFFFF6D
:1003A000FFFFFFFFFFFFFFFFFFFFFFFFFFFFFFFF5D
:1003B000FFFFFFFFFFFFFFFFFFFFFFFFFFFFFFFF4D
:1003C000FFFFFFFFFFFFFFFFFFFFFFFFFFFFFFFF3D
:1003D000FFFFFFFFFFFFFFFFFFFFFFFFFFFFFFFF2D
:1003E000FFFFFFFFFFFFFFFFFFFFFFFFFFFFFFFF1D
:1003F000FFFFFFFFFFFFFFFFFFFFFFFFFFFFFFFF0D
:10040000FFFFFFFFFFFFFFFFFFFFFFFFDEF9FFFF23
:1004100010B5054C237833B9044B13B10448AFF33E
:1004200000800123237010BDDC13FF1F00000000BB
:10043000EC4B0000084B10B51BB108490848AFF35E
:1004400000800848036803B910BD074B002BFBD0A0
:10045000BDE81040184700BF00000000E013FF1F78
:10046000EC4B0000DC13FF1F0000000010B5044639
:1004700002F076FB204610BD38B5054CA4F170059E
:100480002046103C02F07AFCAC42F9D138BD00BFE6
:100490006014FF1F38B5054CA4F1C005103C204680
:1004A00002F06CFCAC42F9D138BD00BF3815FF1F1B
:1004B00070B5154B154C1B6882B00193019D2368E4
:1004C000EB1AC82B0FD9124E337873B9114B1B6836
:1004D000002B03DB104A591E91420AD9337825605C
:1004E00083F00103337002B070BD0C4802F038FB9A
:1004F000F4E7C3EB03129200013A232AEED908492C
:10050000064802F0E3FAE9E7A815FF1F3815FF1FB8
:100510005815FF1F7414FF1F474444044C15FF1F58
:100520007506000010B5294C40F6B831204600F0A1
:1005300037FB204626494FF4E13200F00BFB204602
:10054000012100F0E1FA60B1606C224903681122D8
:100550005B68984720460A2100F0C4FA204600F064
:10056000F7FA0122002119481B4C00F0E1FB03219E
:10057000022000F003FD02221046184900F06AFC38
:1005800001210B2000F0FAFC00210B2000F0F0FC10
:100590000321042000F0F2FC2078012100F0EEFCA1
:1005A0000121207800F0E4FC4FF4F05000F020FE30
:1005B00040F6230000F03CFF0B21094802F0DAF876
:1005C0000348BDE8104002F043BB00BF5C15FF1FAD
:1005D000E40AFF1FDC4700002008FF1FB1040000F1
:1005E000F047000030B4154B154A1B6882B00193E8
:1005F00001991368CB1A012B1CD9124B1C68A0421D
:1006000017D0840007EE104A9FED0F6ADFED0F6AE6
:100610000F4C104D1860B8EEC77A0123C6EE077A6A
:100620002B7067EEA67A67EEA67AFDEEE77AC4ED48
:10063000007A116002B030BC704700BFA815FF1FE0
:100640004815FF1F0409FF1F0000704200007A4494
:100650007414FF1F4415FF1F38B5C0B20D46144671
:1006600000F046FEE8B200F043FEE0B2BDE83840DC
:1006700000F03EBE664B6748674AF0B54FF0000E8B
:10068000664DC3F800E02C78654E50F82440196898
:100690003368671E774585B052F8232040F3B08059
:1006A000C1EBC10303F1804C5E48ACF1020CA444E1
:1006B00000EB8303744600EB8C0C043B53F804EF0F
:1006C00063457444FAD102F1FF3CBCF1000F0EDD2A
:1006D0000A46062A1346C8BFD31FC3EBC3033B44D5
:1006E000013250F823E0531A63457444F1DB0B2CBC
:1006F00062DDA4F10C014C4B4C4F03EB0111684639
:1007000002F090FB69464A4802F07CFA484802F041
:100710009FFA684602F032FB464B1B681C44214698
:100720007F229020FFF798FF434B4448E4B21C70AF
:1007300002F016FAD7ED007A414BB8EEE77AD3ED26
:10074000006AFAEE047AE7EE267AF5EEC07AF1EE68
:1007500010FA06D99FED3B7AF4EEC77AF1EE10FA63
:1007600032DD2B782D490133DBB22B702B7813F05F
:100770000F0305D134483268007801323260E8B99D
:10078000324B32681B6826499A4204BF00230B6033
:100790002F4B2A781B6821499A4211D02D4A137891
:1007A00043B13B6800218B42117003DB2A4A591E7A
:1007B00091421AD905B0F0BD21469CE70B70DFE7E6
:1007C00000230B703360E9E7DFED246ABEEE007AA8
:1007D000A7EEA67AFCEEC77A17EE902A232AC0D994
:1007E0001F49164802F072F9BBE7C3EB03139A00E6
:1007F000013A232ADED91B491B4802F067F9D9E7E1
:1008000002F1FF3CBCF1000F7446D5DD05485FE7FF
:10081000FC13FF1FD807FF1F2808FF1F7014FF1FBE
:100820005415FF1F3808FF1F7814FF1F7414FF1F93
:10083000E40AFF1FFC08FF1F7114FF1F3C15FF1F78
:100840000009FF1F8988884C2408FF1F1808FF1F14
:100850001C08FF1F4415FF1F47444404000070425A
:100860006D080000750600004C15FF1F08B5054B0C
:10087000802019780022FFF7EFFE0348BDE808400A
:1008800002F06EB97114FF1F3C15FF1F70B50121F6
:100890008CB00B20184E00F06BFB00210B2000F0F9
:1008A00067FB33680193019D00246435336802932C
:1008B000029B9D420DD80821104801F05BFF1048B3
:1008C00002F0C6F901F0B6F8642000F05DFB0CB050
:1008D00070BD01F053F82228024602D0112CF1D04D
:1008E000E4E703A9074802F023FA9DF80C00FFF79C
:1008F00079FE1134F2E700BFA815FF1FFC47000086
:10090000E40AFF1FC40AFF1F08B5FFF7BFFF044A30
:100910001368013313606420BDE8084000F034BB65
:10092000F813FF1F2DE9F8434C4B4D4FDFF8A4811E
:100930004C4C4D4D00264FF080093A464146184632
:100940001E6083F8049002F025FF484B41463A466A
:10095000184683F804901E6002F01CFF444B9FED84
:10096000456A1B68DFED446A444A45499B0007EE2F
:10097000903AB8EEE77A2046C6EE077A67EEA67A96
:1009800067EEA67AFDEEE77AC2ED007A02F036FA5B
:1009900004F110003B4902F031FA04F120003A4919
:1009A00002F02CFA04F13000384902F027FA04F181
:1009B0004000374902F022FA04F15000354902F0B4
:1009C0001DFA04F16000344902F018FA04F17000D5
:1009D000324902F013FA04EB0900314902F00EFA31
:1009E00004F190002F4902F009FA04F1A0002E4909
:1009F00002F004FA04F1B0002C4902F0FFF93A4683
:100A000030462B4902F0C6FE28462A4902F0F6F984
:100A100005F11000284902F0F1F905F120002749FD
:100A200002F0ECF905F13000254902F0E7F905F193
:100A30004000244902F0E2F905F15000224902F099
:100A4000DDF905F16000214902F0D8F93A46304657
:100A50001F49BDE8F84302F09DBE00BF3C15FF1FD3
:100A6000D407FF1F7814FF1F0014FF1F4C15FF1F32
:100A70000409FF1F0000704200007A447414FF1F35
:100A8000084800000C48000010480000144800000E
:100A9000184800001C4800002048000024480000BE
:100AA000284800002C48000030480000344800006E
:100AB0009504000038480000404800004848000005
:100AC0005848000054480000604800006848000092
:100AD000790400006D04000001F0E6BD01F008BEDD
:100AE00001F01EBE074882B003680193019A1144C9
:100AF00001E0994204D303680093009B9A42F8D91D
:100B000002B07047A815FF1F10B4104A85B0A1B9F4
:100B1000136800934168009B591A31290DD8136856
:100B20000293029C04F13203591A01E0994204D362
:100B300013680193019B9C42F8D913680393039BAC
:100B40004360012005B05DF8044B7047A815FF1FF6
:100B5000704700BF2DE9F0410D4D0E4EDFF83C808F
:100B60000D4F41641B2401E000F00EFA2B78C820E1
:100B700043B133789B0705D0D8F800303A689B1A08
:100B8000182B03D8013CEFD1BDE8F081BDE8F0811E
:100B9000A017FF1FB817FF1F0C1AFF1FA815FF1F74
:100BA00000238364436071B1074882B003680193F6
:100BB000019A114401E0994204D303680093009B19
:100BC0009A42F8D902B07047A815FF1F70B5144CAF
:100BD00084B00546406C236803930368039A6A60F7
:100BE0000E465B680F4906229847314600230A22C9
:100BF000686C02F03DF8686C0B49036808225B687A
:100C0000984723680293029A02F1320101E0994267
:100C100004D323680193019B9A42F8D904B070BDB4
:100C2000A815FF1F8848000090480000F8B5037E13
:100C30000BB96320F8BD0446406C3B4E03681B694A
:100C4000B3420D466AD101F06BFD10F0FF0F01D1E8
:100C50006520F8BD354F606C03681B69B3425FD1F6
:100C600001F05EFD10F0FF0FF2D0606C03685B696D
:100C7000BB4257D101F018FDC3B2A3F158021E2A9E
:100C8000E9D801A151F822F0150D0000570C000021
:100C9000570C0000570C0000570C0000570C0000C8
:100CA000570C0000570C0000570C0000570C0000B8
:100CB000570C0000090D0000570C0000570C0000F5
:100CC000570C0000570C0000330C0000570C0000BC
:100CD000570C0000570C0000570C0000570C000088
:100CE000570C0000570C0000570C0000330C00009C
:100CF000570C0000570C0000570C0000570C000068
:100D0000050D00001846F8BD20462946FFF75EFF96
:100D10006320F8BD002323766320F8BD984794E74D
:100D200098479FE79847A7E7E10A0000D90A000023
:100D300070B5054682B01646C9B101230D4C037645
:100D400000212846FFF772FF632810D02368019323
:100D5000019A511C23680093009B9A42F0D8994253
:100D6000F8D200212846FFF761FF6328EED12E76E6
:100D700002B070BDA815FF1F034B00229A60DA6015
:100D80001A615A61704700BF5C15FF1F704700BFB2
:100D900010B4114B53F8302092F8804234B1012343
:100DA00079B182F880305DF8044B704703EBC003E3
:100DB0005B681A6851B922F002021A605DF8044BB0
:100DC000704782F800315DF8044B704742F003022F
:100DD0001A605DF8044B7047E44800001C4A02EBBF
:100DE000C00301295B6811D004291BD052F83000E0
:100DF000002280F8802229B1022920D0032922D0A4
:100E00001A6070474FF480721A60704752F83000D1
:100E10004FF4A27280F880121A601A6822F0200241
:100E20001A60704752F830104FF4A272012081F816
:100E300080021A601A6842F020021A60704740F27D
:100E400003121A6070474FF481721A60704700BF36
:100E5000E44800003F2817D8F8B5042A13D8DFE883
:100E600002F0494C4F1446002C4872B6236823F414
:100E7000702343F08072C4F384011643236040F86A
:100E80002150266062B6F8BD70474FF41026244BFF
:100E900003EBC0030D465C68216811F4E06134D0B7
:100EA000204B214A2149C3F82C2104F1404220481B
:100EB000C3F83411A2F592211E4FC3F830017C29EA
:100EC0001D48C3F83871C3F83C01CDD9A2F594236D
:100ED0007C2B18D9A2F596237C2B19D9A2F598233F
:100EE0007C2B17D9A2F59A227C2A15D9F8BD4FF48C
:100EF0003026CCE74FF40026C9E74FF44026C6E77A
:100F00004FF42026C3E70D48AFE7FFF767FFC7E7B9
:100F10000B48AAE70B48A8E70B48A6E70809FF1FFC
:100F2000E44800000002FF1FA907FF1F5107FF1F31
:100F30007D07FF1F2507FF1FF906FF1F8009FF1F01
:100F4000E009FF1F100AFF1F500AFF1F30B4054BB6
:100F5000054D064C002210211A602A60206019609D
:100F600030BC704714D0034004D0034000D003408D
:100F70003F2801D8FFF70CBF704700BF3F2801D8BA
:100F8000FFF72CBF704700BF2DE9F843054672B646
:100F9000204F214B214A1B683C68126862B65201FF
:100FA00002D5322B88BF013495B3C3F5EA331C4E0A
:100FB000DFF86490DFF86480BF334FF47A72A6FBE9
:100FC000031302FB04F404EB931472B6D9F8001077
:100FD0003A68D8F800E062B6C1F5EA33BF33A6FB41
:100FE00003031EF0806FC4EB93134FF47A7002D0AA
:100FF000322988BF013200FB0233B3F57A7F04D374
:10100000013D05D004F57A74DFE701F035FFDCE738
:10101000BDE8F883A815FF1F18E000E004ED00E02C
:1010200089888888F8B53E4B3E49DFF818C13E4EA6
:101030003E4ADFF814E13E4D3E4C3F4F4FF000601A
:1010400018604FF0805018604FF0005018604FF05B
:10105000804018604FF0004018600020086028238E
:101060004EF6FF71CCF80010CEF8003033600EF56C
:10107000012E13602B60236005F500253B6004F50D
:101080000024B36207F50027936206F5012602F5F6
:1010900001220EF1100E05F6E87504F6E87407F566
:1010A0007F67103220362B602360CEF800303B6023
:1010B00013603360214EBB61936109223260A7F552
:1010C000002706F58056203F083638603160BB6047
:1010D000F36047F8042C06F5FD2607F5FE2706F217
:1010E000FC76043730603960B360FB6046F8042C4E
:1010F0000836C7F8FC0F06F6FC76114831602B6005
:101100002360026001F01AFF3220FFF73DFF01F07B
:1011100021FA4FF4AF70BDE8F840FFF735BF00BFCC
:1011200004E100E004800340148003401C8003407D
:10113000248003402C80034034800340008003401F
:1011400000900B40088003400C8003402DE9F84FCD
:10115000214B1B6807460BB101221A70DFF88890FB
:101160001E4D99F80040DFF884801D4E01343F2C5D
:101170008ABF4FF0000A5FFA84FA5446AB462B78D8
:10118000A34216D101F090FF40281FDC33791B06E3
:10119000F5D59BF8003001333F2B86BF0022134664
:1011A000DAB218F80330DBB2F3712A702B78A3425D
:1011B000E8D00C490A4BFFB208F804700120BC22A9
:1011C000087089F800A0DA70BDE8F88FFF28D6DD36
:1011D00001F052FED3E700BF3C16FF1F3916FF1F78
:1011E00000A006403816FF1F4016FF1FB415FF1F52
:1011F0002E4A2F491368F0B543F4806313600A78D0
:101200002C4F2D4E2D4D2E4C2E490023152A3B7070
:1012100033702B7023700B7043D01B2A3CD04AB321
:10122000294B1B78052B2DD01A2B30D0012B1CD02D
:10123000264B274C2749C0F34436C0F347151E7090
:1012400000F01F005D7004224FF0020E88273C263C
:10125000402598729A704FF0004083F813E05A7559
:101260001F74DE7025700860F0BD1B4B4FF4517287
:101270001A60DDE7194B40F213321A60124B1B78EB
:10128000052BD1D1164B4FF451721A60D0E7154B94
:101290004FF451721A60CBE7134B40F213321A60CD
:1012A000BEE7124B40F213321A60B9E734800440B3
:1012B000F415FF1FB015FF1FB115FF1F4016FF1FCC
:1012C0003916FF1F3816FF1FBC0AFF1F00A006407B
:1012D0001FE400E000E100E044A0044040A004401E
:1012E0001CC00440389004403C90044018C00440A6
:1012F000034B1B685B0501D5FFF728BF704700BF94
:1013000034800440054A064B10781B78C0B2DBB22B
:10131000984238BF4030C01A704700BFB015FF1F59
:10132000B115FF1FF0B4384B1A7912F0300F2CD0E2
:1013300072B6997D01F0FF0200293DD062B6334FAD
:10134000334938780D78334E1C46C0B2EDB2431C99
:10135000402BE17928BF0023AB4202F1FF32C9B232
:101360001CBFF154184612F0FF02F0D12A4B1B6843
:10137000C2B23A704BB1A84236BFC5F14005401B1E
:1013800040192728C4BF01221A701F49CA78D2B257
:10139000150616D452060DD51B4B1B795B0609D5D5
:1013A0001E4B1F491B6800220A7003B11A70164BAE
:1013B0003C22DA70F0BC70474022D9795A7462B688
:1013C000E3E70B791C06E5D5164B174E1C783378EE
:1013D000E4B2DBB29C420ED0144D01E0A3420AD02D
:1013E0000133402B28BF00230879E85CC0B2C871E4
:1013F000087D0728F2D9DBB2034933700B79180650
:1014000044BF7C23CB70C5E700A00640B015FF1F8A
:10141000B115FF1FF815FF1FAC15FF1F3C16FF1F6E
:101420003816FF1F4016FF1F3916FF1FB415FF1F88
:10143000264A27491368F0B443F4006313600A781E
:10144000244F254E254D264C26490023092A3B7062
:1014500033702B7023700B7032D03B2A23D0224B79
:101460001B780A2B27D03A2B03D1204B4FF4517213
:101470001A601F4B1F4D204CC0F34437C0F3471672
:1014800000F01F001F7004215E70022298728827EE
:101490003C2640209970DA7459751F74DE702870EC
:1014A0002260F0BC7047154B40F213321A600E4BAD
:1014B0001B780A2BD7D1124B4FF451721A60D8E720
:1014C000104B40F213321A60C9E700BF3480044069
:1014D000BD0AFF1FB416FF1F4916FF1FBC16FF1FD2
:1014E000B516FF1F4816FF1FBE0AFF1F00D004409D
:1014F00000B0064021E400E004E100E004D0044034
:1015000010B004400CB00440194B19499B7803F00B
:10151000EC0200F003031343420700F00F0248BF40
:1015200043F01003042A8B701CD0114B104A5B79D6
:10153000C10603F0EF0348BF43F0100353719379E2
:10154000820603F0EF030A4A48BF43F01003937189
:10155000C30506D553781178DBB241F02001117034
:10156000537070478B7943F040038B71DDE700BF08
:1015700000B00640204B1B681B053BD510B51F4C27
:10158000237823B101F078FC2378002BFAD11C4892
:101590001C491D4B022400220460CA701B78092BD1
:1015A00019D03B2B01D1194B1A60194B1B7803F052
:1015B0007F030A2B19D03A2B02D1164B00221A6056
:1015C000154B164816491A68002303700B700AB1B0
:1015D0000123137010BD134B40F203121A600C4B21
:1015E0001B7803F07F030A2BE5D10F4B40F2031267
:1015F0001A60E5E7704700BF348004404816FF1FBB
:1016000084E100E000B00640BD0AFF1F04D00440A2
:10161000BE0AFF1F00D004404416FF1FB416FF1F70
:101620004916FF1F0CB0044010B004400A4A38B5F8
:101630000546137803F0FF04002BFAD10121284658
:10164000FFF79CFC21462846FFF792FC034A044B17
:1016500052F835201A6038BD4816FF1FE4480000D4
:10166000B816FF1F09B140F08000174A137898425E
:1016700017D010B4154C246824050FD503F07F0350
:101680000A2B1DD03A2B12D0002900F07F0114BF85
:10169000602344230A290ED03A2903D010705DF844
:1016A000044B70470A4943F440730B60F6E7084B5C
:1016B00000241C60E8E7074943F440730B60EDE742
:1016C000044B00241C60DFE7BE0AFF1F3480044087
:1016D00000D0044010B00440124B1A7882420CD063
:1016E00011490968090507D5092A16D03B2A0AD0ED
:1016F00009280DD03B2801D0187070470B4A40F2E2
:1017000013311160F8E7094A002109281160F1D16D
:10171000074A40F213311160EEE7054A00211160DB
:10172000E6E700BFBD0AFF1F3480044004D0044038
:101730000CB004400D4B1B6813F4006305D03F2828
:1017400005D90B4B00201860704718467047094BAD
:1017500010B5074C53F8303023600121FFF70EFC21
:10176000236800221A70012010BD00BF348004409D
:101770004416FF1FE44800000F4B1B6813F400637E
:1017800008D0172808D03C2811D00C4A537B03F00E
:10179000FE03537300207047094B40F202321A6077
:1017A000064A537B43F00103537301207047054BF6
:1017B00040F202321A60F3E73480044000B0064081
:1017C00008B0044008D004402DE9F84F234B1B68B3
:1017D0001A053BD5224B1B680BB101221A70DFF8AA
:1017E0009090204D99F80040DFF888801E4E01341B
:1017F000272C8ABF4FF0000A5FFA84FA5446074646
:10180000AB462B789C4216D101F04EFC40281FDCE1
:1018100033791B06F5D59BF800300133272B86BFA3
:1018200000221346DAB218F80330DBB2F3712A70E3
:101830002B789C42E8D00D490B4BFFB20120BC2213
:1018400008F80470087089F800A0DA70BDE8F88F15
:10185000FF28D6DD01F010FBD3E700BF3480044041
:10186000B816FF1FB516FF1F00B006404816FF1F31
:10187000BC16FF1F4C16FF1F2DE9F84F294B1B68A4
:101880001A0548D5284B1B6805460BB101221A7072
:1018900005EB010A554540D2DFF89C80234CDFF868
:1018A0009C90234F0AE015F8012B09F80B20214AE0
:1018B0000123AA45137088F800602ED098F80030F4
:1018C000227803F1010BBBF1270F86BF0026B34638
:1018D0005FFA8BF69345E6D1BC22FA7005E03A79BF
:1018E00013060BD422789345DDD101F0DDFB4028AF
:1018F000F5DDFF28F6DD01F0BFFAF3E722780132CB
:10190000272A86BF00210A46D1B219F80220D2B296
:10191000FA712170E6E7BDE8F88F054BBC22DA705A
:10192000BDE8F88F34800440B816FF1FB516FF1FBE
:1019300000B006404816FF1FBC16FF1F4C16FF1FC5
:1019400010B5044C237823B101F096FA2378002BCC
:10195000FAD110BD4816FF1F064A074B1B781078B6
:10196000DBB2C0B283422CBF273000F1FF30C01A77
:10197000704700BFB516FF1FBC16FF1F054A064B78
:1019800010781B78C0B2DBB2984238BF4030C01A22
:10199000704700BFB416FF1F4916FF1F30B4154B28
:1019A000154C1A782378D2B2DBB29A421ED001339A
:1019B0003F2B0ED91149124B087819680023C0B289
:1019C000237021B1D31A1A2B01DC00230B7030BC19
:1019D00070470A480A49C05C0968DDB2C0B2257088
:1019E0000029F4D09A4238BF4032EBE74FF0FF3085
:1019F000EDE700BFB416FF1F4916FF1F7416FF1F47
:101A00004416FF1F084A094B12781B78DBB29A4232
:101A100007D00133402B28BF0023054AD05CC0B259
:101A200070474FF0FF307047B416FF1F4916FF1F75
:101A30007416FF1F0D4B1B681B0516D530B40C4BDD
:101A40000C4CDA780C480D4902F0CB024025DA70D4
:101A50005D74DA7842F03402DA7023780268DBB21F
:101A60000B700AB10023137030BC704734800440FF
:101A700000B006404916FF1F4416FF1FB416FF1F93
:101A8000F0B4384B1A7912F0300F2CD072B6997D21
:101A900001F0FF0200293DD062B6334F3349387858
:101AA0000D78334E1C46C0B2EDB2431C402BE17999
:101AB00028BF0023AB4202F1FF32C9B21CBFF15470
:101AC000184612F0FF02F0D12A4B1B68C2B23A70DE
:101AD0004BB1A84236BFC5F14005401B401927282D
:101AE000C4BF01221A701F49CA78D2B2150616D493
:101AF00052060DD51B4B1B795B0609D51E4B1F49A2
:101B00001B6800220A7003B11A70164B3C22DA706F
:101B1000F0BC70474022D9795A7462B6E3E70B797A
:101B20001C06E5D5164B174E1C783378E4B2DBB2B1
:101B30009C420ED0144D01E0A3420AD00133282B61
:101B400028BF00230879E85CC0B2C871087D072867
:101B5000F2D9DBB2034933700B79180644BF7C23FA
:101B6000CB70C5E700B00640B416FF1F4916FF1F33
:101B70007416FF1F4416FF1FB816FF1F4816FF1FDD
:101B8000BC16FF1FB516FF1F4C16FF1F431E032B6D
:101B900014D872B60A4951F8230068B170B4094CE0
:101BA000058834F81320466841F82360521B24F856
:101BB000132062B670BC704762B670470020704751
:101BC0001817FF1FFC19FF1F013803280BD872B626
:101BD000074B53F8203043B100205B680130002BE5
:101BE000FBD162B67047002070471846F9E700BF86
:101BF0006C17FF1FF0B472B61A491B4E012311F87F
:101C0000014B194F9A00240742F0010505D556F8FB
:101C1000324064B156F83520BAB10133052BEED10C
:101C200062B6124B00221A70F0BC00F017BD0F4CC8
:101C30000F4D217847F8325007EB431308304A1E06
:101C40005860227062B6F0BC70470849094B0A78A8
:101C500047F8353007EBC5030830013A58600A7081
:101C600062B6F0E7704B00000000FF1F9517FF1FE2
:101C700088004000C8004000431E032B1DD81B4AAB
:101C8000400140F0100030B4104472B6184CE25CD1
:101C9000032A1BD8DFE802F00212151703220D8871
:101CA000E25410F0080F14BFC823882343EA054309
:101CB00008310360416062B630BC704708300222D0
:101CC000EDE70522EBE708300422E8E7094A52F87D
:101CD000230038B1084A52F82300416042F823102B
:101CE00062B6E9E742F82310034AF7E70000FF1F56
:101CF000A417FF1F6C17FF1F7C17FF1F2DE9F04F64
:101D0000DFF804A3DFF804B387B044E0A94F4FEA3B
:101D1000930807EBC809013ED9F8042003F0080333
:101D2000F6B2A2F1080003F0FF04002B40F0FE80A1
:101D300057F838301B0C99B222F8081C002B00F021
:101D4000EC809D4B22F8064C42F8044C53F82620B8
:101D5000002A00F02B82994D55F826305860984C97
:101D600045F8260034F81630194424F8161000F00F
:101D700055FC002800F01382924A934B19F0080F8B
:101D800000F1080018BF1346C9F8040047F83830BE
:101D900008238AF800309AF80040E4B260071AD5A8
:101DA0008A4B1B78A3B18A490A7802F0FF0322B15B
:101DB000013BDBB20B7003B900BE86490A7802F022
:101DC000FF032AB1013BDBB20B70002B00F0BD8199
:101DD00004238AF8003004F0080303F0FF02002B0C
:101DE00000F0C8809BF80030DBB21E098ED19C0841
:101DF000704F57F8342007EBC401C2F38302013A55
:101E000049680C2A00F28580DFE802F07979838343
:101E10008383838342838383070008686E4B6F4DFF
:101E20000193684B4A686E4E47F8343081B240F2F5
:101E30008164694B6A60286000220120A1421A6017
:101E40003A61BA61307000F2E380B1F5D06F80F092
:101E50002782B1F5817F00F0E08100F2C381802903
:101E600000F03682822940F0DE81A9885D4B01F0C6
:101E70007F01042900F2D8815B4C89000B44227059
:101E800062701A78930740F122832070022023E2C7
:101E9000514B01931A683AB3544B514E5449188828
:101EA00034780D784028864645F0020828BF4FF068
:101EB000400E002C84F001043470CEEB00000CBF07
:101EC0008824C82407EBC80680B285F0010544EADF
:101ED0000E447260188047F8384072440D70002834
:101EE00000F0B780019B1A603C4B1A88B2F5A06FD6
:101EF0000FD100219A7859703E4B1A7009E0374A89
:101F0000108842F22102904200F0A8802D4A47F842
:101F10003420394A012313703AE72A4A2A4B19F030
:101F2000080F18BF134647F8383031E700F096FB2A
:101F3000324A334952F82630002B00F03B81586872
:101F40008C5D42F8260003F10802C9F80420032C36
:101F500005D8DFE804F02C02292602228A551A88C7
:101F600019F0080F0CBF8823C82343EA024347F83F
:101F700038300DE7E00700F1EB80210600F1288101
:101F8000A20706D51F4A204913780220DBB213703E
:101F90000870E30602D51C4B10221A7007B0BDE88A
:101FA000F08F04228A55DAE705228A55D7E7032203
:101FB0008A55D4E70000FF1F1817FF1FC416FF1F24
:101FC000FC19FF1FC800400088004000A017FF1F39
:101FD0002917FF1FA817FF1FC016FF1F8C17FF1F11
:101FE0002817FF1FC02007409817FF1FD416FF1F98
:101FF0009417FF1F98200740942007406C17FF1F7D
:10200000A417FF1F8820074080200740902007402A
:1020100042F22104A14200F0948043D8B1F5086F48
:1020200000F0A881B1F5106F40F0FD80B84AB94CBE
:10203000A978117004F1800503E00834AC4200F087
:102040009E81236A1906F8D5606A083800F006FBFD
:10205000F3E7BEF1400F18BF002243E7AE4ACD1DA3
:1020600011F8013B02F8013FA942F9D1AB4A1268CD
:10207000862A00F01181AA49AA4E0A78307882F0A7
:102080000105002842F002020D700CBF8821C82112
:1020900047F8321007EBC20280F0010000213070D7
:1020A000516033E742F22124A14240F0FE81DFF883
:1020B000BCC29D4B9D49AC78DCF800501D60814648
:1020C0000C700020029080468446044694490D78A6
:1020D00045F0020E07EBCE03B9F1000F5C600CBFB8
:1020E0008824C82444EA080385F0010447F83E30F8
:1020F00032700C70DFF81CE28A4BDFF82482002873
:1021000040F09880BCF1400F1BD144F0020407EB73
:10211000C403029FDFF8FCE15F60002A40F09F806B
:10212000020442F0880207444EF8342086F80090FA
:102130000D703B46402804D100207D4A0199108053
:102140000B607C4A01231370E3E600F0F3FB3FE6EB
:10215000704B784872491A614FF0020E80F800E027
:10216000754F0A70754919609960754E754D764CBA
:102170009A610D213970FF213170DFF8F4E1297087
:102180002270724D724A8EF800109F27012406F8C3
:10219000047C5D600470DA6007B0BDE8F08F6D4AC2
:1021A00047F83800137801331370F1E543F826003F
:1021B000694DD4E58B5D032B67D801A252F823F05B
:1021C000911D0000911D0000152200000F2200004B
:1021D00059495C4B80220D2008701A70A2077FF5C8
:1021E000D8AECFE640F20232914240F05681A98843
:1021F00001F07F01042916D86A88A2B94E4C8900E3
:102200000C448146217841F00201217059E70123F5
:102210008B55BDE500238B55BAE5A98801F07F01F8
:10222000042940F24781444B0F221A70414A01238E
:1022300013706EE640287FF668AF44F002040EEBA0
:10224000C401029E4E60AAB1444A83F8009033460E
:10225000403888F8005040334EF834206DE70204CF
:10226000029B86F8009042F0C8020D7003444EF8BD
:1022700034205FE783F80090029B304A88F80050D2
:10228000403840334EF8342057E719F0080F0CBFA0
:10229000022303238B557BE5314A0F211170EAE6B7
:1022A000304A5468002CBED06888B5F804E003E0DA
:1022B0000C325468002CB6D013888342F8D153886E
:1022C0007345F5D1000A03280CBF2078108903E07C
:1022D000254C022022706270EA88824280F00C81D4
:1022E0000F490D78402A45F0020E944607EBCE00C8
:1022F00028BF4FF0400C04EB0C0344600293CCEB7E
:1023000002004FEA0C484FF001090022C824E9E618
:10231000A017FF1F0000FF1F031AFF1F041AFF1F53
:102320009417FF1F2817FF1F0C1AFF1FB817FF1F56
:10233000D416FF1F94200740C020074088004000AB
:10234000882007408020074098200740D816FF1FAC
:102350002C17FF1F9517FF1FC416FF1FC800400052
:102360002917FF1F744B00009817FF1FA815FF1FA8
:102370008C200740684A694C12782270ACE76849A3
:10238000684B694A02916949694C6A4D0394059604
:102390004FF0000988461C4616460495206828B16F
:1023A000456800F05BF92846002DF9D10023236031
:1023B000049B30681A46002342F8293028B145684A
:1023C00000F04CF92846002DF9D100223260029A23
:1023D00098F800301146002241F8042B039A02912C
:1023E000023B4FF0000122F81910032B07D8DFE859
:1023F00003F0340234024FF0010388F8003009F191
:102400000109B9F1040F04F1040406F1040608F10E
:102410000108C3D1484B059EDFF83091DFF83081C9
:1024200000211970012518F8013B09F8043B1A072F
:1024300018D4AC0044F0020244F00304002347F82F
:10244000323047F834303D4B994505F10105EAD16A
:1024500096F8009089F0010233E64FF0000388F807
:102460000030CCE700F0DAF8AC0007EB451300F1E0
:102470000802002837D05A60314B47F8343000F05A
:10248000CDF844F0010307EBC30200F1080100B3EB
:1024900051602C4A47F83320CCE7B1F5A06F7FF4A8
:1024A000C2AE00224FF001090BE642F22132914206
:1024B000F7D0B8E66A88002A7FF4B5AE224C8900CE
:1024C0000C448146217821F002012170F9E50220B7
:1024D00002E7194B44F001021B7847F83200164A14
:1024E00001331370A6E7144B134A1B78AC00013379
:1024F00047F834001370C2E74028844628BF4FF0E5
:10250000400C04EB0C03CCEB00004FEA0C480293A8
:1025100000224FF00109D9E5A017FF1F9817FF1FF0
:102520007C17FF1F1817FF1F6C17FF1FA417FF1F33
:10253000FC19FF1FC416FF1F9517FF1FD42007406B
:1025400088004000C8004000C0200740C420074069
:10255000704B00002DE9F843244C00F0D9FF002215
:1025600004F1880023461A605A60083383424FF012
:102570000001F8D11E481F4A0368DFF890E01E4FA3
:102580001E4D1F4EDFF88880DFF888C0DFF8889086
:1025900043F48023036013681A4843F040731360C8
:1025A000C4F307238EF80030C4F307433B70240EB6
:1025B000FF2302F5C9222C7002F5847288F80030DE
:1025C000114D8CF800303370012389F800307026EB
:1025D0008EF864104FF40014102107F82C3C2E7074
:1025E000046011700EF1640EBDE8F8830000FF1F57
:1025F0003480044000D80040B0200740B420074099
:102600001020074004E100E035E400E09C20074092
:1026100080200740882007409420074072B60D486C
:102620000268B2FA82F30B2B10DC4FF00041D94064
:1026300022EA0102026062B6074803EBC303DB0033
:10264000C2180021C15010465160704762B6002088
:10265000704700BFC00AFF1F9803FF1F0D4B0E4AB3
:10266000C31AA2FB03231B090B2B0CD80B4A1278AD
:1026700052B972B60A484FF00041026821FA03F3DA
:102680001A43026062B67047064A1278002AF0D0F8
:10269000FFF7B0BA9803FF1F398EE3389517FF1F75
:1026A000C00AFF1FA017FF1F38B50F4D286878B16B
:1026B00043880288C118013393420C7A02D24380C6
:1026C000204638BDFFF7CAFF002320462B6038BDE7
:1026D000064B1B782BB10320FFF758FA286000281F
:1026E000E6D14FF0FF3038BDB417FF1FA017FF1F12
:1026F00010B5094C206818B143881844007A10BD01
:10270000064B1B782BB10320FFF740FA206000280E
:10271000F2D14FF0FF3010BDB417FF1FA017FF1FFD
:10272000044B054A1B6890881BB11A885B88D31A32
:1027300018447047B417FF1FFC19FF1F0B4B1B7881
:102740009BB110B50A4C206848B1FFF787FF002302
:1027500003202360FFF71AFA30B1FFF77FFF032051
:10276000FFF714FA0028F8D110BD7047A017FF1F1B
:10277000B417FF1F2DE9F04FDFF8F89083B0012266
:1027800089F80020019169B3DFF8EC80364F019E93
:102790008346D8F80000B0B3344D4488C4F14001FA
:1027A000B14228BF314604EB010E00221FFA8EFE13
:1027B0002A70761AA0F802E000F1080251B1013C3B
:1027C000224459441BF8014B02F8014F8B45F9D1C3
:1027D000B0F802E0BEF13F0F0BD8254A0521117079
:1027E000002ED6D10198002389F8003003B0BDE84F
:1027F000F08F4022028001460420FFF73DFA0022BC
:10280000C8F80020E9E73A782AB3184D4DF2E904F8
:102810004FF0010A07E0013C16D02A78A2B900F077
:102820002BFB3A78BAB10420FFF7CEF90728F2D88B
:1028300089F800A0FFF7F2FEC8F800000028ACD12C
:102840000C4B013C1870E8D101234FF0FF302B7086
:1028500003B0BDE8F08F00234FF0FF3089F800305F
:1028600003B0BDE8F08F00BFA017FF1FB017FF1F18
:10287000A817FF1FA917FF1FAC17FF1F00B583B0D4
:1028800002AB012103F8010D1846FFF773FF03B0F7
:102890005DF804FB38B50E4D0E4C286801232370FB
:1028A00028B1408800232370C0F1400038BD0A4B96
:1028B0001B7813B90020207038BD0420FFF784F97D
:1028C0000728F7D8FFF7AAFE28600028E9D1F1E72A
:1028D000AC17FF1FA917FF1FA017FF1FF8B5114B5B
:1028E0001B788BB1104E114D346801272F7064B1E5
:1028F0000F4A638800271770214623800420FFF7C2
:10290000BBF9376000232B70F8BDFFF787FE084B3B
:1029100028B1014604201C70FFF7AEF9F2E71F70E2
:10292000F0E700BFA017FF1FAC17FF1FA917FF1F7D
:10293000A817FF1F38B50E4B1B7873B90D4C2168D3
:1029400061B103F0FF054B880B800420FFF794F979
:10295000256038BD084B01221A7038BDFFF75EFEB6
:102960000028F7D00146BDE838400420FFF784B9BD
:10297000A917FF1FAC17FF1FA817FF1F08B50846B0
:10298000FEF722FF012008BD08B50846FEF71CFF30
:10299000012008BD38B508460D4601F0D1FC0446BB
:1029A00001462846FEF768FF204638BD10B50846A8
:1029B00014461146FEF760FF204610BDFFF73AB8F7
:1029C00008B50846FEF7D8FE003018BF012008BD44
:1029D00008B50846FEF7AEFE003018BF012008BD5E
:1029E00008461146FEF73EBE0846FEF775BE00BF1C
:1029F0000846FEF71BBE00BFFEF7BCBD034B03EB52
:102A00005100B0FBF1F0FEF713BD00BF001C4E0EED
:102A100010B5064B144603EB5100B0FBF1F0FEF786
:102A200007FD2046BDE81040FEF76EBD001C4E0EAF
:102A3000FEF7E8BFFEF7B2BFFEF7A0BFFEF780BF0C
:102A4000FEF78ABF0368064A1B68934205D110B59A
:102A5000C8B2FEF7B9FE012010BDC9B2184700BFC9
:102A6000892900000368064A1B68934205D110B506
:102A7000C8B2FEF7A9FE012010BDC9B2184700BFB9
:102A8000892900000368064A1B68934205D110B5E6
:102A9000C8B2FEF799FE012010BDC9B2184700BFA9
:102AA000892900000368064A1B68934205D110B5C6
:102AB000C8B2FEF789FE012010BDC9B2184700BF99
:102AC00089290000704700BF704700BF0368F0B459
:102AD000FBB1002501249D60DC601B4C1A601C4486
:102AE000241104F130056A11032692009E60174FED
:102AF0000679174B47F8241002F1604202F5614253
:102B000005F01F05012000FA05F5E6541560F0BC3C
:102B10007047104C236843F40003236000BF0E4B42
:102B20000E4DA4F58734A4F59E7401261E6023463D
:102B300004609C68002CD0D01033AB420360F8D105
:102B4000002303601846E2E7008FFCBFD40AFF1F92
:102B500030E400E03C8004400070034040710340DA
:102B60000168A9B10B4BF0B40B441B110A4E0B4F7B
:102B70000B4D46F8237003F1300202F01F040123CD
:102B80005211A340002445F822308C600460F0BC50
:102B9000704700BF008FFCBFD40AFF1FC92A000086
:102BA00080E100E0024A034B012111601B681847D5
:102BB0000C710340D40AFF1F024A034B012111602C
:102BC0005B6818471C710340D40AFF1F024A034B7D
:102BD000012111609B6818472C710340D40AFF1F24
:102BE000024A034B01211160DB6818473C71034026
:102BF000D40AFF1F08B5FDF795FCFDF785FE00F030
:102C00003BF9FAE72DE9F0438C688BB0ECB1002575
:102C1000064689462F462B46212201A9484600F048
:102C200011F93268202C234628BF2023D2F80480D3
:102C300001A91A4630461D44E41AC0470744002C37
:102C4000E9D138460BB0BDE8F0832746F9E700BF6D
:102C500000B5064A036812885B6883B001A9ADF825
:102C600004200222984703B05DF804FB444B0000A7
:102C7000F0B507468BB0002A33D0012A08BF0A22DC
:102C800051B3212400E0F4B2B1FBF2F502FB1511BF
:102C9000C8B2092900F1300198BFC8B20AA988BF9B
:102CA0003730214488BFC0B201F8240C661E294683
:102CB000002DE8D133B1013CE4B20AAB23442D220C
:102CC00003F8242C3B6801AA11195B683846C4F14B
:102CD000220298470BB0F0BD30228DF82520212428
:102CE000E8E70368C9B21B6898470BB0F0BD00BFA6
:102CF00070B50E4D82B02B680093009E044608E02C
:102D000000F0BAF82B680193019BA2689B1B9342C9
:102D100007D2236820465B6998470028F0DB02B0A1
:102D200070BD4FF0FF3002B070BD00BFA815FF1F8F
:102D3000F8B5164682B107460D46002404E001347A
:102D4000A64205F8010B07D03846FFF7D1FF00284F
:102D5000F5DA012326463B733046F8BDFFF7EEBC9B
:102D6000FFF7BCBDFFF796BD08461146FFF702BD51
:102D70000846FFF783BD00BF704700BF10B504468B
:102D8000006800F049FD204610BD00BF38B543681B
:102D90008B4201D3012038BD0D4604460131006845
:102DA00001F062F80028F6D0A36884E82100002B27
:102DB000F0D10370EEE700BFF8B50446154632B90E
:102DC000036803B11A700023A3602046F8BD0E46C5
:102DD0001146FFF7DBFF074648B9206810B100F045
:102DE0001BFD276000236360A3602046F8BDA5603B
:102DF0003146206801F042FAE7E700BF38B500230A
:102E00000446036043608360037341B108460D4686
:102E100001F096FA294602462046FFF7CDFF2046EC
:102E200038BD00BF0023884210B5044603604360EC
:102E30008360037303D08A680968FFF7BDFF2046EB
:102E400010BD00BFB2B1A9B138B584689C420ED99B
:102E5000E41A013A0D469442016828BF1446194409
:102E60002246284601F0DAFA00232B5538BD00230C
:102E70000B7038BD704700BF38B52C4C237803B1B8
:102E800038BD01232370FFF74BFC002842D1FEF729
:102E900039FA00283BD1FEF771FD002834D100F04B
:102EA00047F970BB00F0C0F940BB00F039FA10BB25
:102EB00000F0B2FAE0B900232370EFF30583002B92
:102EC000DED1EFF3108172B6194B186828B3194C94
:102ED000227812BB45691D60012323700DB3AA61DE
:102EE00001B962B600254577836898472570C7E722
:102EF00000F04EFCDFE700F049FCD9E700F044FCAD
:102F0000D3E700F03FFCCDE7FFF7DCFDC7E700F0BB
:102F100037FCC0E7FFF730FFB9E70029B0D162B650
:102F200038BD054B1D600029DCD1DAE7B917FF1F5A
:102F3000BC19FF1FC019FF1FB819FF1F30B4294863
:102F4000294A2A4B2A4D6024E121047011701B7814
:102F5000284C082B30D00A2B2748284937D00C2B77
:102F60000CBF35225D2212232A60236002600B60B1
:102F7000234B24491B78244ABBB101230B60136007
:102F8000224B23491B78234A012B26D9042B0FD926
:102F9000082B1ED9102B94BF862387230B60136048
:102FA0001D4B01221A7030BC70470B601360E7E7BD
:102FB00084230B601360F3E700F58E200F4908307F
:102FC000212213232A60236002600B60D0E739229C
:102FD000F7E785230B601360E2E780230B60136043
:102FE000DEE700BF0040074001400740F40AFF1F32
:102FF00008B003400CB0034008B00B400CB00B40CD
:10300000BB17FF1F20B0034020B00B40F50AFF1F85
:1030100024B0034024B00B40BA17FF1F08B5104C72
:1030200008E0236859050DD423681A050FD42368D6
:10303000DB0411D423685803F3D5FEF75FFE236841
:103040005905F1D5FEF76EF923681A05EFD5FEF79D
:1030500017FD2368DB04EDD500F07AF8EAE700BF3E
:103060003480044008B5FFF7D9FF00BF014B1022A0
:103070001A80704700200540704700BF094908B515
:103080000B6830B16A461844A2F50052904202D251
:103090000860184608BD00F089FB0C2303604FF060
:1030A000FF3008BDF80AFF1FEFF3138070B9EFF38C
:1030B00010836BB9EFF305825AB94FF48070EFF3C8
:1030C00011832BB1984228BF184670474FF0FF304C
:1030D00070470F2A01D81846F1E7014BD05CEEE7A4
:1030E000F0E300E0F0B44D1E2E46002400E0013471
:1030F000B0FBF2F302FB1300092800F130078ABF8E
:103100003730F8B2C0B206F8010F1846002BEED1E6
:103110000A1953704CB1107815F8016F28700133FB
:10312000E01A834202F80169F5DB0846F0BC7047FB
:10313000054A064B10781B78C0B2DBB2984238BF04
:103140004030C01A704700BFC017FF1FC117FF1FD4
:1031500030B42B4B1A7994061FD52A48DA790378B4
:10316000294901333F2B0978C8BF00238B42D2B2D3
:1031700003D0264CD9B2E2540170254A116861B1DE
:10318000244A1278D2B2934236BFC2F140029B1A4F
:103190009B18272BC4BF01230B70194AD378DBB2CD
:1031A000180611D45A060DD5154B1B795B0609D5A7
:1031B000194B1A491B6800220A7003B11A70104B90
:1031C0002C22DA7030BC704711790906EAD514490F
:1031D00010480C780178C9B28C420DD04A1C272ABD
:1031E00084BF00210A460F4D054C98BFD1B2AA5C9E
:1031F000D2B2E2710170D5E76C21D170D2E700BF85
:1032000000C00640C017FF1FC117FF1FEC17FF1FAC
:10321000BC17FF1F2D18FF1F3018FF1F2C18FF1F92
:103220003418FF1FC417FF1F054A064B10781B7880
:10323000C0B2DBB2984238BF4030C01A704700BFFE
:103240003C18FF1F3D18FF1F30B42B4B1A79940612
:103250001FD52A48DA790378294901333F2B0978A9
:10326000C8BF00238B42D2B203D0264CD9B2E2545D
:103270000170254A116861B1244A1278D2B2934292
:1032800036BFC2F140029B1A9B18272BC4BF0123F3
:103290000B70194AD378DBB2180611D45A060DD533
:1032A000154B1B795B0609D5194B1A491B6800227F
:1032B0000A7003B11A70104B2C22DA7030BC7047C0
:1032C00011790906EAD5144910480C780178C9B279
:1032D0008C420DD04A1C272A84BF00210A460F4D7C
:1032E000054C98BFD1B2AA5CD2B2E2710170D5E7A9
:1032F0006C21D170D2E700BF00D006403C18FF1F00
:103300003D18FF1F6818FF1F3818FF1FA918FF1F5F
:10331000AC18FF1FA818FF1FB018FF1F4018FF1F91
:10332000054A064B10781B78C0B2DBB2984238BF12
:103330004030C01A704700BFB818FF1FB918FF1FF0
:1033400030B42B4B1A7994061FD52A48DA790378C2
:10335000294901333F2B0978C8BF00238B42D2B2E1
:1033600003D0264CD9B2E2540170254A116861B1EC
:10337000244A1278D2B2934236BFC2F140029B1A5D
:103380009B18272BC4BF01230B70194AD378DBB2DB
:10339000180611D45A060DD5154B1B795B0609D5B5
:1033A000194B1A491B6800220A7003B11A70104B9E
:1033B0002C22DA7030BC704711790906EAD514491D
:1033C00010480C780178C9B28C420DD04A1C272ACB
:1033D00084BF00210A460F4D054C98BFD1B2AA5CAC
:1033E000D2B2E2710170D5E76C21D170D2E700BF93
:1033F00000A00E40B818FF1FB918FF1FE418FF1FE8
:10340000B418FF1F2519FF1F2819FF1F2419FF1FBC
:103410002C19FF1FBC18FF1F054A064B10781B789C
:10342000C0B2DBB2984238BF4030C01A704700BF0C
:103430003419FF1F3519FF1F30B42B4B1A7994062E
:103440001FD52A48DA790378294901333F2B0978B7
:10345000C8BF00238B42D2B203D0264CD9B2E2546B
:103460000170254A116861B1244A1278D2B29342A0
:1034700036BFC2F140029B1A9B18272BC4BF012301
:103480000B70194AD378DBB2180611D45A060DD541
:10349000154B1B795B0609D5194B1A491B6800228D
:1034A0000A7003B11A70104B2C22DA7030BC7047CE
:1034B00011790906EAD5144910480C780178C9B287
:1034C0008C420DD04A1C272A84BF00210A460F4D8A
:1034D000054C98BFD1B2AA5CD2B2E2710170D5E7B7
:1034E0006C21D170D2E700BF00B00E403419FF1F2D
:1034F0003519FF1F6019FF1F3019FF1FA119FF1F8A
:10350000A419FF1FA019FF1FA819FF1F3819FF1FBB
:1035100072B6184A184B19491160702280211A702E
:103520001A46197013781B06FCD510B5144B84B0DD
:10353000186862B6134B144C984298BF00EB800099
:1035400001A998BF40000A22FFF7CCFD01A920463F
:10355000002311F8012B01333AB10A2B20F8022F76
:10356000F7D11623237004B010BD5B00DBB22370CB
:1035700004B010BD040002400000024000000741FA
:103580000C0002407F969800880BFF1F10B4EFF3E9
:10359000108272B6437F33B9017F012908D0032915
:1035A00010D00123437702B962B65DF8044B70472F
:1035B000114C2168A1B1114943610B688361086016
:1035C0005861EEE70E4C216881B10E4943610B68EA
:1035D0008361086058610C4B4FF080511960E0E73F
:1035E000064B4161816120601860DAE7054B41615B
:1035F000816120601860EEE7BC19FF1FB819FF1F3A
:10360000AC19FF1FB019FF1F04ED00E010B4047FD8
:103610004160022CC26003D05DF8044BFFF7B6BFD7
:1036200083685DF8044B184770B5EFF3108272B6EB
:103630000C4C206880B10C4E00254369236073B1A7
:103640009D6102B962B6457783689847EFF31082AF
:1036500072B620680028F0D102B962B670BD33603E
:10366000EFE700BFAC19FF1FB019FF1FFFF7DCBF6A
:10367000184A30B41468002C27D0036821688B42A4
:103680000ED2CB1A00218460C1602360E06010601C
:103690000223037530BC704711688B42144608D36F
:1036A000A2685B1A0360002AF6D18260C460A06041
:1036B000EEE7D268C2608460E060C568CB1A02227F
:1036C000A8602360027530BC70478460C4601060DD
:1036D000DEE700BFB419FF1FF8B5224E34682CB3E3
:1036E0002368002B3AD1204F1D4604E03468ECB12A
:1036F0002368002B32D1A36803B1DD6020693360F9
:10370000036825751B68BB4221D1037F4560022BEE
:10371000C46020D0FFF73AFF6368002BE6D0236037
:103720002046FFF7A5FF3468002CE1D1EFF31083AA
:1037300072B60E4A00211068116003B962B628B152
:103740008468FFF795FF20460028F9D1F8BD22468E
:1037500000219847E0E783689847DDE7013B236055
:10376000E4E700BFB419FF1F0D360000C419FF1FA6
:10377000024A136801331360FFF7AEBFA815FF1F9D
:10378000704700BF704700BF704700BF704700BF61
:10379000704700BF0B460146184600F001B800BF55
:1037A00013460A460146022000F06CBE014B186821
:1037B000704700BFC80FFF1F70B50F4E0F4D761B2F
:1037C000B61018BF002405D0013455F8043B9847C3
:1037D000A642F9D10A4E0B4D761B01F0F7F9B6104F
:1037E00018BF002406D0013455F8043B9847A64280
:1037F000F9D170BD70BD00BFD84B0000D84B0000A0
:10380000E84B0000D84B0000024B0146186800F05E
:103810000BB800BFC80FFF1F024B0146186800F02D
:10382000F5BE00BFC80FFF1F2DE9F04F01F10B05DA
:10383000162D83B0064640F29F8035F0070500F153
:10384000BF80A94200F2BC8000F00AFBB5F5FC7F06
:10385000C0F09C826B0A00F0BA80042B00F28381D6
:10386000A80900F1390E4FEA4E033830C44F07EB78
:103870008303A3F108015C68A14207D1ACE0002AF0
:1038800080F2AC80E468A14200F0A680636823F077
:1038900003035A1B0F2AF2DDB9493C6901F1080EF6
:1038A000744500F0B381636823F003035A1B0F2AA9
:1038B00000F39981002AC1F814E0C1F810E080F209
:1038C0009E80B3F5007F80F06781DB0803F1010C77
:1038D00001229B1002FA03F34A6851F83C80C4F8B5
:1038E000088001EBCC091A43A9F10803E3604A60A0
:1038F00041F83C40C8F80C40831001249C4094429D
:1039000000F28A80144206D120F0030064001442C1
:1039100000F10400FAD007EBC009CC468046DCF881
:103920000C108C4507D173E1002A80F28181C968AF
:103930008C4500F06D814B6823F003035A1B0F2A5E
:10394000F2DD0C46D1F80CC054F8088F4B1945F045
:1039500001054D6042F00101C8F80CC03046CCF8BA
:1039600008807B613B61C3F80CE0C3F808E0596054
:103970009A5000F077FA1FE0102921D800F070FA71
:103980001025062302207E4F07EB8303A3F10802D4
:103990005C68944200F045816368E168A56823F0A3
:1039A0000303234430465A68E96042F001028D6007
:1039B0005A6000F057FA0834204603B0BDE8F08F93
:1039C00000240C232046336003B0BDE8F08F802331
:1039D0004FF0400E3F2049E770465DE72344E16821
:1039E0005A68A56842F00102E96030468D605A606D
:1039F00000F038FA0834204603B0BDE8F08F2344C5
:103A000030465A6842F001025A6000F02BFA08343E
:103A1000204603B0BDE8F08FBC68636823F003085C
:103A2000A84504D3C5EB08030F2B00F38C80554B3E
:103A3000DFF860911A68D9F8003001332A4404EBAA
:103A4000080A00F0608102F580520F3222F47F6292
:103A500022F00F0211463046019200F0FDFBB0F15A
:103A6000FF3F8346019A00F05881824500F2FC80B6
:103A7000454B1968DA451144196000F05381D9F8B3
:103A80000000DFF810E101301BBFCAEB0B0A514404
:103A9000CEF800B019601BF0070100F01781C1F1EA
:103AA0000800C1F58051834408315A44C2F30B0227
:103AB000C2EB010949463046019300F0CDFB431C9F
:103AC000019B00F03F81CBEB00024A4442F001022F
:103AD0001968C7F808B04944BC42CBF80420196003
:103AE000DFF8A49016D0B8F10F0F40F2FD806268A5
:103AF000A8F10C0323F00703E01802F001024FF0D5
:103B0000050E1A430F2B6260C0F804E0C0F808E00D
:103B100000F21C811D4BBC681A68914288BF196075
:103B20001B4B1A689142626888BF196022F0030239
:103B30009542A2EB050301D80F2B04DC304600F0C0
:103B400091F9002438E7621943F0010345F00105BB
:103B500065603046BA60536000F084F9083420464E
:103B600003B0BDE8F08F142B71D9542B00F2A48060
:103B7000280B00F16F0E4FEA4E036E3076E600BF61
:103B8000CC0FFF1FD019FF1FD419FF1FCC19FF1F27
:103B9000C819FF1FD813FF1F5A0A042A5ED9142A16
:103BA00000F2B38002F15C0149005B3207EB810C4B
:103BB00057F82110DFF8DC81ACF1080C8C4500F0DF
:103BC00088804A6822F00302934202D289688C45B9
:103BD000F7D1D1F80CC07A68C4F80CC0A160CCF859
:103BE0000840CC6088E6631942F0010745F0010502
:103BF000656030464B610B61C3F80CE0C3F808E028
:103C00005F609A50083400F02DF9D5E64A6873E6F3
:103C100008F1010818F0030F0CF1080C7FF47FAED7
:103C200030E0DC68A34208BF02303FF435AEB3E6B3
:103C30000B440C465A68C96854F8085F42F0010208
:103C40005A603046E9608D6000F00CF9B4E603F18B
:103C50005C0E03F15B004FEA4E0307E69A0902F19E
:103C6000390149003832A1E7BC424A4B3FF400AF6A
:103C70009C68626822F003025AE759F808399945AE
:103C800040F0828010F0030F00F1FF30F5D17B6827
:103C900023EA04037B6064009C423FF6BDAE002C27
:103CA0003FF4BAAE1C4240467FF435AE64001C427D
:103CB00000F10400FAD02EE6B3F5AA7F18D8E80B7D
:103CC00000F1780E4FEA4E037730CFE54FF4805184
:103CD000EBE60121D8F80430921001FA02F21A43FF
:103CE000C8F80420614677E70123CBF8043025E7C4
:103CF00040F25452934220D8A80C00F17D0E4FEAB6
:103D00004E037C30B2E51032A4E6542A26D81A0BB2
:103D100002F16F0149006E3248E7BC68626822F028
:103D2000030205E7CAF30B0000287FF4A8AE424463
:103D3000BB6842F001025A60ECE6FE234FF07F0EB2
:103D40007E2093E501224FF00009C1E604F108014D
:103D5000304600F05BFCD9F80010DBE6B2F5AA7F34
:103D600005D8DA0B02F17801490077321EE740F2FC
:103D700054518A4205D89A0C02F17D0149007C32E7
:103D800014E7FE217E2211E77B6884E7E808431CE4
:103D90005B00F8E5CC0FFF1F8842F0B50DD98B18FA
:103DA00098420AD28118002A51D09A1A13F8014D6C
:103DB00001F8014D9342F9D1F0BD0F2A48D941EAEB
:103DC00000039B0746D100F1100401F110031546D2
:103DD00053F8106C44F8106C53F80C6C44F80C6CED
:103DE00053F8086C44F8086C103D53F8046C44F820
:103DF000046C0F2D03F1100304F11004E8D8A2F1B4
:103E0000100323F00F0302F00F0E1033BEF1030F67
:103E10001944034421D91E1F0D467446043C55F82D
:103E2000047B46F8047F032CF8D8AEF1040424F098
:103E3000030404342344214402F0030262B1013B31
:103E40000A4411F8014B03F8014F8A42F9D1F0BD41
:103E50000346F3E70346F2E7F0BD7246EEE700BF24
:103E6000704700BF704700BF024B0A460146186802
:103E700000F002B8C80FFF1F2DE9F04F174683B0BE
:103E8000002900F0C1800E46814607F10B05FFF7BF
:103E9000E7FF56F804EC162D2EF00304A6F10808EF
:103EA00040D810221546AF4241D8944275DAC94B2A
:103EB000996808EB04008842416800F0D98021F03D
:103EC000010303445B68DB077DD51EF0010F35D08D
:103ED00039464846FFF7A8FC0746E0B156F8043CCF
:103EE00023F001034344A0F108029A4200F0448108
:103EF000221F242A00F23181132A00F20481034692
:103F00003246116819605168596092689A6031466A
:103F1000484600F07BFB4846FFF7A4FF384603B055
:103F2000BDE8F08F25F00705002D2A46BBDA0C23EB
:103F30000020C9F8003003B0BDE8F08F56F8083C07
:103F4000C3EB080ADAF8043023F0030C04EB0C038B
:103F50009342BDDB5746DAF80C1057F8080F221FC2
:103F6000242AC160886000F21781132A40F212816E
:103F70003168CAF808107168CAF80C101B2A00F2E0
:103F80002B8108360AF110023168116071685160A6
:103F9000B16891603E461C46D046631B0F2B1DD86E
:103FA000D8F8043003F0010323434444C8F8043034
:103FB000636843F0010363604846FFF753FF3046F0
:103FC00003B0BDE8F08F21F003012144914221DBD1
:103FD000C36882680C46D3609A60DEE7D8F8042094
:103FE00008EB050102F00102154343F001020B4406
:103FF000C8F804504A605A6842F0010208315A6019
:10400000484600F003FBD7E7114603B0BDE8F04F88
:10401000FFF70ABC1EF0010F7FF45AAF56F8083CB8
:10402000C3EB080ADAF8043023F0030C01EB0C0EA2
:1040300096458BDBC36882685746D3609A6057F811
:10404000081FDAF80C30CB60221F242A996000F296
:104050009980132A62D93368CAF808307368CAF89D
:104060000C301B2A00F2A08008360AF1100356E03B
:1040700021F0030BA34405F11000834559DA1EF02B
:10408000010F7FF425AF56F8081CC1EB080ADAF8D7
:10409000041021F0030CE34458453FF757AF57464F
:1040A000DAF80C1057F8080F221F242AC160886024
:1040B00000F2B480132A40F2A5803168CAF80810D3
:1040C0007168CAF80C101B2A00F2AF8008360AF19A
:1040D00010023168116071685160B16891600AEB3B
:1040E0000501C5EB0B0242F0010299604A60DAF863
:1040F000043003F001031D434846CAF80450FFF79B
:10410000B1FE38465CE733680360736843601B2A7E
:1041100027D800F1080306F10802F2E63B463268B0
:104120001A6072685A60B2689A603E467446D04619
:1041300033E708EB0501C5EB0B0B4BF0010299606F
:104140004A6056F8043C03F001031D43484646F814
:10415000045CFFF787FE304632E73146FFF71CFE6E
:10416000D5E6B3688360F368C360242A28D000F1E1
:10417000100306F11002C4E650F8043C23F00303D8
:104180001C440AE7314638467446D046FFF704FE21
:104190003E4602E73A46F7E6314638461C46D046E8
:1041A000FFF7FAFD3E46F8E6B368CAF81030F36848
:1041B000CAF81430242A1BD010360AF11803AEE7CF
:1041C000336903617369436106F1180200F1180352
:1041D00097E600BFCC0FFF1FB168CAF81010F16856
:1041E000CAF81410242A0FD010360AF11802CBE6B0
:1041F0003369CAF818307369CAF81C3018360AF1E6
:1042000020038CE73A4664E73269CAF818207269DD
:10421000CAF81C2018360AF12002B5E631463846A5
:104220000193FFF7B9FD019B59E7B168CAF8101077
:10423000F168CAF81410242A03D010360AF11802C3
:1042400047E73269CAF818207269CAF81C20183684
:104250000AF120023DE700BF38B5074C00230546B0
:1042600008462360FEF70AFF431C00D038BD2368D0
:10427000002BFBD02B6038BD101AFF1F80EA010213
:10428000844612F0030F4FD111F0030F32D14DF8D5
:10429000044D11F0040F51F8043B0BD0A3F101328F
:1042A0009A4312F0803F04BF4CF8043B51F8043BA2
:1042B00016D100BF51F8044BA3F101329A4312F01A
:1042C000803FA4F101320BD14CF8043BA24312F021
:1042D000803F04BF51F8043B4CF8044BEAD023461E
:1042E0000CF8013B13F0FF0F4FEA3323F8D15DF8D0
:1042F000044B704711F0010F06D011F8012B0CF898
:10430000012B002A08BF704711F0020FBFD031F80F
:10431000022B12F0FF0F16BF2CF8022B8CF8002096
:1043200012F47F4FB3D1704711F8012B0CF8012B19
:10433000002AF9D1704700BFFFFFFFFFFFFFFFFF1B
:1043400090F800F06DE9024520F007016FF0000CD5
:1043500010F0070491F820F040F049804FF000047D
:104360006FF00700D1E9002391F840F000F1080058
:1043700082FA4CF2A4FA8CF283FA4CF3A2FA8CF390
:104380004BBBD1E9022382FA4CF200F10800A4FAF7
:104390008CF283FA4CF3A2FA8CF3E3B9D1E904234B
:1043A00082FA4CF200F10800A4FA8CF283FA4CF382
:1043B000A2FA8CF37BB9D1E9062301F1200182FA3C
:1043C0004CF200F10800A4FA8CF283FA4CF3A2FA42
:1043D0008CF3002BC6D0002A04BF04301A4612BA50
:1043E000B2FA82F2FDE8024500EBD2007047D1E953
:1043F000002304F00305C4F100004FEAC50514F0E2
:10440000040F91F840F00CFA05F562EA05021CBFB2
:1044100063EA050362464FF00004A9E740EA01039E
:104420009B0770B42BD1032A29D90C460346214699
:1044300054F8046BA6F1013525EA060515F0803F16
:1044400006D1043A032A43F8046B2146EFD8A2B1FF
:104450000C781C70013A013301313CB16AB111F89A
:10446000014B03F8014B013A002CF7D12AB11A4451
:10447000002103F8011B9A42FBD170BC7047034630
:10448000E5E700BF2DE9F047254C2568D5F8484100
:104490000646884692469946C4B360681F2817DCD2
:1044A000431C76B104EB80050122C5F888A0D4F83E
:1044B000881182401143022EC4F88811C5F8089172
:1044C0001ED00230636044F820800020BDE8F087F1
:1044D000144B03B34FF4C870FFF796F90446D0B1FC
:1044E000D5F84831002780E88800C5F848413846AB
:1044F0000123C4F88871C4F88C71002EE1D0D1E793
:10450000D4F88C110A43C4F88C21DAE705F5A674B7
:10451000C5F84841C1E74FF0FF30BDE8F08700BF64
:10452000C84B000009380000024B13B1024800F0EC
:1045300005B870470000000049450000002301460F
:104540001A461846FFF79EBF38B5074D074C2C1B7F
:10455000A41005D0013C55F8043D9847002CF9D132
:10456000BDE8384000F040BB000000000000000043
:10457000F8B5234F0C460646FFF772FCBB685D6832
:1045800025F00305291B01F6EF7121F47F6121F06D
:104590000F01A1F58054B4F5805F07DB00213046A0
:1045A000FFF75AFEBB682B44984204D03046FFF711
:1045B00059FC0020F8BD61423046FFF74DFE013046
:1045C0000DD0104BBA6819682D1B45F00105304617
:1045D000091B55601960FFF745FC0120F8BD00215B
:1045E0003046FFF739FEBA68831A0F2BDEDD064C22
:1045F0000449246843F00103001B53600860D5E7B9
:10460000CC0FFF1FD419FF1FD813FF1F002945D05F
:104610002DE9F0410D468046FFF722FC55F8047C59
:104620006A4927F00103A5F10804E2188E68506872
:10463000B24220F0030062D0FE0750600BD455F860
:10464000087CE41B01F1080EA56875453B446FD05A
:10465000E768EF60BD6015186D68ED0742D543F05F
:1046600001026260E350B3F5007F18D2DB085A1CE8
:104670004D6851F83270A76001209B1000FA03F3D7
:1046800001EBC2001D430838E0604D6041F8324044
:10469000FC604046BDE8F041FFF7E4BB70475A0AB2
:1046A000042A53D89A0902F139077F0002F138052C
:1046B00001EB870051F827204449083890424DD03B
:1046C000516821F003018B4202D292689042F7D1E7
:1046D000D068E060A2608460D4604046BDE8F041EC
:1046E000FFF7C0BB95683A4FBD4203443FD0D06846
:1046F000E86043F0010285606260E350B3E7FF07C2
:10470000034407D455F8082CA41A1344A068E2689F
:10471000C26090602F4A126843F0010093426060CB
:104720008C60B6D32C4B40461968FFF721FFB0E7E9
:1047300011184968C90744D49168D268CA60034413
:1047400043F0010091606060E350A2E7142A17D89B
:1047500002F15C077F0002F15B05A9E7AA104B6834
:10476000012505FA02F213434B600246B1E743F01C
:1047700001024C610C61E560A5606260E35088E76E
:10478000542A06D81A0B02F16F077F0002F16E055A
:104790008EE7B2F5AA7F06D8DA0B02F178077F0020
:1047A00002F1770584E740F25450824206D89A0C11
:1047B00002F17D077F0002F17C0579E7FE277E2567
:1047C00076E743F001026260E35062E7CC0FFF1F1F
:1047D000D40FFF1FD413FF1FD019FF1F564D445095
:1047E000565F317C315F564D4450560D0A00000033
:1047F0005374617274696E672E2E2E0054696D6554
:104800006F75742100000000430000004323000086
:104810004400000044230000450000004600000062
:10482000462300004700000047230000410000002D
:104830004123000042000000696F6E69616E000054
:10484000646F7269616E0000706872796769616E89
:10485000000000006D69786F6C796469616E00001A
:1048600061656F6C69616E006C6F637269616E0087
:10487000564D4450455F00003A323A003A0000007D
:104880005F564D4450450000564D4450435F000074
:104890005F564D4450430D0A000000004572726F90
:1048A000723A20417474656D707420746F20736562
:1048B00074206120726561642D6F6E6C7920766161
:1048C000726961626C65206F72206461746120742A
:1048D000797065206E6F7420737570706F72746577
:1048E000640D0A004008FE4340A004404408FE4313
:1048F00044A004400018FE4300C004403000FE43C2
:10490000309004403400FE43349004401C18FE43B1
:104910001CC004401018FE4310C004400818FE4399
:1049200008C004400C18FE430CC004400C10FE43A9
:104930000CB004401010FE4310B004401810FE43A9
:1049400018B004401C10FE431CB004401410FE4379
:1049500014B004400418FE4304C004400010FE4399
:1049600000B004400008FE4300A004400408FE43D9
:1049700004A004400C08FE430CA004400808FE43B9
:1049800008A004401418FE4314C004401818FE4345
:1049900018C004400410FE4304B004400810FE4355
:1049A00008B004406820FE4368D004401400FE4371
:1049B000149004403800FE43389004403C00FE430D
:1049C0003C9004404000FE43409004404808FE43B1
:1049D00048A004404C08FE434CA004402808FE4375
:1049E00028A004402C08FE432CA004406020FE4375
:1049F00060D004406420FE4364D004402010FE4395
:104A000020B004402410FE4324B004402810FE438C
:104A100028B004402C10FE432CB004404400FE4358
:104A2000449004407000FE43709004407400FE43C4
:104A3000749004406800FE43689004405008FE43B0
:104A400050A004405808FE4358A004405C08FE43B0
:104A50005CA004405408FE4354A004402018FE43C8
:104A600020C004402418FE4324C004401008FE4324
:104A700010A004401408FE4314A004403818FE435C
:104A800038C004403418FE4334C004403018FE439C
:104A900030C004403C18FE433CC004402C18FE4388
:104AA0002CC004402820FE4328D004402C20FE4384
:104AB0002CD004400020FE4300D004400420FE43DC
:104AC00004D004400820FE4308D004400C20FE43DC
:104AD0000CD004401020FE4310D004401420FE43AC
:104AE00014D00440000000000000000089290000EC
:104AF000AD290000412A00003D2A0000392A0000AB
:104B0000352A0000312A0000FD290000112A00008A
:104B1000F9290000F1290000E9290000E12900003D
:104B2000D1290000C1290000BD290000652A00002C
:104B3000852A0000A52A0000452A000095290000CA
:104B40007D2900000D0AFFFF0000000000000000AA
:104B5000712D0000692D0000652D0000612D000001
:104B6000E10A0000D90A0000DD0A00005D2D000006
:104B70000015191500010000FC0AFF1F12000000BB
:104B800000020000280BFF1F43000000000300008C
:104B9000840BFF1F0000000001030904100BFF1F1E
:104BA00000000000020309046C0BFF1F000000005E
:104BB00003030904880BFF1F000000000000000031
:104BC0000000000000000000A00BFF1FF8B500BFB0
:104BD000F8BC08BC9E46704729450000350400001B
:084BE00025090000790D000019
:044BE800F8B500BF5D
:104BEC0038B5084B1C681C6054B1074D94FAA4F3FB
:104BFC00B3FA83F355F823309847631E1C40F5D164
:104C0C0038BD00BFA0D00440500AFF1F38B5084B78
:104C1C001C681C6054B1074D94FAA4F3B3FA83F3E7
:104C2C0055F823309847631E1C40F5D138BD00BFA2
:104C3C00A0C00440100AFF1F38B5084B1C681C604C
:104C4C0054B1074D94FAA4F3B3FA83F355F8233017
:104C5C009847631E1C40F5D138BD00BFA0B004407E
:104C6C00E009FF1F38B5084B1C681C6054B1074D98
:104C7C0094FAA4F3B3FA83F355F823309847631EE0
:104C8C001C40F5D138BD00BFA0A004408009FF1F17
:104C9C0038B5084B1C681C6054B1074D94FAA4F34A
:104CAC00B3FA83F355F823309847631E1C40F5D1B3
:104CBC0038BD00BFA09004400809FF1F0000000091
:104CCC0001000000030000000500000003000000CC
:104CDC0006000000050000000300000005000000B5
:104CEC0001000000030000000500000003000000AC
:104CFC000600000005000000030000000500000095
:104D0C0004000000400000000D0000000100000045
:104D1C000100000006000000050000000400000077
:104D2C000200000002000000010000000200000070
:104D3C000200000002000000010000000200000060
:104D4C000100000002000000020000000200000050
:104D5C000100000002000000010000000200000041
:104D6C000200000002000000010000000200000030
:104D7C00020000000200000002000000020000001F
:104D8C000100000002000000020000000100000011
:104D9C000200000002000000010000000200000000
:104DAC0002000000010000000200000002000000F0
:104DBC0001000000020000000200000001000000E1
:104DCC0002000000020000000100000002000000D0
:104DDC0002000000010000000200000002000000C0
:104DEC000200000037000000CDCC4C3F500000000A
:104DFC008D0D00008D0D00008D0D00008D0D00003F
:104E0C008D0D00008D0D00008D0D00008D0D00002E
:104E1C008D0D00008D0D00008D0D00008D0D00001E
:104E2C008D0D00008D0D00008D0D00008D0D00000E
:104E3C008D0D00008D0D00008D0D00008D0D0000FE
:104E4C008D0D00008D0D00008D0D00008D0D0000EE
:104E5C008D0D00008D0D00008D0D00008D0D0000DE
:104E6C008D0D00008D0D00008D0D00008D0D0000CE
:104E7C008D0D00008D0D00008D0D00008D0D0000BE
:104E8C008D0D00008D0D00008D0D00008D0D0000AE
:104E9C008D0D00008D0D00008D0D00008D0D00009E
:104EAC008D0D00008D0D00008D0D00008D0D00008E
:104EBC008D0D00008D0D00008D0D00008D0D00007E
:104ECC008D0D00008D0D00008D0D00008D0D00006E
:104EDC008D0D00008D0D00008D0D00008D0D00005E
:104EEC008D0D00008D0D00008D0D00008D0D00004E
:104EFC008D0D00008D0D00008D0D00008D0D00003E
:104F0C008D0D00008D0D00008D0D00008D0D00002D
:104F1C008D0D00008D0D00008D0D00008D0D00001D
:104F2C008D0D00008D0D00008D0D00008D0D00000D
:104F3C008D0D00008D0D00008D0D00008D0D0000FD
:104F4C008D0D00008D0D00008D0D00008D0D0000ED
:104F5C008D0D00008D0D00008D0D00008D0D0000DD
:104F6C008D0D00008D0D00008D0D00008D0D0000CD
:104F7C008D0D00008D0D00008D0D00008D0D0000BD
:104F8C008D0D00008D0D00008D0D00008D0D0000AD
:104F9C008D0D00008D0D00008D0D00008D0D00009D
:104FAC008D0D000001090A00FFFFFFFFEC4A000015
:104FBC0000000000E803000000000000C92A000007
:104FCC00C92A0000C92A0000C92A0000504B000061
:104FDC0000000000E8030000000000000A040000CC
:104FEC00141AFF1F1201010102000040C0168304B5
:104FFC000002010203010000180354006500650063
:10500C006E00730079006400750069006E006F001B
:10501C0009024300020100C032090400000102022F
:10502C0001000524001001052401010104240206DD
:10503C000524060001070582031000400904010045
:10504C00020A000000070503024000000705840265
:10505C00400000001603550053004200200053008E
:10506C0065007200690061006C0000000403090413
:10507C000C03000000000000000000000000000015
:10508C000000000000000000000000008C0EFF1F5C
:10509C00F40EFF1F5C0FFF1F00000000000000005B
:1050AC0000000000000000000000000000000000F4
:1050BC0000000000000000000000000000000000E4
:1050CC0000000000000000000000000000000000D4
:1050DC0000000000000000000000000000000000C4
:1050EC0000000000000000000000000000000000B4
:1050FC0000000000000000000000000000000000A4
:10510C000000000000000000000000000000000093
:10511C000000000000000000000000000000000083
:10512C000000000000000000000000000000000073
:10513C0001000000000000000E33CDAB34126DE610
:10514C00ECDE05000B000000000000000000000079
:10515C000000000000000000000000000000000043
:10516C000000000000000000000000000000000033
:10517C000000000000000000000000000000000023
:10518C000000000000000000000000000000000013
:1054BC00A00BFF1F0000000000000000CC0FFF1F1E
:1054CC00CC0FFF1FD40FFF1FD40FFF1FDC0FFF1FCC
:1054DC00DC0FFF1FE40FFF1FE40FFF1FEC0FFF1F7C
:1054EC00EC0FFF1FF40FFF1FF40FFF1FFC0FFF1F2C
:1054FC00FC0FFF1F0410FF1F0410FF1F0C10FF1FD9
:10550C000C10FF1F1410FF1F1410FF1F1C10FF1F87
:10551C001C10FF1F2410FF1F2410FF1F2C10FF1F37
:10552C002C10FF1F3410FF1F3410FF1F3C10FF1FE7
:10553C003C10FF1F4410FF1F4410FF1F4C10FF1F97
:10554C004C10FF1F5410FF1F5410FF1F5C10FF1F47
:10555C005C10FF1F6410FF1F6410FF1F6C10FF1FF7
:10556C006C10FF1F7410FF1F7410FF1F7C10FF1FA7
:10557C007C10FF1F8410FF1F8410FF1F8C10FF1F57
:10558C008C10FF1F9410FF1F9410FF1F9C10FF1F07
:10559C009C10FF1FA410FF1FA410FF1FAC10FF1FB7
:1055AC00AC10FF1FB410FF1FB410FF1FBC10FF1F67
:1055BC00BC10FF1FC410FF1FC410FF1FCC10FF1F17
:1055CC00CC10FF1FD410FF1FD410FF1FDC10FF1FC7
:1055DC00DC10FF1FE410FF1FE410FF1FEC10FF1F77
:1055EC00EC10FF1FF410FF1FF410FF1FFC10FF1F27
:1055FC00FC10FF1F0411FF1F0411FF1F0C11FF1FD4
:10560C000C11FF1F1411FF1F1411FF1F1C11FF1F82
:10561C001C11FF1F2411FF1F2411FF1F2C11FF1F32
:10562C002C11FF1F3411FF1F3411FF1F3C11FF1FE2
:10563C003C11FF1F4411FF1F4411FF1F4C11FF1F92
:10564C004C11FF1F5411FF1F5411FF1F5C11FF1F42
:10565C005C11FF1F6411FF1F6411FF1F6C11FF1FF2
:10566C006C11FF1F7411FF1F7411FF1F7C11FF1FA2
:10567C007C11FF1F8411FF1F8411FF1F8C11FF1F52
:10568C008C11FF1F9411FF1F9411FF1F9C11FF1F02
:10569C009C11FF1FA411FF1FA411FF1FAC11FF1FB2
:1056AC00AC11FF1FB411FF1FB411FF1FBC11FF1F62
:1056BC00BC11FF1FC411FF1FC411FF1FCC11FF1F12
:1056CC00CC11FF1FD411FF1FD411FF1FDC11FF1FC2
:1056DC00DC11FF1FE411FF1FE411FF1FEC11FF1F72
:1056EC00EC11FF1FF411FF1FF411FF1FFC11FF1F22
:1056FC00FC11FF1F0412FF1F0412FF1F0C12FF1FCF
:10570C000C12FF1F1412FF1F1412FF1F1C12FF1F7D
:10571C001C12FF1F2412FF1F2412FF1F2C12FF1F2D
:10572C002C12FF1F3412FF1F3412FF1F3C12FF1FDD
:10573C003C12FF1F4412FF1F4412FF1F4C12FF1F8D
:10574C004C12FF1F5412FF1F5412FF1F5C12FF1F3D
:10575C005C12FF1F6412FF1F6412FF1F6C12FF1FED
:10576C006C12FF1F7412FF1F7412FF1F7C12FF1F9D
:10577C007C12FF1F8412FF1F8412FF1F8C12FF1F4D
:10578C008C12FF1F9412FF1F9412FF1F9C12FF1FFD
:10579C009C12FF1FA412FF1FA412FF1FAC12FF1FAD
:1057AC00AC12FF1FB412FF1FB412FF1FBC12FF1F5D
:1057BC00BC12FF1FC412FF1FC412FF1FCC12FF1F0D
:1057CC00CC12FF1FD412FF1FD412FF1FDC12FF1FBD
:1057DC00DC12FF1FE412FF1FE412FF1FEC12FF1F6D
:1057EC00EC12FF1FF412FF1FF412FF1FFC12FF1F1D
:1057FC00FC12FF1F0413FF1F0413FF1F0C13FF1FCA
:10580C000C13FF1F1413FF1F1413FF1F1C13FF1F78
:10581C001C13FF1F2413FF1F2413FF1F2C13FF1F28
:10582C002C13FF1F3413FF1F3413FF1F3C13FF1FD8
:10583C003C13FF1F4413FF1F4413FF1F4C13FF1F88
:10584C004C13FF1F5413FF1F5413FF1F5C13FF1F38
:10585C005C13FF1F6413FF1F6413FF1F6C13FF1FE8
:10586C006C13FF1F7413FF1F7413FF1F7C13FF1F98
:10587C007C13FF1F8413FF1F8413FF1F8C13FF1F48
:10588C008C13FF1F9413FF1F9413FF1F9C13FF1FF8
:10589C009C13FF1FA413FF1FA413FF1FAC13FF1FA8
:1058AC00AC13FF1FB413FF1FB413FF1FBC13FF1F58
:1058BC00BC13FF1FC413FF1FC413FF1F0000020003
:0458CC00FFFFFFFFDC
:00000001FF
