:100000000C9463000C946E050C9447050C949505B4
:100010000C9495050C9495050C948B000C948B0016
:100020000C948B000C948B000C948B000C948B0024
:100030000C948B000C948B000C948B000C948B0014
:100040000C94FD040C948B000C94CB040C94A5042C
:100050000C948B000C948B000C948B000C948B00F4
:100060000C948B000C948B000000000024002700EF
:100070002A0000000008000201000003040700003D
:1000800000000000000000000000250028002B00F8
:1000900000000000230026002900040404040404D6
:1000A0000404020202020202030303030303010227
:1000B00004081020408001020408102001020408F6
:1000C00010200F066A0911241FBECFEFD8E0DEBF53
:1000D000CDBF11E0A0E0B1E0E8EBF9E102C005908E
:1000E0000D92A83DB107D9F723E0A8EDB1E001C01A
:1000F0001D92A537B207E1F710E0C2E6D0E004C0D8
:100100002197FE010E94230AC136D107C9F70E9438
:10011000F3060C94CF0C0C940000EBE6F2E0A089FF
:10012000B18982E08C93A485B5851C92A685B7859C
:1001300080E18C93108EA489B58986E08C93A28986
:10014000B3898C9180618C93A289B3898C918860EA
:100150008C93A289B3898C9180688C930288F389EF
:10016000E02D80818F7D80830895CF92DF92EF9282
:10017000FF920F931F932FB7F894C0906702D0900F
:100180006802E0906902F0906A022FBFDC01CB01A7
:100190008C0D9D1DAE1DBF1D4FB7F89400916702D9
:1001A000109168022091690230916A024FBF0C15CC
:1001B0001D052E053F0528F080179107A207B307FC
:1001C00058F71F910F91FF90EF90DF90CF90089517
:1001D000CF92DF92EF92FF920F931F93CF93DF9313
:1001E0006C017A018B01C0E0D0E0CE15DF0589F00B
:1001F000D8016D918D01D601ED91FC910190F081B6
:10020000E02DC6010995892B11F47E0102C02196CB
:10021000ECCFC701DF91CF911F910F91FF90EF902D
:10022000DF90CF900895FC01538D448D252F30E051
:10023000842F90E0821B930B541710F0CF960895F3
:1002400001970895FC01918D828D981761F0828D40
:10025000DF01A80FB11D5D968C91928D9F5F9F73FA
:10026000928F90E008958FEF9FEF0895FC01918D9C
:10027000828D981731F0828DE80FF11D858D90E009
:1002800008958FEF9FEF0895FC01918D228D892FA6
:1002900090E0805C9F4F821B91098F73992708958E
:1002A0008BE692E00E94440121E0892B09F420E0D2
:1002B000822F0895FC01848DDF01A80FB11DA35A80
:1002C000BF4F2C91848D90E001968F739927848F76
:1002D000A689B7892C93A089B1898C9180648C936D
:1002E000938D848D981306C00288F389E02D808158
:1002F0008F7D80830895EF92FF920F931F93CF938A
:10030000DF93EC0181E0888F9B8D8C8D981305C065
:10031000E889F989808185FD24C0F62E0B8D10E0D7
:100320000F5F1F4F0F731127E02E8C8DE8120CC04A
:100330000FB607FCFACFE889F989808185FFF5CFF0
:10034000CE010E945A01F1CF8B8DFE01E80FF11D05
:10035000E35AFF4FF0820B8FEA89FB89808180622C
:1003600007C0EE89FF896083E889F989808180640C
:10037000808381E090E0DF91CF911F910F91FF90FA
:10038000EF900895CF93DF93EC01888D8823C9F017
:10039000EA89FB89808185FD05C0A889B9898C918E
:1003A00086FD0FC00FB607FCF5CF808185FFF2CF29
:1003B000A889B9898C9185FFEDCFCE010E945A01A1
:1003C000E7CFDF91CF91089580E090E0892B29F06D
:1003D0000E94500181110C9400000895833081F037
:1003E00028F4813099F08230A1F008958730A9F087
:1003F0008830B9F08430D1F4809180008F7D03C0C3
:10040000809180008F7780938000089584B58F77E6
:1004100002C084B58F7D84BD08958091B0008F7730
:1004200003C08091B0008F7D8093B00008951F932A
:10043000CF93DF93282F30E0F901EE58FF4F8491DE
:10044000F901E255FF4FD491F901E656FF4FC491EF
:10045000CC23C9F0162F81110E94EE01EC2FF0E0A1
:10046000EE0FFF1FEA57FF4FA591B4918FB7F89495
:10047000111105C09C91ED2FE095E92302C0EC918C
:10048000ED2BEC938FBFDF91CF911F910895CF9308
:10049000DF93CFE6D3E060E08C810E94170260E03A
:1004A0008D810E94170261E08C810E94170261E039
:1004B0008D81DF91CF910C941702CF93DF93CFE61C
:1004C000D3E061E08C810E94170261E08D810E947F
:1004D000170260E08D810E94170260E08C81DF913D
:1004E000CF910C941702CF93DF9390E0FC01E2557B
:1004F000FF4F2491FC01E656FF4F8491882361F160
:1005000090E0880F991FFC01E859FF4FC591D491E5
:10051000FC01EA57FF4FA591B491611109C09FB743
:10052000F8948881209582238883EC912E230BC038
:10053000623061F49FB7F8943881822F80958323CD
:100540008883EC912E2B2C939FBF06C08FB7F89415
:10055000E8812E2B28838FBFDF91CF9108951F93C1
:10056000CF93DF93D82FC8E060E0809173030E949F
:100570001702D0FF02C061E001C060E08091740307
:100580000E941702D59561E0809173030E941702C3
:10059000C15051F760E0809173030E94170261E03F
:1005A000809174030E94170261E0809173030E949E
:1005B000170260E0809174030E947302209174031B
:1005C00030E0F901EE58FF4F8491F901E255FF4FF9
:1005D000D491F901E656FF4FC491CC23E9F0811183
:1005E0000E94EE01EC2FF0E0EE0FFF1FE057FF4FEF
:1005F000A591B491EC91ED2379F01F5F183CC9F6F9
:1006000061E0809174030E94730260E08091740342
:100610000E94170210E0CDCF61E080917403DF915A
:10062000CF911F910C947302CF93DF93D82F8091B9
:100630007203811102C0C0E001C0C0E86F3739F019
:10064000E62F660FFF0BE457FE4F9081C90F0E9403
:100650005D0284E40E94AF020E9447020E945D0294
:100660008D2F806C0E94AF028C2F0E94AF020E94DF
:1006700047020E945D02809171030E94AF02DF91E8
:10068000CF910C9447028E3008F08E5087708064B2
:1006900080937C0080917A00806480937A008091BE
:1006A0007A0086FDFCCF809178002091790090E05F
:1006B000922B08953FB7F8948091190290911A02F5
:1006C000A0911B02B0911C0226B5A89B05C02F3F2C
:1006D00019F00196A11DB11D3FBFBA2FA92F982F68
:1006E0008827820F911DA11DB11DBC01CD0142E0E3
:1006F000660F771F881F991F4A95D1F708958F922B
:100700009F92AF92BF92CF92DF92EF92FF926B01D6
:100710007C010E945A034B015C01C114D104E10425
:10072000F104F1F00E945A03DC01CB018819990908
:10073000AA09BB09883E9340A105B10570F321E0E9
:10074000C21AD108E108F10888EE880E83E0981EED
:10075000A11CB11CC114D104E104F10419F7DDCFCF
:10076000FF90EF90DF90CF90BF90AF909F908F90D1
:100770000895089520911F0230912002281739070B
:1007800071F490911D0280911E02981741F0E09142
:100790001D02F0E0E852FE4F808190E008958FEF57
:1007A0009FEF089508951F93CF93DF93DC015C962C
:1007B0002D913C915D972115310539F481E090E050
:1007C00013969C938E9312973DC05196ED91FC9198
:1007D000529750969C915097892F80951FB75E969F
:1007E0004C915E9741FB772770F941FD6095F89435
:1007F0004081772311F0492B01C048234083E90150
:100800002197F1F748E0508160FF02C0592B01C0E9
:1008100058235083E9012197F1F76695415099F7E4
:10082000772321F090818923808303C08081982BD6
:1008300090831FBF5C968D919C915D970197F1F716
:1008400021E030E0C901DF91CF911F9108950F930E
:100850001F93CF93DF9360912102C091220280E524
:1008600093E00E94D3036C2F80E593E00E94D303B2
:10087000C7E2D2E08E01688180E593E00E94D30355
:100880002296F801618180E593E00E94D303F2E0B3
:10089000C734DF0779F7DF91CF911F910F9108954A
:1008A00020911F02309120022817390771F480919E
:1008B0001E0220911D0290E0805C9F4F821B9109D7
:1008C00060E470E00E94FB09089580E090E00895E4
:1008D00020911F023091200228173907B9F4909116
:1008E0001D0280911E02981789F0E0911D02F0E030
:1008F000E852FE4F808120911D0230E02F5F3F4F74
:100900002F73332720931D0290E008958FEF9FEF00
:100910000895E0911F02F0912002E817F90769F4A9
:10092000A389B4899C918589809589238C931092A1
:10093000200210921F0281E0089580E0089508953A
:1009400080E090E008950E94290A1F920F920FB64E
:100950000F9211242F933F934F935F936F937F9345
:100960008F939F93AF93BF93EF93FF938BE692E0A8
:100970000E945A01FF91EF91BF91AF919F918F918A
:100980007F916F915F914F913F912F910F900FBE8B
:100990000F901F9018951F920F920FB60F9211246F
:1009A0002F938F939F93EF93FF93E0917B02F091AE
:1009B0007C028081E0918102F091820282FD12C06E
:1009C0009081809184028F5F8F73209185028217BE
:1009D00051F0E0918402F0E0E559FD4F958F80934E
:1009E000840201C08081FF91EF919F918F912F919F
:1009F0000F900FBE0F901F9018951F920F920FB679
:100A00000F9211242F933F938F939F93AF93BF9394
:100A10008091670290916802A0916902B0916A0288
:100A20003091180223E0230F2D3720F40196A11DE9
:100A3000B11D05C026E8230F0296A11DB11D20930C
:100A400018028093670290936802A0936902B093A2
:100A50006A028091190290911A02A0911B02B09132
:100A60001C020196A11DB11D8093190290931A02D8
:100A7000A0931B02B0931C02BF91AF919F918F91E5
:100A80003F912F910F900FBE0F901F9018951F92BE
:100A90000F920FB60F9211242F933F934F935F93B2
:100AA0006F937F938F939F93AF93BF93EF93FF9336
:100AB000E0910201F09103010995FF91EF91BF913F
:100AC000AF919F918F917F916F915F914F913F91E6
:100AD0002F910F900FBE0F901F9018951F920F929D
:100AE0000FB60F9211242F933F934F935F936F9301
:100AF0007F938F939F93AF93BF93EF93FF93E09177
:100B00000001F09101010995FF91EF91BF91AF9123
:100B10009F918F917F916F915F914F913F912F9115
:100B20000F900FBE0F901F9018951F920F920FB647
:100B30000F9211242F933F934F935F936F937F9363
:100B40008F939F93AF93BF93EF93FF93E0911F0217
:100B5000F0912002309709F451C0968DA685B78593
:100B6000858591FF04C09C91892329F447C09C91FD
:100B7000892309F043C0A389B4899C918589809514
:100B800089238C93868997890197F1F7608D718D00
:100B9000A685B785558538E020E0CB010197F1F7B0
:100BA000822F90E095958795282F4C91452309F049
:100BB0002068315091F7868D81FD209580911E022D
:100BC00090E001968F73992730911D02381749F0F4
:100BD000A0911E02B0E0A852BE4F2C9380931E023B
:100BE00003C0868D8160868F828D938D0197F1F78A
:100BF000A389B4899C918589892B8C93FF91EF916E
:100C0000BF91AF919F918F917F916F915F914F9124
:100C10003F912F910F900FBE0F901F901895CF927C
:100C2000DF92EF92FF9210926E0210926D0298EE98
:100C3000C92E93E0D92EE12CF12CC0926F02D092F4
:100C40007002E0927102F092720280EA91E0909359
:100C50006C0280936B0285EC90E090937802809315
:100C6000770284EC90E090937A028093790280EC92
:100C700090E090937C0280937B0281EC90E09093D3
:100C80007E0280937D0282EC90E0909380028093BC
:100C90007F0286EC90E09093820280938102109212
:100CA000840210928502109286021092870210929E
:100CB0000E0310920F031092100310921103109262
:100CC0001203109213031092140310921503109242
:100CD0001603109217031092180310921903109222
:100CE0001A0310921B0310921C0310921D0385E03F
:100CF0008093730384E08093740361E085E00E9435
:100D0000730261E0809174030E9473021092530396
:100D100010925203C0925403D0925503E0925603AE
:100D2000F092570382EB91E090935103809350032C
:100D30001092670310926603109269031092680381
:100D400010926B0310926A0310926D0310926C0361
:100D500060916E036E7F6D7F60936E036695617028
:100D600081E068278BE00E94170261E08BE00E941F
:100D70007302E9EBF0E0E491E0936003E5EAF0E070
:100D8000E491F0E0EE0FFF1FEA57FF4F8591949139
:100D9000909362038093610360E08AE00E94730293
:100DA00080916E0381FD04C061E08AE00E94170219
:100DB0008AE080935C03E8EBF0E0E491E0935D036C
:100DC000E4EAF0E0E491F0E0EE0FFF1FE057FF4FA0
:100DD0008591949190935F0380935E03FF90EF90D1
:100DE000DF90CF900895CF93DF9300D000D000D054
:100DF000CDB7DEB7789484B5826084BD84B5816058
:100E000084BD85B5826085BD85B5816085BD8091D5
:100E10006E00816080936E0010928100809181004D
:100E20008260809381008091810081608093810045
:100E3000809180008160809380008091B100846007
:100E40008093B1008091B00081608093B000809168
:100E50007A00846080937A0080917A008260809327
:100E60007A0080917A00816080937A0080917A0084
:100E7000806880937A001092C10010924C03109207
:100E80004D0310924E0310924F0310920A031092DA
:100E90000B0310920C0310920D0368EB7BE080E0D3
:100EA00090E00E94B5008BE692E090934B03809314
:100EB0004A030E948D002FB7F894809167029091A9
:100EC0006802A0916902B0916A022FBF80930A0361
:100ED00090930B03A0930C03B0930D0380914A03EE
:100EE00090914B03DC01ED91FC910280F381E02DA8
:100EF00041E150E060EC71E009956AE070E080E06B
:100F000090E00E94B50081E080931E0310926B0375
:100F100010926A031092690310926803109267039B
:100F2000109266038FE190E090936D0380936C03C1
:100F300090915C03963108F057C021E030E0309387
:100F40006703209366032DE130E03093690320931B
:100F500068032DE030E030936B0320936A03209107
:100F60006800983050F031E09E3008F430E081E0C5
:100F700001C0880F3A95EAF701C084E0822B809384
:100F80006800983038F09E3040F0963148F020E00C
:100F900030E008C02DE630E005C02BE630E002C0AE
:100FA0002CE630E03093640320936303983030F4F0
:100FB00081E001C0880F9A95EAF70EC0292F30E032
:100FC0009E3018F42850310902C02E50310981E0BA
:100FD00001C0880F2A95EAF78093650380916C031E
:100FE00090916D030197F1F780916A0390916B03E3
:100FF000892B21F180911F0290912002B3E080356E
:101000009B07E1F0009711F00E94890480916E0324
:101010008E7F80936E0310921E0210921D0280E557
:1010200093E09093200280931F02E0916303F0917C
:101030006403908180916503892B80836FE780E052
:101040000E9414036FE781E00E9414036FE782E0BF
:101050000E9414036FE783E00E94140380E48093EE
:101060006F0380EC809370038FE88093710304E03A
:1010700011E0780161E0F80180810E9473020E5F47
:101080001F4F60E0D7018C910E941702B1E00C3035
:101090001B0779F70E948D0061E08DE00E947302CA
:1010A00087E294E0909301018093000180916900B0
:1010B000836080936900E89A44244A94E3E05E2EBA
:1010C000612C712CFE0131961F010E945A0307E426
:1010D00012E067E2C62E62E0D62E7CE0E72E71E0D9
:1010E000F72EE2E00D341E0709F45FC0D6018D90A3
:1010F0009C9044E051E0A12CB12CFA0180814E5F1C
:101100005F4FF701EA0DFB1D60814D835E830E94F6
:101110001702F2E0AF0EB11C4D815E8128E0A216ED
:10112000B10459F780E00E944303D8014D915C91CE
:101130009C01241B350B37FF03C0319521953109E4
:101140002A303105A4F4B7E0B49F9001B59F300D6B
:101150001124820F931F880F991F089654E09695CB
:1011600087955A95E1F7F8019183808303C0D801F0
:101170008D939C93F801219131918F01A8ECB0E0FF
:101180000E94EC09A30192010E949609D6012D93B9
:101190003D936D018216930621F030932602209331
:1011A0002502B8E0EB0EF11C9CCF83E00E944303C4
:1011B00040912302509124029C01241B350B37FFE0
:1011C00003C03195219531092A30310584F4F7E0C7
:1011D000F49F9001F59F300D1124820F931F880F0B
:1011E000991F089634E0969587953A95E1F7909384
:1011F0002402809323022091230230912402A8EA42
:10120000B0E00E94EC09A30192010E949609BA0184
:10121000A901445F5F4F6F4F7F4F809121029091F2
:1012200022028417950741F050932602409325022D
:10123000509322024093210265E070E080E090E04C
:101240000E947F03809126028F93809125028F93C5
:10125000A2EDB1E0BF93AF933F922F920E942E0A6E
:101260000A81002E000C110B00531109EB800E2C8B
:10127000000CFF08F0E3EF1AF108CC800C2C000CF6
:10128000DD0820E3C21AD1086981062E000C770B15
:101290006053710980E00E941403602F81E00E9476
:1012A00014036E2D82E00E9414036C2D83E00E94D3
:1012B00014030E945A0364E670E080E090E00E940C
:1012C0007F030F900F900F900F900F900F900E9440
:1012D000E401FBCE82EB91E09093510380935003A5
:1012E00080E593E00C948904A1E21A2EAA1BBB1B93
:1012F000FD010DC0AA1FBB1FEE1FFF1FA217B307E2
:10130000E407F50720F0A21BB30BE40BF50B661FF7
:10131000771F881F991F1A9469F7609570958095BB
:1013200090959B01AC01BD01CF010895052E97FB5F
:101330001EF400940E94AD0957FD07D00E94740965
:1013400007FC03D04EF40C94AD09509540953095B0
:1013500021953F4F4F4F5F4F089590958095709521
:1013600061957F4F8F4F9F4F08952F923F924F92DD
:101370005F926F927F928F929F92AF92BF92CF9225
:10138000DF92EF92FF920F931F93CF93DF93CDB72E
:10139000DEB7CA1BDB0B0FB6F894DEBF0FBECDBFA6
:1013A00009942A88398848885F846E847D848C8477
:1013B0009B84AA84B984C884DF80EE80FD800C8180
:1013C0001B81AA81B981CE0FD11D0FB6F894DEBF63
:1013D0000FBECDBFED010895A29FB001B39FC00124
:1013E000A39F700D811D1124911DB29F700D811D51
:1013F0001124911D089597FB072E16F4009407D031
:1014000077FD09D00E940F0A07FC05D03EF49095A5
:1014100081959F4F0895709561957F4F0895AA1B00
:10142000BB1B51E107C0AA1FBB1FA617B70710F0CF
:10143000A61BB70B881F991F5A95A9F78095909501
:10144000BC01CD010895EE0FFF1F0590F491E02D32
:10145000099481E090E0F8940C94CF0CAEE0B0E0F9
:10146000E4E3FAE00C94C3090D891E8986E08C83BD
:101470001A8309838FEF9FE79E838D83AE01475EBA
:101480005F4F6F89788DCE0101960E94510A2F819E
:101490003885F801E20FF31F10822E96E4E00C94D9
:1014A000DF09ACE0B0E0E7E5FAE00C94B5097C01B7
:1014B0006B018A01FC0117821682838181FFBDC105
:1014C000CE0101964C01F7019381F60193FD8591C0
:1014D00093FF81916F01882309F4ABC1853239F400
:1014E00093FD859193FF81916F01853229F4B701B6
:1014F00090E00E94390CE7CF512C312C20E02032B3
:10150000A0F48B3269F030F4803259F0833269F400
:1015100020612CC08D3239F0803339F4216026C02F
:101520002260246023C0286021C027FD27C030ED41
:10153000380F3A3078F426FF06C0FAE05F9E300D8F
:101540001124532E13C08AE0389E300D1124332EFF
:1015500020620CC08E3221F426FD6BC1206406C0CF
:101560008C3611F4206802C0883641F4F60193FDF0
:10157000859193FF81916F018111C1CF982F9F7D3C
:101580009554933028F40C5F1F4FFFE3F9830DC08F
:10159000833631F0833771F0833509F05BC022C0A8
:1015A000F801808189830E5F1F4F44244394512C9E
:1015B000540115C03801F2E06F0E711CF801A080D3
:1015C000B18026FF03C0652D70E002C06FEF7FEF92
:1015D000C5012C870E942E0C2C0183012C852F77AE
:1015E000222E17C03801F2E06F0E711CF801A080A6
:1015F000B18026FF03C0652D70E002C06FEF7FEF62
:10160000C5012C870E94230C2C012C852068222EDA
:10161000830123FC1BC0832D90E048165906B0F4CB
:10162000B70180E290E00E94390C3A94F4CFF501C2
:1016300027FC859127FE81915F01B70190E00E9410
:10164000390C31103A94F1E04F1A51084114510409
:1016500071F7E5C0843611F0893639F5F80127FFB6
:1016600007C060817181828193810C5F1F4F08C028
:1016700060817181072E000C880B990B0E5F1F4F44
:101680002F76722E97FF09C0909580957095619581
:101690007F4F8F4F9F4F2068722E2AE030E0A401C9
:1016A0000E94710CA82EA81844C0853729F42F7EFB
:1016B000B22E2AE030E025C0F22FF97FBF2E8F3600
:1016C000C1F018F4883579F0B4C0803719F0883744
:1016D00021F0AFC02F2F2061B22EB4FE0DC08B2D94
:1016E0008460B82E09C024FF0AC09F2F9660B92ECF
:1016F00006C028E030E005C020E130E002C020E173
:1017000032E0F801B7FE07C0608171818281938168
:101710000C5F1F4F06C06081718180E090E00E5F1A
:101720001F4FA4010E94710CA82EA818FB2DFF7753
:101730007F2E76FE0BC0372D3E7FA51450F474FE2D
:101740000AC072FC08C0372D3E7E05C0BA2C372D6A
:1017500003C0BA2C01C0B52C34FF0DC0FE01EA0D48
:10176000F11D8081803311F4397E09C032FF06C03B
:10177000B394B39404C0832F867809F0B39433FDF7
:1017800013C030FF06C05A2CB31418F4530C5B1866
:10179000B32CB31468F4B70180E290E03C870E9458
:1017A000390CB3943C85F5CFB31410F43B1801C049
:1017B000312C34FF12C0B70180E390E03C870E94D7
:1017C000390C3C8532FF17C031FD03C088E790E03B
:1017D00002C088E590E0B7010CC0832F867859F0ED
:1017E00031FF02C08BE201C080E237FD8DE2B7011C
:1017F00090E00E94390CA51438F4B70180E390E022
:101800000E94390C5A94F7CFAA94F401EA0DF11D05
:101810008081B70190E00E94390CA110F5CF3320F0
:1018200009F451CEB70180E290E00E94390C3A945D
:10183000F6CFF7018681978102C08FEF9FEF2C963C
:10184000E2E10C94D109FC01059061507040011057
:10185000D8F7809590958E0F9F1F0895FC016150D9
:10186000704001900110D8F7809590958E0F9F1FC2
:1018700008950F931F93CF93DF93FB01238121FDE5
:1018800003C08FEF9FEF28C022FF16C0468157810B
:10189000248135814217530744F4A081B1819D0111
:1018A0002F5F3F4F318320838C93268137812F5FB9
:1018B0003F4F3783268310C0EB01092F182F008478
:1018C000F185E02D0995892BE1F68E819F810196A6
:1018D0009F838E83812F902FDF91CF911F910F9146
:1018E0000895FA01AA27283051F1203181F1E894B6
:1018F0006F936E7F6E5F7F4F8F4F9F4FAF4FB1E003
:101900003ED0B4E03CD0670F781F891F9A1FA11DFD
:10191000680F791F8A1F911DA11D6A0F711D811DFE
:10192000911DA11D20D009F468943F912AE0269FC3
:1019300011243019305D3193DEF6CF010895462F22
:101940004770405D4193B3E00FD0C9F7F6CF462F03
:101950004F70405D4A3318F0495D31FD405241936C
:1019600002D0A9F7EACFB4E0A69597958795779529
:101970006795BA95C9F700976105710508959B01B0
:10198000AC010A2E06945795479537952795BA9539
:10199000C9F7620F731F841F951FA01D089510E0E3
:1019A000C2E6D0E004C0FE010E94230A2196C3369D
:0819B000D107C9F7F894FFCF3D
:1019B800B903B90306000700080009000000000089
:1019C800000000000100000000000000000001000D
:1019D80000000000010001000000000000000000FD
:1019E80001000000010000000100000000000100EB
:1019F80001000000010001000100000000000000DB
:101A080000000100010000000000010000000100CA
:101A180000000100010001000000010000000000BA
:101A280001000100010000000100010000000100A8
:101A38000100010001000100010001003F065B4FA9
:101A4800666D7D077F6F777C395E797100000000D5
:101A58007B01E8001301C2014401220136010000A4
:101A68000000D303E800A004D20350046804BA03BA
:101A7800564D4450565F317C315F564D4450560D9B
:081A88000A002530346900005A
:107800000C94343C0C94513C0C94513C0C94513CE1
:107810000C94513C0C94513C0C94513C0C94513CB4
:107820000C94513C0C94513C0C94513C0C94513CA4
:107830000C94513C0C94513C0C94513C0C94513C94
:107840000C94513C0C94513C0C94513C0C94513C84
:107850000C94513C0C94513C0C94513C0C94513C74
:107860000C94513C0C94513C11241FBECFEFD8E036
:10787000DEBFCDBF11E0A0E0B1E0ECE9FFE702C060
:1078800005900D92A230B107D9F712E0A2E0B1E065
:1078900001C01D92AD30B107E1F70E942D3D0C945F
:1078A000CC3F0C94003C982F959595959595959582
:1078B000905D8F708A307CF0282F295A8091C0000B
:1078C00085FFFCCF9093C6008091C00085FFFCCF60
:1078D0002093C6000895282F205DF0CF982F809127
:1078E000C00085FFFCCF9093C6000895EF92FF92F1
:1078F0000F931F93EE24FF2487018091C00087FD22
:1079000017C00894E11CF11C011D111D81E4E8164B
:1079100082E4F8068FE0080780E0180770F3E09132
:107920000401F091050109958091C00087FFE9CF1E
:107930008091C6001F910F91FF90EF9008950E94D3
:10794000763C982F8091C00085FFFCCF9093C600B5
:1079500091362CF490330CF09053892F089597555D
:10796000892F08951F930E949F3C182F0E949F3CCF
:107970001295107F810F1F9108951F93182F882350
:1079800021F00E94763C1150E1F71F9108951F935A
:10799000182F0E94763C803249F0809103018F5F5E
:1079A000809303018530C1F01F9108958091C0003C
:1079B00085FFFCCF84E18093C6008091C00085FFE5
:1079C000FCCF1093C6008091C00085FFFCCF80E102
:1079D0008093C6001F910895E0910401F091050184
:1079E00009951F9108950E94763C803241F0809164
:1079F00003018F5F80930301853081F008958091AA
:107A0000C00085FFFCCF84E18093C6008091C00058
:107A100085FFFCCF80E18093C6000895E0910401CA
:107A2000F09105010995089540E951E08823A1F0FE
:107A30002D9A28EE33E0FA013197F1F721503040CA
:107A4000D1F72D9828EE33E0FA013197F1F7215064
:107A50003040D1F7815061F708953F924F925F9285
:107A60006F927F928F929F92AF92BF92CF92DF924E
:107A7000EF92FF920F931F93CF93DF93000080E16B
:107A80008093C4001092C50088E18093C10086E015
:107A90008093C2005098589A259A81E00E94143D24
:107AA00024E1F22E9EE1E92E85E9D82E0FE0C02ECA
:107AB00010E1B12EAA24A394B1E49B2EA6E58A2E50
:107AC000F2E57F2EE0E26E2E79E4572E63E5462E36
:107AD00050E5352E0E94763C8033B1F18133B9F107
:107AE000803409F46FC0813409F476C0823409F41B
:107AF00085C0853409F488C0803531F1823521F1A3
:107B0000813511F1853509F485C0863509F48DC0BC
:107B1000843609F496C0843709F403C1853709F423
:107B200072C1863709F466C0809103018F5F80932C
:107B30000301853079F6E0910401F0910501099582
:107B40000E94763C803351F60E94F33CC3CF0E94E2
:107B5000763C803249F78091C00085FFFCCFF092DF
:107B6000C6008091C00085FFFCCF9092C600809136
:107B7000C00085FFFCCF8092C6008091C00085FFC9
:107B8000FCCF7092C6008091C00085FFFCCF609250
:107B9000C6008091C00085FFFCCF5092C600809146
:107BA000C00085FFFCCF4092C6008091C00085FFD9
:107BB000FCCF3092C6008091C00085FFFCCFB09210
:107BC000C60088CF0E94763C863808F4BDCF0E945C
:107BD000763C0E94F33C7ECF0E94763C803809F4CC
:107BE0009CC0813809F40BC1823809F43CC1883942
:107BF00009F48FC080E00E94C73C6CCF84E10E94F2
:107C0000BD3C0E94F33C66CF85E00E94BD3C0E94D3
:107C1000F33C60CF0E94763C809306010E94763C44
:107C2000809307010E94F33C55CF0E94763C80333D
:107C300009F41DC183E00E94BD3C80E00E94C73C66
:107C400049CF0E94763C809309020E94763C809343
:107C5000080280910C028E7F80930C020E94763C79
:107C6000853409F415C18091080290910902892B8D
:107C700089F000E010E00E94763CF801E85FFE4FDA
:107C800080830F5F1F4F80910802909109020817AF
:107C9000190788F30E94763C803209F045CF809125
:107CA0000C0280FF01C16091060170910701660F0F
:107CB000771F7093070160930601A0910802B091AD
:107CC00009021097C9F0E8E0F1E09B01AD014E0F09
:107CD0005F1FF999FECF32BD21BD819180BDFA9A17
:107CE000F99A2F5F3F4FE417F50799F76A0F7B1F4B
:107CF00070930701609306018091C00085FFFCCF5F
:107D0000F092C6008091C00085FFFCCFB092C60003
:107D1000E1CE83E00E94C73CDDCE82E00E94C73CFA
:107D2000D9CE0E94763C809309020E94763C8093D3
:107D300008028091060190910701880F991F909386
:107D40000701809306010E94763C853409F4A6C0A1
:107D500080910C028E7F80930C020E94763C8032D0
:107D600009F0B8CE8091C00085FFFCCFF092C6002C
:107D7000609108027091090261157105B9F140E046
:107D800050E080910C02A82FA170B82FB27011C0E2
:107D9000BB2309F45CC0E0910601F0910701319624
:107DA000F0930701E09306014F5F5F4F46175707B7
:107DB000E8F4AA2369F3F999FECF209106013091E6
:107DC000070132BD21BDF89A90B58091C00085FFB2
:107DD000FCCF9093C6002F5F3F4F30930701209355
:107DE00006014F5F5F4F4617570718F38091C00099
:107DF00085FDE5CE8091C00085FFF8CFE0CE81E023
:107E00000E94C73C67CE0E94763C803209F08CCE3F
:107E10008091C00085FFFCCFF092C6008091C00029
:107E200085FFFCCFE092C6008091C00085FFFCCFAB
:107E3000D092C6008091C00085FFFCCFC092C600E2
:107E40008091C00085FFFCCFB092C60043CEE09188
:107E50000601F091070194918091C00085FFFCCF4D
:107E60009093C6009CCF80E10E94C73C33CE0E9415
:107E7000763C0E94763C182F0E94763C112309F430
:107E800083C0113009F484C08FE00E94C73C22CE29
:107E900080910C02816080930C02E5CE80910C02EF
:107EA000816080930C0259CF809107018823880F4D
:107EB000880B8A2180930B02809106019091070123
:107EC000880F991F90930701809306018091080203
:107ED00080FF09C080910802909109020196909359
:107EE000090280930802F894F999FECF1127E091D6
:107EF0000601F0910701C8E0D1E08091080290915D
:107F00000902103091F40091570001700130D9F34B
:107F100003E000935700E89500915700017001308D
:107F2000D9F301E100935700E89509901990009169
:107F3000570001700130D9F301E000935700E89534
:107F40001395103498F011270091570001700130FB
:107F5000D9F305E000935700E895009157000170B0
:107F60000130D9F301E100935700E895329602976A
:107F700009F0C7CF103011F00296E5CF112480919F
:107F8000C00085FFB9CEBCCE8EE10E94C73CA2CD19
:0C7F900085E90E94C73C9ECDF894FFCF0D
:027F9C00800063
:040000030000780081
:00000001FF