:100000000000022099010000955200004D520000AE
:100010004D5200004D5200004D5200004D52000064
:100020004D5200004D5200004D520000955200000C
:10003000955200004D5200005165000055660000C9
:100040009552000095520000955200009552000014
:100050009552000095520000955200009552000004
:1000600095520000955200009552000095520000F4
:1000700095520000955200009552000095520000E4
:1000800095520000955200009552000095520000D4
:1000900095520000955200009552000095520000C4
:1000A000F5500000015100009552000095520000EB
:1000B000955200009552000095520000916B00008F
:1000C00095520000BD6C000095520000E96D0000E3
:1000D00095520000E16E000095520000955200001C
:1000E0009552000095520000955200009552000074
:1000F0009552000095520000955200009552000064
:100100009552000095520000955200009552000053
:10011000955200000D5800009552000095520000C5
:100120009552000095520000955200009552000033
:100130009552000095520000955200009552000023
:100140009552000095520000D96F000095520000B2
:10015000D1700000955200009552000095520000A9
:1001600095520000955200000D510000955200007C
:1001700095520000955200009552000095520000E3
:1001800095520000955200009552000095520000D3
:100190009552000095520000584B4CF2205210B579
:1001A0001A804DF628121A8000BF00BF05F076F8BD
:1001B000534B4FF030621A60524A9A60524ADA60EA
:1001C000524B4FF470021A60514A136813F4807353
:1001D00004D150490B604FF4A85313604E4B1A786A
:1001E000110703D51A7842F008021A704B4B4C499C
:1001F0002A221A704B4A4C4B8B4204D252F8040FFD
:1002000043F8040BF8E7494B494900228B4202D2DC
:1002100043F8042BFAE74749474A002352F82300E2
:1002200041F823000133662BF8D1444B444A802126
:1002300003F8011B9342FBD1424B3E4A1A60424BEA
:100240008A221A70A3F5805324225A70A0221A70B1
:100250009A799207FCD59A79D406FCD43B4A9379D3
:1002600003F00C03082B394BF9D103221A714622F3
:100270005A719A799006FCD5344A9179334B4906E4
:10028000FBD5334A4FF08271116009215160202261
:100290001A709A7902F00C020C2AFAD12D4B2E4AD0
:1002A0001A602E4B2E4A1A6000225A60072243F829
:1002B000042C2C4AC3F80C2D62B605F05BF9154BE3
:1002C0001B68DA0705D5284805F0E8F8274B284AC7
:1002D0001A60284B1B785B0609D5244C244B2268F6
:1002E0009A4204D1204805F0D9F80023236006F093
:1002F000ABFF04F0D9FF06F0B5F9FEE70E2005408C
:1003000030800440823F04000100002B88ED00E0B3
:1003100010D0034014D0034002D0074000E0074053
:100320002418FF1F408D0000F806FF1F2418FF1F30
:100330009C1EFF1F0002FF1F0000000000E400E001
:1003400056E400E008ED00E00050064000400640A2
:100350004480044004800440C010050014E000E024
:10036000BFD4010000002020E40239031CE0034058
:10037000A5C3945A00F00740FFFFFFFFFFFFFFFFF8
:10038000FFFFFFFFFFFFFFFFFFFFFFFFFFFFFFFF7D
:10039000FFFFFFFFFFFFFFFFFFFFFFFFFFFFFFFF6D
:1003A000FFFFFFFFFFFFFFFFFFFFFFFFFFFFFFFF5D
:1003B000FFFFFFFFFFFFFFFFFFFFFFFFFFFFFFFF4D
:1003C000FFFFFFFFFFFFFFFFFFFFFFFFFFFFFFFF3D
:1003D000FFFFFFFFFFFFFFFFFFFFFFFFFFFFFFFF2D
:1003E000FFFFFFFFFFFFFFFFFFFFFFFFFFFFFFFF1D
:1003F000FFFFFFFFFFFFFFFFFFFFFFFFFFFFFFFF0D
:10040000FFFFFFFFFFFFFFFFFFFFFFFFDEF9FFFF23
:1004100010B5054C237833B9044B13B10448AFF33E
:1004200000800123237010BD2418FF1F000000006E
:10043000448D0000084B10B51BB108490848AFF3C4
:1004400000800848036803B910BD074B002BFBD0A0
:10045000BDE81040184700BF000000002818FF1F2B
:10046000448D00002418FF1F00000000214B10B431
:10047000D3F8EC201368506819780478507A137A0E
:10048000044201EA03011BD0937A03F0030309B18C
:1004900043F0040343F008039910013B91720D2BC4
:1004A0000BD8DFE803F021071B070A152121150AE5
:1004B000071B0721D368013BD3605DF8044B7047ED
:1004C000937A03F003030029E6D043F00403E3E743
:1004D000D3685DF8044B023BD3607047D3685DF886
:1004E000044B0233D3607047D3685DF8044B01338B
:1004F000D3607047E018FF1F214B10B4D3F8DC2005
:100500001368506819780478507A137A044201EA23
:1005100003011BD0937A03F0030309B143F00403F2
:1005200043F008039910013B91720D2B0BD8DFE8C3
:1005300003F021071B070A152121150A071B0721B4
:10054000D368013BD3605DF8044B7047937A03F0A6
:1005500003030029E6D043F00403E3E7D3685DF822
:10056000044B023BD3607047D3685DF8044B023301
:10057000D3607047D3685DF8044B0133D360704794
:10058000E018FF1F214B10B4D3F8E0201368506827
:1005900019780478507A137A044201EA03011BD0D7
:1005A000937A03F0030309B143F0040343F0080313
:1005B0009910013B91720D2B0BD8DFE803F0210756
:1005C0001B070A152121150A071B0721D368013BC8
:1005D000D3605DF8044B7047937A03F0030300295E
:1005E000E6D043F00403E3E7D3685DF8044B023B35
:1005F000D3607047D3685DF8044B0233D360704713
:10060000D3685DF8044B0133D3607047E018FF1FD7
:10061000214B10B4D3F8E42013685068197804789B
:10062000507A137A044201EA03011BD0937A03F053
:10063000030309B143F0040343F008039910013B9D
:1006400091720D2B0BD8DFE803F021071B070A1569
:100650002121150A071B0721D368013BD3605DF8F0
:10066000044B7047937A03F003030029E6D043F06C
:100670000403E3E7D3685DF8044B023BD3607047A3
:10068000D3685DF8044B0233D3607047D3685DF8DC
:10069000044B0133D3607047E018FF1F214B10B4A7
:1006A000D3F8E8201368506819780478507A137AE0
:1006B000044201EA03011BD0937A03F0030309B15A
:1006C00043F0040343F008039910013B91720D2B92
:1006D0000BD8DFE803F021071B070A152121150AB3
:1006E000071B0721D368013BD3605DF8044B7047BB
:1006F000937A03F003030029E6D043F00403E3E711
:10070000D3685DF8044B023BD3607047D3685DF853
:10071000044B0233D3607047D3685DF8044B013358
:10072000D3607047E018FF1F214B10B4D3F8BC20F2
:100730001368506819780478507A137A044201EAF1
:1007400003011BD0937A03F0030309B143F00403C0
:1007500043F008039910013B91720D2B0BD8DFE891
:1007600003F021071B070A152121150A071B072182
:10077000D368013BD3605DF8044B7047937A03F074
:1007800003030029E6D043F00403E3E7D3685DF8F0
:10079000044B023BD3607047D3685DF8044B0233CF
:1007A000D3607047D3685DF8044B0133D360704762
:1007B000E018FF1F214B10B4D3F8C0201368506815
:1007C00019780478507A137A044201EA03011BD0A5
:1007D000937A03F0030309B143F0040343F00803E1
:1007E0009910013B91720D2B0BD8DFE803F0210724
:1007F0001B070A152121150A071B0721D368013B96
:10080000D3605DF8044B7047937A03F0030300292B
:10081000E6D043F00403E3E7D3685DF8044B023B02
:10082000D3607047D3685DF8044B0233D3607047E0
:10083000D3685DF8044B0133D3607047E018FF1FA5
:10084000214B10B4D3F8C420136850681978047889
:10085000507A137A044201EA03011BD0937A03F021
:10086000030309B143F0040343F008039910013B6B
:1008700091720D2B0BD8DFE803F021071B070A1537
:100880002121150A071B0721D368013BD3605DF8BE
:10089000044B7047937A03F003030029E6D043F03A
:1008A0000403E3E7D3685DF8044B023BD360704771
:1008B000D3685DF8044B0233D3607047D3685DF8AA
:1008C000044B0133D3607047E018FF1F214B10B475
:1008D000D3F8C8201368506819780478507A137ACE
:1008E000044201EA03011BD0937A03F0030309B128
:1008F00043F0040343F008039910013B91720D2B60
:100900000BD8DFE803F021071B070A152121150A80
:10091000071B0721D368013BD3605DF8044B704788
:10092000937A03F003030029E6D043F00403E3E7DE
:10093000D3685DF8044B023BD3607047D3685DF821
:10094000044B0233D3607047D3685DF8044B013326
:10095000D3607047E018FF1F214B10B4D3F8CC20B0
:100960001368506819780478507A137A044201EABF
:1009700003011BD0937A03F0030309B143F004038E
:1009800043F008039910013B91720D2B0BD8DFE85F
:1009900003F021071B070A152121150A071B072150
:1009A000D368013BD3605DF8044B7047937A03F042
:1009B00003030029E6D043F00403E3E7D3685DF8BE
:1009C000044B023BD3607047D3685DF8044B02339D
:1009D000D3607047D3685DF8044B0133D360704730
:1009E000E018FF1F214B10B4D3F8D02013685068D3
:1009F00019780478507A137A044201EA03011BD073
:100A0000937A03F0030309B143F0040343F00803AE
:100A10009910013B91720D2B0BD8DFE803F02107F1
:100A20001B070A152121150A071B0721D368013B63
:100A3000D3605DF8044B7047937A03F003030029F9
:100A4000E6D043F00403E3E7D3685DF8044B023BD0
:100A5000D3607047D3685DF8044B0233D3607047AE
:100A6000D3685DF8044B0133D3607047E018FF1F73
:100A7000214B10B4D3F8D420136850681978047847
:100A8000507A137A044201EA03011BD0937A03F0EF
:100A9000030309B143F0040343F008039910013B39
:100AA00091720D2B0BD8DFE803F021071B070A1505
:100AB0002121150A071B0721D368013BD3605DF88C
:100AC000044B7047937A03F003030029E6D043F008
:100AD0000403E3E7D3685DF8044B023BD36070473F
:100AE000D3685DF8044B0233D3607047D3685DF878
:100AF000044B0133D3607047E018FF1F214B10B443
:100B0000D3F8D8201368506819780478507A137A8B
:100B1000044201EA03011BD0937A03F0030309B1F5
:100B200043F0040343F008039910013B91720D2B2D
:100B30000BD8DFE803F021071B070A152121150A4E
:100B4000071B0721D368013BD3605DF8044B704756
:100B5000937A03F003030029E6D043F00403E3E7AC
:100B6000D3685DF8044B023BD3607047D3685DF8EF
:100B7000044B0233D3607047D3685DF8044B0133F4
:100B8000D3607047E018FF1F214B10B4DA6F136871
:100B9000506819780478507A137A044201EA030104
:100BA0001BD0937A03F0030309B143F0040343F02D
:100BB00008039910013B91720D2B0BD8DFE803F06D
:100BC00021071B070A152121150A071B0721D368D6
:100BD000013BD3605DF8044B7047937A03F0030345
:100BE0000029E6D043F00403E3E7D3685DF8044B43
:100BF000023BD3607047D3685DF8044B0233D36087
:100C00007047D3685DF8044B0133D360704700BF71
:100C1000E018FF1F214B10B4D3F8802013685068F0
:100C200019780478507A137A044201EA03011BD040
:100C3000937A03F0030309B143F0040343F008037C
:100C40009910013B91720D2B0BD8DFE803F02107BF
:100C50001B070A152121150A071B0721D368013B31
:100C6000D3605DF8044B7047937A03F003030029C7
:100C7000E6D043F00403E3E7D3685DF8044B023B9E
:100C8000D3607047D3685DF8044B0233D36070477C
:100C9000D3685DF8044B0133D3607047E018FF1F41
:100CA000214B10B4D3F88420136850681978047865
:100CB000507A137A044201EA03011BD0937A03F0BD
:100CC000030309B143F0040343F008039910013B07
:100CD00091720D2B0BD8DFE803F021071B070A15D3
:100CE0002121150A071B0721D368013BD3605DF85A
:100CF000044B7047937A03F003030029E6D043F0D6
:100D00000403E3E7D3685DF8044B023BD36070470C
:100D1000D3685DF8044B0233D3607047D3685DF845
:100D2000044B0133D3607047E018FF1F214B10B410
:100D3000D3F888201368506819780478507A137AA9
:100D4000044201EA03011BD0937A03F0030309B1C3
:100D500043F0040343F008039910013B91720D2BFB
:100D60000BD8DFE803F021071B070A152121150A1C
:100D7000071B0721D368013BD3605DF8044B704724
:100D8000937A03F003030029E6D043F00403E3E77A
:100D9000D3685DF8044B023BD3607047D3685DF8BD
:100DA000044B0233D3607047D3685DF8044B0133C2
:100DB000D3607047E018FF1F214B10B4D3F88C208C
:100DC0001368506819780478507A137A044201EA5B
:100DD00003011BD0937A03F0030309B143F004032A
:100DE00043F008039910013B91720D2B0BD8DFE8FB
:100DF00003F021071B070A152121150A071B0721EC
:100E0000D368013BD3605DF8044B7047937A03F0DD
:100E100003030029E6D043F00403E3E7D3685DF859
:100E2000044B023BD3607047D3685DF8044B023338
:100E3000D3607047D3685DF8044B0133D3607047CB
:100E4000E018FF1F214B10B4D3F8902013685068AE
:100E500019780478507A137A044201EA03011BD00E
:100E6000937A03F0030309B143F0040343F008034A
:100E70009910013B91720D2B0BD8DFE803F021078D
:100E80001B070A152121150A071B0721D368013BFF
:100E9000D3605DF8044B7047937A03F00303002995
:100EA000E6D043F00403E3E7D3685DF8044B023B6C
:100EB000D3607047D3685DF8044B0233D36070474A
:100EC000D3685DF8044B0133D3607047E018FF1F0F
:100ED000214B10B4D3F89420136850681978047823
:100EE000507A137A044201EA03011BD0937A03F08B
:100EF000030309B143F0040343F008039910013BD5
:100F000091720D2B0BD8DFE803F021071B070A15A0
:100F10002121150A071B0721D368013BD3605DF827
:100F2000044B7047937A03F003030029E6D043F0A3
:100F30000403E3E7D3685DF8044B023BD3607047DA
:100F4000D3685DF8044B0233D3607047D3685DF813
:100F5000044B0133D3607047E018FF1F214B10B4DE
:100F6000D3F898201368506819780478507A137A67
:100F7000044201EA03011BD0937A03F0030309B191
:100F800043F0040343F008039910013B91720D2BC9
:100F90000BD8DFE803F021071B070A152121150AEA
:100FA000071B0721D368013BD3605DF8044B7047F2
:100FB000937A03F003030029E6D043F00403E3E748
:100FC000D3685DF8044B023BD3607047D3685DF88B
:100FD000044B0233D3607047D3685DF8044B013390
:100FE000D3607047E018FF1F214B10B4D3F89C204A
:100FF0001368506819780478507A137A044201EA29
:1010000003011BD0937A03F0030309B143F00403F7
:1010100043F008039910013B91720D2B0BD8DFE8C8
:1010200003F021071B070A152121150A071B0721B9
:10103000D368013BD3605DF8044B7047937A03F0AB
:1010400003030029E6D043F00403E3E7D3685DF827
:10105000044B023BD3607047D3685DF8044B023306
:10106000D3607047D3685DF8044B0133D360704799
:10107000E018FF1F214B10B4D3F8A020136850686C
:1010800019780478507A137A044201EA03011BD0DC
:10109000937A03F0030309B143F0040343F0080318
:1010A0009910013B91720D2B0BD8DFE803F021075B
:1010B0001B070A152121150A071B0721D368013BCD
:1010C000D3605DF8044B7047937A03F00303002963
:1010D000E6D043F00403E3E7D3685DF8044B023B3A
:1010E000D3607047D3685DF8044B0233D360704718
:1010F000D3685DF8044B0133D3607047E018FF1FDD
:10110000214B10B4D3F8A4201368506819780478E0
:10111000507A137A044201EA03011BD0937A03F058
:10112000030309B143F0040343F008039910013BA2
:1011300091720D2B0BD8DFE803F021071B070A156E
:101140002121150A071B0721D368013BD3605DF8F5
:10115000044B7047937A03F003030029E6D043F071
:101160000403E3E7D3685DF8044B023BD3607047A8
:10117000D3685DF8044B0233D3607047D3685DF8E1
:10118000044B0133D3607047E018FF1F214B10B4AC
:10119000D3F8A8201368506819780478507A137A25
:1011A000044201EA03011BD0937A03F0030309B15F
:1011B00043F0040343F008039910013B91720D2B97
:1011C0000BD8DFE803F021071B070A152121150AB8
:1011D000071B0721D368013BD3605DF8044B7047C0
:1011E000937A03F003030029E6D043F00403E3E716
:1011F000D3685DF8044B023BD3607047D3685DF859
:10120000044B0233D3607047D3685DF8044B01335D
:10121000D3607047E018FF1F214B10B4D3F8AC2007
:101220001368506819780478507A137A044201EAF6
:1012300003011BD0937A03F0030309B143F00403C5
:1012400043F008039910013B91720D2B0BD8DFE896
:1012500003F021071B070A152121150A071B072187
:10126000D368013BD3605DF8044B7047937A03F079
:1012700003030029E6D043F00403E3E7D3685DF8F5
:10128000044B023BD3607047D3685DF8044B0233D4
:10129000D3607047D3685DF8044B0133D360704767
:1012A000E018FF1F214B10B4D3F8B020136850682A
:1012B00019780478507A137A044201EA03011BD0AA
:1012C000937A03F0030309B143F0040343F00803E6
:1012D0009910013B91720D2B0BD8DFE803F0210729
:1012E0001B070A152121150A071B0721D368013B9B
:1012F000D3605DF8044B7047937A03F00303002931
:10130000E6D043F00403E3E7D3685DF8044B023B07
:10131000D3607047D3685DF8044B0233D3607047E5
:10132000D3685DF8044B0133D3607047E018FF1FAA
:10133000214B10B4D3F8B42013685068197804789E
:10134000507A137A044201EA03011BD0937A03F026
:10135000030309B143F0040343F008039910013B70
:1013600091720D2B0BD8DFE803F021071B070A153C
:101370002121150A071B0721D368013BD3605DF8C3
:10138000044B7047937A03F003030029E6D043F03F
:101390000403E3E7D3685DF8044B023BD360704776
:1013A000D3685DF8044B0233D3607047D3685DF8AF
:1013B000044B0133D3607047E018FF1F214B10B47A
:1013C000D3F8B8201368506819780478507A137AE3
:1013D000044201EA03011BD0937A03F0030309B12D
:1013E00043F0040343F008039910013B91720D2B65
:1013F0000BD8DFE803F021071B070A152121150A86
:10140000071B0721D368013BD3605DF8044B70478D
:10141000937A03F003030029E6D043F00403E3E7E3
:10142000D3685DF8044B023BD3607047D3685DF826
:10143000044B0233D3607047D3685DF8044B01332B
:10144000D3607047E018FF1F214B10B41A6813686F
:10145000506819780478507A137A044201EA03013B
:101460001BD0937A03F0030309B143F0040343F064
:1014700008039910013B91720D2B0BD8DFE803F0A4
:1014800021071B070A152121150A071B0721D3680D
:10149000013BD3605DF8044B7047937A03F003037C
:1014A0000029E6D043F00403E3E7D3685DF8044B7A
:1014B000023BD3607047D3685DF8044B0233D360BE
:1014C0007047D3685DF8044B0133D360704700BFA9
:1014D000E018FF1F214B10B45A6813685068197840
:1014E0000478507A137A044201EA03011BD0937AFC
:1014F00003F0030309B143F0040343F00803991018
:10150000013B91720D2B0BD8DFE803F021071B077D
:101510000A152121150A071B0721D368013BD36057
:101520005DF8044B7047937A03F003030029E6D07B
:1015300043F00403E3E7D3685DF8044B023BD36058
:101540007047D3685DF8044B0233D3607047D368AB
:101550005DF8044B0133D360704700BFE018FF1FF4
:10156000214B10B49A681368506819780478507A3F
:10157000137A044201EA03011BD0937A03F00303B8
:1015800009B143F0040343F008039910013B917241
:101590000D2B0BD8DFE803F021071B070A152121CB
:1015A000150A071B0721D368013BD3605DF8044B84
:1015B0007047937A03F003030029E6D043F0040355
:1015C000E3E7D3685DF8044B023BD3607047D36810
:1015D0005DF8044B0233D3607047D3685DF8044B69
:1015E0000133D360704700BFE018FF1F214B10B4D8
:1015F000DA681368506819780478507A137A0442CC
:1016000001EA03011BD0937A03F0030309B143F00D
:10161000040343F008039910013B91720D2B0BD882
:10162000DFE803F021071B070A152121150A071B14
:101630000721D368013BD3605DF8044B7047937A70
:1016400003F003030029E6D043F00403E3E7D36883
:101650005DF8044B023BD3607047D3685DF8044BE0
:101660000233D3607047D3685DF8044B0133D36015
:10167000704700BFE018FF1F214B10B41A691368B0
:10168000506819780478507A137A044201EA030109
:101690001BD0937A03F0030309B143F0040343F032
:1016A00008039910013B91720D2B0BD8DFE803F072
:1016B00021071B070A152121150A071B0721D368DB
:1016C000013BD3605DF8044B7047937A03F003034A
:1016D0000029E6D043F00403E3E7D3685DF8044B48
:1016E000023BD3607047D3685DF8044B0233D3608C
:1016F0007047D3685DF8044B0133D360704700BF77
:10170000E018FF1F214B10B45A691368506819780C
:101710000478507A137A044201EA03011BD0937AC9
:1017200003F0030309B143F0040343F008039910E5
:10173000013B91720D2B0BD8DFE803F021071B074B
:101740000A152121150A071B0721D368013BD36025
:101750005DF8044B7047937A03F003030029E6D049
:1017600043F00403E3E7D3685DF8044B023BD36026
:101770007047D3685DF8044B0233D3607047D36879
:101780005DF8044B0133D360704700BFE018FF1FC2
:10179000214B10B49A691368506819780478507A0C
:1017A000137A044201EA03011BD0937A03F0030386
:1017B00009B143F0040343F008039910013B91720F
:1017C0000D2B0BD8DFE803F021071B070A15212199
:1017D000150A071B0721D368013BD3605DF8044B52
:1017E0007047937A03F003030029E6D043F0040323
:1017F000E3E7D3685DF8044B023BD3607047D368DE
:101800005DF8044B0233D3607047D3685DF8044B36
:101810000133D360704700BFE018FF1F214B10B4A5
:10182000DA691368506819780478507A137A044298
:1018300001EA03011BD0937A03F0030309B143F0DB
:10184000040343F008039910013B91720D2B0BD850
:10185000DFE803F021071B070A152121150A071BE2
:101860000721D368013BD3605DF8044B7047937A3E
:1018700003F003030029E6D043F00403E3E7D36851
:101880005DF8044B023BD3607047D3685DF8044BAE
:101890000233D3607047D3685DF8044B0133D360E3
:1018A000704700BFE018FF1F214B10B41A6A13687D
:1018B000506819780478507A137A044201EA0301D7
:1018C0001BD0937A03F0030309B143F0040343F000
:1018D00008039910013B91720D2B0BD8DFE803F040
:1018E00021071B070A152121150A071B0721D368A9
:1018F000013BD3605DF8044B7047937A03F0030318
:101900000029E6D043F00403E3E7D3685DF8044B15
:10191000023BD3607047D3685DF8044B0233D36059
:101920007047D3685DF8044B0133D360704700BF44
:10193000E018FF1F214B10B45A6A136850681978D9
:101940000478507A137A044201EA03011BD0937A97
:1019500003F0030309B143F0040343F008039910B3
:10196000013B91720D2B0BD8DFE803F021071B0719
:101970000A152121150A071B0721D368013BD360F3
:101980005DF8044B7047937A03F003030029E6D017
:1019900043F00403E3E7D3685DF8044B023BD360F4
:1019A0007047D3685DF8044B0233D3607047D36847
:1019B0005DF8044B0133D360704700BFE018FF1F90
:1019C000214B10B49A6A1368506819780478507AD9
:1019D000137A044201EA03011BD0937A03F0030354
:1019E00009B143F0040343F008039910013B9172DD
:1019F0000D2B0BD8DFE803F021071B070A15212167
:101A0000150A071B0721D368013BD3605DF8044B1F
:101A10007047937A03F003030029E6D043F00403F0
:101A2000E3E7D3685DF8044B023BD3607047D368AB
:101A30005DF8044B0233D3607047D3685DF8044B04
:101A40000133D360704700BFE018FF1F214B10B473
:101A5000DA6A1368506819780478507A137A044265
:101A600001EA03011BD0937A03F0030309B143F0A9
:101A7000040343F008039910013B91720D2B0BD81E
:101A8000DFE803F021071B070A152121150A071BB0
:101A90000721D368013BD3605DF8044B7047937A0C
:101AA00003F003030029E6D043F00403E3E7D3681F
:101AB0005DF8044B023BD3607047D3685DF8044B7C
:101AC0000233D3607047D3685DF8044B0133D360B1
:101AD000704700BFE018FF1F214B10B41A6B13684A
:101AE000506819780478507A137A044201EA0301A5
:101AF0001BD0937A03F0030309B143F0040343F0CE
:101B000008039910013B91720D2B0BD8DFE803F00D
:101B100021071B070A152121150A071B0721D36876
:101B2000013BD3605DF8044B7047937A03F00303E5
:101B30000029E6D043F00403E3E7D3685DF8044BE3
:101B4000023BD3607047D3685DF8044B0233D36027
:101B50007047D3685DF8044B0133D360704700BF12
:101B6000E018FF1F214B10B45A6B136850681978A6
:101B70000478507A137A044201EA03011BD0937A65
:101B800003F0030309B143F0040343F00803991081
:101B9000013B91720D2B0BD8DFE803F021071B07E7
:101BA0000A152121150A071B0721D368013BD360C1
:101BB0005DF8044B7047937A03F003030029E6D0E5
:101BC00043F00403E3E7D3685DF8044B023BD360C2
:101BD0007047D3685DF8044B0233D3607047D36815
:101BE0005DF8044B0133D360704700BFE018FF1F5E
:101BF000214B10B49A6B1368506819780478507AA6
:101C0000137A044201EA03011BD0937A03F0030321
:101C100009B143F0040343F008039910013B9172AA
:101C20000D2B0BD8DFE803F021071B070A15212134
:101C3000150A071B0721D368013BD3605DF8044BED
:101C40007047937A03F003030029E6D043F00403BE
:101C5000E3E7D3685DF8044B023BD3607047D36879
:101C60005DF8044B0233D3607047D3685DF8044BD2
:101C70000133D360704700BFE018FF1F214B10B441
:101C8000DA6B1368506819780478507A137A044232
:101C900001EA03011BD0937A03F0030309B143F077
:101CA000040343F008039910013B91720D2B0BD8EC
:101CB000DFE803F021071B070A152121150A071B7E
:101CC0000721D368013BD3605DF8044B7047937ADA
:101CD00003F003030029E6D043F00403E3E7D368ED
:101CE0005DF8044B023BD3607047D3685DF8044B4A
:101CF0000233D3607047D3685DF8044B0133D3607F
:101D0000704700BFE018FF1F214B10B41A6C136816
:101D1000506819780478507A137A044201EA030172
:101D20001BD0937A03F0030309B143F0040343F09B
:101D300008039910013B91720D2B0BD8DFE803F0DB
:101D400021071B070A152121150A071B0721D36844
:101D5000013BD3605DF8044B7047937A03F00303B3
:101D60000029E6D043F00403E3E7D3685DF8044BB1
:101D7000023BD3607047D3685DF8044B0233D360F5
:101D80007047D3685DF8044B0133D360704700BFE0
:101D9000E018FF1F214B10B45A6C13685068197873
:101DA0000478507A137A044201EA03011BD0937A33
:101DB00003F0030309B143F0040343F0080399104F
:101DC000013B91720D2B0BD8DFE803F021071B07B5
:101DD0000A152121150A071B0721D368013BD3608F
:101DE0005DF8044B7047937A03F003030029E6D0B3
:101DF00043F00403E3E7D3685DF8044B023BD36090
:101E00007047D3685DF8044B0233D3607047D368E2
:101E10005DF8044B0133D360704700BFE018FF1F2B
:101E2000214B10B49A6C1368506819780478507A72
:101E3000137A044201EA03011BD0937A03F00303EF
:101E400009B143F0040343F008039910013B917278
:101E50000D2B0BD8DFE803F021071B070A15212102
:101E6000150A071B0721D368013BD3605DF8044BBB
:101E70007047937A03F003030029E6D043F004038C
:101E8000E3E7D3685DF8044B023BD3607047D36847
:101E90005DF8044B0233D3607047D3685DF8044BA0
:101EA0000133D360704700BFE018FF1F214B10B40F
:101EB000DA6C1368506819780478507A137A0442FF
:101EC00001EA03011BD0937A03F0030309B143F045
:101ED000040343F008039910013B91720D2B0BD8BA
:101EE000DFE803F021071B070A152121150A071B4C
:101EF0000721D368013BD3605DF8044B7047937AA8
:101F000003F003030029E6D043F00403E3E7D368BA
:101F10005DF8044B023BD3607047D3685DF8044B17
:101F20000233D3607047D3685DF8044B0133D3604C
:101F3000704700BFE018FF1F214B10B41A6D1368E3
:101F4000506819780478507A137A044201EA030140
:101F50001BD0937A03F0030309B143F0040343F069
:101F600008039910013B91720D2B0BD8DFE803F0A9
:101F700021071B070A152121150A071B0721D36812
:101F8000013BD3605DF8044B7047937A03F0030381
:101F90000029E6D043F00403E3E7D3685DF8044B7F
:101FA000023BD3607047D3685DF8044B0233D360C3
:101FB0007047D3685DF8044B0133D360704700BFAE
:101FC000E018FF1F214B10B45A6D13685068197840
:101FD0000478507A137A044201EA03011BD0937A01
:101FE00003F0030309B143F0040343F0080399101D
:101FF000013B91720D2B0BD8DFE803F021071B0783
:102000000A152121150A071B0721D368013BD3605C
:102010005DF8044B7047937A03F003030029E6D080
:1020200043F00403E3E7D3685DF8044B023BD3605D
:102030007047D3685DF8044B0233D3607047D368B0
:102040005DF8044B0133D360704700BFE018FF1FF9
:10205000214B10B49A6D1368506819780478507A3F
:10206000137A044201EA03011BD0937A03F00303BD
:1020700009B143F0040343F008039910013B917246
:102080000D2B0BD8DFE803F021071B070A152121D0
:10209000150A071B0721D368013BD3605DF8044B89
:1020A0007047937A03F003030029E6D043F004035A
:1020B000E3E7D3685DF8044B023BD3607047D36815
:1020C0005DF8044B0233D3607047D3685DF8044B6E
:1020D0000133D360704700BFE018FF1F214B10B4DD
:1020E000DA6D1368506819780478507A137A0442CC
:1020F00001EA03011BD0937A03F0030309B143F013
:10210000040343F008039910013B91720D2B0BD887
:10211000DFE803F021071B070A152121150A071B19
:102120000721D368013BD3605DF8044B7047937A75
:1021300003F003030029E6D043F00403E3E7D36888
:102140005DF8044B023BD3607047D3685DF8044BE5
:102150000233D3607047D3685DF8044B0133D3601A
:10216000704700BFE018FF1F214B10B41A6E1368B0
:10217000506819780478507A137A044201EA03010E
:102180001BD0937A03F0030309B143F0040343F037
:1021900008039910013B91720D2B0BD8DFE803F077
:1021A00021071B070A152121150A071B0721D368E0
:1021B000013BD3605DF8044B7047937A03F003034F
:1021C0000029E6D043F00403E3E7D3685DF8044B4D
:1021D000023BD3607047D3685DF8044B0233D36091
:1021E0007047D3685DF8044B0133D360704700BF7C
:1021F000E018FF1F214B10B45A6E1368506819780D
:102200000478507A137A044201EA03011BD0937ACE
:1022100003F0030309B143F0040343F008039910EA
:10222000013B91720D2B0BD8DFE803F021071B0750
:102230000A152121150A071B0721D368013BD3602A
:102240005DF8044B7047937A03F003030029E6D04E
:1022500043F00403E3E7D3685DF8044B023BD3602B
:102260007047D3685DF8044B0233D3607047D3687E
:102270005DF8044B0133D360704700BFE018FF1FC7
:10228000214B10B49A6E1368506819780478507A0C
:10229000137A044201EA03011BD0937A03F003038B
:1022A00009B143F0040343F008039910013B917214
:1022B0000D2B0BD8DFE803F021071B070A1521219E
:1022C000150A071B0721D368013BD3605DF8044B57
:1022D0007047937A03F003030029E6D043F0040328
:1022E000E3E7D3685DF8044B023BD3607047D368E3
:1022F0005DF8044B0233D3607047D3685DF8044B3C
:102300000133D360704700BFE018FF1F214B10B4AA
:10231000DA6E1368506819780478507A137A044298
:1023200001EA03011BD0937A03F0030309B143F0E0
:10233000040343F008039910013B91720D2B0BD855
:10234000DFE803F021071B070A152121150A071BE7
:102350000721D368013BD3605DF8044B7047937A43
:1023600003F003030029E6D043F00403E3E7D36856
:102370005DF8044B023BD3607047D3685DF8044BB3
:102380000233D3607047D3685DF8044B0133D360E8
:10239000704700BFE018FF1F214B10B41A6F13687D
:1023A000506819780478507A137A044201EA0301DC
:1023B0001BD0937A03F0030309B143F0040343F005
:1023C00008039910013B91720D2B0BD8DFE803F045
:1023D00021071B070A152121150A071B0721D368AE
:1023E000013BD3605DF8044B7047937A03F003031D
:1023F0000029E6D043F00403E3E7D3685DF8044B1B
:10240000023BD3607047D3685DF8044B0233D3605E
:102410007047D3685DF8044B0133D360704700BF49
:10242000E018FF1F214B10B45A6F136850681978D9
:102430000478507A137A044201EA03011BD0937A9C
:1024400003F0030309B143F0040343F008039910B8
:10245000013B91720D2B0BD8DFE803F021071B071E
:102460000A152121150A071B0721D368013BD360F8
:102470005DF8044B7047937A03F003030029E6D01C
:1024800043F00403E3E7D3685DF8044B023BD360F9
:102490007047D3685DF8044B0233D3607047D3684C
:1024A0005DF8044B0133D360704700BFE018FF1F95
:1024B000214B10B49A6F1368506819780478507AD9
:1024C000137A044201EA03011BD0937A03F0030359
:1024D00009B143F0040343F008039910013B9172E2
:1024E0000D2B0BD8DFE803F021071B070A1521216C
:1024F000150A071B0721D368013BD3605DF8044B25
:102500007047937A03F003030029E6D043F00403F5
:10251000E3E7D3685DF8044B023BD3607047D368B0
:102520005DF8044B0233D3607047D3685DF8044B09
:102530000133D360704700BFE018FF1FF8B50446B1
:1025400015460E460846022102F0C0FF2846022129
:1025500002F0BCFF984A994B52F83610012001F561
:1025600000772760207252F83520607202F50077FC
:1025700000206760E060013BFDD191F8003292F8E5
:10258000002203F00103D20744BF43F00203DBB291
:10259000A3723B2E00F20386DFE816F0F405EA058D
:1025A000E005D605CC05C205B805AE05A4059A051B
:1025B000900586057C05720568055E0554054A058B
:1025C000400536052C05220518050E050405FA04FC
:1025D000F004E604DC04D204C804BE04B304A80476
:1025E0009D04920487047C0428041E0414040A0435
:1025F0000004F603EC03E203D803CE03C403BA03DA
:10260000B003A6039C03920388037E0374036A034A
:1026100060033C006A4B6B49C3F8EC4004223B204A
:1026200002F0C0FE012323743B2D00F2B585DFE8E4
:1026300015F00B030103F702ED02E302D902CF020A
:10264000C502BB02B102A7029D02930289027F026A
:10265000310227021D0213020902FF01F501EB01FD
:10266000E101D701CD01C301B901AF01A5019B0172
:10267000910186017B01700165015A014F014401FE
:1026800039012E01230118010D010201F700EC00B0
:10269000E100B800AD00A20097008C008100760038
:1026A0006B00600055004A003C00454B4549C3F8AB
:1026B000EC4004223B2002F075FE237C01221344EF
:1026C00023742046F8BD3E4B3F49C3F8E84004223E
:1026D0003A2002F067FE237C0122F0E7384B3B49A9
:1026E000C3F8E4400422392002F05CFE237C01227E
:1026F000E5E7334B3649C3F8E0400422382002F0C6
:1027000051FE237C0122DAE72D4B3249C3F8DC402D
:102710000422372002F046FE237C0122CFE7284B1B
:102720002D49C3F8D8400422362002F03BFE237C1A
:102730000122C4E7224B2949C3F8D44004223520A2
:1027400002F030FE237C0122B9E71D4B2449C3F877
:10275000D0400422342002F025FE237C0122AEE783
:10276000174B2049C3F8CC400422332002F01AFE54
:10277000237C0122A3E7124B1B49C3F8C840042263
:10278000322002F00FFE237C012298E70C4B174900
:10279000C3F8C4400422312002F004FE237C01224D
:1027A0008DE7074B1249C3F8C0400422302002F0E5
:1027B000F9FD237C012282E79C8A00008038010019
:1027C000E018FF1F6D0400009D06000011060000C8
:1027D00085050000F9040000FD0A0000710A0000F0
:1027E000E509000059090000CD080000410800007B
:1027F000B5070000AC4BAD49C3F8BC4004222F2004
:1028000002F0D0FD237C012259E7A74BA849C3F869
:10281000B84004222E2002F0C5FD237C01224EE7A1
:10282000A14BA449C3F8B44004222D2002F0BAFD04
:10283000237C012243E79C4B9F49C3F8B04004220C
:102840002C2002F0AFFD237C012238E7964B9B49F8
:10285000C3F8AC4004222B2002F0A4FD237C01220B
:102860002DE7914B9649C3F8A84004222A2002F094
:1028700099FD237C012222E78B4B9249C3F8A440A7
:102880000422292002F08EFD237C012217E7864BCB
:102890008D49C3F8A0400422282002F083FD237C48
:1028A00001220CE7804B8949C3F89C400422272071
:1028B00002F078FD237C012201E77B4B8449C3F8B9
:1028C00098400422262002F06DFD237C0122F6E6CA
:1028D000754B8049C3F894400422252002F062FD24
:1028E000237C0122EBE6704B7B49C3F89040042225
:1028F000242002F057FD237C0122E0E66A4B774951
:10290000C3F88C400422232002F04CFD237C0122DA
:10291000D5E6654B7249C3F888400422222002F0B4
:1029200041FD237C0122CAE65F4B6E49C3F8844017
:102930000422212002F036FD237C0122BFE65A4BFF
:102940006949C3F880400422202002F02BFD237C3B
:102950000122B4E6544B6549DC6704221F2002F0D3
:1029600021FD237C0122AAE64F4B61499C6704228A
:102970001E2002F017FD237C0122A0E64A4B5D4990
:102980005C6704221D2002F00DFD237C012296E6E7
:10299000454B59491C6704221C2002F003FD237C8F
:1029A00001228CE6404B5549DC6604221B2002F0D4
:1029B000F9FC237C012282E63B4B51499C660422B0
:1029C0001A2002F0EFFC237C012278E6364B4D49B9
:1029D0005C660422192002F0E5FC237C01226EE6ED
:1029E000314B49491C660422182002F0DBFC237C91
:1029F000012264E62C4B4549DC650422172002F0D5
:102A0000D1FC237C01225AE6274B41499C650422D4
:102A1000162002F0C7FC237C012250E6224B3D49E0
:102A20005C650422152002F0BDFC237C012246E6F1
:102A30001D4B39491C650422142002F0B3FC237C91
:102A400001223CE6184B3549DC640422132002F0D5
:102A5000A9FC237C012232E6134B31499C640422F9
:102A6000122002F09FFC237C012228E60E4B2D4908
:102A70005C640422112002F095FC237C01221EE6F6
:102A8000094B29491C640422102002F08BFC237C92
:102A9000012214E6044B2549DC6304220F2002F0D6
:102AA00081FC237C01220AE6E018FF1F29070000B1
:102AB000BD13000031130000A51200001912000020
:102AC0008D1100000111000075100000E90F0000D9
:102AD0005D0F0000D10E0000450E0000B90D000092
:102AE0002D0D0000A10C0000150C0000890B00004A
:102AF000B124000025240000992300000D230000CC
:102B000081220000F521000069210000DD20000085
:102B100051200000C51F0000391F0000AD1E00003D
:102B2000211E0000951D0000091D00007D1C0000F5
:102B3000B34BB4499C6304220E2002F033FC237C87
:102B40000122BCE5AE4BB0495C6304220D2002F0CB
:102B500029FC237C0122B2E5A94BAC491C63042269
:102B60000C2002F01FFC237C0122A8E5A44BA849FD
:102B7000DC6204220B2002F015FC237C01229EE57E
:102B80009F4BA4499C6204220A2002F00BFC237C88
:102B9000012294E59A4BA0495C620422092002F0CC
:102BA00001FC237C01228AE5954B9C491C6204228E
:102BB000082002F0F7FB237C012280E5904B984926
:102BC000DC610422072002F0EDFB237C012276E584
:102BD0008B4B94499C610422062002F0E3FB237C8A
:102BE00001226CE5864B90495C610422052002F0CD
:102BF000D9FB237C012262E5814B8C491C610422B4
:102C0000104602F0CFFB237C012258E57C4B88491B
:102C1000DC600422032002F0C5FB237C01224EE588
:102C2000774B84499C600422022002F0BBFB237C8A
:102C3000012244E5724B80495C600422012002F0CD
:102C4000B1FB237C01223AE56D4B7C491C600422D8
:102C5000002002F0A7FB237C012230E5684B784975
:102C6000C3F8E84004223A2002F09CFB0123DAE496
:102C7000634B7449C3F8E4400422392002F092FB0C
:102C80000123D0E45E4B7049C3F8E04004223820B1
:102C900002F088FB0123C6E4594B6C49C3F8DC40C1
:102CA0000422372002F07EFB0123BCE4544B684928
:102CB000C3F8D8400422362002F074FB0123B2E4AA
:102CC0004F4B6449C3F8D4400422352002F06AFB1C
:102CD0000123A8E44A4B6049C3F8D04004223420C1
:102CE00002F060FB01239EE4454B5C49C3F8CC40F5
:102CF0000422332002F056FB012394E4404B584950
:102D0000C3F8C8400422322002F04CFB01238AE4BD
:102D10003B4B5449C3F8C4400422312002F042FB2B
:102D2000012380E4364B5049C3F8C04004223020D0
:102D300002F038FB012376E4314B4C49C3F8BC4028
:102D400004222F2002F02EFB01236CE42C4B484977
:102D5000C3F8B84004222E2002F024FB012362E4D1
:102D6000274B4449C3F8B44004222D2002F01AFB3B
:102D7000012358E4224B4049C3F8B04004222C20E0
:102D800002F010FB01234EE41D4B3C49C3F8AC405C
:102D900004222B2002F006FB012344E4184B38499F
:102DA000C3F8A84004222A2002F0FCFA01233AE4E6
:102DB000134B3449C3F8A4400422292002F0F2FA4C
:102DC000012330E40E4B3049C3F8A04004222820F0
:102DD00002F0E8FA012326E4094B2C49C3F89C4091
:102DE0000422272002F0DEFA01231CE4044B2849C8
:102DF000C3F898400422262002F0D4FA012312E4FA
:102E0000E018FF1FF11B0000651B0000D91A00002D
:102E10004D1A0000C119000035190000A918000062
:102E20001D1800009117000005170000791600001A
:102E3000ED15000061150000D514000049140000D4
:102E40009D0600001106000085050000F904000041
:102E5000FD0A0000710A0000E509000059090000A0
:102E6000CD08000041080000B50700002907000058
:102E7000BD13000031130000A5120000191200005C
:102E80008D1100000111000075100000E90F000015
:102E90005D0F0000C34BC449C3F8944004222520B1
:102EA00002F080FA0123FFF7BEBBBE4BBF49C3F857
:102EB00090400422242002F075FA0123FFF7B3BBEF
:102EC000B84BBB49C3F88C400422232002F06AFAB5
:102ED0000123FFF7A8BBB34BB649C3F888400422CF
:102EE000222002F05FFA0123FFF79DBBAD4BB249F0
:102EF000C3F884400422212002F054FA0123FFF792
:102F000092BBA84BAD49C3F880400422202002F0B8
:102F100049FA0123FFF787BBA24BA949DC670422CA
:102F20001F2002F03FFA0123FFF77DBB9D4BA5490F
:102F30009C6704221E2002F035FA0123FFF773BBC1
:102F4000984BA1495C6704221D2002F02BFA012353
:102F5000FFF769BB934B9D491C6704221C2002F0BC
:102F600021FA0123FFF75FBB8E4B9949DC660422EF
:102F70001B2002F017FA0123FFF755BB894B954937
:102F80009C6604221A2002F00DFA0123FFF74BBBC6
:102F9000844B91495C660422192002F003FA012354
:102FA000FFF741BB7F4B8D491C660422182002F0BD
:102FB000F9F90123FFF737BB7A4B8949DC65042215
:102FC000172002F0EFF90123FFF72DBB754B854960
:102FD0009C650422162002F0E5F90123FFF723BBCC
:102FE000704B81495C650422152002F0DBF9012356
:102FF000FFF719BB6B4B7D491C650422142002F0BE
:10300000D1F90123FFF70FBB664B7949DC64042239
:10301000132002F0C7F90123FFF705BB614B754987
:103020009C640422122002F0BDF90123FFF7FBBAD1
:103030005C4B71495C640422112002F0B3F9012356
:10304000FFF7F1BA574B6D491C640422102002F0BF
:10305000A9F90123FFF7E7BA524B6949DC6304225F
:103060000F2002F09FF90123FFF7DDBA4D4B6549B0
:103070009C6304220E2002F095F90123FFF7D3BAD6
:10308000484B61495C6304220D2002F08BF9012357
:10309000FFF7C9BA434B5D491C6304220C2002F0C0
:1030A00081F90123FFF7BFBA3E4B5949DC62042284
:1030B0000B2002F077F90123FFF7B5BA394B5549D8
:1030C0009C6204220A2002F06DF90123FFF7ABBADB
:1030D000344B51495C620422092002F063F9012358
:1030E000FFF7A1BA2F4B4D491C620422082002F0C1
:1030F00059F90123FFF797BA2A4B4949DC610422A9
:10310000072002F04FF90123FFF78DBA254B4549FF
:103110009C610422062002F045F90123FFF783BADF
:10312000204B41495C610422052002F03BF9012358
:10313000FFF779BA1B4B3D491C610422104602F08F
:1031400031F90123FFF76FBA164B3949DC600422CD
:10315000032002F027F90123FFF765BA114B354927
:103160009C600422022002F01DF90123FFF75BBAE4
:103170000C4B31495C600422012002F013F9012359
:10318000FFF751BA074B2D491C600422002002F0C2
:1031900009F90123FFF747BA0022FFF790BA00238D
:1031A000FFF741BAE018FF1FD10E0000450E0000E6
:1031B000B90D00002D0D0000A10C0000150C000041
:1031C000890B0000B1240000252400009923000091
:1031D0000D23000081220000F5210000692100007C
:1031E000DD20000051200000C51F0000391F000035
:1031F000AD1E0000211E0000951D0000091D0000ED
:103200007D1C0000F11B0000651B0000D91A0000A6
:103210004D1A0000C119000035190000A91800005E
:103220001D18000091170000051700007916000016
:10323000ED15000061150000D514000049140000D0
:1032400010B51D4C40F6B831204601F08BFC2046ED
:103250001A494FF4165201F05FFC2046012101F09B
:1032600035FC60B1606C1649036811225B689847B1
:1032700020460A2101F018FC204601F04BFC114CBD
:103280000D480122002101F035FD2078012102F0D6
:103290001DF92078012102F013F901233C220221BB
:1032A000094801F01DF901233C2202210748BDE82D
:1032B000104001F015B900BFE019FF1F300FFF1FCC
:1032C0001C830000E007FF1F6818FF1FA418FF1FE2
:1032D00000B5172283B015238DE80C0013211623A7
:1032E00014220D4801F062F8122210238DE80C0020
:1032F000132111231422094801F058F82222212118
:103300000748FFF71BF9242223210648FFF716F987
:1033100003B05DF804FB00BF6818FF1FA418FF1F6F
:103320004018FF1F5418FF1FF0B5A84A137C012B4B
:1033300089B040F2E38072B6D56862B6A44C237CB3
:10334000012B40F2A28072B6E66862B6A14F3968DE
:10335000A9425DD0A04803686D1A1D44002D056088
:103360006CDB9E483D6001F043F801219B4800F072
:1033700087FD00221146994800F078FD0321974807
:1033800000F078FD964BC92101FB05F583FB053163
:10339000ED170A22C5EBA111684603F06BFA6946E6
:1033A00004A803F049FA8F4904A803F0AFFA0146D4
:1033B0008A4803F073F9894803F096F904A803F0EA
:1033C000FBF9684603F0F8F90121844800F052FD4A
:1033D00003228549814803F04DF90B2283497F4838
:1033E00003F048F97D4803F07FF90A2280497B48C1
:1033F00003F040F9794803F077F90A227D497748CC
:1034000003F038F9754803F06FF9744801F0B8F922
:1034100079490B68B3420CD0784D2A68F31A1344EB
:10342000002B2B6011DA00232B6072B6E36062B6CA
:103430000B60142002F050F809B0F0BD00230360C7
:103440003B6072B6D36062B6E2E76D480E6000F092
:10345000CFFF01216A4800F013FD002211466848A1
:1034600000F004FD0321664800F004FD296864486B
:1034700003F08AF9624803F037F9614801F080F9F6
:10348000142002F029F809B0F0BD72B62368606814
:1034900019780678607A237A064201EA03016DD032
:1034A000A37A03F0030309B143F0040343F00803D4
:1034B0009910013BA1720D2B3FF646AF01A151F8C7
:1034C00023F000BFC5350000BD350000B535000054
:1034D000BD35000049330000AD350000C5350000A2
:1034E000C5350000AD35000049330000BD35000092
:1034F000B5350000BD350000C535000072B6136853
:10350000506819780478507A137A044201EA03016A
:103510002CD0937A03F0030309B143F0040343F082
:1035200008039910013B91720D2B3FF605AF01A1E5
:1035300051F823F0A53500009D35000095350000B9
:103540009D350000393300008D350000A5350000A1
:10355000A53500008D350000393300009D35000091
:10356000953500009D350000A5350000937A03F0E5
:1035700003030029D5D043F00403D2E7A37A03F074
:103580000303002994D043F0040391E7D568023D7A
:10359000D560D2E6D5680235D560CEE6D568013D66
:1035A000D560CAE6D5680135D560C6E6E668023E54
:1035B000E660CAE6E6680236E660C6E6E668013E10
:1035C000E660C2E6E6680136E660BEE64018FF1F28
:1035D0005418FF1FE407FF1FD807FF1F6818FF1FBD
:1035E000D34D621030830000388300003C8300001C
:1035F0004883000054830000D407FF1FDC07FF1F2F
:10360000A418FF1F00207047704700BF2DE9F04F3E
:1036100085B09946BDF93870BDF83CA0BB1AC1EB26
:10362000090B002BB8BF5B42BBF1000FB8BFCBF159
:10363000000B5B450D4616460093804648DC4D4521
:103640003A4633464CDC194613460A46C5EB090197
:103650009B1A89B2002B0CB2B8BF5B4204EBD47446
:10366000BE42ACBF4FF0FF3201224D4503910292A2
:103670004FEA640429DC9BB201930DE0D8F8007096
:10368000BF69B847019BE41AA3B21CB20135002CF4
:103690002DB211DBA94518DB009B5B452A4653463A
:1036A00031464046EADCD8F800205346976929465F
:1036B00032464046B847E5E7029A1644039AA945C0
:1036C00002EB030436B224B2E6DA05B0BDE8F08FAF
:1036D0004A462B46B94635464D4517461E46B2DD8D
:1036E000304629463E464D4607468946AEE700BF6E
:1036F00010B404682469A4465DF8044B604700BF19
:1037000030B40468BDF808500295A46BA44630BCE0
:10371000604700BF30B40468BDF808500295E46B00
:10372000A44630BC604700BF70B40468BDF90C60AB
:10373000BDF8105003960495246CA44670BC6047F5
:10374000704700BF10B582B0B0F90C20019101683C
:10375000009200220C6CB0F90A301146A04702B06A
:1037600010BD00BF704700BF01F003010129C17502
:1037700006D0032904D0C28803894281838170471F
:103780000289C38842818381704700BF2DE9F041DF
:103790000568134E6F6986B0B7420446BDF83080A5
:1037A00010D1013B13441BB20093CDF804800B46AB
:1037B000AD6A2046A8472368DB6AB3420AD106B047
:1037C000BDE8F081059304920391B84703A92568E9
:1037D0000EC9E6E7204606B0BDE8F041184700BF35
:1037E000413700002DE9F0410568124E6F6986B03F
:1037F000B7420446BDF830800FD1013BCDF80480BC
:103800000B4400921BB2AD6A2046A8472368DB6ACE
:10381000B3420AD106B0BDE8F0810593049203914A
:10382000B84703A925680EC9E7E7204606B0BDE8FA
:10383000F0411847413700002DE9F04F0568DFF8E7
:1038400058B06F6985B05F450646BDF93890BDF840
:103850003CA00C46904615D11F19BC420CDACDF89D
:1038600000A0214601342D6A4B464246304624B220
:10387000A847BC423568F2DBEB6A5B4507D105B06F
:10388000BDE8F08F0393B8473568039BE4E7304603
:1038900005B0BDE8F04F1847413700002DE9F0436F
:1038A00087B099420546BDF93840BDF83C6025D047
:1038B000A24212D00768DFF88080D7F81490C14583
:1038C00032D18DE850002846BC6AA0472B68DB6ADD
:1038D000434524D107B0BDE8F083994202DD084694
:1038E0001946034628680E96C46B01335B1A1BB257
:1038F0002846A44607B0BDE8F0436047A24202DD77
:10390000134622461C4628680E96631C846B9B1A3D
:103910001BB22846A44607B0BDE8F04360472846DE
:1039200007B0BDE8F0431847059304920391C847D8
:1039300003A92F680EC9C4E7413700002DE9F04FF5
:10394000D0F800E0DFF89090DEF814B083B0CB45FB
:103950000446BDF93080BDF834A00D4617461E461A
:1039600031D1CDF800A0DEF824B0294633463A46DE
:103970002046D8472368CDF800A008F1FF323A442A
:10398000D3F824B0294612B233462046D8472368DC
:10399000CDF800A02946D3F820B03A464346204649
:1039A000D8472068CDF800A0711E29444346056A17
:1039B00009B23A462046A8472368DB6A4B4506D140
:1039C00003B0BDE8F08FD847D4F800E0C9E720463F
:1039D00003B0BDE8F04F184741370000F0B40024B1
:1039E00001264FF6FF75094F07600471C475C48145
:1039F00004824476C4618675067685824582C180DC
:103A0000028141818281F0BC704700BF6883000061
:103A10002DE9F04F93B090460591C1691090BDF823
:103A200070000790BDF874909DF878A00493002969
:103A300000F0CD800A7A0AC9894604998A1AD2B25E
:103A400003EBC203BAF1010FDA780B9293F9052068
:103A50001E8893F802B00F9293F9064079D913B2F9
:103A6000099323B20C93109B1A68A94B1193194622
:103A700053698B4240F0A6800B9B002B55D01FFA58
:103A800088F300210D93C8462344DDF84090069149
:103A90000E930F460C46BBF1000F3FD0BDF8181037
:103AA0000C9B03971FFA8AF0CB1813FB00F30490CA
:103AB0000E9801440D98034409B21BB20A91089371
:103AC000002505E00135EBB264009B45E4B222D944
:103AD000039B2B44590703D1731C18F806409EB270
:103AE0002306EFD5099BBDF81000E91811FB00F182
:103AF0000598BAF1010F0FFA8AF301441CD0079818
:103B000001900093D26909B217464846089AB8470F
:103B1000D9F80020D6E7039F5F44FFB2069B0B99BC
:103B200001330693DBB29942B5D8D36A119A934216
:103B300043D113B0BDE8F08F0F9B191893690A9A0F
:103B400029441F4609B2079B4846B847D9F80020C8
:103B5000B8E700230C93099385E70A9A0D9B01327D
:103B6000013B52B213F0FF030A920D936FD1DDF8BF
:103B70001890079BDDF83C80DDF820A04B4517D05E
:103B8000BAF1010F00F0C8800B9A109DCDF8049097
:103B90000BEB8B014FEACB030A4400931146DEF88E
:103BA0001C405346424609B22846A047D5F800E0DB
:103BB000DEF82C30119A9342BBD0109813B0BDE8B8
:103BC000F04F1847109D284698472A6854E7109AE6
:103BD0000598B2F90A308342ABDDB2F90C304345A7
:103BE000A7DD062313FB0A03002BA2DD08EBCA03A3
:103BF000002B9EDD537E2BB9049BAF2B02D90133E2
:103C0000DBB20493109BD3F800E0414B11931A46AA
:103C1000DEF81430934240F08E801FFA88F30E9342
:103C200008339BB2BDF81420059305230D930023A0
:103C30000A93CDF83C800FFA8AF3DDF84080CDF886
:103C400018900B921FFA8AFBCDF820A099460A9A89
:103C5000BDF810000B9C0E9D0523194611FB002397
:103C60002C481146C75C039702FB0B4214FA81F300
:103C700012B21BB209920C932C462E461CE0089BF4
:103C80000999012B2AB24B4640462DD0079F019738
:103C9000CDF80090DEF81CA0D047D8F800E0039BD8
:103CA0005B0801340393059BA4B25D445E44A342C8
:103CB000ADB2B6B23FF451AF039BD807DFD4079B38
:103CC000069A9342EBD0089B012B16D0069B0193DA
:103CD000CDF80090DEF81CA009994B4632B2404660
:103CE000D047D8F800E0DAE7DEF818A0079B0C9977
:103CF00022B2D047D8F800E0D1E7DEF818A00C993E
:103D00001346404622B2D047D8F800E0C7E700BFCC
:103D100041370000B88300000B99109DCDF800904A
:103D20000531DEF8204009B2424608232846A04764
:103D3000D5F800E03CE7109C20469847D4F800E016
:103D40006BE700BFF0B5C36985B004462BB30A2901
:103D500068D00D294AD01A7A914247D3587A8842BE
:103D600044D35D688A1A05EBC205AA78002A50D0B0
:103D7000E87800284DD0207E00283AD095F905E05B
:103D8000B4F90E00A67DB4F90A70724406FB020273
:103D9000BA4262DCB4F9102030E00A2956D00D296D
:103DA00024D0027E002A4BD0B0F90E00A57DB4F9D4
:103DB0000A60062212FB0502B2423EDD228AE3813E
:103DC00002EBC50212B218462282A78A668A0295C1
:103DD0000B468DE8C00001462046FFF719FEA37D83
:103DE000E28903EB430302EB4303E381012005B0C7
:103DF000F0BDA67DB4F90E00B4F91020B4F814E0BB
:103E0000678A02960B468DE8804001462046FFF700
:103E1000FFFD2979E389A27D012001FB0233E381C3
:103E200005B0F0BD0022C2819A7A817D038A01FB30
:103E300002330382012005B0F0BDB4F91020C4E7BD
:103E4000857DB4F91020B0F90E00BEE7028A817DAD
:103E5000C38102EBC1030382C8E70020E0819B7AA3
:103E6000228A03FB062212B22282C7E7C1810282A4
:103E7000704700BF002908BF01218175704700BF4E
:103E800081824182704700BFC07D7047B0F90A004F
:103E9000704700BFB0F90C00704700BFF0B5C47D9B
:103EA000BDF81450022C75D0032C6ED0012C32D0EA
:103EB000002A79DBB0F90840944265DD002978DBFF
:103EC000B0F906605818B042C4BF731A1BB2002B79
:103ED0005ADD002A1046B8BFD01D012440F3CF00A0
:103EE00002F00702704E01EBC01104FA02F2A54283
:103EF0003144D2B200F0A480C0F09580022D43D1AD
:103F0000013B11FA83F04B1E13F8011F514083420D
:103F10001970F9D1F0BDC488013CA21A12B2002A6E
:103F20007BDBB0F9064094422EDD00293DDBB0F981
:103F300008605818B042C4BF731A1BB2002B23DDAF
:103F4000C9B2C808584C02EBC01211F00701DBB22D
:103F500004EB020039D0C1F10801C9B2534E8B42C3
:103F6000765C2AD2C3EB010EFF2747FA0EF7012D2C
:103F700006EA070674D06ED3022D40F09480A75C49
:103F80007E40A6548B421DD2F0BD0489E41A611A0A
:103F900009B2C4E70689C488013EB21AE41A12B213
:103FA000611A002A09B285DAF0BD0B441BB2002168
:103FB000BDE70B441BB2002182E7012D50D04AD34C
:103FC000022DDCD05B1ADBB28030072B18D9022D12
:103FD0004ED0A3F10806C6F3C406B11C00EBC11114
:103FE000012D0CBFFF24002400F1800202F8804C58
:103FF00080328A42FAD1013600EBC61003F0070383
:10400000002BC1D02A4A012DD35C2DD006D3022D1E
:10401000BAD1027853400370F0BDF0BD027822EAB5
:1040200003030370F0BD013BD24311FA83F0D2B217
:104030004B1E13F8011F114083421970F9D1F0BDD6
:10404000013B11FA83F04B1E13F8011F1143834209
:104050001970F9D1F0BDA75C27EA0606A65491E7CE
:10406000A75C3E43A6548DE7027813430370F0BD6E
:10407000A3F10805C5F3C405AC1C00EBC41400F1A2
:10408000800212F8801CC94302F8801C8032A242D0
:10409000F7D1013513F0070300EBC5103FF474AFFF
:1040A000034AD35CB5E7F0BDF807FF1FF007FF1F19
:1040B000E807FF1FF0B5C47DBDF81450022C76D080
:1040C000032C6FD0012C37D000297ADBB0F90640E1
:1040D0008C4230DD002A79DBB0F908609818B042D4
:1040E000C4BFB31A1BB2002B25DDD2B2D008754C69
:1040F00001EBC01112F00702DBB204EB010071D03A
:10410000C2F10802D2B2704E9342B65C62D2C3EBE7
:10411000020EFF2747FA0EF7012D06EA070600F008
:10412000AC80C0F0A580022D40F0CA80675C7E4064
:104130006654934253D2F0BDC488E41AA21A12B254
:10414000002977DBB0F908408C42F4DD002A39DB26
:10415000B0F906609818B042C4BFB31A1BB2002B66
:10416000E9DD00290846B8BFC81D012440F3CF008F
:1041700001F00701534E02EBC01004FA01F1A54211
:1041800006EB0002C9B268D05AD3022DD3D1013B4D
:1041900012FA83F0531E13F8012F4A4083421A701B
:1041A000F9D1F0BD0489013C611A09B2C8E7C6889B
:1041B0000489013E711AE41A09B2A21A002912B246
:1041C00084DAF0BD13441BB20022C1E713441BB2D2
:1041D000002281E7012D50D04AD3022DA6D09B1A90
:1041E000DBB28030072B18D9022D4ED0A3F1080680
:1041F000C6F3C406B11C00EBC111012D0CBFFF2496
:10420000002400F1800202F8804C80328A42FAD108
:10421000013600EBC61003F00703002B8BD02B4AAE
:10422000012DD35C2DD006D3022D84D102785340CA
:104230000370F0BDF0BD027822EA03030370F0BD05
:10424000013BC94312FA83F0C9B2531E13F8012F80
:104250000A4083421A70F9D1F0BD013B12FA83F093
:10426000531E13F8012F0A4383421A70F9D1F0BD8F
:10427000675C27EA060666545BE7675C3E43665464
:1042800057E7027813430370F0BDA3F10805C5F3A7
:10429000C405AC1C00EBC41400F1800111F8802CA3
:1042A000D24301F8802C8031A142F7D1013513F0BF
:1042B000070300EBC5103FF43EAF044AD35CB5E7FB
:1042C000F0BD00BFF807FF1FF007FF1FE807FF1F43
:1042D000F8B50D1E06DB14461F460646FFF7D6FD51
:1042E000854200DBF8BD002CFCDB3046FFF7D2FD39
:1042F0008442F7DA3046FFF7C7FD02284BD0032887
:1043000043D0012804D1F388013B1B1B2C461DB26E
:10431000012F03D026D3022F12D0F8BD002C234644
:10432000B8BFE31D43F3CF0305EBC3151E4804F0EC
:104330000704435D012101FA04F41C434455F8BD10
:10434000002C2346B8BFE31D43F3CF0305EBC31591
:10435000154804F00704435D012101FA04F45C40B0
:104360004455F8BD002C2346B8BFE31D43F3CF03EB
:1043700005EBC3150C4804F00704435D012101FA65
:1043800004F423EA04044455F8BD3389013B5B1B64
:1043900025461CB2BCE7F18832890139013A4D1B30
:1043A000141B2DB224B2B3E7F807FF1F2DE9F84321
:1043B000044699460D4616469DF920709DF92480C5
:1043C00040228021FFF70AFB084A84F8249000234A
:1043D00084F8268084F8257084F8236084F82250BD
:1043E000226084F827302046BDE8F883C0880000AA
:1043F0004FF480620021014803F07ABAF807FF1FEA
:1044000070B590F9223001334BD0026B90F83A30FE
:10441000147823431370426B90F83B40137823EADF
:1044200004031370026B90F83A40137823EA0403F4
:10443000137090F827301BBB082480220FE090F8FF
:1044400038302E7833432B70C56A90F839302E7887
:10445000013C43EA06034FEA52022B701AD0C56AA8
:1044600090F839602B7823EA06032B701142856A95
:10447000E5D190F838602B7823EA06032B70E3E748
:10448000154B1A684FF00043D3625163D36A002B77
:10449000FCDA936B026B90F83A3011780B4313708F
:1044A00070BD0E4D90F8203001260C465B0028466A
:1044B000002185F83B3085F85E6085F85D6000F08E
:1044C00089FC2146284600F085FC31462846BDE897
:1044D000704000F075BD00BFF80BFF1F9C0CFF1F64
:1044E0002DE9F0410E4690F9221080F8202001318C
:1044F000044680F82160984600F0BF80012190F8C2
:104500002400954F00F0E2FF012194F8260000F00E
:10451000DDFF94F9263094F9242057F833302363D3
:10452000012584F83A5094F8273057F83220626316
:1045300084F83B50002B00F0D180884D284600F0D5
:104540006FFAEB7A002B40F0E7802B68844AD96839
:10455000914206D0834D844884491D60DA60186119
:104560001960B8F1000F1CD094F92500002818DB61
:10457000C0B2012100F0AAFF012194F8250000F04B
:104580009FFF012000F0A8FF002194F8250000F013
:1045900097FF0A2000F0A0FF012194F8250000F009
:1045A0008FFFAE212046FFF72BFFD5212046FFF7D6
:1045B00027FF80212046FFF723FFA8212046FFF791
:1045C0001FFF3F212046FFF71BFFD3212046FFF7A7
:1045D00017FF00212046FFF713FF40212046FFF779
:1045E0000FFF8D212046FFF70BFF012E49D014212C
:1045F0002046FFF705FF20212046FFF701FF00219D
:104600002046FFF7FDFEA1212046FFF7F9FEC82155
:104610002046FFF7F5FEDA212046FFF7F1FE1221D2
:104620002046FFF7EDFE81212046FFF7E9FECF216E
:104630002046FFF7E5FED9212046FFF7E1FEF121F4
:104640002046FFF7DDFE2046DB21FFF7D9FE20469E
:104650004021FFF7D5FE2046A421FFF7D1FE2046DA
:10466000A621FFF7CDFE20462E21FFF7C9FE2046EA
:10467000AF21BDE8F041FFF7C3BE3D4800F0BEFBEF
:104680006FE720461021FFF7BBFE20462021FFF7F1
:10469000B7FE20460021FFF7B3FE2046A121FFF719
:1046A000AFFE2046C821FFF7ABFE2046DA21FFF718
:1046B000A7FE20461221FFF7A3FE20468121FFF727
:1046C0009FFE20469F21FFF79BFE2046D921FFF742
:1046D00097FE22212046FFF793FEB4E7294694F87F
:1046E000220000F0F3FE294694F8230000F0EEFECD
:1046F00094F9233094F9222057F83330E36284F898
:10470000395094F8273057F83220A26284F8385094
:10471000002B3FF426AF10E772B6EB7AD8071A46A3
:1047200006D51449EA6808680240AA610A601A4678
:10473000990706D510492B690868EA7A0340EB61AE
:104740000B60530705D50D4A6B6911680B402B624E
:10475000136062B6F9E600BF9C8A0000F80BFF1FE9
:104760000110003801401F000110007800001F8078
:104770009C0CFF1F80E100E084E100E088E100E0A4
:104780002DE9F84321210446FFF73AFE2046002197
:10479000FFF736FE20467F21FFF732FE204622211A
:1047A000FFF72EFE20460021FFF72AFE20460721B4
:1047B000FFF726FE94F92230013359D0226B94F88A
:1047C0003A3011783E4DDFF804E10B431370626B11
:1047D00094F83B3011780B431370226B94F83A1025
:1047E000137823EA0103137005F580664FF0004744
:1047F00094F8273015F801CF3BBB0821802212E046
:1048000094F8383090F8008048EA03030370E06AB7
:1048100094F8393090F80080013948EA03034FEAF0
:10482000520203701AD0E06A94F83980037823EAC0
:10483000080303701CEA020FA06AE1D194F83880E3
:10484000037823EA08030370E1E7DEF80020D7626B
:10485000C2F834C0D36A002BFCDA936BB542C7D1DF
:10486000226B94F83A3011780B431370BDE8F8834B
:10487000DFF85480134F00254FF0010994F82030E1
:10488000114888F85E905B00402188F83B3088F83A
:104890005D9000F09FFA05F11006B6B2795D0A4806
:1048A0000135ADB200F096FAB542F7D101210648C4
:1048B00000F086FBB5F5806FE0D1BDE8F88300BF5E
:1048C000F707FF1FF807FF1F9C0CFF1FF80BFF1FC8
:1048D00010B4047F4160022CC26003D05DF8044B29
:1048E00001F0D4BD83685DF8044B1847F0B4464B23
:1048F000464A186BDC6A01791170454922790A70C1
:104900009A6A00790870002A46D05968C9688A42B4
:104910003ED82168CC8B240402F1FF3065D4C0F36B
:104920000E00C883C88B80B2C882196B0968C88B17
:10493000000452D4C2F30E00C883C88B002480B296
:1049400012F1FF32C88218BF01229C62D96A2E4838
:1049500009680D6800F12404A54236D00068C468D7
:1049600014F0804F0C680D6815BF24882478023538
:10497000013544F000440D604463196B254B0979FF
:104980001970214912B1CA6A12791A70F0BC7047C5
:10499000521A9A620122D9E7586B196805681E4CB1
:1049A0000A63CC62CC682D681C4E24F08044032737
:1049B000B542CC6083F825701FD1037F4260022B83
:1049C000C2601ED0F0BC01F061BD016890F8240007
:1049D000CC6840F000404863CFE7CC8BC2F30800BE
:1049E00004F47E442043C883A7E7CC8BC0F30800BF
:1049F00004F47E442043C88394E72B461146F0BC60
:104A000018478368F0BC1847F80BFF1F1F80004051
:104A10001C8000401B80004000000FFFD1480000B8
:104A200090E80C00F0B41C6859682568164F174EC2
:104A300029432160164D17491760D6601561116032
:104A4000417A154A5C180C3194F82C4053F82150E7
:104A500002EBC40149680D60017A5C1803EB810127
:104A6000247ECD6902EBC40149680D60817A581833
:104A700003EB810390F84000596C02EBC002F0BCDC
:104A800053681960704700BF01401F0001100038D3
:104A90000110007800001F809C8A000001F08CBB90
:104AA00001F0AEBB01F0C4BB074882B003680193BC
:104AB000019A114401E0994204D303680093009BDA
:104AC0009A42F8D902B07047301AFF1F10B4104A4A
:104AD00085B0A1B9136800934168009B591A312928
:104AE0000DD813680293029C04F13203591A01E0B5
:104AF000994204D313680193019B9C42F8D913682F
:104B00000393039B4360012005B05DF8044B70479D
:104B1000301AFF1F704700BF2DE9F0410D4D0E4EBA
:104B2000DFF83C800D4F41641B2401E000F0D4FC11
:104B30002B78C82043B133789B0705D0D8F80030D4
:104B40003A689B1A182B03D8013CEFD1BDE8F081DD
:104B5000BDE8F081141BFF1F2C1BFF1F941EFF1FBD
:104B6000301AFF1F00238364436071B1074882B08D
:104B700003680193019A114401E0994204D3036848
:104B80000093009B9A42F8D902B07047301AFF1F79
:104B900070B5144C84B00546406C236803930368D9
:104BA000039A6A600E465B680F49062298473146B1
:104BB00000230A22686C01F0A7FD686C0B490368AA
:104BC00008225B68984723680293029A02F1320137
:104BD00001E0994204D323680193019B9A42F8D9DA
:104BE00004B070BD301AFF1FBC890000C4890000EA
:104BF000F8B5037E0BB96320F8BD0446406C3B4E0C
:104C000003681B69B3420D466AD101F011FB10F035
:104C1000FF0F01D16520F8BD354F606C03681B693B
:104C2000B3425FD101F004FB10F0FF0FF2D0606CD3
:104C300003685B69BB4257D101F0BEFAC3B2A3F16E
:104C400058021E2AE9D801A151F822F0D94C0000DF
:104C50001B4C00001B4C00001B4C00001B4C0000B8
:104C60001B4C00001B4C00001B4C00001B4C0000A8
:104C70001B4C00001B4C0000CD4C00001B4C0000E6
:104C80001B4C00001B4C00001B4C0000F74B0000AD
:104C90001B4C00001B4C00001B4C00001B4C000078
:104CA0001B4C00001B4C00001B4C00001B4C000068
:104CB000F74B00001B4C00001B4C00001B4C00007D
:104CC0001B4C0000C94C00001846F8BD2046294680
:104CD000FFF75EFF6320F8BD002323766320F8BD55
:104CE000984794E798479FE79847A7E7A54A0000A9
:104CF0009D4A000070B5054682B01646C9B1012331
:104D00000D4C037600212846FFF772FF632810D070
:104D100023680193019A511C23680093009B9A42D7
:104D2000F0D89942F8D200212846FFF761FF6328A6
:104D3000EED12E7602B070BD301AFF1F034B002259
:104D40009A60DA601A615A61704700BFE019FF1F6C
:104D500090F8392090F83800101A704790F83830E1
:104D600090F839209A4205D95A1C034480F838201B
:104D7000187E70474FF0FF30704700BF90F8383012
:104D800090F839209A4286BF1B18187E4FF0FF30EA
:104D9000704700BF704700BF38B50546B0F85E00E9
:104DA00090B195F85D301446C3F1210294420CD8BD
:104DB00005F13B001844224600F0AEF995F85D304D
:104DC000234485F85D30204638BD01201446287103
:104DD000EEE700BFB0F85E306BB190F85D30202B8D
:104DE00007D8C218013380F85D30012082F83B10EB
:104DF0007047012303710020704700BF0023426900
:104E000080F8383080F8393080F85C3080F85D30D8
:104E100080F85E3080F85F3006CA30B40D680469EF
:104E200043662A4383660A60A370426990F8613042
:104E30001649146813441D7A5B7B01EBC5051B0200
:104E40006D6803F4E06343F064032B6090F8623014
:104E500013449D7CDB7D01EBC5011B02496803F413
:104E6000E06343F064030B6021685368194205D086
:104E700003692C225A70036904229A710369202263
:104E80005A71036980229A7030BC70479C8A000076
:104E900038B50269D478E4B2E106054624D510237A
:104EA000D37063061FD504F0040404F0FF03002C44
:104EB0005AD042496A6E00230B7085F85D30002A93
:104EC00066D0904795F85D30002B61D02B69D022D9
:104ED0009A702B6995F83B201A712B69012285F88D
:104EE0005C200222DA7038BD04F0400303F0FF00BA
:104EF000002BD8D19379DBB203F0600160294ED04A
:104F0000937803F0100303F0FF01B3B114F0010430
:104F100037D195F85C3095F85D1099424BD9591C02
:104F20002B4485F85C1093F83B3013712B69D02229
:104F30009A702B690222DA70D5E785F860109379B0
:104F400043F0200393712B6995F839101A791F29C2
:104F5000D2B2C6D8194800780028C2D068180131EA
:104F600085F839100276BCE72A6985F83930C02304
:104F700093702B69114A1979012111700222DA709C
:104F8000B1E7C02393702B691A790222DA70AAE77D
:104F90000122002385F85D2085F83B3096E703F079
:104FA000DF039371AB6E23B185F8380095F83900B3
:104FB00098472A69A4E71471B8E700BF2C1AFF1FAD
:104FC000F0B503691222DA700269937805469806F3
:104FD00087B051D5B423464C937023680293029E48
:104FE0002A6905E023680393039B9B1B042B5AD873
:104FF000D37803F0200303F0FF00002BF2D095F8E4
:105000005D30002B31D04FF0000E4FF0020C05EB5D
:105010000E0393F83B30137123680493049F2869AF
:1050200007E09B060DD523680593059BDB1B052B2D
:1050300040D8C378DBB203F0020202F0FF06002A78
:10504000EFD080F803C02E69F378DBB2DF0632467A
:105050003FD49F063DD5DB0743D40EF1010E95F8F2
:105060005D305FFA8EFE7345D1D80020002934D11F
:10507000002385F85E301BE01D4C23680093009EE2
:1050800005E023680193019B9B1B0F2B19D8D37854
:1050900003F0200303F0FF00002BF2D1B02385F8CA
:1050A0005F00937099E790702B6980229A700420BA
:1050B00007B0F0BD86702B69802204209A7007B07B
:1050C000F0BD002393702B69802204209A7007B0F2
:1050D000F0BD8023B3700420C8E72E698023B3702D
:1050E000C6E7BEF1000F0CBF02200320F6E700BFA9
:1050F000301AFF1F0148FFF7CBBE00BF9C0CFF1FFB
:105100000148FFF7C5BE00BF080DFF1F0148FFF7AC
:10511000BFBE00BF300CFF1F844641EA000313F0FE
:1051200003036DD1403A41D351F8043B40F8043BAE
:1051300051F8043B40F8043B51F8043B40F8043B71
:1051400051F8043B40F8043B51F8043B40F8043B61
:1051500051F8043B40F8043B51F8043B40F8043B51
:1051600051F8043B40F8043B51F8043B40F8043B41
:1051700051F8043B40F8043B51F8043B40F8043B31
:1051800051F8043B40F8043B51F8043B40F8043B21
:1051900051F8043B40F8043B51F8043B40F8043B11
:1051A00051F8043B40F8043B403ABDD2303211D3B1
:1051B00051F8043B40F8043B51F8043B40F8043BF1
:1051C00051F8043B40F8043B51F8043B40F8043BE1
:1051D000103AEDD20C3205D351F8043B40F8043BB1
:1051E000043AF9D2043208D0D2071CBF11F8013BAF
:1051F00000F8013B01D30B8803806046704700BF75
:10520000082A13D38B078DD010F003038AD0C3F183
:105210000403D21ADB071CBF11F8013B00F8013B65
:1052200080D331F8023B20F8023B7BE7043AD9D324
:10523000013A11F8013B00F8013BF9D20B780370F9
:105240004B7843708B7883706046704708B5104C7C
:1052500008E0236859050DD423681A050FD4236884
:10526000DB0411D423685803F3D500F0CFFA236888
:105270005905F1D501F08CFC23681A05EFD501F032
:105280001DFD2368DB04EDD501F0AEFDEAE700BFAC
:105290003480044008B5FFF7D9FF00BF014B10224E
:1052A0001A80704700200540704700BF094908B5C3
:1052B0000B6830B16A461844A2F50052904202D2FF
:1052C0000860184608BD01F0B9FF0C2303604FF0D9
:1052D000FF3008BD740DFF1FFEE700BF704700BF21
:1052E00010B4114B53F8302092F8804234B10123AE
:1052F00079B182F880305DF8044B704703EBC0034E
:105300005B681A6851B922F002021A605DF8044B1A
:10531000704782F800315DF8044B704742F0030299
:105320001A605DF8044B70479C8A00001C4A02EB2F
:10533000C00301295B6811D004291BD052F830004A
:10534000002280F8802229B1022920D0032922D00E
:105350001A6070474FF480721A60704752F830003C
:105360004FF4A27280F880121A601A6822F02002AC
:105370001A60704752F830104FF4A272012081F881
:1053800080021A601A6842F020021A60704740F2E8
:1053900003121A6070474FF481721A60704700BFA1
:1053A0009C8A00003F2817D8F8B5042A13D8DFE8F4
:1053B00002F0494C4F1446002C4872B6236823F47F
:1053C000702343F08072C4F384011643236040F8D5
:1053D0002150266062B6F8BD70474FF41026244B6A
:1053E00003EBC0030D465C68216811F4E06134D022
:1053F000204B214A2149C3F82C2104F14042204886
:10540000C3F83411A2F592211E4FC3F830017C2954
:105410001D48C3F83871C3F83C01CDD9A2F59423D7
:105420007C2B18D9A2F596237C2B19D9A2F59823A9
:105430007C2B17D9A2F59A227C2A15D9F8BD4FF4F6
:105440003026CCE74FF40026C9E74FF44026C6E7E4
:105450004FF42026C3E70D48AFE7FFF767FFC7E724
:105460000B48AAE70B48A8E70B48A6E7780DFF1FF3
:105470009C8A00000002FF1FA907FF1F5107FF1FA2
:105480007D07FF1F2507FF1FF906FF1FF00DFF1FF8
:10549000500EFF1F800EFF1FC00EFF1F30B4054BC4
:1054A000054D064C002210211A602A602060196008
:1054B00030BC704714D0034004D0034000D00340F8
:1054C0003F2801D8FFF70CBF704700BF3F2801D825
:1054D000FFF72CBF704700BF2DE9F843054672B6B1
:1054E000204F214B214A1B683C68126862B652016A
:1054F00002D5322B88BF013495B3C3F5EA331C4E75
:10550000DFF86490DFF86480BF334FF47A72A6FB53
:10551000031302FB04F404EB931472B6D9F80010E1
:105520003A68D8F800E062B6C1F5EA33BF33A6FBAB
:1055300003031EF0806FC4EB93134FF47A7002D014
:10554000322988BF013200FB0233B3F57A7F04D3DE
:10555000013D05D004F57A74DFE701F0FFF9DCE7DF
:10556000BDE8F883301AFF1F18E000E004ED00E00A
:1055700089888888F8B53E4B3E49DFF818C13E4E11
:105580003E4ADFF814E13E4D3E4C3F4F4FF0006085
:1055900018604FF0805018604FF0005018604FF0C6
:1055A000804018604FF000401860002008602823F9
:1055B0004EF6FF71CCF80010CEF8003033600EF5D7
:1055C000012E13602B60236005F500253B6004F578
:1055D0000024B36207F50027936206F5012602F561
:1055E00001220EF1100E05F6E87504F6E87407F5D1
:1055F0007F67103220362B602360CEF800303B608E
:1056000013603360214EBB61936109223260A7F5BC
:10561000002706F58056203F083638603160BB60B1
:10562000F36047F8042C06F5FD2607F5FE2706F281
:10563000FC76043730603960B360FB6046F8042CB8
:105640000836C7F8FC0F06F6FC76114831602B606F
:105650002360026001F0E4F93220FFF73DFF00F023
:1056600001FD4FF4AF70BDE8F840FFF735BF00BF54
:1056700004E100E004800340148003401C800340E8
:10568000248003402C80034034800340008003408A
:1056900000900B40088003400C800340431E032B06
:1056A00014D872B60A4951F8230068B170B4094C95
:1056B000058834F81320466841F82360521B24F80B
:1056C000132062B670BC704762B670470020704706
:1056D0008C1AFF1F841EFF1F013803280BD872B6D7
:1056E000074B53F8203043B100205B680130002B9A
:1056F000FBD162B67047002070471846F9E700BF3B
:10570000E01AFF1FF0B472B61A491B4E012311F8BC
:10571000014B194F9A00240742F0010505D556F8B0
:10572000324064B156F83520BAB10133052BEED1C1
:1057300062B6124B00221A70F0BC00F017BD0F4C7D
:105740000F4D217847F8325007EB431308304A1EBB
:105750005860227062B6F0BC70470849094B0A785D
:1057600047F8353007EBC5030830013A58600A7036
:1057700062B6F0E7C88C00000000FF1F091BFF1F86
:1057800088004000C8004000431E032B1DD81B4A60
:10579000400140F0100030B4104472B6184CE25C86
:1057A000032A1BD8DFE802F00212151703220D8826
:1057B000E25410F0080F14BFC823882343EA0543BE
:1057C00008310360416062B630BC70470830022285
:1057D000EDE70522EBE708300422E8E7094A52F832
:1057E000230038B1084A52F82300416042F82310E0
:1057F00062B6E9E742F82310034AF7E70000FF1F0B
:10580000181BFF1FE01AFF1FF01AFF1F2DE9F04FB2
:10581000DFF804A3DFF804B387B044E0A94F4FEAF0
:10582000930807EBC809013ED9F8042003F00803E8
:10583000F6B2A2F1080003F0FF04002B40F0FE8056
:1058400057F838301B0C99B222F8081C002B00F0D6
:10585000EC809D4B22F8064C42F8044C53F826206D
:10586000002A00F02B82994D55F826305860984C4C
:1058700045F8260034F81630194424F8161000F0C4
:1058800055FC002800F01382924A934B19F0080F40
:1058900000F1080018BF1346C9F8040047F8383073
:1058A00008238AF800309AF80040E4B260071AD55D
:1058B0008A4B1B78A3B18A490A7802F0FF0322B110
:1058C000013BDBB20B7003B900BE86490A7802F0D7
:1058D000FF032AB1013BDBB20B70002B00F0BD814E
:1058E00004238AF8003004F0080303F0FF02002BC1
:1058F00000F0C8809BF80030DBB21E098ED19C08F6
:10590000704F57F8342007EBC401C2F38302013A09
:1059100049680C2A00F28580DFE802F079798383F8
:105920008383838342838383070008686E4B6F4DB4
:105930000193684B4A686E4E47F8343081B240F2AA
:105940008164694B6A60286000220120A1421A60CC
:105950003A61BA61307000F2E380B1F5D06F80F047
:105960002782B1F5817F00F0E08100F2C3818029B8
:1059700000F03682822940F0DE81A9885D4B01F07B
:105980007F01042900F2D8815B4C89000B4422700E
:1059900062701A78930740F122832070022023E27C
:1059A000514B01931A683AB3544B514E54491888DD
:1059B00034780D784028864645F0020828BF4FF01D
:1059C000400E002C84F001043470CEEB00000CBFBC
:1059D0008824C82407EBC80680B285F0010544EA94
:1059E0000E447260188047F8384072440D700028E9
:1059F00000F0B780019B1A603C4B1A88B2F5A06F8B
:105A00000FD100219A7859703E4B1A7009E0374A3D
:105A1000108842F22102904200F0A8802D4A47F8F7
:105A20003420394A012313703AE72A4A2A4B19F0E5
:105A3000080F18BF134647F8383031E700F096FBDF
:105A4000324A334952F82630002B00F03B81586827
:105A50008C5D42F8260003F10802C9F80420032CEB
:105A600005D8DFE804F02C02292602228A551A887C
:105A700019F0080F0CBF8823C82343EA024347F8F4
:105A800038300DE7E00700F1EB80210600F12881B6
:105A9000A20706D51F4A204913780220DBB21370F3
:105AA0000870E30602D51C4B10221A7007B0BDE83F
:105AB000F08F04228A55DAE705228A55D7E70322B8
:105AC0008A55D4E70000FF1F8C1AFF1F381AFF1FEA
:105AD000841EFF1FC800400088004000141BFF1FE9
